{
  "contractName": "Cash",
  "abi": [
    {
      "constant": true,
      "inputs": [],
      "name": "name",
      "outputs": [
        {
          "name": "",
          "type": "string"
        }
      ],
      "payable": false,
      "stateMutability": "view",
      "type": "function"
    },
    {
      "constant": false,
      "inputs": [
        {
          "name": "spender",
          "type": "address"
        },
        {
          "name": "tokens",
          "type": "uint256"
        }
      ],
      "name": "approve",
      "outputs": [
        {
          "name": "",
          "type": "bool"
        }
      ],
      "payable": false,
      "stateMutability": "nonpayable",
      "type": "function"
    },
    {
      "constant": true,
      "inputs": [],
      "name": "totalSupply",
      "outputs": [
        {
          "name": "",
          "type": "uint256"
        }
      ],
      "payable": false,
      "stateMutability": "view",
      "type": "function"
    },
    {
      "constant": true,
      "inputs": [],
      "name": "issuer",
      "outputs": [
        {
          "name": "",
          "type": "address"
        }
      ],
      "payable": false,
      "stateMutability": "view",
      "type": "function"
    },
    {
      "constant": true,
      "inputs": [
        {
          "name": "",
          "type": "address"
        },
        {
          "name": "",
          "type": "bytes32"
        }
      ],
      "name": "deposits",
      "outputs": [
        {
          "name": "",
          "type": "bytes16"
        }
      ],
      "payable": false,
      "stateMutability": "view",
      "type": "function"
    },
    {
      "constant": true,
      "inputs": [
        {
          "name": "",
          "type": "address"
        }
      ],
      "name": "balances",
      "outputs": [
        {
          "name": "",
          "type": "bytes16"
        }
      ],
      "payable": false,
      "stateMutability": "view",
      "type": "function"
    },
    {
      "constant": true,
      "inputs": [],
      "name": "decimals",
      "outputs": [
        {
          "name": "",
          "type": "uint8"
        }
      ],
      "payable": false,
      "stateMutability": "view",
      "type": "function"
    },
    {
      "constant": true,
      "inputs": [
        {
          "name": "tokenOwner",
          "type": "address"
        }
      ],
      "name": "balanceOf",
      "outputs": [
        {
          "name": "",
          "type": "uint256"
        }
      ],
      "payable": false,
      "stateMutability": "view",
      "type": "function"
    },
    {
      "constant": false,
      "inputs": [],
      "name": "renounceOwnership",
      "outputs": [],
      "payable": false,
      "stateMutability": "nonpayable",
      "type": "function"
    },
    {
      "constant": true,
      "inputs": [],
      "name": "owner",
      "outputs": [
        {
          "name": "",
          "type": "address"
        }
      ],
      "payable": false,
      "stateMutability": "view",
      "type": "function"
    },
    {
      "constant": true,
      "inputs": [],
      "name": "isOwner",
      "outputs": [
        {
          "name": "",
          "type": "bool"
        }
      ],
      "payable": false,
      "stateMutability": "view",
      "type": "function"
    },
    {
      "constant": true,
      "inputs": [],
      "name": "symbol",
      "outputs": [
        {
          "name": "",
          "type": "string"
        }
      ],
      "payable": false,
      "stateMutability": "view",
      "type": "function"
    },
    {
      "constant": false,
      "inputs": [
        {
          "name": "receiver",
          "type": "address"
        },
        {
          "name": "tokens",
          "type": "uint256"
        }
      ],
      "name": "transfer",
      "outputs": [
        {
          "name": "",
          "type": "bool"
        }
      ],
      "payable": false,
      "stateMutability": "nonpayable",
      "type": "function"
    },
    {
      "constant": true,
      "inputs": [
        {
          "name": "tokenOwner",
          "type": "address"
        },
        {
          "name": "spender",
          "type": "address"
        }
      ],
      "name": "allowance",
      "outputs": [
        {
          "name": "",
          "type": "uint256"
        }
      ],
      "payable": false,
      "stateMutability": "view",
      "type": "function"
    },
    {
      "constant": false,
      "inputs": [
        {
          "name": "newOwner",
          "type": "address"
        }
      ],
      "name": "transferOwnership",
      "outputs": [],
      "payable": false,
      "stateMutability": "nonpayable",
      "type": "function"
    },
    {
      "payable": true,
      "stateMutability": "payable",
      "type": "fallback"
    },
    {
      "anonymous": false,
      "inputs": [
        {
          "indexed": false,
          "name": "currency",
          "type": "bytes32"
        },
        {
          "indexed": false,
          "name": "value",
          "type": "bytes16"
        }
      ],
      "name": "ViaCashIssued",
      "type": "event"
    },
    {
      "anonymous": false,
      "inputs": [
        {
          "indexed": false,
          "name": "currency",
          "type": "bytes32"
        },
        {
          "indexed": false,
          "name": "value",
          "type": "bytes16"
        }
      ],
      "name": "ViaCashRedeemed",
      "type": "event"
    },
    {
      "anonymous": false,
      "inputs": [
        {
          "indexed": true,
          "name": "previousOwner",
          "type": "address"
        },
        {
          "indexed": true,
          "name": "newOwner",
          "type": "address"
        }
      ],
      "name": "OwnershipTransferred",
      "type": "event"
    },
    {
      "anonymous": false,
      "inputs": [
        {
          "indexed": true,
          "name": "tokenOwner",
          "type": "address"
        },
        {
          "indexed": true,
          "name": "spender",
          "type": "address"
        },
        {
          "indexed": false,
          "name": "tokens",
          "type": "uint256"
        }
      ],
      "name": "Approval",
      "type": "event"
    },
    {
      "anonymous": false,
      "inputs": [
        {
          "indexed": true,
          "name": "from",
          "type": "address"
        },
        {
          "indexed": true,
          "name": "to",
          "type": "address"
        },
        {
          "indexed": false,
          "name": "tokens",
          "type": "uint256"
        }
      ],
      "name": "Transfer",
      "type": "event"
    },
    {
      "constant": false,
      "inputs": [
        {
          "name": "sender",
          "type": "address"
        }
      ],
      "name": "initialize",
      "outputs": [],
      "payable": false,
      "stateMutability": "nonpayable",
      "type": "function"
    },
    {
      "constant": false,
      "inputs": [
        {
          "name": "_name",
          "type": "string"
        },
        {
          "name": "_type",
          "type": "string"
        },
        {
          "name": "_owner",
          "type": "address"
        },
        {
          "name": "_oracle",
          "type": "address"
        },
        {
          "name": "_token",
          "type": "address"
        }
      ],
      "name": "initialize",
      "outputs": [],
      "payable": false,
      "stateMutability": "nonpayable",
      "type": "function"
    },
    {
      "constant": false,
      "inputs": [
        {
          "name": "sender",
          "type": "address"
        },
        {
          "name": "receiver",
          "type": "address"
        },
        {
          "name": "tokens",
          "type": "uint256"
        }
      ],
      "name": "transferFrom",
      "outputs": [
        {
          "name": "",
          "type": "bool"
        }
      ],
      "payable": false,
      "stateMutability": "nonpayable",
      "type": "function"
    },
    {
      "constant": false,
      "inputs": [
        {
          "name": "tokens",
          "type": "bytes16"
        },
        {
          "name": "sender",
          "type": "address"
        }
      ],
      "name": "addToBalance",
      "outputs": [
        {
          "name": "",
          "type": "bool"
        }
      ],
      "payable": false,
      "stateMutability": "nonpayable",
      "type": "function"
    },
    {
      "constant": false,
      "inputs": [
        {
          "name": "tokens",
          "type": "bytes16"
        },
        {
          "name": "receiver",
          "type": "address"
        }
      ],
      "name": "deductFromBalance",
      "outputs": [
        {
          "name": "",
          "type": "bytes16"
        }
      ],
      "payable": false,
      "stateMutability": "nonpayable",
      "type": "function"
    },
    {
      "constant": false,
      "inputs": [
        {
          "name": "amount",
          "type": "bytes16"
        },
        {
          "name": "buyer",
          "type": "address"
        },
        {
          "name": "currency",
          "type": "bytes32"
        }
      ],
      "name": "issue",
      "outputs": [
        {
          "name": "",
          "type": "bool"
        }
      ],
      "payable": false,
      "stateMutability": "nonpayable",
      "type": "function"
    },
    {
      "constant": false,
      "inputs": [
        {
          "name": "txId",
          "type": "bytes32"
        },
        {
          "name": "result",
          "type": "bytes16"
        },
        {
          "name": "rtype",
          "type": "bytes32"
        }
      ],
      "name": "convert",
      "outputs": [],
      "payable": false,
      "stateMutability": "nonpayable",
      "type": "function"
    }
  ],
  "bytecode": "0x60806040526167a6806100136000396000f3fe6080604052600436106101355760003560e01c8063715018a6116100ab57806395d89b411161006f57806395d89b4114610514578063a9059cbb14610529578063c4d66de814610562578063db0ed6a014610595578063dd62ed3e146106e9578063f2fde38b1461072457610135565b8063715018a614610449578063880dee201461045e5780638da5cb5b146104a15780638f32d59b146104b65780638f794529146104cb57610135565b80632260a9c2116100fd5780632260a9c2146102dc57806323b872dd1461033257806327e235e314610375578063313ce567146103a8578063520c8d50146103d357806370a082311461041657610135565b806306fdde031461016b578063095ea7b3146101f557806318160ddd146102425780631d1438481461026957806321f68b4e1461029a575b3461013f57600080fd5b361561014a57600080fd5b61016861015634610757565b33600160d91b6432ba3432b9026107bd565b50005b34801561017757600080fd5b50610180611753565b6040805160208082528351818301528351919283929083019185019080838360005b838110156101ba5781810151838201526020016101a2565b50505050905090810190601f1680156101e75780820380516001836020036101000a031916815260200191505b509250505060405180910390f35b34801561020157600080fd5b5061022e6004803603604081101561021857600080fd5b506001600160a01b0381351690602001356117e1565b604080519115158252519081900360200190f35b34801561024e57600080fd5b50610257611869565b60408051918252519081900360200190f35b34801561027557600080fd5b5061027e611881565b604080516001600160a01b039092168252519081900360200190f35b3480156102a657600080fd5b506102da600480360360608110156102bd57600080fd5b508035906001600160801b03196020820135169060400135611890565b005b3480156102e857600080fd5b50610315600480360360408110156102ff57600080fd5b506001600160a01b038135169060200135611d1e565b604080516001600160801b03199092168252519081900360200190f35b34801561033e57600080fd5b5061022e6004803603606081101561035557600080fd5b506001600160a01b03813581169160208101359091169060400135611d3e565b34801561038157600080fd5b506103156004803603602081101561039857600080fd5b50356001600160a01b03166124ef565b3480156103b457600080fd5b506103bd612504565b6040805160ff9092168252519081900360200190f35b3480156103df57600080fd5b50610315600480360360408110156103f657600080fd5b5080356001600160801b03191690602001356001600160a01b0316612514565b34801561042257600080fd5b506102576004803603602081101561043957600080fd5b50356001600160a01b03166127b9565b34801561045557600080fd5b506102da6127de565b34801561046a57600080fd5b5061022e6004803603604081101561048157600080fd5b5080356001600160801b03191690602001356001600160a01b0316612884565b3480156104ad57600080fd5b5061027e612aa6565b3480156104c257600080fd5b5061022e612ab5565b3480156104d757600080fd5b5061022e600480360360608110156104ee57600080fd5b506001600160801b0319813516906001600160a01b0360208201351690604001356107bd565b34801561052057600080fd5b50610180612adb565b34801561053557600080fd5b5061022e6004803603604081101561054c57600080fd5b506001600160a01b038135169060200135612b36565b34801561056e57600080fd5b506102da6004803603602081101561058557600080fd5b50356001600160a01b0316612c5c565b3480156105a157600080fd5b506102da600480360360a08110156105b857600080fd5b8101906020810181356401000000008111156105d357600080fd5b8201836020820111156105e557600080fd5b8035906020019184600183028401116401000000008311171561060757600080fd5b91908080601f016020809104026020016040519081016040528093929190818152602001838380828437600092019190915250929594936020810193503591505064010000000081111561065a57600080fd5b82018360208201111561066c57600080fd5b8035906020019184600183028401116401000000008311171561068e57600080fd5b91908080601f016020809104026020016040519081016040528093929190818152602001838380828437600092019190915250929550506001600160a01b03833581169450602084013581169360400135169150612d519050565b3480156106f557600080fd5b506102576004803603604081101561070c57600080fd5b506001600160a01b0381358116916020013516612e65565b34801561073057600080fd5b506102da6004803603602081101561074757600080fd5b50356001600160a01b0316612e99565b600081610766575060006107b8565b81600061077282612f01565b9050607081101561078b578060700382901b915061079e565b607081111561079e576070810382901c91505b613fff0160701b6001600160701b03919091161760801b90505b919050565b606a5460408051600160e01b63f429f19b02815233600482015290516000926001600160a01b03169163f429f19b916024808301926020929190829003018186803b15801561080b57600080fd5b505afa15801561081f573d6000803e3d6000fd5b505050506040513d602081101561083557600080fd5b5051600160cb1b660acd2c286c2e6d021461084f57600080fd5b6001600160801b0319841661086357600080fd5b81600160d91b6432ba3432b902141561129657606d805460408051602060026001851615610100026000190190941693909304601f810184900484028201840190925281815292918301828280156108fc5780601f106108d1576101008083540402835291602001916108fc565b820191906000526020600020905b8154815290600101906020018083116108df57829003601f168201915b5050604051600160e31b6319f6a32502815260206004820181815286516024840152865173__stringutils___________________________9763cfb519289750955090935083926044019185019080838360005b83811015610969578181015183820152602001610951565b50505050905090810190601f1680156109965780820380516001836020036101000a031916815260200191505b509250505060206040518083038186803b1580156109b357600080fd5b505af41580156109c7573d6000803e3d6000fd5b505050506040513d60208110156109dd57600080fd5b5051600160ca1b66159a5857d554d1021415610d3557606b5460408051600160e01b636069d8a7028152600160eb1b620cae8d026004820152600160d21b65195d1a1d5cd9026024820152600160cb1b6608ae8d086c2e6d02604482015230606482015290516001600160a01b0390921691636069d8a7916084808201926020929091908290030181600087803b158015610a7757600080fd5b505af1158015610a8b573d6000803e3d6000fd5b505050506040513d6020811015610aa157600080fd5b50516070556040805161010080820183526001600160a01b0386168252600160d81b64697373756502602080840191909152828401869052606d80548551600260018316159095026000190190911693909304601f81018390048302840183019095528483529293606085019391830182828015610b605780601f10610b3557610100808354040283529160200191610b60565b820191906000526020600020905b815481529060010190602001808311610b4357829003601f168201915b5050604051600160e31b6319f6a32502815260206004820181815286516024840152865173__stringutils___________________________9763cfb519289750955090935083926044019185019080838360005b83811015610bcd578181015183820152602001610bb5565b50505050905090810190601f168015610bfa5780820380516001836020036101000a031916815260200191505b509250505060206040518083038186803b158015610c1757600080fd5b505af4158015610c2b573d6000803e3d6000fd5b505050506040513d6020811015610c4157600080fd5b5051815260705460208201526001600160801b031986166040820152606001610c6a6000610757565b6001600160801b0319168152602001610c836001610757565b6001600160801b0319908116909152607054600090815260726020908152604091829020845181546001600160a01b039091166001600160a01b031990911617815590840151600182015590830151600282015560608301516003820155608080840151600483015560a084015160058301805460c0870151841c600160801b0292841c908616176001600160801b031691909117905560e090930151600690910180549190931c9116179055611291565b606b60009054906101000a90046001600160a01b03166001600160a01b0316636069d8a7606d6040516020018080600160a81b6a5669615f5553445f746f5f02815250600b0182805460018160011615610100020316600290048015610dd25780601f10610db0576101008083540402835291820191610dd2565b820191906000526020600020905b815481529060010190602001808311610dbe575b505060408051601f1981840301815290829052600160e31b6319f6a32502825260206004830181815282516024850152825173__stringutils___________________________965063cfb51928955092939092839260449092019185019080838360005b83811015610e4f578181015183820152602001610e37565b50505050905090810190601f168015610e7c5780820380516001836020036101000a031916815260200191505b509250505060206040518083038186803b158015610e9957600080fd5b505af4158015610ead573d6000803e3d6000fd5b505050506040513d6020811015610ec357600080fd5b50516040805163ffffffff841660e01b81526004810192909252600160e91b623b32b9026024830152600160e31b63086c2e6d0260448301523060648301525160848083019260209291908290030181600087803b158015610f2457600080fd5b505af1158015610f38573d6000803e3d6000fd5b505050506040513d6020811015610f4e57600080fd5b5051607155606b5460408051600160e01b636069d8a7028152600160eb1b620cae8d026004820152600160d21b65195d1a1d5cd9026024820152600160cb1b6608ae8d086c2e6d02604482015230606482015290516001600160a01b0390921691636069d8a7916084808201926020929091908290030181600087803b158015610fd757600080fd5b505af1158015610feb573d6000803e3d6000fd5b505050506040513d602081101561100157600080fd5b50516070556040805161010080820183526001600160a01b0386168252600160d81b64697373756502602080840191909152828401869052606d80548551600260018316159095026000190190911693909304601f810183900483028401830190955284835292936060850193918301828280156110c05780601f10611095576101008083540402835291602001916110c0565b820191906000526020600020905b8154815290600101906020018083116110a357829003601f168201915b5050604051600160e31b6319f6a32502815260206004820181815286516024840152865173__stringutils___________________________9763cfb519289750955090935083926044019185019080838360005b8381101561112d578181015183820152602001611115565b50505050905090810190601f16801561115a5780820380516001836020036101000a031916815260200191505b509250505060206040518083038186803b15801561117757600080fd5b505af415801561118b573d6000803e3d6000fd5b505050506040513d60208110156111a157600080fd5b5051815260705460208201526001600160801b0319861660408201526060016111ca6000610757565b6001600160801b03191681526020016111e36000610757565b6001600160801b0319908116909152607154600090815260726020908152604091829020845181546001600160a01b039091166001600160a01b031990911617815590840151600182015590830151600282015560608301516003820155608080840151600483015560a084015160058301805460c0870151841c600160801b0292841c908616176001600160801b031691909117905560e090930151600690910180549190931c91161790555b611748565b606b60009054906101000a90046001600160a01b03166001600160a01b0316636069d8a783606d6040516020018083815260200180600160e01b635f746f5f02815250600401828054600181600116156101000203166002900480156113335780601f10611311576101008083540402835291820191611333565b820191906000526020600020905b81548152906001019060200180831161131f575b505060408051601f1981840301815290829052600160e31b6319f6a32502825260206004830181815282516024850152825173__stringutils___________________________975063cfb51928965092945092839260449091019185019080838360005b838110156113b0578181015183820152602001611398565b50505050905090810190601f1680156113dd5780820380516001836020036101000a031916815260200191505b509250505060206040518083038186803b1580156113fa57600080fd5b505af415801561140e573d6000803e3d6000fd5b505050506040513d602081101561142457600080fd5b50516040805163ffffffff841660e01b81526004810192909252600160f11b6132b9026024830152600160e31b63086c2e6d0260448301523060648301525160848083019260209291908290030181600087803b15801561148457600080fd5b505af1158015611498573d6000803e3d6000fd5b505050506040513d60208110156114ae57600080fd5b50516071556040805161010080820183526001600160a01b0386168252600160d81b64697373756502602080840191909152828401869052606d80548551600260018316159095026000190190911693909304601f8101839004830284018301909552848352929360608501939183018282801561156d5780601f106115425761010080835404028352916020019161156d565b820191906000526020600020905b81548152906001019060200180831161155057829003601f168201915b5050604051600160e31b6319f6a32502815260206004820181815286516024840152865173__stringutils___________________________9763cfb519289750955090935083926044019185019080838360005b838110156115da5781810151838201526020016115c2565b50505050905090810190601f1680156116075780820380516001836020036101000a031916815260200191505b509250505060206040518083038186803b15801561162457600080fd5b505af4158015611638573d6000803e3d6000fd5b505050506040513d602081101561164e57600080fd5b5051815260200161165f6000610757565b6001600160801b03199081168252861660208201526040016116816000610757565b6001600160801b031916815260200161169a6000610757565b6001600160801b0319908116909152607154600090815260726020908152604091829020845181546001600160a01b039091166001600160a01b031990911617815590840151600182015590830151600282015560608301516003820155608080840151600483015560a084015160058301805460c0870151841c600160801b0292841c908616176001600160801b031691909117905560e090930151600690910180549190931c91161790555b5060015b9392505050565b606d805460408051602060026001851615610100026000190190941693909304601f810184900484028201840190925281815292918301828280156117d95780601f106117ae576101008083540402835291602001916117d9565b820191906000526020600020905b8154815290600101906020018083116117bc57829003601f168201915b505050505081565b60006117ec82610757565b3360008181526003602090815260408083206001600160a01b0389168085529083529281902080546001600160801b03191660809690961c959095179094558351868152935191937f8c5be1e5ebec7d5bd14f71427d1e84f3dd0314c0f7b2291e5b200ac8c7c3b925929081900390910190a35060015b92915050565b60015460009061187b9060801b612fa4565b90505b90565b6000546001600160a01b031681565b606c546001600160a01b031633146118a757600080fd5b80600160d21b65195d1a1d5cd90214156118e657600083815260726020526040902060050180546001600160801b0316600160801b608085901c021790555b80600160f11b6132b902141561191c57600083815260726020526040902060060180546001600160801b031916608084901c1790555b80600160e91b623b32b902141561195357600083815260726020526040902060060180546001600160801b031916608084901c1790555b600083815260726020526040902060010154600160d81b646973737565021415611b415780600160d21b65195d1a1d5cd9021480611999575080600160e91b623b32b902145b15611a87576000838152607260205260408120600501546119ce91600160801b90910460801b906119c990610757565b61303c565b60000b15801590611a065750600083815260726020526040812060060154611a009160809190911b906119c990610757565b60000b15155b15611a8257600083815260726020526040812060058101546002820154600690920154611a4792608083811b939192600160801b909204811b91901b613185565b600085815260726020526040902080546002820154600590920154929350611a809284926001600160a01b03909216919060801b613377565b505b611b3c565b80600160f11b6132b9021415611b3c57600083815260726020526040812060060154611abd9160809190911b906119c990610757565b60000b15611b3c57600083815260726020526040812060058101546002820154600690920154611b0192608083811b939192600160801b909204811b91901b613185565b600085815260726020526040902080546002820154600590920154929350611b3a9284926001600160a01b03909216919060801b613377565b505b611d19565b600083815260726020526040902060010154600160d01b6572656465656d021415611d195780600160d21b65195d1a1d5cd9021480611b88575080600160e91b623b32b902145b15611c6757600083815260726020526040812060050154611bb891600160801b90910460801b906119c990610757565b60000b15801590611bf05750600083815260726020526040812060060154611bea9160809190911b906119c990610757565b60000b15155b15611b3c57600083815260726020526040812060058101546003820154600690920154611c3192608083811b939192600160801b909204811b91901b61371d565b600085815260726020526040902060038101548154600590920154929350611b3a9284926001600160a01b03169060801b613756565b80600160f11b6132b9021415611d1957600083815260726020526040812060060154611c9d9160809190911b906119c990610757565b60000b15611d1957600083815260726020526040812060058101546003820154600690920154611ce192608083811b939192600160801b909204811b91901b61371d565b600085815260726020526040902060038101548154600590920154929350611d179284926001600160a01b03169060801b613756565b505b505050565b606f60209081526000928352604080842090915290825290205460801b81565b6001600160a01b038316600090815260026020526040812054611d679060801b6119c984610757565b60000b60011480611da157506001600160a01b038416600090815260026020526040902054611d9c9060801b6119c984610757565b60000b155b611daa57600080fd5b6001600160a01b038316301415611f4f57611f3a611dc783610757565b606d8054604080516020601f60026000196101006001881615020190951694909404938401819004810282018101909252828152899390929091830182828015611e525780601f10611e2757610100808354040283529160200191611e52565b820191906000526020600020905b815481529060010190602001808311611e3557829003601f168201915b5050604051600160e31b6319f6a32502815260206004820181815286516024840152865173__stringutils___________________________9763cfb519289750955090935083926044019185019080838360005b83811015611ebf578181015183820152602001611ea7565b50505050905090810190601f168015611eec5780820380516001836020036101000a031916815260200191505b509250505060206040518083038186803b158015611f0957600080fd5b505af4158015611f1d573d6000803e3d6000fd5b505050506040513d6020811015611f3357600080fd5b50516141da565b15611f475750600161174c565b50600061174c565b606a5460408051600160e01b63f429f19b0281526001600160a01b0386811660048301529151919092169163f429f19b916024808301926020929190829003018186803b158015611f9f57600080fd5b505afa158015611fb3573d6000803e3d6000fd5b505050506040513d6020811015611fc957600080fd5b5051600160cb1b660acd2c286c2e6d02141561223757826001600160a01b0316638f794529611ff784610757565b606d8054604080516020601f600260001961010060018816150201909516949094049384018190048102820181019092528281528a93909290918301828280156120825780601f1061205757610100808354040283529160200191612082565b820191906000526020600020905b81548152906001019060200180831161206557829003601f168201915b5050604051600160e31b6319f6a32502815260206004820181815286516024840152865173__stringutils___________________________9763cfb519289750955090935083926044019185019080838360005b838110156120ef5781810151838201526020016120d7565b50505050905090810190601f16801561211c5780820380516001836020036101000a031916815260200191505b509250505060206040518083038186803b15801561213957600080fd5b505af415801561214d573d6000803e3d6000fd5b505050506040513d602081101561216357600080fd5b50516040805163ffffffff861660e01b81526001600160801b031990941660048501526001600160a01b03909216602484015260448301525160648083019260209291908290030181600087803b1580156121bd57600080fd5b505af11580156121d1573d6000803e3d6000fd5b505050506040513d60208110156121e757600080fd5b505115611f47576121f98430846150c8565b15611f47576001546122169060801b61221184610757565b615c53565b600180546001600160801b03191660809290921c919091178155905061174c565b606a5460408051600160e01b63f429f19b0281526001600160a01b0386811660048301529151919092169163f429f19b916024808301926020929190829003018186803b15801561228757600080fd5b505afa15801561229b573d6000803e3d6000fd5b505050506040513d60208110156122b157600080fd5b5051600160ca1b66159a58509bdb990214156124e457826001600160a01b03166304b197546122df84610757565b606d8054604080516020601f600260001961010060018816150201909516949094049384018190048102820181019092528281528a939092909183018282801561236a5780601f1061233f5761010080835404028352916020019161236a565b820191906000526020600020905b81548152906001019060200180831161234d57829003601f168201915b5050604051600160e31b6319f6a32502815260206004820181815286516024840152865173__stringutils___________________________9763cfb519289750955090935083926044019185019080838360005b838110156123d75781810151838201526020016123bf565b50505050905090810190601f1680156124045780820380516001836020036101000a031916815260200191505b509250505060206040518083038186803b15801561242157600080fd5b505af4158015612435573d6000803e3d6000fd5b505050506040513d602081101561244b57600080fd5b50516040805163ffffffff861660e01b81526001600160801b031990941660048501526001600160a01b03909216602484015260448301523060648301525160848083019260209291908290030181600087803b1580156124ab57600080fd5b505af11580156124bf573d6000803e3d6000fd5b505050506040513d60208110156124d557600080fd5b505115611f475750600161174c565b611f3a8484846150c8565b60026020526000908152604090205460801b81565b600054600160a01b900460ff1681565b606a5460408051600160e01b63f429f19b02815233600482015290516000926001600160a01b03169163f429f19b916024808301926020929190829003018186803b15801561256257600080fd5b505afa158015612576573d6000803e3d6000fd5b505050506040513d602081101561258c57600080fd5b5051600160cb1b660acd2c286c2e6d02148061262d5750606a5460408051600160e01b63f429f19b02815233600482015290516001600160a01b039092169163f429f19b91602480820192602092909190829003018186803b1580156125f157600080fd5b505afa158015612605573d6000803e3d6000fd5b505050506040513d602081101561261b57600080fd5b5051600160ca1b66159a58509bdb9902145b61263657600080fd5b3060009081526002602052604090205461265490849060801b61303c565b60000b600019148061268457503060009081526002602052604090205461267f90849060801b61303c565b60000b155b1561272557306000908152600260205260409020546126a69060801b84615c53565b3060009081526002602052604080822080546001600160801b031916608094851c1790556001600160a01b03851682529020546126e4911b84615c61565b6001600160a01b038316600090815260026020526040812080546001600160801b03191660809390931c9290921790915561271e90610757565b9050611863565b3060009081526002602052604081205461274390859060801b615c53565b6001600160a01b0384166000908152600260205260408082205430835291205491925061277691608091821b911b615c61565b6001600160a01b038416600090815260026020526040808220805460809490941c6001600160801b03199485161790553082529020805490911690559050611863565b6001600160a01b0381166000908152600260205260408120546118639060801b612fa4565b6127e6612ab5565b61283a5760408051600160e51b62461bcd02815260206004820181905260248201527f4f776e61626c653a2063616c6c6572206973206e6f7420746865206f776e6572604482015290519081900360640190fd5b6037546040516000916001600160a01b0316907f8be0079c531659141344cd1fd0a4f28419497f9722a3daafe3b4186f6b6457e0908390a3603780546001600160a01b0319169055565b606a5460408051600160e01b63f429f19b02815233600482015290516000926001600160a01b03169163f429f19b916024808301926020929190829003018186803b1580156128d257600080fd5b505afa1580156128e6573d6000803e3d6000fd5b505050506040513d60208110156128fc57600080fd5b5051600160cb1b660acd2c286c2e6d02148061299d5750606a5460408051600160e01b63f429f19b02815233600482015290516001600160a01b039092169163f429f19b91602480820192602092909190829003018186803b15801561296157600080fd5b505afa158015612975573d6000803e3d6000fd5b505050506040513d602081101561298b57600080fd5b5051600160ca1b66159a58509bdb9902145b6129a657600080fd5b6001600160a01b0382166000908152600260205260409020546129cd90849060801b61303c565b60000b6000191480612a0657506001600160a01b038216600090815260026020526040902054612a0190849060801b61303c565b60000b155b15612a9e576001600160a01b038216600090815260026020526040902054612a319060801b84615c53565b6001600160a01b03831660009081526002602052604080822080546001600160801b031916608094851c179055308252902054612a6f911b84615c61565b30600090815260026020526040902080546001600160801b03191660809290921c919091179055506001611863565b506000611863565b6037546001600160a01b031690565b6037546000906001600160a01b0316612acc616093565b6001600160a01b031614905090565b606e805460408051602060026001851615610100026000190190941693909304601f810184900484028201840190925281815292918301828280156117d95780601f106117ae576101008083540402835291602001916117d9565b6000612b5c612b4483610757565b3060009081526002602052604090205460801b61303c565b60000b6000191480612b7a5750612b75612b4483610757565b60000b155b612b8357600080fd5b30600090815260026020526040902054612ba39060801b61221184610757565b3060009081526002602052604080822080546001600160801b031916608094851c1790556001600160a01b0386168252902054612be9911b612be484610757565b615c61565b6001600160a01b03841660008181526002602090815260409182902080546001600160801b03191660809590951c9490941790935580518581529051919230927fddf252ad1be2c89b69c2b068fc378daa952ba7f163c4a11628f55a4df523b3ef9281900390910190a350600192915050565b600454610100900460ff1680612c755750612c75616097565b80612c83575060045460ff16155b612cc157604051600160e51b62461bcd02815260040180806020018281038252602e81526020018061672d602e913960400191505060405180910390fd5b600454610100900460ff16158015612cec576004805460ff1961ff0019909116610100171660011790555b603780546001600160a01b0319166001600160a01b0384811691909117918290556040519116906000907f8be0079c531659141344cd1fd0a4f28419497f9722a3daafe3b4186f6b6457e0908290a38015612d4d576004805461ff00191690555b5050565b600454610100900460ff1680612d6a5750612d6a616097565b80612d78575060045460ff16155b612db657604051600160e51b62461bcd02815260040180806020018281038252602e81526020018061672d602e913960400191505060405180910390fd5b600454610100900460ff16158015612de1576004805460ff1961ff0019909116610100171660011790555b612dea84612c5c565b606a80546001600160a01b038087166001600160a01b031992831617909255606b805492861692821683179055606c805490911690911790558551612e3690606d90602089019061666e565b508451612e4a90606e90602088019061666e565b508015612e5d576004805461ff00191690555b505050505050565b6001600160a01b03808316600090815260036020908152604080832093851683529290529081205461174c9060801b612fa4565b612ea1612ab5565b612ef55760408051600160e51b62461bcd02815260206004820181905260248201527f4f776e61626c653a2063616c6c6572206973206e6f7420746865206f776e6572604482015290519081900360640190fd5b612efe8161609d565b50565b6000808211612f0f57600080fd5b6000600160801b8310612f2457608092831c92015b680100000000000000008310612f3c57604092831c92015b6401000000008310612f5057602092831c92015b620100008310612f6257601092831c92015b6101008310612f7357600892831c92015b60108310612f8357600492831c92015b60048310612f9357600292831c92015b600283106118635760010192915050565b6000617fff6001600160801b03608084901c1660701c16613fff811015612fcf5760009150506107b8565b6001607f1b8360801c6001600160801b031610612feb57600080fd5b6140fe811115612ffa57600080fd5b600160701b6001600160701b03608085901c161761406f8210156130245761406f8290031c61174c565b61406f82111561174c5761406e1982011b9392505050565b600060016001607f1b03608084901c16600160701b617fff0281111561306157600080fd5b60016001607f1b03608084901c16600160701b617fff0281111561308457600080fd5b6001600160801b03198581169085161415806130b05750600160701b617fff02826001600160801b0316105b6130b957600080fd5b6001600160801b031985811690851614156130d957600092505050611863565b60006001607f1b8660801c6001600160801b03161015905060006001607f1b8660801c6001600160801b031610159050811561314457801561313557826001600160801b0316846001600160801b031611613135576001613139565b6000195b945050505050611863565b8015613157576001945050505050611863565b826001600160801b0316846001600160801b03161161317857600019613139565b6001945050505050611863565b600083600160d91b6432ba3432b902141561335a5760006131bf6131a98786616141565b6131ba670de0b6b3a7640000610757565b6163c9565b606d8054604080516020601f600260001961010060018816150201909516949094049384018190048102820181019092528281529394508301828280156132475780601f1061321c57610100808354040283529160200191613247565b820191906000526020600020905b81548152906001019060200180831161322a57829003601f168201915b5050604051600160e31b6319f6a32502815260206004820181815286516024840152865173__stringutils___________________________9763cfb519289750955090935083926044019185019080838360005b838110156132b457818101518382015260200161329c565b50505050905090810190601f1680156132e15780820380516001836020036101000a031916815260200191505b509250505060206040518083038186803b1580156132fe57600080fd5b505af4158015613312573d6000803e3d6000fd5b505050506040513d602081101561332857600080fd5b5051600160ca1b66159a5857d554d102146133535760006133498285616141565b925061336f915050565b905061336f565b60006133668684616141565b915061336f9050565b949350505050565b6001600160a01b0383166000908152606f6020908152604080832085845290915290205460801b6001600160801b0319166133e8576001600160a01b0383166000908152606f60209081526040808320858452909152902080546001600160801b031916608083901c179055613455565b6001600160a01b0383166000908152606f602090815260408083208584529091529020546134199060801b82615c61565b6001600160a01b0384166000908152606f60209081526040808320868452909152902080546001600160801b03191660809290921c9190911790555b81600160d91b6432ba3432b90214156134ee57306000908152600260205260409020546134859060801b85615c61565b30600090815260026020526040902080546001600160801b03191660809290921c9190911790556134be836134b986612fa4565b612b36565b506001546134cf9060801b85615c61565b600180546001600160801b03191660809290921c919091179055613569565b6001600160a01b0383166000908152600260205260409020546135149060801b85615c61565b6001600160a01b038416600090815260026020526040902080546001600160801b031916608092831c17905560015461354e911b85615c61565b600180546001600160801b03191660809290921c9190911790555b606d8054604080516020601f600260001961010060018816150201909516949094049384018190048102820181019092528281527fd930c683bff79bc6dcf7f04c491a02fdcf42247450d6871964a2b1295510833893909290918301828280156136145780601f106135e957610100808354040283529160200191613614565b820191906000526020600020905b8154815290600101906020018083116135f757829003601f168201915b5050604051600160e31b6319f6a32502815260206004820181815286516024840152865173__stringutils___________________________9763cfb519289750955090935083926044019185019080838360005b83811015613681578181015183820152602001613669565b50505050905090810190601f1680156136ae5780820380516001836020036101000a031916815260200191505b509250505060206040518083038186803b1580156136cb57600080fd5b505af41580156136df573d6000803e3d6000fd5b505050506040513d60208110156136f557600080fd5b5051604080519182526001600160801b0319871660208301528051918290030190a150505050565b600083600160d91b6432ba3432b902141561374c57600061373e8684616141565b9050600061334982866163c9565b6133538286616141565b82600160d91b6432ba3432b9021415613c66576001600160a01b0382166000908152606f60209081526040808320600160d91b6432ba3432b90284529091529020546137a59060801b8561303c565b60000b600114806137f257506001600160a01b0382166000908152606f60209081526040808320600160d91b6432ba3432b90284529091529020546137ed9060801b8561303c565b60000b155b156139ba576001600160a01b0382166000908152606f60209081526040808320600160d91b6432ba3432b90284529091529020546138339060801b85615c53565b6001600160a01b0383166000818152606f60209081526040808320600160d91b6432ba3432b9028452909152812080546001600160801b03191660809490941c9390931790925561388386612fa4565b604051600081818185875af1925050503d80600081146138bf576040519150601f19603f3d011682016040523d82523d6000602084013e6138c4565b606091505b50509050806139125760408051600160e51b62461bcd02815260206004820152600f60248201526001608a1b6e151c985b9cd9995c8819985a5b195902604482015290519081900360640190fd5b6001600160a01b0383166000908152600260205260409020546139389060801b83615c53565b6001600160a01b038416600090815260026020526040902080546001600160801b031916608092831c179055600154613972911b83615c53565b6001805460809290921c6001600160801b0319928316179055604080518681529187166020830152805160008051602061675b8339815191529281900390910190a150613c61565b6001600160a01b0382166000908152606f60209081526040808320600160d91b6432ba3432b90284529091528120546139f69060801b866163c9565b90506000613a1683613a11613a0b6001610757565b85615c53565b616141565b6001600160a01b0385166000818152606f60209081526040808320600160d91b6432ba3432b902845290915281205492935091613a559060801b612fa4565b604051600081818185875af1925050503d8060008114613a91576040519150601f19603f3d011682016040523d82523d6000602084013e613a96565b606091505b5050905080613ae45760408051600160e51b62461bcd02815260206004820152600f60248201526001608a1b6e151c985b9cd9995c8819985a5b195902604482015290519081900360640190fd5b6001600160a01b038516600090815260026020526040902054613b0e9060801b6122118686616141565b6001600160a01b038616600090815260026020526040902080546001600160801b031916608092831c179055600154613b4c911b6122118686616141565b60018054608092831c6001600160801b0319918216179091556001600160a01b0387166000908152606f60209081526040808320600160d91b6432ba3432b90284528252918290205482518b8152941b90921691830191909152805160008051602061675b8339815191529281900390910190a16001600160a01b0385166000908152606f60209081526040808320600160d91b6432ba3432b902845282529182902080546001600160801b0319169055606d8054835160026101006001841615026000190190921691909104601f8101849004840282018401909452838152613c5c9386938a939190830182828015611e525780601f10611e2757610100808354040283529160200191611e52565b505050505b611d17565b60005b606a60009054906101000a90046001600160a01b03166001600160a01b03166378a895676040518163ffffffff1660e01b815260040160206040518083038186803b158015613cb757600080fd5b505afa158015613ccb573d6000803e3d6000fd5b505050506040513d6020811015613ce157600080fd5b50518110156141d357606a5460408051600160e11b6327b2595f0281526004810184905290516000926001600160a01b031691634f64b2be916024808301926020929190829003018186803b158015613d3957600080fd5b505afa158015613d4d573d6000803e3d6000fd5b505050506040513d6020811015613d6357600080fd5b5051606a5460408051600160e11b632fea58450281526001600160a01b038085166004830152915193945088939190921691635fd4b08a916024808301926020929190829003018186803b158015613dba57600080fd5b505afa158015613dce573d6000803e3d6000fd5b505050506040513d6020811015613de457600080fd5b5051148015613e7a5750606a5460408051600160e01b63f429f19b0281526001600160a01b0384811660048301529151919092169163f429f19b916024808301926020929190829003018186803b158015613e3e57600080fd5b505afa158015613e52573d6000803e3d6000fd5b505050506040513d6020811015613e6857600080fd5b5051600160cb1b660acd2c286c2e6d02145b156141ca5760408051600160e41b630520c8d50281526001600160801b0319881660048201526001600160a01b0386811660248301529151613f139284169163520c8d509160448083019260209291908290030181600087803b158015613ee057600080fd5b505af1158015613ef4573d6000803e3d6000fd5b505050506040513d6020811015613f0a57600080fd5b5051600061303c565b60000b6001141561401b576001600160a01b0384166000908152606f60209081526040808320888452909152902054613f4f9060801b87615c53565b6001600160a01b0385166000818152606f602090815260408083208a8452825280832080546001600160801b031916608096871c179055928252600290522054613f9a911b84615c53565b6001600160a01b038516600090815260026020526040902080546001600160801b031916608092831c179055600154613fd4911b84615c53565b6001805460809290921c6001600160801b0319928316179055604080518781529188166020830152805160008051602061675b8339815191529281900390910190a16141ca565b6001600160a01b0384166000908152606f6020908152604080832088845290915281205461404c9060801b886163c9565b9050600061406185613a11613a0b6001610757565b6001600160a01b03871660009081526002602052604090205490915061408e9060801b6122118785616141565b6001600160a01b038716600090815260026020526040902080546001600160801b031916608092831c1790556001546140cc911b6122118785616141565b60018054608092831c6001600160801b0319918216179091556001600160a01b0388166000908152606f602090815260408083208c84528252918290205482518c8152941b90921691830191909152805160008051602061675b8339815191529281900390910190a16001600160a01b0386166000908152606f602090815260408083208a845282529182902080546001600160801b0319169055606d8054835160026101006001841615026000190190921691909104601f81018490048402820184019094528381526141c69385938b939190830182828015611e525780601f10611e2757610100808354040283529160200191611e52565b5050505b50600101613c69565b5050505050565b60006001600160801b03198416156150c0576000805b606a60009054906101000a90046001600160a01b03166001600160a01b03166378a895676040518163ffffffff1660e01b815260040160206040518083038186803b15801561423e57600080fd5b505afa158015614252573d6000803e3d6000fd5b505050506040513d602081101561426857600080fd5b50518110156144bd57606a5460408051600160e11b6327b2595f0281526004810184905290516000926001600160a01b031691634f64b2be916024808301926020929190829003018186803b1580156142c057600080fd5b505afa1580156142d4573d6000803e3d6000fd5b505050506040513d60208110156142ea57600080fd5b5051606a5460408051600160e01b63f429f19b0281526001600160a01b038085166004830152915193945091169163f429f19b91602480820192602092909190829003018186803b15801561433e57600080fd5b505afa158015614352573d6000803e3d6000fd5b505050506040513d602081101561436857600080fd5b5051600160cb1b660acd2c286c2e6d0214801561443057506001600160a01b038087166000908152606f60209081526040808320606a548251600160e11b632fea5845028152878716600482015292519495919486949190921692635fd4b08a9260248083019392829003018186803b1580156143e457600080fd5b505afa1580156143f8573d6000803e3d6000fd5b505050506040513d602081101561440e57600080fd5b5051815260208101919091526040016000205460801b6001600160801b031916115b156144b457606a5460408051600160e11b632fea58450281526001600160a01b03848116600483015291519190921691635fd4b08a916024808301926020929190829003018186803b15801561448557600080fd5b505afa158015614499573d6000803e3d6000fd5b505050506040513d60208110156144af57600080fd5b505192505b506001016141f0565b508015801561450657506001600160a01b0384166000908152606f60209081526040808320600160d91b6432ba3432b902845290915290205460801b6001600160801b03191615155b1561451d5750600160d91b6432ba3432b90261484b565b60005b606a60009054906101000a90046001600160a01b03166001600160a01b03166378a895676040518163ffffffff1660e01b815260040160206040518083038186803b15801561456e57600080fd5b505afa158015614582573d6000803e3d6000fd5b505050506040513d602081101561459857600080fd5b50518110156147ea57606a5460408051600160e11b6327b2595f0281526004810184905290516000926001600160a01b031691634f64b2be916024808301926020929190829003018186803b1580156145f057600080fd5b505afa158015614604573d6000803e3d6000fd5b505050506040513d602081101561461a57600080fd5b5051606a5460408051600160e01b63f429f19b0281526001600160a01b038085166004830152915193945091169163f429f19b91602480820192602092909190829003018186803b15801561466e57600080fd5b505afa158015614682573d6000803e3d6000fd5b505050506040513d602081101561469857600080fd5b5051600160cb1b660acd2c286c2e6d0214801561475d5750306000908152606f60209081526040808320606a548251600160e11b632fea58450281526001600160a01b03878116600483015293519294869490921692635fd4b08a92602480840193919291829003018186803b15801561471157600080fd5b505afa158015614725573d6000803e3d6000fd5b505050506040513d602081101561473b57600080fd5b5051815260208101919091526040016000205460801b6001600160801b031916115b156147e157606a5460408051600160e11b632fea58450281526001600160a01b03848116600483015291519190921691635fd4b08a916024808301926020929190829003018186803b1580156147b257600080fd5b505afa1580156147c6573d6000803e3d6000fd5b505050506040513d60208110156147dc57600080fd5b505192505b50600101614520565b508015801561482a5750306000908152606f60209081526040808320600160d91b6432ba3432b902845290915290205460801b6001600160801b03191615155b156148415750600160d91b6432ba3432b90261484b565b600091505061174c565b80600160d91b6432ba3432b9021415614dda5782600160ca1b66159a5857d554d1021415614a4c57606b5460408051600160e01b636069d8a7028152600160eb1b620cae8d026004820152600160d21b65195d1a1d5cd9026024820152600160e31b63086c2e6d02604482015230606482015290516001600160a01b0390921691636069d8a7916084808201926020929091908290030181600087803b1580156148f457600080fd5b505af1158015614908573d6000803e3d6000fd5b505050506040513d602081101561491e57600080fd5b5051607081905560408051610100810182526001600160a01b0387168152600160d01b6572656465656d0260208201529081018590526060810183905260808101919091526001600160801b0319861660a082015260c081016149816000610757565b6001600160801b031916815260200161499a6001610757565b6001600160801b0319908116909152607054600090815260726020908152604091829020845181546001600160a01b039091166001600160a01b031990911617815590840151600182015590830151600282015560608301516003820155608080840151600483015560a084015160058301805460c0870151841c600160801b0292841c908616176001600160801b031691909117905560e090930151600690910180549190931c9116179055614dd5565b606b5460408051600160e01b636069d8a7028152600160eb1b620cae8d026004820152600160d21b65195d1a1d5cd9026024820152600160cb1b6608ae8d086c2e6d02604482015230606482015290516001600160a01b0390921691636069d8a7916084808201926020929091908290030181600087803b158015614ad057600080fd5b505af1158015614ae4573d6000803e3d6000fd5b505050506040513d6020811015614afa57600080fd5b5051607055606b54604080516020818101879052600160aa1b6a17dd1bd7d59a5857d554d102828401528251602b818403018152604b830193849052600160e31b6319f6a32502909352604f82018181528351606f84015283516001600160a01b0390951694636069d8a79473__stringutils___________________________9463cfb51928949193928392608f9092019185019080838360005b83811015614bae578181015183820152602001614b96565b50505050905090810190601f168015614bdb5780820380516001836020036101000a031916815260200191505b509250505060206040518083038186803b158015614bf857600080fd5b505af4158015614c0c573d6000803e3d6000fd5b505050506040513d6020811015614c2257600080fd5b50516040805163ffffffff841660e01b81526004810192909252600160e91b623b32b9026024830152600160e31b63086c2e6d0260448301523060648301525160848083019260209291908290030181600087803b158015614c8357600080fd5b505af1158015614c97573d6000803e3d6000fd5b505050506040513d6020811015614cad57600080fd5b505160715560408051610100810182526001600160a01b0386168152600160d01b6572656465656d0260208201529081018490526060810182905260705460808201526001600160801b0319861660a082015260c08101614d0e6000610757565b6001600160801b0319168152602001614d276000610757565b6001600160801b0319908116909152607154600090815260726020908152604091829020845181546001600160a01b039091166001600160a01b031990911617815590840151600182015590830151600282015560608301516003820155608080840151600483015560a084015160058301805460c0870151841c600160801b0292841c908616176001600160801b031691909117905560e090930151600690910180549190931c91161790555b6150ba565b606b54604080516020808201879052600160e01b635f746f5f02828401526044808301869052835180840390910181526064830193849052600160e31b6319f6a32502909352606882018181528351608884015283516001600160a01b0390951694636069d8a79473__stringutils___________________________9463cfb5192894919392839260a89092019185019080838360005b83811015614e8a578181015183820152602001614e72565b50505050905090810190601f168015614eb75780820380516001836020036101000a031916815260200191505b509250505060206040518083038186803b158015614ed457600080fd5b505af4158015614ee8573d6000803e3d6000fd5b505050506040513d6020811015614efe57600080fd5b50516040805163ffffffff841660e01b81526004810192909252600160f11b6132b9026024830152600160e31b63086c2e6d0260448301523060648301525160848083019260209291908290030181600087803b158015614f5e57600080fd5b505af1158015614f72573d6000803e3d6000fd5b505050506040513d6020811015614f8857600080fd5b505160715560408051610100810182526001600160a01b0386168152600160d01b6572656465656d0260208201529081018490526060810182905260808101614fd16000610757565b6001600160801b0319908116825287166020820152604001614ff36000610757565b6001600160801b031916815260200161500c6000610757565b6001600160801b0319908116909152607154600090815260726020908152604091829020845181546001600160a01b039091166001600160a01b031990911617815590840151600182015590830151600282015560608301516003820155608080840151600483015560a084015160058301805460c0870151841c600160801b0292841c908616176001600160801b031691909117905560e090930151600690910180549190931c91161790555b5061174c565b50600161174c565b6001600160a01b0383166000908152600260205260408120546150f19060801b6119c984610757565b60000b6001148061512b57506001600160a01b0384166000908152600260205260409020546151269060801b6119c984610757565b60000b155b61513457600080fd5b6001600160a01b03841660009081526002602052604090205461515d9060801b61221184610757565b6001600160a01b0385811660009081526002602052604080822080546001600160801b031916608095861c179055918616815220546151a0911b612be484610757565b6001600160a01b038416600090815260026020526040812080546001600160801b03191660809390931c929092179091555b606a60009054906101000a90046001600160a01b03166001600160a01b03166378a895676040518163ffffffff1660e01b815260040160206040518083038186803b15801561522057600080fd5b505afa158015615234573d6000803e3d6000fd5b505050506040513d602081101561524a57600080fd5b5051811015615c4857606a5460408051600160e11b6327b2595f0281526004810184905290516000926001600160a01b031691634f64b2be916024808301926020929190829003018186803b1580156152a257600080fd5b505afa1580156152b6573d6000803e3d6000fd5b505050506040513d60208110156152cc57600080fd5b5051606a5460408051600160e01b63f429f19b0281526001600160a01b038085166004830152915193945091169163f429f19b91602480820192602092909190829003018186803b15801561532057600080fd5b505afa158015615334573d6000803e3d6000fd5b505050506040513d602081101561534a57600080fd5b5051600160cb1b660acd2c286c2e6d021480156155495750606d805460408051602060026001851615610100026000190190941693909304601f810184900484028201840190925281815292918301828280156153e85780601f106153bd576101008083540402835291602001916153e8565b820191906000526020600020905b8154815290600101906020018083116153cb57829003601f168201915b5050604051600160e31b6319f6a32502815260206004820181815286516024840152865173__stringutils___________________________9763cfb519289750955090935083926044019185019080838360005b8381101561545557818101518382015260200161543d565b50505050905090810190601f1680156154825780820380516001836020036101000a031916815260200191505b509250505060206040518083038186803b15801561549f57600080fd5b505af41580156154b3573d6000803e3d6000fd5b505050506040513d60208110156154c957600080fd5b5051606a5460408051600160e11b632fea58450281526001600160a01b03858116600483015291519190921691635fd4b08a916024808301926020929190829003018186803b15801561551b57600080fd5b505afa15801561552f573d6000803e3d6000fd5b505050506040513d602081101561554557600080fd5b5051145b15615c3f576001600160a01b0385166000908152606f60209081526040808320606d80548351601f600260001961010060018616150201909316929092049182018690048602810186019094528084526156f39592949293928301828280156155f35780601f106155c8576101008083540402835291602001916155f3565b820191906000526020600020905b8154815290600101906020018083116155d657829003601f168201915b5050604051600160e31b6319f6a32502815260206004820181815286516024840152865173__stringutils___________________________9763cfb519289750955090935083926044019185019080838360005b83811015615660578181015183820152602001615648565b50505050905090810190601f16801561568d5780820380516001836020036101000a031916815260200191505b509250505060206040518083038186803b1580156156aa57600080fd5b505af41580156156be573d6000803e3d6000fd5b505050506040513d60208110156156d457600080fd5b5051815260208101919091526040016000205460801b612be486610757565b6001600160a01b0386166000908152606f60209081526040808320606d80548351601f600260001961010060018616150201909316929092049182018690048602810186019094528084529194939091908301828280156157955780601f1061576a57610100808354040283529160200191615795565b820191906000526020600020905b81548152906001019060200180831161577857829003601f168201915b5050604051600160e31b6319f6a32502815260206004820181815286516024840152865173__stringutils___________________________9763cfb519289750955090935083926044019185019080838360005b838110156158025781810151838201526020016157ea565b50505050905090810190601f16801561582f5780820380516001836020036101000a031916815260200191505b509250505060206040518083038186803b15801561584c57600080fd5b505af4158015615860573d6000803e3d6000fd5b505050506040513d602081101561587657600080fd5b505181526020808201929092526040908101600090812080546001600160801b03191660809590951c949094179093556001600160a01b0389168352606f8252808320606d8054835160026101006001841615026000190190921691909104601f8101869004860282018601909452838152615a43959294929390928301828280156159435780601f1061591857610100808354040283529160200191615943565b820191906000526020600020905b81548152906001019060200180831161592657829003601f168201915b5050604051600160e31b6319f6a32502815260206004820181815286516024840152865173__stringutils___________________________9763cfb519289750955090935083926044019185019080838360005b838110156159b0578181015183820152602001615998565b50505050905090810190601f1680156159dd5780820380516001836020036101000a031916815260200191505b509250505060206040518083038186803b1580156159fa57600080fd5b505af4158015615a0e573d6000803e3d6000fd5b505050506040513d6020811015615a2457600080fd5b5051815260208101919091526040016000205460801b61221186610757565b6001600160a01b0387166000908152606f60209081526040808320606d80548351601f60026000196101006001861615020190931692909204918201869004860281018601909452808452919493909190830182828015615ae55780601f10615aba57610100808354040283529160200191615ae5565b820191906000526020600020905b815481529060010190602001808311615ac857829003601f168201915b5050604051600160e31b6319f6a32502815260206004820181815286516024840152865173__stringutils___________________________9763cfb519289750955090935083926044019185019080838360005b83811015615b52578181015183820152602001615b3a565b50505050905090810190601f168015615b7f5780820380516001836020036101000a031916815260200191505b509250505060206040518083038186803b158015615b9c57600080fd5b505af4158015615bb0573d6000803e3d6000fd5b505050506040513d6020811015615bc657600080fd5b50518152602080820192909252604090810160002080546001600160801b03191660809490941c93909317909255815186815291516001600160a01b0388811693908a16927fddf252ad1be2c89b69c2b068fc378daa952ba7f163c4a11628f55a4df523b3ef92918290030190a360019250505061174c565b506001016151d2565b506000949350505050565b600061174c83600160ff1b84185b6000617fff6001600160801b03608085811c8216607090811c8416939186901c90921690911c811690821415615cd75780617fff1415615ccd576001600160801b03198581169085161415615cba578492505050611863565b50600160ef1b61ffff0291506118639050565b8492505050611863565b80617fff1415615ceb578392505050611863565b6001607f1b608086901c6001600160801b0381169190911015906001600160701b031683615d1c5760019350615d23565b600160701b175b6001607f1b608087901c6001600160801b0381169190911015906001600160701b031684615d545760019450615d5b565b600160701b175b82615d8b576001600160801b03198816600160ff1b14615d7b5787615d7e565b60005b9650505050505050611863565b80615dab576001600160801b03198916600160ff1b14615d7b5788615d7e565b8486038415158315151415615ed1576070811315615dd25789975050505050505050611863565b6000811315615df15780826000821215615de857fe5b901c9150615e2b565b606f19811215615e0a5788975050505050505050611863565b6000811215615e2b5780600003846000821215615e2357fe5b901c93508596505b92810192600160711b8410615e46576001968701969390931c925b86617fff1415615e7b5784615e6357600160f01b617fff02615e6d565b6001600160f01b03195b975050505050505050611863565b600160701b841015615e905760009650615e9d565b6001600160701b03841693505b83607088901b86615eaf576000615eb5565b6001607f1b5b6001600160801b0316171760801b975050505050505050611863565b6000811315615eec57600184901b9350600187039650615f03565b6000811215615f0357600182901b91506001860396505b6070811315615f155760019150615f78565b6001811315615f3d5760018103600183036000821215615f3157fe5b901c6001019150615f78565b606f19811215615f505760019350615f78565b600019811215615f785760018160000303600185036000821215615f7057fe5b901c60010193505b818410615f89578184039350615f92565b83820393508294505b83615fa857506000965061186395505050505050565b6000615fb385612f01565b90508060711415615fd957600185901c6001600160701b03169450600188019750616028565b607081101561601b57607081900380891115616008578086901b6001600160701b031695508089039850616015565b600098600019019590951b945b50616028565b6001600160701b03851694505b87617fff141561605e578561604557600160f01b617fff0261604f565b6001600160f01b03195b98505050505050505050611863565b84607089901b87616070576000616076565b6001607f1b5b6001600160801b0316171760801b98505050505050505050611863565b3390565b303b1590565b6001600160a01b0381166160e557604051600160e51b62461bcd0281526004018080602001828103825260268152602001806167076026913960400191505060405180910390fd5b6037546040516001600160a01b038084169216907f8be0079c531659141344cd1fd0a4f28419497f9722a3daafe3b4186f6b6457e090600090a3603780546001600160a01b0319166001600160a01b0392909216919091179055565b6000617fff6001600160801b03608085811c8216607090811c8416939186901c90921690911c8116908214156161f95780617fff14156161c4576001600160801b031985811690851614156161a157505050600160ff1b81168218611863565b600160ff1b6001600160801b0319868618161415615cba57505050818117611863565b600160801b600160ff1b0384166161e85750600160ef1b61ffff0291506118639050565b505050600160ff1b81168218611863565b80617fff141561623857600160801b600160ff1b0385166162275750600160ef1b61ffff0291506118639050565b505050600160ff1b82168118611863565b6001600160701b03608086901c1682616254576001925061625b565b600160701b175b6001600160701b03608086901c1682616277576001925061627e565b600160701b175b90810290816162ab57600160ff1b8787181661629b576000613139565b600160ff1b945050505050611863565b928201926000600160e11b8310156162df57600160e01b8310156162d7576162d283612f01565b6162da565b60e05b6162e2565b60e15b905061407081860110156162fd57600094506000925061639a565b6140e081860110156163405761407085101561632257846140700383901c9250616337565b61407085111561633757614070850383901b92505b6000945061639a565b61c0dd818601111561635a57617fff94506000925061639a565b6070811115616371576070810383901c9250616384565b6070811015616384578060700383901b92505b6001600160701b03831692506140df8186010394505b82607086901b888a186001607f1b60801b1660801c6001600160801b0316171760801b95505050505050611863565b6000617fff6001600160801b03608085811c8216607090811c8416939186901c90921690911c8116908214156164165780617fff14156161e85750600160ef1b61ffff0291506118639050565b80617fff141561645657600160801b600160f01b038416156164455750600160ef1b61ffff0291506118639050565b505050808218600160ff1b16611863565b600160801b600160ff1b0384166164a657600160801b600160ff1b03851661648b5750600160ef1b61ffff0291506118639050565b505050808218600160ff1b16600160f01b617fff0217611863565b6001600160701b03608085901c16816164c257600191506164c9565b600160701b175b6001600160701b03608087901c16836165085780156165035760006164ed82612f01565b6001955060e20393840160711901939190911b90505b616512565b600160701b1760721b5b81818161651b57fe5b0490508061653757600160ff1b8787181661629b576000613139565b6001606c1b81101561654557fe5b6000600160731b82101561658557600160721b82101561657a57600160711b821015616572576070616575565b60715b61657d565b60725b60ff1661658e565b61658e82612f01565b9050836140710181860111156165ac57617fff94506000915061663f565b83818601613ffc0110156165c757600094506000915061663f565b83818601613f8c011015616614578385613ffc0111156165f2578385613ffc010382901b915061660b565b8385613ffc01101561660b57613ffc8585030382901c91505b6000945061663f565b6070811115616627576070810382901c91505b6001600160701b038216915083818601613f8d010394505b81607086901b888a186001607f1b60801b1660801c6001600160801b0316171760801b95505050505050611863565b828054600181600116156101000203166002900490600052602060002090601f016020900481019282601f106166af57805160ff19168380011785556166dc565b828001600101855582156166dc579182015b828111156166dc5782518255916020019190600101906166c1565b506166e89291506166ec565b5090565b61187e91905b808211156166e857600081556001016166f256fe4f776e61626c653a206e6577206f776e657220697320746865207a65726f2061646472657373436f6e747261637420696e7374616e63652068617320616c7265616479206265656e20696e697469616c697a6564100da893981e3214bb40af1da05d2128e84df93c3cbd22bd771223df87de1cfea165627a7a72305820ac57fcb2080a055e1343aad9eec3c39a795cdb5184efd01f6c1642402b17de150029",
  "source": "// (c) Kallol Borah, 2020\r\n// Implementation of the Via cash token.\r\n\r\npragma solidity >=0.5.0 <0.7.0;\r\n\r\nimport \"./erc/ERC20.sol\";\r\nimport \"./oraclize/ViaOracle.sol\";\r\nimport \"./Factory.sol\";\r\nimport \"./Bond.sol\";\r\nimport \"abdk-libraries-solidity/ABDKMathQuad.sol\";\r\nimport \"@openzeppelin/upgrades/contracts/Initializable.sol\";\r\nimport \"@openzeppelin/contracts-ethereum-package/contracts/ownership/Ownable.sol\";\r\nimport \"./utilities/StringUtils.sol\";\r\n\r\ncontract Cash is ERC20, Initializable, Ownable {\r\n\r\n    using stringutils for *;\r\n\r\n    using ABDKMathQuad for uint256;\r\n    using ABDKMathQuad for int256;\r\n    using ABDKMathQuad for bytes16;\r\n\r\n    //via factory address\r\n    Factory private factory;\r\n\r\n    //via oracle\r\n    ViaOracle private oracle;\r\n    address viaoracle;\r\n\r\n    //name of Via cash token (eg, Via-USD)\r\n    string public name;\r\n    string public symbol;\r\n\r\n    //mapping of buyers (address) to currency (bytes32) to deposit (bytes16) amounts they make against which via cash tokens are issued\r\n    mapping(address => mapping(bytes32 => bytes16)) public deposits;\r\n\r\n    //callback identifiers (request_ids) for Oraclize\r\n    bytes32 EthXid;\r\n    bytes32 ViaXid;\r\n    \r\n    //data structure holding details of currency conversion requests pending on oraclize\r\n    struct conversion{\r\n        address party;\r\n        bytes32 operation;\r\n        bytes32 paid_in_currency;\r\n        bytes32 payout_currency;\r\n        bytes32 EthXid;\r\n        bytes16 amount;\r\n        bytes16 EthXvalue;\r\n        bytes16 ViaXvalue;\r\n    }\r\n\r\n    //queue of pending conversion requests with each pending request mapped to a request_id returned by oraclize\r\n    mapping(bytes32 => conversion) private conversionQ;\r\n\r\n    //events to capture and report to Via oracle\r\n    event ViaCashIssued(bytes32 currency, bytes16 value);\r\n    event ViaCashRedeemed(bytes32 currency, bytes16 value);\r\n\r\n    //initiliaze proxies\r\n    function initialize(string memory _name, string memory _type, address _owner, address _oracle, address _token) public initializer{\r\n        Ownable.initialize(_owner);\r\n        factory = Factory(_owner);\r\n        oracle = ViaOracle(_oracle);\r\n        viaoracle = _oracle;\r\n        name = _name;\r\n        symbol = _type;\r\n    }\r\n\r\n    //handling pay in of ether for issue of via cash tokens\r\n    function() external payable{\r\n        //ether paid in\r\n        require(msg.value !=0);\r\n        //only to pay in ether\r\n        require(msg.data.length==0);\r\n        //issue via cash tokens\r\n        issue(ABDKMathQuad.fromUInt(msg.value), msg.sender, \"ether\");\r\n    }\r\n\r\n    //overriding this function of ERC20 standard for transfer of via cash tokens to other users or to this contract for redemption\r\n    function transferFrom(address sender, address receiver, uint256 tokens) public returns (bool){\r\n        //ensure sender has enough tokens in balance before transferring or redeeming them\r\n        require(ABDKMathQuad.cmp(balances[sender],ABDKMathQuad.fromUInt(tokens))==1 ||\r\n                ABDKMathQuad.cmp(balances[sender],ABDKMathQuad.fromUInt(tokens))==0);\r\n        //check if tokens are being transferred to this cash contract\r\n        if(receiver == address(this)){\r\n            //if token name is the same, this transfer has to be redeemed\r\n            if(redeem(ABDKMathQuad.fromUInt(tokens), sender, name.stringToBytes32()))\r\n                return true;\r\n            else\r\n                return false;\r\n        }\r\n        //else request issue of cash tokens requested from receiver\r\n        else if(factory.getType(receiver)==\"ViaCash\"){\r\n            //only issue if cash tokens are paid in, since bond tokens can't be paid to issue bond token\r\n            if(Cash(address(uint160(receiver))).issue(ABDKMathQuad.fromUInt(tokens), sender, name.stringToBytes32())){\r\n                //transfer sent tokens and its collateral to this contract's balance because that is required for redemption\r\n                if(transferToken(sender, address(this), tokens)){\r\n                    //adjust total supply\r\n                    totalSupply_ = ABDKMathQuad.sub(totalSupply_, ABDKMathQuad.fromUInt(tokens));\r\n                    //transfer collateral from sender to contract for cash tokens transferred \r\n                    return true;\r\n                }\r\n                else\r\n                    return false;\r\n            }\r\n            else\r\n                return false;\r\n        }\r\n        //else if cash tokens are paid into bond issuers, then request for issue of bonds\r\n        else if(factory.getType(receiver)==\"ViaBond\"){\r\n            if(Bond(address(uint160(receiver))).issue(ABDKMathQuad.fromUInt(tokens), sender, name.stringToBytes32(), address(this)))\r\n                    return true;\r\n                else\r\n                    return false;\r\n        }\r\n        else{\r\n            //else, tokens are being sent to another user's account\r\n            //sending contract should be allowed by token owner to make this transfer\r\n            //allowed[sender][msg.sender] = ABDKMathQuad.sub(allowed[sender][msg.sender], ABDKMathQuad.fromUInt(tokens));\r\n            if(transferToken(sender, receiver, tokens))\r\n                return true;\r\n            else\r\n                return false;\r\n        }\r\n    }\r\n\r\n    //transfer tokens between one user to another user account, or\r\n    //transfer tokens between one user account to this contract for future redemption\r\n    function transferToken(address sender, address receiver, uint256 tokens) private returns (bool){\r\n        require(ABDKMathQuad.cmp(balances[sender],ABDKMathQuad.fromUInt(tokens))==1 ||\r\n                ABDKMathQuad.cmp(balances[sender],ABDKMathQuad.fromUInt(tokens))==0);\r\n        balances[sender] = ABDKMathQuad.sub(balances[sender], ABDKMathQuad.fromUInt(tokens));\r\n        balances[receiver] = ABDKMathQuad.add(balances[receiver], ABDKMathQuad.fromUInt(tokens));\r\n        //transfer paid in deposit from sender as well\r\n        for(uint256 q=0; q<factory.getTokenCount(); q++){\r\n            address viaAddress = factory.tokens(q);\r\n            if(factory.getType(viaAddress) == \"ViaCash\" && factory.getName(viaAddress) == name.stringToBytes32()){\r\n                deposits[receiver][name.stringToBytes32()] = ABDKMathQuad.add(deposits[receiver][name.stringToBytes32()], ABDKMathQuad.fromUInt(tokens));\r\n                deposits[sender][name.stringToBytes32()] = ABDKMathQuad.sub(deposits[sender][name.stringToBytes32()], ABDKMathQuad.fromUInt(tokens));\r\n                emit Transfer(sender, receiver, tokens);\r\n                return true;\r\n            }\r\n        }\r\n        return false;\r\n    }\r\n\r\n    \r\n    //add to token balance of this contract from token balance of sender\r\n    function addToBalance(bytes16 tokens, address sender) public returns (bool){\r\n        require(factory.getType(msg.sender) == \"ViaCash\" || factory.getType(msg.sender) == \"ViaBond\");\r\n        //sender should have more tokens than being transferred\r\n        if(ABDKMathQuad.cmp(tokens, balances[sender])==-1 || ABDKMathQuad.cmp(tokens, balances[sender])==0){\r\n            balances[sender] = ABDKMathQuad.sub(balances[sender], tokens);\r\n            balances[address(this)] = ABDKMathQuad.add(balances[address(this)], tokens);\r\n            return true;\r\n        }\r\n        else\r\n            return false;\r\n    }\r\n\r\n    //deduct token balance from this contract and add token balance to receiver\r\n    function deductFromBalance(bytes16 tokens, address receiver) public returns (bytes16){\r\n        require(factory.getType(msg.sender) == \"ViaCash\" || factory.getType(msg.sender) == \"ViaBond\");\r\n        //this cash token issuer should have more tokens than being deducted\r\n        if(ABDKMathQuad.cmp(tokens, balances[address(this)])==-1 || ABDKMathQuad.cmp(tokens, balances[address(this)])==0){\r\n            balances[address(this)] = ABDKMathQuad.sub(balances[address(this)], tokens);\r\n            balances[receiver] = ABDKMathQuad.add(balances[receiver], tokens);\r\n            return ABDKMathQuad.fromUInt(0);\r\n        }\r\n        else{\r\n            bytes16 balance = ABDKMathQuad.sub(tokens, balances[address(this)]);\r\n            balances[receiver] = ABDKMathQuad.add(balances[receiver], balances[address(this)]);\r\n            balances[address(this)] = 0;            \r\n            return balance;\r\n        }\r\n    }\r\n\r\n    //requesting issue of Via to buyer for amount of ether or some other via cash token paid in and stored in cashContract\r\n    function issue(bytes16 amount, address buyer, bytes32 currency) public returns(bool){\r\n        require(factory.getType(msg.sender) == \"ViaCash\");\r\n        //ensure that brought amount is not zero\r\n        require(amount != 0);\r\n        //find amount of via cash tokens to transfer after applying exchange rate\r\n        if(currency==\"ether\"){\r\n            //if ether is paid in for issue of Via-USD cash token, then all we need is the exchange rate of ether to USD (ethusd)\r\n            //since the exchange rate of USD to Via-USD is always 1\r\n            if(name.stringToBytes32()==\"Via_USD\"){\r\n                EthXid = oracle.request(\"eth\",\"ethusd\",\"EthCash\", address(this)); \r\n                conversionQ[EthXid] = conversion(buyer, \"issue\", currency, name.stringToBytes32(), EthXid, amount, ABDKMathQuad.fromUInt(0), ABDKMathQuad.fromUInt(1));\r\n            }\r\n            //if ether is paid in for issue of non-USD cash token, we need the exchange rate of ether to the USD (ethusd)\r\n            //and the exchange rate of Via-USD to the requested non-USD cash token (eg, Via-EUR)\r\n            else{\r\n                ViaXid = oracle.request(string(abi.encodePacked(\"Via_USD_to_\", name)).stringToBytes32(),\"ver\",\"Cash\", address(this)); \r\n                EthXid = oracle.request(\"eth\",\"ethusd\",\"EthCash\", address(this)); \r\n                conversionQ[ViaXid] = conversion(buyer, \"issue\", currency, name.stringToBytes32(), EthXid, amount, ABDKMathQuad.fromUInt(0), ABDKMathQuad.fromUInt(0));\r\n            }\r\n        }\r\n        //if ether is not paid in and instead, some other Via cash token is paid in\r\n        //we need to find the exchange rate between the paid in Via cash token and the cash token this cash contract represents\r\n        else{\r\n            ViaXid = oracle.request(string(abi.encodePacked(currency, \"_to_\", name)).stringToBytes32(),\"er\",\"Cash\", address(this)); \r\n            conversionQ[ViaXid] = conversion(buyer, \"issue\", currency, name.stringToBytes32(), ABDKMathQuad.fromUInt(0), amount, ABDKMathQuad.fromUInt(0), ABDKMathQuad.fromUInt(0));\r\n        }\r\n        return true;\r\n    }\r\n\r\n    //requesting redemption of Via cash token and transfer of currency it was issued against\r\n    function redeem(bytes16 amount, address seller, bytes32 token) private returns(bool){\r\n        //if amount is not zero, there is some left to redeem\r\n        if(amount != 0){\r\n            bytes32 currency_in_deposit;\r\n            //find currency that seller had deposited earlier\r\n            for(uint256 q=0; q<factory.getTokenCount(); q++){\r\n                address viaAddress = factory.tokens(q);\r\n                if(factory.getType(viaAddress) == \"ViaCash\" && deposits[seller][factory.getName(viaAddress)]>0){\r\n                    currency_in_deposit = factory.getName(viaAddress);\r\n                }\r\n            }\r\n            //if no more currencies to redeem and amount to redeem is not zero, then redemption fails\r\n            if(currency_in_deposit==\"\" && deposits[seller][\"ether\"]>0)\r\n                currency_in_deposit = \"ether\";\r\n            else{\r\n                //if seller has no deposits against paid in tokens, the tokens could have been transferred to this user from a redemption of tokens\r\n                //which were transferred to this user from another user\r\n                for(uint256 q=0; q<factory.getTokenCount(); q++){\r\n                    address viaAddress = factory.tokens(q);\r\n                    if(factory.getType(viaAddress) == \"ViaCash\" && deposits[address(this)][factory.getName(viaAddress)]>0){\r\n                        currency_in_deposit = factory.getName(viaAddress);\r\n                    }\r\n                }\r\n                if(currency_in_deposit==\"\" && deposits[address(this)][\"ether\"]>0)\r\n                    currency_in_deposit = \"ether\";\r\n                else\r\n                    return false;\r\n            }\r\n            //if currency that this cash token can be redeemed in is ether\r\n            if(currency_in_deposit==\"ether\"){\r\n                //if the cash token to redeem is a Via USD, all we need is the exchange rate of ether to the USD\r\n                if(token==\"Via_USD\"){\r\n                    EthXid = oracle.request(\"eth\",\"ethusd\",\"Cash\", address(this)); \r\n                    conversionQ[EthXid] = conversion(seller, \"redeem\", token, currency_in_deposit, EthXid, amount, ABDKMathQuad.fromUInt(0), ABDKMathQuad.fromUInt(1));\r\n                }\r\n                //and if cash token to redeem is not Via USD, we need to get the exchange rate of ether to the Via-USD, \r\n                //and then the exchange rate of this Via cash token to redeeem and the Via-USD\r\n                else{\r\n                    EthXid = oracle.request(\"eth\",\"ethusd\",\"EthCash\", address(this)); \r\n                    ViaXid = oracle.request(string(abi.encodePacked(token, \"_to_Via_USD\")).stringToBytes32(),\"ver\",\"Cash\", address(this)); \r\n                    conversionQ[ViaXid] = conversion(seller, \"redeem\", token, currency_in_deposit, EthXid, amount, ABDKMathQuad.fromUInt(0), ABDKMathQuad.fromUInt(0));\r\n                }\r\n            }\r\n            //else if the currency this cash token can be redeemed is another Via cash token,\r\n            //we just need the exchange rate of this Via cash token to redeem and the currency that is in deposit\r\n            else{\r\n                ViaXid = oracle.request(string(abi.encodePacked(token, \"_to_\", currency_in_deposit)).stringToBytes32(),\"er\",\"Cash\", address(this)); //\"1234\"; //only for testing\r\n                conversionQ[ViaXid] = conversion(seller, \"redeem\", token, currency_in_deposit, ABDKMathQuad.fromUInt(0), amount, ABDKMathQuad.fromUInt(0), ABDKMathQuad.fromUInt(0));\r\n            }\r\n        }\r\n        else\r\n            //redemption is complete when amount to redeem becomes zero\r\n            return true;\r\n    }    \r\n\r\n    //function called back from Via oracle\r\n    function convert(bytes32 txId, bytes16 result, bytes32 rtype) public {\r\n        require(viaoracle == msg.sender);\r\n        //check type of result returned\r\n        if(rtype ==\"ethusd\"){\r\n            conversionQ[txId].EthXvalue = result;\r\n        }\r\n        if(rtype == \"er\"){\r\n            conversionQ[txId].ViaXvalue = result;\r\n        }\r\n        if(rtype == \"ver\"){\r\n            conversionQ[txId].ViaXvalue = result;\r\n        }\r\n        //check if cash needs to be issued or redeemed\r\n        if(conversionQ[txId].operation==\"issue\"){\r\n            if(rtype == \"ethusd\" || rtype == \"ver\"){\r\n                //for issuing to happen when ether is paid in,\r\n                //value of ethX (ie ether exchange rate to USD) has to be non-zero \r\n                //and viaX (ie via exchange) should be non-zero if cash token to be issued is not Via-USD. We store 1 for ViaXvalue if Via-USD has to be issued\r\n                if(ABDKMathQuad.cmp(conversionQ[txId].EthXvalue, ABDKMathQuad.fromUInt(0))!=0 && ABDKMathQuad.cmp(conversionQ[txId].ViaXvalue, ABDKMathQuad.fromUInt(0))!=0){\r\n                    bytes16 via = convertToVia(conversionQ[txId].amount, conversionQ[txId].paid_in_currency,conversionQ[txId].EthXvalue,conversionQ[txId].ViaXvalue);\r\n                    finallyIssue(via, conversionQ[txId].party, conversionQ[txId].paid_in_currency, conversionQ[txId].amount);\r\n                }\r\n            }\r\n            else if(rtype == \"er\"){\r\n                //for issuing to happen if some other Via cash token is paid in, \r\n                //only the value of ViaX (ie exchange rate of paid in Via cash token to Via cash token to issue) has to be non-zero\r\n                if(ABDKMathQuad.cmp(conversionQ[txId].ViaXvalue, ABDKMathQuad.fromUInt(0))!=0){\r\n                    bytes16 via = convertToVia(conversionQ[txId].amount, conversionQ[txId].paid_in_currency,conversionQ[txId].EthXvalue,conversionQ[txId].ViaXvalue);\r\n                    finallyIssue(via, conversionQ[txId].party, conversionQ[txId].paid_in_currency, conversionQ[txId].amount);\r\n                }\r\n            }\r\n        }\r\n        else if(conversionQ[txId].operation==\"redeem\"){\r\n            if(rtype == \"ethusd\" || rtype == \"ver\"){\r\n                //for redemption to happen in ether,\r\n                //value of ethX (ie ether exchange rate to USD) has to be non-zero \r\n                //and viaX (ie via exchange) should be non-zero if cash token to be redeemed is not Via-USD. We store 1 for ViaXvalue if Via-USD has to be redeemed\r\n                if(ABDKMathQuad.cmp(conversionQ[txId].EthXvalue, ABDKMathQuad.fromUInt(0))!=0 && ABDKMathQuad.cmp(conversionQ[txId].ViaXvalue, ABDKMathQuad.fromUInt(0))!=0){\r\n                    bytes16 value = convertFromVia(conversionQ[txId].amount, conversionQ[txId].payout_currency,conversionQ[txId].EthXvalue,conversionQ[txId].ViaXvalue);\r\n                    finallyRedeem(value, conversionQ[txId].payout_currency, conversionQ[txId].party, conversionQ[txId].amount);\r\n                }\r\n            }\r\n            else if(rtype == \"er\"){\r\n                //for redemption to happen in some other Via cash token\r\n                //the viaX (ie via exchange rate) between the cash token to redeem and the cash token in deposit should be non-zero\r\n                if(ABDKMathQuad.cmp(conversionQ[txId].ViaXvalue, ABDKMathQuad.fromUInt(0))!=0){\r\n                    bytes16 value = convertFromVia(conversionQ[txId].amount, conversionQ[txId].payout_currency,conversionQ[txId].EthXvalue,conversionQ[txId].ViaXvalue);\r\n                    finallyRedeem(value, conversionQ[txId].payout_currency, conversionQ[txId].party, conversionQ[txId].amount);\r\n                }\r\n            }\r\n        }\r\n    }\r\n\r\n    //via is the number of this via cash token that is being issued, party is the user account address to which issued tokens are credited\r\n    function finallyIssue(bytes16 via, address party, bytes32 currency, bytes16 amount) private {\r\n        //add paid in currency to depositor\r\n        if(deposits[party][currency]==0){\r\n            deposits[party][currency] = amount;\r\n        }\r\n        else{\r\n            deposits[party][currency] = ABDKMathQuad.add(deposits[party][currency], amount);\r\n        }\r\n        if(currency==\"ether\"){\r\n            //add via to this contract's balance first (ie issue them first)\r\n            balances[address(this)] = ABDKMathQuad.add(balances[address(this)], via);\r\n            //transfer amount to buyer \r\n            transfer(party, ABDKMathQuad.toUInt(via));\r\n            //adjust total supply\r\n            totalSupply_ = ABDKMathQuad.add(totalSupply_, via);\r\n        }\r\n        else{\r\n            balances[party] = ABDKMathQuad.add(balances[party], via);\r\n            //adjust total supply\r\n            totalSupply_ = ABDKMathQuad.add(totalSupply_, via);\r\n        }\r\n        //generate event\r\n        emit ViaCashIssued(name.stringToBytes32(), via);\r\n    }\r\n\r\n    //value is the redeemable amount in the currency to pay out\r\n    //currency is the pay out currency or currency to pay out\r\n    //party is the user account address to which redemption has to be credited\r\n    //amount is the number of this via cash token that needs to be redeemed\r\n    function finallyRedeem(bytes16 value, bytes32 currency, address party, bytes16 amount) private {\r\n        //check if currency in which redemption is to be done has sufficient balance\r\n        if(currency==\"ether\"){\r\n            if(ABDKMathQuad.cmp(deposits[party][\"ether\"], value)==1 || ABDKMathQuad.cmp(deposits[party][\"ether\"], value)==0){\r\n                deposits[party][\"ether\"] = ABDKMathQuad.sub(deposits[party][\"ether\"], value);\r\n                //send redeemed ether to party\r\n                //address(uint160(party)).transfer(ABDKMathQuad.toUInt(value));\r\n                (bool success, )=address(uint160(party)).call.value(ABDKMathQuad.toUInt(value))(\"\");\r\n                require(success, \"Transfer failed\");\r\n                //reduces balances\r\n                balances[party] = ABDKMathQuad.sub(balances[party], amount);\r\n                //adjust total supply\r\n                totalSupply_ = ABDKMathQuad.sub(totalSupply_, amount);\r\n                //generate event\r\n                emit ViaCashRedeemed(currency, value);\r\n            }\r\n            //amount to redeem is more than what is in deposit, so we need to remove deposit after redemption,\r\n            //and call the redeem function again for the balance amount that is not yet redeemed\r\n            else{\r\n                bytes16 proportionRedeemed = ABDKMathQuad.div(deposits[party][\"ether\"], value);\r\n                bytes16 balanceToRedeem = ABDKMathQuad.mul(amount,ABDKMathQuad.sub(ABDKMathQuad.fromUInt(1), proportionRedeemed));\r\n                //send redeemed ether to party which is all of the ether in deposit with this user (party)\r\n                //address(uint160(party)).transfer(ABDKMathQuad.toUInt(deposits[party][\"ether\"]));\r\n                (bool success, )=address(uint160(party)).call.value(ABDKMathQuad.toUInt(deposits[party][\"ether\"]))(\"\");\r\n                require(success, \"Transfer failed\");\r\n                //reduces balances\r\n                balances[party] = ABDKMathQuad.sub(balances[party], ABDKMathQuad.mul(amount, proportionRedeemed));\r\n                //adjust total supply\r\n                totalSupply_ = ABDKMathQuad.sub(totalSupply_, ABDKMathQuad.mul(amount, proportionRedeemed));\r\n                //generate event\r\n                emit ViaCashRedeemed(currency, deposits[party][\"ether\"]);\r\n                //deposit of ether with the user (party) becomes zero\r\n                deposits[party][\"ether\"] = 0;\r\n                redeem(balanceToRedeem, party, name.stringToBytes32());\r\n            }\r\n        }\r\n        //else currency to redeem is not ether\r\n        else{\r\n            for(uint256 q=0; q<factory.getTokenCount(); q++){\r\n                address viaAddress = factory.tokens(q);\r\n                if(factory.getName(viaAddress) == currency && factory.getType(viaAddress) == \"ViaCash\"){\r\n                    if(ABDKMathQuad.cmp(Cash(address(uint160(viaAddress))).deductFromBalance(value, party),0)==1){\r\n                        deposits[party][currency] = ABDKMathQuad.sub(deposits[party][currency], value);\r\n                        //reduces balances\r\n                        balances[party] = ABDKMathQuad.sub(balances[party], amount);\r\n                        //adjust total supply\r\n                        totalSupply_ = ABDKMathQuad.sub(totalSupply_, amount);\r\n                        //generate event\r\n                        emit ViaCashRedeemed(currency, value);\r\n                    }\r\n                    //amount to redeem is more than what is in deposit, so we need to remove deposit after redemption,\r\n                    //and call the redeem function again for the balance amount that is not yet redeemed\r\n                    else{\r\n                        bytes16 proportionRedeemed = ABDKMathQuad.div(deposits[party][currency], value);\r\n                        bytes16 balanceToRedeem = ABDKMathQuad.mul(amount, ABDKMathQuad.sub(ABDKMathQuad.fromUInt(1), proportionRedeemed));\r\n                        //reduces balances\r\n                        balances[party] = ABDKMathQuad.sub(balances[party], ABDKMathQuad.mul(amount, proportionRedeemed));\r\n                        //adjust total supply\r\n                        totalSupply_ = ABDKMathQuad.sub(totalSupply_, ABDKMathQuad.mul(amount, proportionRedeemed));\r\n                        //generate event\r\n                        emit ViaCashRedeemed(currency, deposits[party][currency]);\r\n                        //deposit of the currency with the user (party) becomes zero\r\n                        deposits[party][currency] = 0;\r\n                        redeem(balanceToRedeem, party, name.stringToBytes32());\r\n                    }\r\n                }\r\n            }\r\n        }\r\n    }\r\n    \r\n    //get Via exchange rates from oracle and convert given currency and amount to via cash token\r\n    function convertToVia(bytes16 amount, bytes32 paid_in_currency, bytes16 ethusd, bytes16 viarate) private view returns(bytes16){\r\n        if(paid_in_currency==\"ether\"){\r\n            //to first convert amount of ether passed to this function to USD\r\n            bytes16 amountInUSD = ABDKMathQuad.div(ABDKMathQuad.mul(amount, ethusd), ABDKMathQuad.fromUInt(1000000000000000000));\r\n            //to then convert USD to Via-currency if currency of this contract is not USD itself\r\n            if(name.stringToBytes32()!=\"Via_USD\"){\r\n                bytes16 inVia = ABDKMathQuad.mul(amountInUSD, viarate);\r\n                return inVia;\r\n            }\r\n            else{\r\n                return amountInUSD;\r\n            }\r\n        }\r\n        //if currency paid in another via currency\r\n        else{\r\n            bytes16 inVia = ABDKMathQuad.mul(amount, viarate);\r\n            return inVia;\r\n        }\r\n    }\r\n\r\n    //convert Via-currency (eg, Via-EUR, Via-INR, Via-USD) to Ether or another Via currency\r\n    //viarate is 1 if pay out currency is ether and this via cash token to redeem is Via-USD, otherwise viarate is exchange rate between this cash token to Via-USD\r\n    //if pay out currency is not ether, then viarate is exchange rate between this cash token and cash token to pay out \r\n    function convertFromVia(bytes16 amount, bytes32 payout_currency, bytes16 ethusd, bytes16 viarate) private pure returns(bytes16){\r\n        //if currency to convert to is ether\r\n        if(payout_currency==\"ether\"){\r\n            bytes16 amountInViaUSD = ABDKMathQuad.mul(amount, viarate);\r\n            bytes16 inEth = ABDKMathQuad.div(amountInViaUSD, ethusd);\r\n            return inEth;\r\n        }\r\n        //else convert to another via currency\r\n        else{\r\n            return ABDKMathQuad.mul(viarate, amount);\r\n        }\r\n    }\r\n    \r\n}\r\n",
  "sourcePath": "D:\\verified\\via-issuer\\contracts\\Cash.sol",
  "compiler": {
    "name": "solc",
    "version": "0.5.7+commit.6da8b019.Emscripten.clang"
  },
  "schemaVersion": "3.2.5",
  "updatedAt": "2020-11-07T12:12:55.070Z",
  "devdoc": {
    "methods": {
      "initialize(address)": {
        "details": "Initializes the contract setting the deployer as the initial owner.\r"
      },
      "isOwner()": {
        "details": "Returns true if the caller is the current owner.\r"
      },
      "owner()": {
        "details": "Returns the address of the current owner.\r"
      },
      "renounceOwnership()": {
        "details": "Leaves the contract without owner. It will not be possible to call\r `onlyOwner` functions anymore. Can only be called by the current owner.\r      * > Note: Renouncing ownership will leave the contract without an owner,\r thereby removing any functionality that is only available to the owner.\r"
      },
      "transferOwnership(address)": {
        "details": "Transfers ownership of the contract to a new account (`newOwner`).\r Can only be called by the current owner.\r"
      }
    }
  },
  "userdoc": {
    "methods": {}
  }
}