{
  "contractName": "Cash",
  "abi": [
    {
      "constant": true,
      "inputs": [],
      "name": "name",
      "outputs": [
        {
          "name": "",
          "type": "string"
        }
      ],
      "payable": false,
      "stateMutability": "view",
      "type": "function"
    },
    {
      "constant": false,
      "inputs": [
        {
          "name": "spender",
          "type": "address"
        },
        {
          "name": "tokens",
          "type": "uint256"
        }
      ],
      "name": "approve",
      "outputs": [
        {
          "name": "",
          "type": "bool"
        }
      ],
      "payable": false,
      "stateMutability": "nonpayable",
      "type": "function"
    },
    {
      "constant": true,
      "inputs": [],
      "name": "cashtokenName",
      "outputs": [
        {
          "name": "",
          "type": "bytes32"
        }
      ],
      "payable": false,
      "stateMutability": "view",
      "type": "function"
    },
    {
      "constant": true,
      "inputs": [],
      "name": "totalSupply",
      "outputs": [
        {
          "name": "",
          "type": "uint256"
        }
      ],
      "payable": false,
      "stateMutability": "view",
      "type": "function"
    },
    {
      "constant": true,
      "inputs": [
        {
          "name": "",
          "type": "address"
        },
        {
          "name": "",
          "type": "bytes32"
        }
      ],
      "name": "deposits",
      "outputs": [
        {
          "name": "",
          "type": "bytes16"
        }
      ],
      "payable": false,
      "stateMutability": "view",
      "type": "function"
    },
    {
      "constant": true,
      "inputs": [
        {
          "name": "",
          "type": "address"
        }
      ],
      "name": "balances",
      "outputs": [
        {
          "name": "",
          "type": "bytes16"
        }
      ],
      "payable": false,
      "stateMutability": "view",
      "type": "function"
    },
    {
      "constant": true,
      "inputs": [],
      "name": "decimals",
      "outputs": [
        {
          "name": "",
          "type": "uint8"
        }
      ],
      "payable": false,
      "stateMutability": "view",
      "type": "function"
    },
    {
      "constant": true,
      "inputs": [
        {
          "name": "tokenOwner",
          "type": "address"
        }
      ],
      "name": "balanceOf",
      "outputs": [
        {
          "name": "",
          "type": "uint256"
        }
      ],
      "payable": false,
      "stateMutability": "view",
      "type": "function"
    },
    {
      "constant": false,
      "inputs": [],
      "name": "renounceOwnership",
      "outputs": [],
      "payable": false,
      "stateMutability": "nonpayable",
      "type": "function"
    },
    {
      "constant": true,
      "inputs": [],
      "name": "owner",
      "outputs": [
        {
          "name": "",
          "type": "address"
        }
      ],
      "payable": false,
      "stateMutability": "view",
      "type": "function"
    },
    {
      "constant": true,
      "inputs": [],
      "name": "isOwner",
      "outputs": [
        {
          "name": "",
          "type": "bool"
        }
      ],
      "payable": false,
      "stateMutability": "view",
      "type": "function"
    },
    {
      "constant": true,
      "inputs": [],
      "name": "symbol",
      "outputs": [
        {
          "name": "",
          "type": "string"
        }
      ],
      "payable": false,
      "stateMutability": "view",
      "type": "function"
    },
    {
      "constant": false,
      "inputs": [
        {
          "name": "receiver",
          "type": "address"
        },
        {
          "name": "tokens",
          "type": "uint256"
        }
      ],
      "name": "transfer",
      "outputs": [
        {
          "name": "",
          "type": "bool"
        }
      ],
      "payable": false,
      "stateMutability": "nonpayable",
      "type": "function"
    },
    {
      "constant": true,
      "inputs": [
        {
          "name": "tokenOwner",
          "type": "address"
        },
        {
          "name": "spender",
          "type": "address"
        }
      ],
      "name": "allowance",
      "outputs": [
        {
          "name": "",
          "type": "uint256"
        }
      ],
      "payable": false,
      "stateMutability": "view",
      "type": "function"
    },
    {
      "constant": false,
      "inputs": [
        {
          "name": "newOwner",
          "type": "address"
        }
      ],
      "name": "transferOwnership",
      "outputs": [],
      "payable": false,
      "stateMutability": "nonpayable",
      "type": "function"
    },
    {
      "payable": true,
      "stateMutability": "payable",
      "type": "fallback"
    },
    {
      "anonymous": false,
      "inputs": [
        {
          "indexed": false,
          "name": "currency",
          "type": "bytes32"
        },
        {
          "indexed": false,
          "name": "value",
          "type": "bytes16"
        }
      ],
      "name": "ViaCashIssued",
      "type": "event"
    },
    {
      "anonymous": false,
      "inputs": [
        {
          "indexed": false,
          "name": "currency",
          "type": "bytes32"
        },
        {
          "indexed": false,
          "name": "value",
          "type": "bytes16"
        }
      ],
      "name": "ViaCashRedeemed",
      "type": "event"
    },
    {
      "anonymous": false,
      "inputs": [
        {
          "indexed": false,
          "name": "EthXid",
          "type": "bytes32"
        },
        {
          "indexed": false,
          "name": "EthXvalue",
          "type": "bytes16"
        },
        {
          "indexed": false,
          "name": "txId",
          "type": "bytes32"
        },
        {
          "indexed": false,
          "name": "ViaXvalue",
          "type": "bytes16"
        }
      ],
      "name": "LogCallback",
      "type": "event"
    },
    {
      "anonymous": false,
      "inputs": [
        {
          "indexed": true,
          "name": "previousOwner",
          "type": "address"
        },
        {
          "indexed": true,
          "name": "newOwner",
          "type": "address"
        }
      ],
      "name": "OwnershipTransferred",
      "type": "event"
    },
    {
      "anonymous": false,
      "inputs": [
        {
          "indexed": true,
          "name": "tokenOwner",
          "type": "address"
        },
        {
          "indexed": true,
          "name": "spender",
          "type": "address"
        },
        {
          "indexed": false,
          "name": "tokens",
          "type": "uint256"
        }
      ],
      "name": "Approval",
      "type": "event"
    },
    {
      "anonymous": false,
      "inputs": [
        {
          "indexed": true,
          "name": "from",
          "type": "address"
        },
        {
          "indexed": true,
          "name": "to",
          "type": "address"
        },
        {
          "indexed": false,
          "name": "tokens",
          "type": "uint256"
        }
      ],
      "name": "Transfer",
      "type": "event"
    },
    {
      "constant": false,
      "inputs": [
        {
          "name": "_name",
          "type": "bytes32"
        },
        {
          "name": "_type",
          "type": "bytes32"
        },
        {
          "name": "_owner",
          "type": "address"
        },
        {
          "name": "_oracle",
          "type": "address"
        },
        {
          "name": "_token",
          "type": "address"
        }
      ],
      "name": "initialize",
      "outputs": [],
      "payable": false,
      "stateMutability": "nonpayable",
      "type": "function"
    },
    {
      "constant": false,
      "inputs": [
        {
          "name": "sender",
          "type": "address"
        }
      ],
      "name": "initialize",
      "outputs": [],
      "payable": false,
      "stateMutability": "nonpayable",
      "type": "function"
    },
    {
      "constant": false,
      "inputs": [
        {
          "name": "sender",
          "type": "address"
        },
        {
          "name": "receiver",
          "type": "address"
        },
        {
          "name": "tokens",
          "type": "uint256"
        }
      ],
      "name": "transferFrom",
      "outputs": [
        {
          "name": "",
          "type": "bool"
        }
      ],
      "payable": false,
      "stateMutability": "nonpayable",
      "type": "function"
    },
    {
      "constant": false,
      "inputs": [
        {
          "name": "tokens",
          "type": "bytes16"
        },
        {
          "name": "sender",
          "type": "address"
        }
      ],
      "name": "requestAddToBalance",
      "outputs": [
        {
          "name": "",
          "type": "bool"
        }
      ],
      "payable": false,
      "stateMutability": "nonpayable",
      "type": "function"
    },
    {
      "constant": false,
      "inputs": [
        {
          "name": "tokens",
          "type": "bytes16"
        },
        {
          "name": "receiver",
          "type": "address"
        }
      ],
      "name": "requestDeductFromBalance",
      "outputs": [
        {
          "name": "",
          "type": "bytes16"
        }
      ],
      "payable": false,
      "stateMutability": "nonpayable",
      "type": "function"
    },
    {
      "constant": false,
      "inputs": [
        {
          "name": "amount",
          "type": "bytes16"
        },
        {
          "name": "buyer",
          "type": "address"
        },
        {
          "name": "currency",
          "type": "bytes32"
        }
      ],
      "name": "requestIssue",
      "outputs": [
        {
          "name": "",
          "type": "bool"
        }
      ],
      "payable": false,
      "stateMutability": "nonpayable",
      "type": "function"
    },
    {
      "constant": false,
      "inputs": [
        {
          "name": "txId",
          "type": "bytes32"
        },
        {
          "name": "result",
          "type": "bytes16"
        },
        {
          "name": "rtype",
          "type": "bytes32"
        }
      ],
      "name": "convert",
      "outputs": [],
      "payable": false,
      "stateMutability": "nonpayable",
      "type": "function"
    }
  ],
  "bytecode": "0x6080604052614e33806100136000396000f3fe6080604052600436106101355760003560e01c806370a08231116100ab578063a1c348811161006f578063a1c34881146104ee578063a9059cbb14610531578063c4d66de81461056a578063dd62ed3e1461059d578063f2fde38b146105d8578063fffc604f1461060b57610135565b806370a082311461044b578063715018a61461047e5780638da5cb5b146104935780638f32d59b146104c457806395d89b41146104d957610135565b806321f68b4e116100fd57806321f68b4e146102de5780632260a9c21461032057806323b872dd1461035957806327e235e31461039c578063313ce567146103cf57806346499770146103fa57610135565b806306fdde031461016b57806307eff720146101f5578063095ea7b3146102555780630bc4b81a146102a257806318160ddd146102c9575b3461013f57600080fd5b361561014a57600080fd5b61016861015634610654565b33600160d91b6432ba3432b9026106ba565b50005b34801561017757600080fd5b50610180610e35565b6040805160208082528351818301528351919283929083019185019080838360005b838110156101ba5781810151838201526020016101a2565b50505050905090810190601f1680156101e75780820380516001836020036101000a031916815260200191505b509250505060405180910390f35b34801561020157600080fd5b506102386004803603604081101561021857600080fd5b5080356001600160801b03191690602001356001600160a01b0316610ec3565b604080516001600160801b03199092168252519081900360200190f35b34801561026157600080fd5b5061028e6004803603604081101561027857600080fd5b506001600160a01b038135169060200135610ff8565b604080519115158252519081900360200190f35b3480156102ae57600080fd5b506102b761107f565b60408051918252519081900360200190f35b3480156102d557600080fd5b506102b7611085565b3480156102ea57600080fd5b5061031e6004803603606081101561030157600080fd5b508035906001600160801b0319602082013516906040013561109d565b005b34801561032c57600080fd5b506102386004803603604081101561034357600080fd5b506001600160a01b0381351690602001356115e6565b34801561036557600080fd5b5061028e6004803603606081101561037c57600080fd5b506001600160a01b03813581169160208101359091169060400135611606565b3480156103a857600080fd5b50610238600480360360208110156103bf57600080fd5b50356001600160a01b0316611aee565b3480156103db57600080fd5b506103e4611b03565b6040805160ff9092168252519081900360200190f35b34801561040657600080fd5b5061031e600480360360a081101561041d57600080fd5b508035906020810135906001600160a01b036040820135811691606081013582169160809091013516611b13565b34801561045757600080fd5b506102b76004803603602081101561046e57600080fd5b50356001600160a01b0316611c8a565b34801561048a57600080fd5b5061031e611caf565b34801561049f57600080fd5b506104a8611d55565b604080516001600160a01b039092168252519081900360200190f35b3480156104d057600080fd5b5061028e611d64565b3480156104e557600080fd5b50610180611d8a565b3480156104fa57600080fd5b5061028e6004803603604081101561051157600080fd5b5080356001600160801b03191690602001356001600160a01b0316611de5565b34801561053d57600080fd5b5061028e6004803603604081101561055457600080fd5b506001600160a01b038135169060200135611f11565b34801561057657600080fd5b5061031e6004803603602081101561058d57600080fd5b50356001600160a01b0316612025565b3480156105a957600080fd5b506102b7600480360360408110156105c057600080fd5b506001600160a01b038135811691602001351661211a565b3480156105e457600080fd5b5061031e600480360360208110156105fb57600080fd5b50356001600160a01b031661214e565b34801561061757600080fd5b5061028e6004803603606081101561062e57600080fd5b506001600160801b0319813516906001600160a01b0360208201351690604001356121b6565b600081610663575060006106b5565b81600061066f8261225b565b90506070811015610688578060700382901b915061069b565b607081111561069b576070810382901c91505b613fff0160701b6001600160701b03919091161760801b90505b919050565b60006001600160801b031984166106d057600080fd5b81600160d91b6432ba3432b9021415610c1f57606f54600160ca1b66159a5857d554d102141561097b576000600160f01b613131029050604051806101200160405280856001600160a01b0316815260200160006001600160a01b03168152602001600160d81b646973737565028152602001848152602001606f548152602001828152602001866001600160801b03191681526020016107716000610654565b6001600160801b031916815260200161078a6001610654565b6001600160801b03199081169091526000838152607160209081526040808320855181546001600160a01b039182166001600160a01b0319918216178355878501516001840180549190931691161790558582015160028201556060860151600382015560808087015160048084019190915560a0880151600584015560c08801516006808501805460e08c0151861c600160801b0293861c908b16176001600160801b03169290921790915561010090980151600790930180549390921c9290961691909117905580518082018252948552600160d01b653435312e3235028583019081529051600160e01b631bd9515502815293840191825284516024850152845161097595600160f01b61313102956109639573__stringutils___________________________95631bd9515595939490938493604401929091908190849084905b838110156108e85781810151838201526020016108d0565b50505050905090810190601f1680156109155780820380516001836020036101000a031916815260200191505b509250505060206040518083038186803b15801561093257600080fd5b505af4158015610946573d6000803e3d6000fd5b505050506040513d602081101561095c57600080fd5b5051610654565b600160d21b65195d1a1d5cd90261109d565b50610c1a565b6000600160f01b6131310290506000600160f11b611919029050604051806101200160405280866001600160a01b0316815260200160006001600160a01b03168152602001600160d81b646973737565028152602001858152602001606f548152602001838152602001876001600160801b03191681526020016109ff6000610654565b6001600160801b0319168152602001610a186000610654565b6001600160801b03199081169091526000838152607160209081526040808320855181546001600160a01b039182166001600160a01b0319918216178355878501516001840180549190931691161790558582015160028201556060860151600382015560808087015160048084019190915560a0880151600584015560c08801516006808501805460e08c0151861c600160801b0293861c908b16176001600160801b03169290921790915561010090980151600790930180549390921c9290961691909117905580518082018252948552600160d01b653435312e3235028583019081529051600160e01b631bd95155028152938401918252845160248501528451610b7595600160f11b61191902956109639573__stringutils___________________________95631bd951559593949093849360440192909190819084908490838110156108e85781810151838201526020016108d0565b60408051808201825260038152600160e91b621897190260208083019182529251600160e01b631bd9515502815260048101938452825160248201528251610c1794600160f11b6119190294610c089473__stringutils___________________________94631bd9515594929392839260449092019190808383600083156108e85781810151838201526020016108d0565b600160e91b623b32b90261109d565b50505b610e2a565b6000600160f01b613333029050604051806101200160405280856001600160a01b0316815260200160006001600160a01b03168152602001600160d81b646973737565028152602001848152602001606f548152602001610c806000610654565b6001600160801b0319908116825287166020820152604001610ca26000610654565b6001600160801b0319168152602001610cbb6000610654565b6001600160801b03199081169091526000838152607160209081526040808320855181546001600160a01b039182166001600160a01b031991821617835587850151600184018054919093169116179055858201516002820155606086015160038083019190915560808088015160048085019190915560a0890151600585015560c089015160068501805460e08c0151851c600160801b0292851c908b16176001600160801b031691909117905561010090980151600790930180549390911c929096169190911790945580518082018252938452600160e91b621b971b028483019081529051600160e01b631bd95155028152948501918252835160248601528351610e2895600160f01b6133330295610e1a9573__stringutils___________________________95631bd9515595929490938493604490910192909190819084908490838110156108e85781810151838201526020016108d0565b600160f11b6132b90261109d565b505b5060015b9392505050565b606d805460408051602060026001851615610100026000190190941693909304601f81018490048402820184019092528181529291830182828015610ebb5780601f10610e9057610100808354040283529160200191610ebb565b820191906000526020600020905b815481529060010190602001808311610e9e57829003601f168201915b505050505081565b606a5460408051600160e01b63f429f19b02815233600482015290516000926001600160a01b03169163f429f19b916024808301926020929190829003018186803b158015610f1157600080fd5b505afa158015610f25573d6000803e3d6000fd5b505050506040513d6020811015610f3b57600080fd5b5051600160cb1b660acd2c286c2e6d021480610fdc5750606a5460408051600160e01b63f429f19b02815233600482015290516001600160a01b039092169163f429f19b91602480820192602092909190829003018186803b158015610fa057600080fd5b505afa158015610fb4573d6000803e3d6000fd5b505050506040513d6020811015610fca57600080fd5b5051600160ca1b66159a58509bdb9902145b610fe557600080fd5b610fef83836122fe565b90505b92915050565b600061100382610654565b3360008181526003602090815260408083206001600160a01b0389168085529083529281902080546001600160801b03191660809690961c959095179094558351868152935191937f8c5be1e5ebec7d5bd14f71427d1e84f3dd0314c0f7b2291e5b200ac8c7c3b925929081900390910190a350600192915050565b606f5481565b6001546000906110979060801b6124f1565b90505b90565b80600160d21b65195d1a1d5cd90214156110dc57600083815260716020526040902060060180546001600160801b0316600160801b608085901c021790555b80600160f11b6132b902141561111257600083815260716020526040902060070180546001600160801b031916608084901c1790555b80600160e91b623b32b902141561114957600083815260716020526040902060070180546001600160801b031916608084901c1790555b600083815260716020526040902060020154600160d81b6469737375650214156113ba5780600160d21b65195d1a1d5cd902148061118f575080600160e91b623b32b902145b15611300576000838152607160209081526040918290206005810154600682015460079092015484519182526001600160801b0319600160801b909304608090811b841694830194909452818501889052831b91909116606082015291517fba6828c9a7dbe4e84f7454556fee116cce32b8fe511dcdbf171e701e1f1b50bb9281900390910190a160008381526071602052604081206006015461124791600160801b90910460801b9061124290610654565b612589565b60000b1580159061127f57506000838152607160205260408120600701546112799160809190911b9061124290610654565b60000b15155b156112fb576000838152607160205260408120600681015460038201546007909201546112c092608083811b939192600160801b909204811b91901b6126d2565b6000858152607160205260409020805460038201546006909201549293506112f99284926001600160a01b03909216919060801b612756565b505b6113b5565b80600160f11b6132b90214156113b5576000838152607160205260408120600701546113369160809190911b9061124290610654565b60000b156113b55760008381526071602052604081206006810154600382015460079092015461137a92608083811b939192600160801b909204811b91901b6126d2565b6000858152607160205260409020805460038201546006909201549293506113b39284926001600160a01b03909216919060801b612756565b505b6115e1565b600083815260716020526040902060020154600160d01b6572656465656d0214806114035750600083815260716020526040902060020154600160c11b673a3930b739b332b902145b156115e15780600160d21b65195d1a1d5cd902148061142a575080600160e91b623b32b902145b1561151c5760008381526071602052604081206006015461145a91600160801b90910460801b9061124290610654565b60000b15801590611492575060008381526071602052604081206007015461148c9160809190911b9061124290610654565b60000b15155b156113b5576000838152607160205260408120600681015460048201546007909201546114d392608083811b939192600160801b909204811b91901b612935565b600085815260716020526040902060048101548154600683015460028401546001909401549495506113b39486946001600160a01b039384169360809390931b9290911661296e565b80600160f11b6132b90214156115e1576000838152607160205260408120600701546115529160809190911b9061124290610654565b60000b156115e15760008381526071602052604081206006810154600482015460079092015461159692608083811b939192600160801b909204811b91901b612935565b600085815260716020526040902060048101548154600683015460028401546001909401549495506115df9486946001600160a01b039384169360809390931b9290911661296e565b505b505050565b607060209081526000928352604080842090915290825290205460801b81565b6001600160a01b03831660009081526002602052604081205461162f9060801b61124284610654565b60000b600019141561164057600080fd5b6001600160a01b0383163014156116895761167461165d83610654565b85606f54600160d01b6572656465656d02306138f5565b1561168157506001610e2e565b506000610e2e565b606a5460408051600160e01b63f429f19b0281526001600160a01b0386811660048301529151919092169163f429f19b916024808301926020929190829003018186803b1580156116d957600080fd5b505afa1580156116ed573d6000803e3d6000fd5b505050506040513d602081101561170357600080fd5b5051600160cb1b660acd2c286c2e6d0214156118845760725460ff161561172957600080fd5b6072805460ff191660011790556001600160a01b03831663fffc604f61174e84610654565b606f546040805163ffffffff851660e01b81526001600160801b031990931660048401526001600160a01b038916602484015260448301919091525160648083019260209291908290030181600087803b1580156117ab57600080fd5b505af11580156117bf573d6000803e3d6000fd5b505050506040513d60208110156117d557600080fd5b505115611872576001600160a01b03841660009081526002602052604090205461180a9060801b61180584610654565b6141ea565b6001600160a01b038516600090815260026020526040902080546001600160801b031916608092831c179055600154611847911b61180584610654565b600180546001600160801b03191660809290921c9190911781556072805460ff191690559050610e2e565b506072805460ff191690556000610e2e565b606a5460408051600160e01b63f429f19b0281526001600160a01b0386811660048301529151919092169163f429f19b916024808301926020929190829003018186803b1580156118d457600080fd5b505afa1580156118e8573d6000803e3d6000fd5b505050506040513d60208110156118fe57600080fd5b5051600160ca1b66159a58509bdb990214156119c857826001600160a01b0316632c5fc01d61192c84610654565b606f546040805163ffffffff851660e01b81526001600160801b031990931660048401526001600160a01b038916602484015260448301919091523060648301525160848083019260209291908290030181600087803b15801561198f57600080fd5b505af11580156119a3573d6000803e3d6000fd5b505050506040513d60208110156119b957600080fd5b50511561168157506001610e2e565b606a5460408051600160e01b63f429f19b0281526001600160a01b0386811660048301529151919092169163f429f19b916024808301926020929190829003018186803b158015611a1857600080fd5b505afa158015611a2c573d6000803e3d6000fd5b505050506040513d6020811015611a4257600080fd5b50517f566961426f6e64546f6b656e00000000000000000000000000000000000000001415611a8357826001600160a01b0316632c5fc01d61192c84610654565b611aa8611a8f83610654565b85606f54600160c11b673a3930b739b332b902876138f5565b1561168157826001600160a01b0316846001600160a01b0316600080516020614dc8833981519152846040518082815260200191505060405180910390a3506001610e2e565b60026020526000908152604090205460801b81565b600054600160a01b900460ff1681565b600454610100900460ff1680611b2c5750611b2c6141fc565b80611b3a575060045460ff16155b611b7857604051600160e51b62461bcd02815260040180806020018281038252602e815260200180614d9a602e913960400191505060405180910390fd5b600454610100900460ff16158015611ba3576004805460ff1961ff0019909116610100171660011790555b611bac84612025565b606a80546001600160a01b038087166001600160a01b031992831617909255606b805492861692821683179055606c805490911690911790556040805160208082018990528251808303820181529183019092528051611c1092606d920190614cdb565b506040805160208082018890528251808303820181529183019092528051611c3c92606e920190614cdb565b50606f8690556072805460ff191690556000805474ff00000000000000000000000000000000000000001916600160a11b1790558015611c82576004805461ff00191690555b505050505050565b6001600160a01b038116600090815260026020526040812054610ff29060801b6124f1565b611cb7611d64565b611d0b5760408051600160e51b62461bcd02815260206004820181905260248201527f4f776e61626c653a2063616c6c6572206973206e6f7420746865206f776e6572604482015290519081900360640190fd5b6037546040516000916001600160a01b0316907f8be0079c531659141344cd1fd0a4f28419497f9722a3daafe3b4186f6b6457e0908390a3603780546001600160a01b0319169055565b6037546001600160a01b031690565b6037546000906001600160a01b0316611d7b614202565b6001600160a01b031614905090565b606e805460408051602060026001851615610100026000190190941693909304601f81018490048402820184019092528181529291830182828015610ebb5780601f10610e9057610100808354040283529160200191610ebb565b606a5460408051600160e01b63f429f19b02815233600482015290516000926001600160a01b03169163f429f19b916024808301926020929190829003018186803b158015611e3357600080fd5b505afa158015611e47573d6000803e3d6000fd5b505050506040513d6020811015611e5d57600080fd5b5051600160cb1b660acd2c286c2e6d021480611efe5750606a5460408051600160e01b63f429f19b02815233600482015290516001600160a01b039092169163f429f19b91602480820192602092909190829003018186803b158015611ec257600080fd5b505afa158015611ed6573d6000803e3d6000fd5b505050506040513d6020811015611eec57600080fd5b5051600160ca1b66159a58509bdb9902145b611f0757600080fd5b610fef8383614206565b6000611f37611f1f83610654565b3060009081526002602052604090205460801b612589565b60000b6000191480611f555750611f50611f1f83610654565b60000b155b611f5e57600080fd5b30600090815260026020526040902054611f7e9060801b61180584610654565b3060009081526002602052604080822080546001600160801b031916608094851c1790556001600160a01b0386168252902054611fc4911b611fbf84610654565b614306565b6001600160a01b03841660008181526002602090815260409182902080546001600160801b03191660809590951c949094179093558051858152905191923092600080516020614dc88339815191529281900390910190a350600192915050565b600454610100900460ff168061203e575061203e6141fc565b8061204c575060045460ff16155b61208a57604051600160e51b62461bcd02815260040180806020018281038252602e815260200180614d9a602e913960400191505060405180910390fd5b600454610100900460ff161580156120b5576004805460ff1961ff0019909116610100171660011790555b603780546001600160a01b0319166001600160a01b0384811691909117918290556040519116906000907f8be0079c531659141344cd1fd0a4f28419497f9722a3daafe3b4186f6b6457e0908290a38015612116576004805461ff00191690555b5050565b6001600160a01b038083166000908152600360209081526040808320938516835292905290812054610fef9060801b6124f1565b612156611d64565b6121aa5760408051600160e51b62461bcd02815260206004820181905260248201527f4f776e61626c653a2063616c6c6572206973206e6f7420746865206f776e6572604482015290519081900360640190fd5b6121b38161470a565b50565b606a5460408051600160e01b63f429f19b02815233600482015290516000926001600160a01b03169163f429f19b916024808301926020929190829003018186803b15801561220457600080fd5b505afa158015612218573d6000803e3d6000fd5b505050506040513d602081101561222e57600080fd5b5051600160cb1b660acd2c286c2e6d021461224857600080fd5b6122538484846106ba565b949350505050565b600080821161226957600080fd5b6000600160801b831061227e57608092831c92015b68010000000000000000831061229657604092831c92015b64010000000083106122aa57602092831c92015b6201000083106122bc57601092831c92015b61010083106122cd57600892831c92015b601083106122dd57600492831c92015b600483106122ed57600292831c92015b60028310610ff25760010192915050565b3060009081526002602052604081205461231c90849060801b612589565b60000b600019148061234c57503060009081526002602052604090205461234790849060801b612589565b60000b155b15612418573060009081526002602052604090205461236e9060801b846141ea565b3060009081526002602052604080822080546001600160801b031916608094851c1790556001600160a01b03851682529020546123ac911b84614306565b6001600160a01b038316600081815260026020526040902080546001600160801b03191660809390931c9290921790915530600080516020614dc88339815191526123f6866124f1565b60408051918252519081900360200190a36124116000610654565b9050610ff2565b3060009081526002602052604081205461243690859060801b6141ea565b6001600160a01b0384166000908152600260205260408082205430835291205491925061246991608091821b911b614306565b6001600160a01b03841660008181526002602052604080822080546001600160801b031916608095861c1790553080835291205491929091600080516020614dc8833981519152916124bc91901b6124f1565b60408051918252519081900360200190a330600090815260026020526040902080546001600160801b03191690559050610ff2565b6000617fff6001600160801b03608084901c1660701c16613fff81101561251c5760009150506106b5565b6001607f1b8360801c6001600160801b03161061253857600080fd5b6140fe81111561254757600080fd5b600160701b6001600160701b03608085901c161761406f8210156125715761406f8290031c610e2e565b61406f821115610e2e5761406e1982011b9392505050565b600060016001607f1b03608084901c16600160701b617fff028111156125ae57600080fd5b60016001607f1b03608084901c16600160701b617fff028111156125d157600080fd5b6001600160801b03198581169085161415806125fd5750600160701b617fff02826001600160801b0316105b61260657600080fd5b6001600160801b0319858116908516141561262657600092505050610ff2565b60006001607f1b8660801c6001600160801b03161015905060006001607f1b8660801c6001600160801b031610159050811561269157801561268257826001600160801b0316846001600160801b031611612682576001612686565b6000195b945050505050610ff2565b80156126a4576001945050505050610ff2565b826001600160801b0316846001600160801b0316116126c557600019612686565b6001945050505050610ff2565b600083600160d91b6432ba3432b902141561274157600061270c6126f687866147ae565b612707670de0b6b3a7640000610654565b614a36565b9050606f54600160ca1b66159a5857d554d1021461273a57600061273082856147ae565b9250612253915050565b9050612253565b600061274d86846147ae565b91506122539050565b6001600160a01b038316600090815260706020908152604080832085845290915290205460801b6001600160801b0319166127c7576001600160a01b0383166000908152607060209081526040808320858452909152902080546001600160801b031916608083901c179055612834565b6001600160a01b03831660009081526070602090815260408083208584529091529020546127f89060801b82614306565b6001600160a01b0384166000908152607060209081526040808320868452909152902080546001600160801b03191660809290921c9190911790555b306000908152600260205260409020546128519060801b85614306565b30600090815260026020526040902080546001600160801b03191660809290921c91909117905561288a83612885866124f1565b611f11565b5060015461289b9060801b85614306565b600180546001600160801b03191660809290921c9190911790556001600160a01b03831630600080516020614dc88339815191526128d8876124f1565b60408051918252519081900360200190a3606f54604080519182526001600160801b03198616602083015280517fd930c683bff79bc6dcf7f04c491a02fdcf42247450d6871964a2b129551083389281900390910190a150505050565b600083600160d91b6432ba3432b902141561296457600061295686846147ae565b905060006127308286614a36565b61273a82866147ae565b84600160d91b6432ba3432b90214156130d5576001600160a01b0384166000908152607060209081526040808320600160d91b6432ba3432b90284529091529020546129bd9060801b87612589565b60000b60011480612a0a57506001600160a01b0384166000908152607060209081526040808320600160d91b6432ba3432b9028452909152902054612a059060801b87612589565b60000b155b15612dde576001600160a01b0384166000908152607060209081526040808320600160d91b6432ba3432b9028452909152902054612a4b9060801b876141ea565b6001600160a01b0385166000818152607060209081526040808320600160d91b6432ba3432b9028452825280832080546001600160801b031916608096871c179055928252600290522054612aa1911b846141ea565b6001600160a01b038516600090815260026020526040902080546001600160801b03191660809290921c919091179055600160d01b6572656465656d02821415612d0157600154612af59060801b846141ea565b600180546001600160801b03191660809290921c919091179055606a5460408051600160e01b63e5f3d3a5028152600160b11b693932b232b6b83a34b7b702600482015290516000926001600160a01b03169163e5f3d3a5916024808301926020929190829003018186803b158015612b6d57600080fd5b505afa158015612b81573d6000803e3d6000fd5b505050506040513d6020811015612b9757600080fd5b50519050612ba4816124f1565b15612c8a57606a5460408051600160e11b637a55098102815290516000926001600160a01b03169163f4aa130291600480830192602092919082900301818787803b158015612bf257600080fd5b505af1158015612c06573d6000803e3d6000fd5b505050506040513d6020811015612c1c57600080fd5b505190506001600160a01b03811615612c8857806001600160a01b03166108fc612c4e612c49858c6147ae565b6124f1565b6040518115909202916000818181858888f19350505050158015612c76573d6000803e3d6000fd5b50612c8588611805848b6147ae565b97505b505b846001600160a01b03166108fc612ca0896124f1565b6040518115909202916000818181858888f19350505050158015612cc8573d6000803e3d6000fd5b50604080518781526001600160801b0319891660208201528151600080516020614de8833981519152929181900390910190a150612dd9565b81600160c11b673a3930b739b332b9021415612dd9576001600160a01b038116600090815260026020526040902054612d3d9060801b84614306565b6001600160a01b038216600090815260026020908152604080832080546001600160801b031916608095861c17905560708252808320600160d91b6432ba3432b9028452909152902054612d92911b87614306565b6001600160a01b0382166000908152607060209081526040808320600160d91b6432ba3432b9028452909152902080546001600160801b03191660809290921c9190911790555b6130d0565b6001600160a01b0384166000908152607060209081526040808320600160d91b6432ba3432b9028452909152812054612e1a9060801b88614a36565b90506000612e3a85612e35612e2f6001610654565b856141ea565b6147ae565b6001600160a01b0387166000818152607060209081526040808320600160d91b6432ba3432b9028452825280832080546001600160801b031981169091559383526002909152902054919250608090811b91612e9b911b61180588866147ae565b6001600160a01b038816600090815260026020526040902080546001600160801b03191660809290921c919091179055600160d01b6572656465656d02851415612fe05760725460ff1615612eef57600080fd5b6072805460ff1916600190811790915554612f119060801b61180588866147ae565b600180546001600160801b03191660809290921c9190911790556001600160a01b0387166108fc612f41836124f1565b6040518115909202916000818181858888f19350505050158015612f69573d6000803e3d6000fd5b506001600160a01b0387166000908152607060209081526040808320600160d91b6432ba3432b90284528252918290205482518b815260809190911b6001600160801b031916918101919091528151600080516020614de8833981519152929181900390910190a16072805460ff191690556130bc565b84600160c11b673a3930b739b332b90214156130bc576001600160a01b0384166000908152600260205260409020546130209060801b611fbf88866147ae565b6001600160a01b038516600090815260026020908152604080832080546001600160801b031916608095861c17905560708252808320600160d91b6432ba3432b9028452909152902054613075911b82614306565b6001600160a01b0385166000908152607060209081526040808320600160d91b6432ba3432b9028452909152902080546001600160801b03191660809290921c9190911790555b6130cb8288606f5488886138f5565b505050505b611c82565b60005b606a60009054906101000a90046001600160a01b03166001600160a01b03166378a895676040518163ffffffff1660e01b815260040160206040518083038186803b15801561312657600080fd5b505afa15801561313a573d6000803e3d6000fd5b505050506040513d602081101561315057600080fd5b50518110156138ec57606a5460408051600160e31b631c96a1970281526004810184905290516000926001600160a01b03169163e4b50cb8916024808301926020929190829003018186803b1580156131a857600080fd5b505afa1580156131bc573d6000803e3d6000fd5b505050506040513d60208110156131d257600080fd5b5051606a5460408051600160e01b63668151a70281526001600160a01b03808516600483015282519495506000948594919091169263668151a79260248082019391829003018186803b15801561322857600080fd5b505afa15801561323c573d6000803e3d6000fd5b505050506040513d604081101561325257600080fd5b5080516020909101519092509050888214801561327b575080600160cb1b660acd2c286c2e6d02145b156138e15760408051600160e51b623f7fb90281526001600160801b03198c1660048201526001600160a01b038a811660248301529151613313928616916307eff7209160448083019260209291908290030181600087803b1580156132e057600080fd5b505af11580156132f4573d6000803e3d6000fd5b505050506040513d602081101561330a57600080fd5b50516000612589565b60000b60011415613545576001600160a01b03881660009081526070602090815260408083208c845290915290205461334f9060801b8b6141ea565b6001600160a01b03891660008181526070602090815260408083208e8452825280832080546001600160801b031916608096871c17905592825260029052205461339a911b886141ea565b6001600160a01b038916600090815260026020526040902080546001600160801b03191660809290921c919091179055600160d01b6572656465656d0286141561347e576001546133ee9060801b886141ea565b600180546001600160801b03191660809290921c9190911790556001600160a01b0388166108fc61341e8c6124f1565b6040518115909202916000818181858888f19350505050158015613446573d6000803e3d6000fd5b50604080518a81526001600160801b03198c1660208201528151600080516020614de8833981519152929181900390910190a1613540565b85600160c11b673a3930b739b332b9021415613540576001600160a01b0385166000908152600260205260409020546134ba9060801b88614306565b6001600160a01b038616600090815260026020908152604080832080546001600160801b031916608095861c179055607082528083208d8452909152902054613504911b8b614306565b6001600160a01b03861660009081526070602090815260408083208d8452909152902080546001600160801b03191660809290921c9190911790555b6138e1565b6001600160a01b03881660009081526070602090815260408083208c84529091528120546135769060801b8c614a36565b9050600061358b89612e35612e2f6001610654565b90506000607060008c6001600160a01b03166001600160a01b0316815260200190815260200160002060008d815260200190815260200160002060009054906101000a900460801b9050600060801b607060008d6001600160a01b03166001600160a01b0316815260200190815260200160002060008e815260200190815260200160002060006101000a8154816001600160801b03021916908360801c021790555061366e600260008d6001600160a01b03166001600160a01b0316815260200190815260200160002060009054906101000a900460801b6118058c866147ae565b6001600160a01b038c16600090815260026020526040902080546001600160801b03191660809290921c919091179055600160d01b6572656465656d028914156137a85760725460ff16156136c257600080fd5b6072805460ff19166001908117909155546136e49060801b6118058c866147ae565b600180546001600160801b03191660809290921c9190911790556001600160a01b038b166108fc613714836124f1565b6040518115909202916000818181858888f1935050505015801561373c573d6000803e3d6000fd5b506001600160a01b038b1660009081526070602090815260408083208f84528252918290205482518f815260809190911b6001600160801b031916918101919091528151600080516020614de8833981519152929181900390910190a16072805460ff191690556138cd565b88600160c11b673a3930b739b332b90214156138cd576001600160a01b0388166000908152600260205260409020546137e89060801b611fbf8c866147ae565b600260008a6001600160a01b03166001600160a01b0316815260200190815260200160002060006101000a8154816001600160801b03021916908360801c0217905550613878607060008a6001600160a01b03166001600160a01b0316815260200190815260200160002060008e815260200190815260200160002060009054906101000a900460801b82614306565b607060008a6001600160a01b03166001600160a01b0316815260200190815260200160002060008e815260200190815260200160002060006101000a8154816001600160801b03021916908360801c02179055505b6138dc828c606f548c8c6138f5565b505050505b5050506001016130d8565b50505050505050565b60006001600160801b03198616156141dd576000805b606a60009054906101000a90046001600160a01b03166001600160a01b03166378a895676040518163ffffffff1660e01b815260040160206040518083038186803b15801561395957600080fd5b505afa15801561396d573d6000803e3d6000fd5b505050506040513d602081101561398357600080fd5b5051811015613af857606a5460408051600160e31b631c96a1970281526004810184905290516000926001600160a01b03169163e4b50cb8916024808301926020929190829003018186803b1580156139db57600080fd5b505afa1580156139ef573d6000803e3d6000fd5b505050506040513d6020811015613a0557600080fd5b5051606a5460408051600160e01b63668151a70281526001600160a01b03808516600483015282519495506000948594919091169263668151a79260248082019391829003018186803b158015613a5b57600080fd5b505afa158015613a6f573d6000803e3d6000fd5b505050506040513d6040811015613a8557600080fd5b5080516020909101519092509050600160cb1b660acd2c286c2e6d0281148015613ade57506001600160a01b038a16600090815260706020908152604080832085845290915290205460801b6001600160801b03191615155b15613aed57509250613af89050565b50505060010161390b565b5080158015613b4157506001600160a01b0386166000908152607060209081526040808320600160d91b6432ba3432b902845290915290205460801b6001600160801b03191615155b15613b545750600160d91b6432ba3432b9025b80600160d91b6432ba3432b9021415613fe85784600160ca1b66159a5857d554d1021415613d61576000600160f01b613131029050604051806101200160405280886001600160a01b03168152602001856001600160a01b03168152602001868152602001878152602001838152602001828152602001896001600160801b0319168152602001613be56000610654565b6001600160801b0319168152602001613bfe6001610654565b6001600160801b03199081169091526000838152607160209081526040808320855181546001600160a01b039182166001600160a01b0319918216178355878501516001840180549190931691161790558582015160028201556060860151600382015560808087015160048084019190915560a0880151600584015560c08801516006808501805460e08c0151861c600160801b0293861c908b16176001600160801b03169290921790915561010090980151600790930180549390921c9290961691909117905580518082018252948552600160d01b653435312e3235028583019081529051600160e01b631bd95155028152938401918252845160248501528451613d5b95600160f01b61313102956109639573__stringutils___________________________95631bd951559593949093849360440192909190819084908490838110156108e85781810151838201526020016108d0565b50613fe3565b6000600160f01b6131310290506000600160f11b611919029050604051806101200160405280896001600160a01b03168152602001866001600160a01b031681526020018781526020018881526020018481526020018381526020018a6001600160801b0319168152602001613dd76000610654565b6001600160801b0319168152602001613df06000610654565b6001600160801b03199081169091526000838152607160209081526040808320855181546001600160a01b039182166001600160a01b0319918216178355878501516001840180549190931691161790558582015160028201556060860151600382015560808087015160048084019190915560a0880151600584015560c08801516006808501805460e08c0151861c600160801b0293861c908b16176001600160801b03169290921790915561010090980151600790930180549390921c9290961691909117905580518082018252948552600160d01b653435312e3235028583019081529051600160e01b631bd95155028152938401918252845160248501528451613f4d95600160f11b61191902956109639573__stringutils___________________________95631bd951559593949093849360440192909190819084908490838110156108e85781810151838201526020016108d0565b60408051808201825260038152600160e91b621897190260208083019182529251600160e01b631bd9515502815260048101938452825160248201528251613fe094600160f11b6119190294610c089473__stringutils___________________________94631bd9515594929392839260449092019190808383600083156108e85781810151838201526020016108d0565b50505b6141d7565b6000600160f01b613333029050604051806101200160405280886001600160a01b03168152602001856001600160a01b0316815260200186815260200187815260200183815260200161403b6000610654565b6001600160801b031990811682528a16602082015260400161405d6000610654565b6001600160801b03191681526020016140766000610654565b6001600160801b03199081169091526000838152607160209081526040808320855181546001600160a01b039182166001600160a01b031991821617835587850151600184018054919093169116179055858201516002820155606086015160038083019190915560808088015160048085019190915560a0890151600585015560c089015160068501805460e08c0151851c600160801b0292851c908b16176001600160801b031691909117905561010090980151600790930180549390911c929096169190911790945580518082018252938452600160e91b621b971b028483019081529051600160e01b631bd951550281529485019182528351602486015283516141d595600160f01b6133330295610e1a9573__stringutils___________________________95631bd9515595929490938493604490910192909190819084908490838110156108e85781810151838201526020016108d0565b505b506141e1565b5060015b95945050505050565b6000610fef83600160ff1b8418614306565b303b1590565b3390565b6001600160a01b03811660009081526002602052604081205461422d90849060801b612589565b60000b600019148061426657506001600160a01b03821660009081526002602052604090205461426190849060801b612589565b60000b155b156142fe576001600160a01b0382166000908152600260205260409020546142919060801b846141ea565b6001600160a01b03831660009081526002602052604080822080546001600160801b031916608094851c1790553082529020546142cf911b84614306565b30600090815260026020526040902080546001600160801b03191660809290921c919091179055506001610ff2565b506000610ff2565b6000617fff6001600160801b03608085811c8216607090811c8416939186901c90921690911c81169082141561437c5780617fff1415614372576001600160801b0319858116908516141561435f578492505050610ff2565b50600160ef1b61ffff029150610ff29050565b8492505050610ff2565b80617fff1415614390578392505050610ff2565b6001607f1b608086901c6001600160801b0381169190911015906001600160701b0316836143c157600193506143c8565b600160701b175b6001607f1b608087901c6001600160801b0381169190911015906001600160701b0316846143f95760019450614400565b600160701b175b82614430576001600160801b03198816600160ff1b146144205787614423565b60005b9650505050505050610ff2565b80614450576001600160801b03198916600160ff1b146144205788614423565b848603841515831515141561455e5760708113156144775789975050505050505050610ff2565b60008113156144895790811c906144b8565b606f198112156144a25788975050505050505050610ff2565b60008112156144b8578060000384901c93508596505b92810192600160711b84106144d3576001968701969390931c925b86617fff141561450857846144f057600160f01b617fff026144fa565b6001600160f01b03195b975050505050505050610ff2565b600160701b84101561451d576000965061452a565b6001600160701b03841693505b83607088901b8661453c576000614542565b6001607f1b5b6001600160801b0316171760801b975050505050505050610ff2565b600081131561457957600184901b9350600187039650614590565b600081121561459057600182901b91506001860396505b60708113156145a257600191506145ef565b60018113156145bf576001810360018303901c60010191506145ef565b606f198112156145d257600193506145ef565b6000198112156145ef576001816000030360018503901c60010193505b818410614600578184039350614609565b83820393508294505b8361461f575060009650610ff295505050505050565b600061462a8561225b565b9050806071141561465057600185901c6001600160701b0316945060018801975061469f565b60708110156146925760708190038089111561467f578086901b6001600160701b03169550808903985061468c565b600098600019019590951b945b5061469f565b6001600160701b03851694505b87617fff14156146d557856146bc57600160f01b617fff026146c6565b6001600160f01b03195b98505050505050505050610ff2565b84607089901b876146e75760006146ed565b6001607f1b5b6001600160801b0316171760801b98505050505050505050610ff2565b6001600160a01b03811661475257604051600160e51b62461bcd028152600401808060200182810382526026815260200180614d746026913960400191505060405180910390fd5b6037546040516001600160a01b038084169216907f8be0079c531659141344cd1fd0a4f28419497f9722a3daafe3b4186f6b6457e090600090a3603780546001600160a01b0319166001600160a01b0392909216919091179055565b6000617fff6001600160801b03608085811c8216607090811c8416939186901c90921690911c8116908214156148665780617fff1415614831576001600160801b0319858116908516141561480e57505050600160ff1b81168218610ff2565b600160ff1b6001600160801b031986861816141561435f57505050818117610ff2565b600160801b600160ff1b0384166148555750600160ef1b61ffff029150610ff29050565b505050600160ff1b81168218610ff2565b80617fff14156148a557600160801b600160ff1b0385166148945750600160ef1b61ffff029150610ff29050565b505050600160ff1b82168118610ff2565b6001600160701b03608086901c16826148c157600192506148c8565b600160701b175b6001600160701b03608086901c16826148e457600192506148eb565b600160701b175b908102908161491857600160ff1b87871816614908576000612686565b600160ff1b945050505050610ff2565b928201926000600160e11b83101561494c57600160e01b8310156149445761493f8361225b565b614947565b60e05b61494f565b60e15b9050614070818601101561496a576000945060009250614a07565b6140e081860110156149ad5761407085101561498f57846140700383901c92506149a4565b6140708511156149a457614070850383901b92505b60009450614a07565b61c0dd81860111156149c757617fff945060009250614a07565b60708111156149de576070810383901c92506149f1565b60708110156149f1578060700383901b92505b6001600160701b03831692506140df8186010394505b82607086901b888a186001607f1b60801b1660801c6001600160801b0316171760801b95505050505050610ff2565b6000617fff6001600160801b03608085811c8216607090811c8416939186901c90921690911c811690821415614a835780617fff14156148555750600160ef1b61ffff029150610ff29050565b80617fff1415614ac357600160801b600160f01b03841615614ab25750600160ef1b61ffff029150610ff29050565b505050808218600160ff1b16610ff2565b600160801b600160ff1b038416614b1357600160801b600160ff1b038516614af85750600160ef1b61ffff029150610ff29050565b505050808218600160ff1b16600160f01b617fff0217610ff2565b6001600160701b03608085901c1681614b2f5760019150614b36565b600160701b175b6001600160701b03608087901c1683614b75578015614b70576000614b5a8261225b565b6001955060e20393840160711901939190911b90505b614b7f565b600160701b1760721b5b818181614b8857fe5b04905080614ba457600160ff1b87871816614908576000612686565b6001606c1b811015614bb257fe5b6000600160731b821015614bf257600160721b821015614be757600160711b821015614bdf576070614be2565b60715b614bea565b60725b60ff16614bfb565b614bfb8261225b565b905083614071018186011115614c1957617fff945060009150614cac565b83818601613ffc011015614c34576000945060009150614cac565b83818601613f8c011015614c81578385613ffc011115614c5f578385613ffc010382901b9150614c78565b8385613ffc011015614c7857613ffc8585030382901c91505b60009450614cac565b6070811115614c94576070810382901c91505b6001600160701b038216915083818601613f8d010394505b81607086901b888a186001607f1b60801b1660801c6001600160801b0316171760801b95505050505050610ff2565b828054600181600116156101000203166002900490600052602060002090601f016020900481019282601f10614d1c57805160ff1916838001178555614d49565b82800160010185558215614d49579182015b82811115614d49578251825591602001919060010190614d2e565b50614d55929150614d59565b5090565b61109a91905b80821115614d555760008155600101614d5f56fe4f776e61626c653a206e6577206f776e657220697320746865207a65726f2061646472657373436f6e747261637420696e7374616e63652068617320616c7265616479206265656e20696e697469616c697a6564ddf252ad1be2c89b69c2b068fc378daa952ba7f163c4a11628f55a4df523b3ef100da893981e3214bb40af1da05d2128e84df93c3cbd22bd771223df87de1cfea165627a7a7230582093e6bea4da2127867dbcee40fef61715b2f2c27ed592b45fc5b8ae8581c0a8a60029",
  "source": "// (c) Kallol Borah, 2020\r\n// Implementation of the Via cash token.\r\n// SPDX-License-Identifier: MIT\r\n\r\npragma solidity 0.5.7;\r\n\r\nimport \"./erc/ERC20.sol\";\r\nimport \"./interfaces/Oracle.sol\";\r\nimport \"./interfaces/ViaFactory.sol\";\r\nimport \"./interfaces/ViaCash.sol\";\r\nimport \"./interfaces/ViaBond.sol\";\r\nimport \"./interfaces/ViaToken.sol\";\r\nimport \"./abdk-libraries-solidity/ABDKMathQuad.sol\";\r\nimport \"@openzeppelin/upgrades/contracts/Initializable.sol\";\r\nimport \"@openzeppelin/contracts-ethereum-package/contracts/ownership/Ownable.sol\";\r\nimport \"./utilities/StringUtils.sol\";\r\n\r\ncontract Cash is ViaCash, ERC20, Initializable, Ownable {\r\n\r\n    using stringutils for *;\r\n\r\n    using ABDKMathQuad for uint256;\r\n    using ABDKMathQuad for int256;\r\n    using ABDKMathQuad for bytes16;\r\n\r\n    //via factory address\r\n    ViaFactory private factory;\r\n\r\n    //via oracle\r\n    Oracle private oracle;\r\n    address viaoracle;\r\n\r\n    //name of Via cash token (eg, Via-USD)\r\n    string public name;\r\n    string public symbol;\r\n    bytes32 public cashtokenName;\r\n\r\n    //mapping of buyers (address) to currency (bytes32) to deposit (bytes16) amounts they make against which via cash tokens are issued\r\n    mapping(address => mapping(bytes32 => bytes16)) public deposits;\r\n\r\n    //data structure holding details of currency conversion requests pending on oraclize\r\n    struct conversion{\r\n        address party;\r\n        address counterparty;\r\n        bytes32 operation;\r\n        bytes32 paid_in_currency;\r\n        bytes32 payout_currency;\r\n        bytes32 EthXid;\r\n        bytes16 amount;\r\n        bytes16 EthXvalue;\r\n        bytes16 ViaXvalue;\r\n    }\r\n\r\n    //queue of pending conversion requests with each pending request mapped to a request_id returned by oraclize\r\n    mapping(bytes32 => conversion) private conversionQ;\r\n\r\n    //events to capture and report to Via oracle\r\n    event ViaCashIssued(bytes32 currency, bytes16 value);\r\n    event ViaCashRedeemed(bytes32 currency, bytes16 value);\r\n    event LogCallback(bytes32 EthXid, bytes16 EthXvalue, bytes32 txId, bytes16 ViaXvalue);\r\n\r\n    //mutex\r\n    bool lock;\r\n\r\n    //initiliaze proxies\r\n    function initialize(bytes32 _name, bytes32 _type, address _owner, address _oracle, address _token) public initializer{\r\n        Ownable.initialize(_owner);\r\n        factory = ViaFactory(_owner);\r\n        oracle = Oracle(_oracle);\r\n        viaoracle = _oracle;\r\n        name = string(abi.encodePacked(_name));\r\n        symbol = string(abi.encodePacked(_type));\r\n        cashtokenName = _name;\r\n        lock = false;\r\n        decimals = 2;\r\n    }\r\n\r\n    //handling pay in of ether for issue of via cash tokens\r\n    function() external payable{\r\n        //ether paid in\r\n        require(msg.value !=0);\r\n        //only to pay in ether\r\n        require(msg.data.length==0);\r\n        //issue via cash tokens\r\n        issue(ABDKMathQuad.fromUInt(msg.value), msg.sender, \"ether\");\r\n    }\r\n\r\n    //overriding this function of ERC20 standard for transfer of via cash tokens to other users or to this contract for redemption\r\n    function transferFrom(address sender, address receiver, uint256 tokens) external returns (bool){\r\n        //ensure sender has enough tokens in balance before transferring or redeeming them\r\n        require(ABDKMathQuad.cmp(balances[sender],ABDKMathQuad.fromUInt(tokens))!=-1);// || \r\n                //ABDKMathQuad.cmp(balances[sender],ABDKMathQuad.fromUInt(tokens))==0);\r\n        //check if tokens are being transferred to this cash contract\r\n        if(receiver == address(this)){\r\n            //if token name is the same, this transfer has to be redeemed\r\n            if(redeem(ABDKMathQuad.fromUInt(tokens), sender, cashtokenName, \"redeem\", address(this)))\r\n                return true;\r\n            else\r\n                return false;\r\n        }\r\n        //else request issue of cash tokens requested from receiver\r\n        else if(factory.getType(receiver)==\"ViaCash\"){\r\n            require(!lock);\r\n            lock = true;\r\n            //only issue if cash tokens are paid in, since bond tokens can't be paid to issue bond token\r\n            if(Cash(address(uint160(receiver))).requestIssue(ABDKMathQuad.fromUInt(tokens), sender, cashtokenName)){\r\n                balances[sender] = ABDKMathQuad.sub(balances[sender], ABDKMathQuad.fromUInt(tokens));\r\n                //adjust total supply\r\n                totalSupply_ = ABDKMathQuad.sub(totalSupply_, ABDKMathQuad.fromUInt(tokens));\r\n                lock = false; \r\n                return true;                \r\n            }\r\n            else{\r\n                lock = false;\r\n                return false;\r\n            }\r\n        }\r\n        //else if cash tokens are paid into bond issuers, then request for issue of bonds\r\n        else if(factory.getType(receiver)==\"ViaBond\"){\r\n            if(ViaBond(address(uint160(receiver))).requestIssue(ABDKMathQuad.fromUInt(tokens), sender, cashtokenName, address(this)))\r\n                    return true;\r\n                else\r\n                    return false;\r\n        }\r\n        //else check if cash tokens are paid into any specific bond token for purchase\r\n        else if(factory.getType(receiver)==\"ViaBondToken\"){\r\n            if(ViaToken(address(uint160(receiver))).requestIssue(ABDKMathQuad.fromUInt(tokens), sender, cashtokenName, address(this)))\r\n                    return true;\r\n                else\r\n                    return false;\r\n        }\r\n        else{\r\n            //else, tokens are being sent to another user's account\r\n            //sending contract should be allowed by token owner to make this transfer\r\n            //allowed[sender][msg.sender] = ABDKMathQuad.sub(allowed[sender][msg.sender], ABDKMathQuad.fromUInt(tokens));\r\n            //if(transferToken(sender, receiver, tokens)){\r\n            if(redeem(ABDKMathQuad.fromUInt(tokens), sender, cashtokenName, \"transfer\", receiver)){\r\n                emit Transfer(sender, receiver, tokens);\r\n                return true;\r\n            }\r\n            else\r\n                return false;\r\n        }\r\n    }\r\n\r\n    //accessor for addToBalance function\r\n    function requestAddToBalance(bytes16 tokens, address sender) external returns (bool){\r\n        require(factory.getType(msg.sender) == \"ViaCash\" || factory.getType(msg.sender) == \"ViaBond\");\r\n        return(addToBalance(tokens, sender));\r\n    }\r\n\r\n    //add to token balance of this contract from token balance of sender\r\n    function addToBalance(bytes16 tokens, address sender) private returns (bool){\r\n        //sender should have more tokens than being transferred\r\n        if(ABDKMathQuad.cmp(tokens, balances[sender])==-1 || ABDKMathQuad.cmp(tokens, balances[sender])==0){\r\n            balances[sender] = ABDKMathQuad.sub(balances[sender], tokens);\r\n            balances[address(this)] = ABDKMathQuad.add(balances[address(this)], tokens);\r\n            return true;\r\n        }\r\n        else\r\n            return false;\r\n    }\r\n\r\n    //accessor for deductFromBalance function\r\n    function requestDeductFromBalance(bytes16 tokens, address receiver) external returns (bytes16){\r\n        require(factory.getType(msg.sender) == \"ViaCash\" || factory.getType(msg.sender) == \"ViaBond\");\r\n        return(deductFromBalance(tokens, receiver));\r\n    }\r\n\r\n    //deduct token balance from this contract and add token balance to receiver\r\n    function deductFromBalance(bytes16 tokens, address receiver) private returns (bytes16){\r\n        //this cash token issuer should have more tokens than being deducted\r\n        if(ABDKMathQuad.cmp(tokens, balances[address(this)])==-1 || ABDKMathQuad.cmp(tokens, balances[address(this)])==0){\r\n            balances[address(this)] = ABDKMathQuad.sub(balances[address(this)], tokens);\r\n            balances[receiver] = ABDKMathQuad.add(balances[receiver], tokens);\r\n            emit Transfer(address(this), receiver, ABDKMathQuad.toUInt(tokens)); \r\n            return ABDKMathQuad.fromUInt(0);\r\n        }\r\n        else{\r\n            bytes16 balance = ABDKMathQuad.sub(tokens, balances[address(this)]);\r\n            balances[receiver] = ABDKMathQuad.add(balances[receiver], balances[address(this)]);\r\n            emit Transfer(address(this), receiver, ABDKMathQuad.toUInt(balances[address(this)]));\r\n            balances[address(this)] = 0;            \r\n            return balance;\r\n        }\r\n    }\r\n\r\n    //accessor for issue function\r\n    function requestIssue(bytes16 amount, address buyer, bytes32 currency) public returns(bool){\r\n        require(factory.getType(msg.sender) == \"ViaCash\");\r\n        return(issue(amount, buyer, currency));\r\n    }\r\n\r\n    //requesting issue of Via to buyer for amount of ether or some other via cash token paid in and stored in cashContract\r\n    function issue(bytes16 amount, address buyer, bytes32 currency) private returns(bool){\r\n        //ensure that brought amount is not zero\r\n        require(amount != 0);\r\n        //find amount of via cash tokens to transfer after applying exchange rate\r\n        if(currency==\"ether\"){\r\n            //if ether is paid in for issue of Via-USD cash token, then all we need is the exchange rate of ether to USD (ethusd)\r\n            //since the exchange rate of USD to Via-USD is always 1\r\n            if(cashtokenName==\"Via_USD\"){\r\n                //bytes32 EthXid = oracle.request(\"eth\",\"ethusd\",\"EthCash\", address(this)); \r\n                bytes32 EthXid = \"11\";\r\n                conversionQ[EthXid] = conversion(buyer, address(0x0), \"issue\", currency, cashtokenName, EthXid, amount, ABDKMathQuad.fromUInt(0), ABDKMathQuad.fromUInt(1));\r\n                convert(\"11\",ABDKMathQuad.fromUInt(\"451.25\".stringToUint()),\"ethusd\");\r\n            }\r\n            //if ether is paid in for issue of non-USD cash token, we need the exchange rate of ether to the USD (ethusd)\r\n            //and the exchange rate of Via-USD to the requested non-USD cash token (eg, Via-EUR)\r\n            else{\r\n                //bytes32 ViaXid = oracle.request(string(abi.encodePacked(\"Via_USD_to_\", cashtokenName)).stringToBytes32(),\"ver\",\"Cash\", address(this)); \r\n                //bytes32 EthXid = oracle.request(\"eth\",\"ethusd\",\"EthCash\", address(this)); \r\n                //oracle.setCallbackId(EthXid,ViaXid);\r\n                bytes32 EthXid = \"11\";\r\n                bytes32 ViaXid = \"22\";\r\n                conversionQ[ViaXid] = conversion(buyer, address(0x0), \"issue\", currency, cashtokenName, EthXid, amount, ABDKMathQuad.fromUInt(0), ABDKMathQuad.fromUInt(0));\r\n                convert(\"22\",ABDKMathQuad.fromUInt(\"451.25\".stringToUint()),\"ethusd\");\r\n                convert(\"22\",ABDKMathQuad.fromUInt(\"1.2\".stringToUint()),\"ver\");                \r\n            }\r\n        }\r\n        //if ether is not paid in and instead, some other Via cash token is paid in\r\n        //we need to find the exchange rate between the paid in Via cash token and the cash token this cash contract represents\r\n        else{\r\n            //bytes32 ViaXid = oracle.request(string(abi.encodePacked(currency, \"_to_\", cashtokenName)).stringToBytes32(),\"er\",\"Cash\", address(this)); \r\n            bytes32 ViaXid = \"33\";\r\n            conversionQ[ViaXid] = conversion(buyer, address(0x0), \"issue\", currency, cashtokenName, ABDKMathQuad.fromUInt(0), amount, ABDKMathQuad.fromUInt(0), ABDKMathQuad.fromUInt(0));\r\n            convert(\"33\",ABDKMathQuad.fromUInt(\"7.6\".stringToUint()),\"er\");\r\n        }\r\n        return true;\r\n    }\r\n\r\n    //requesting redemption of Via cash token and transfer of currency it was issued against\r\n    //operation parameter indicates whether it is a redemption or a transfer of deposits from one party to another\r\n    function redeem(bytes16 amount, address seller, bytes32 token, bytes32 operation, address receiver) private returns(bool){\r\n        //if amount is not zero, there is some left to redeem\r\n        if(amount != 0){\r\n            bytes32 currency_in_deposit=\"\";\r\n            //find currency that seller had deposited earlier\r\n            for(uint256 q=0; q<factory.getTokenCount(); q++){\r\n                address viaAddress = factory.getToken(q);\r\n                (bytes32 tname, bytes32 ttype) = factory.getNameAndType(viaAddress);\r\n                if(ttype == \"ViaCash\" && deposits[seller][tname]>0){\r\n                    currency_in_deposit = tname;\r\n                    break;\r\n                }\r\n            }\r\n            //if no more currencies to redeem and amount to redeem is not zero, then redemption fails\r\n            if(currency_in_deposit==\"\" && deposits[seller][\"ether\"]>0)\r\n                currency_in_deposit = \"ether\";\r\n            //if currency that this cash token can be redeemed in is ether\r\n            if(currency_in_deposit==\"ether\"){\r\n                //if the cash token to redeem is a Via USD, all we need is the exchange rate of ether to the USD\r\n                if(token==\"Via_USD\"){\r\n                    //bytes32 EthXid = oracle.request(\"eth\",\"ethusd\",\"Cash\", address(this)); \r\n                    bytes32 EthXid = \"11\";\r\n                    conversionQ[EthXid] = conversion(seller, receiver, operation, token, currency_in_deposit, EthXid, amount, ABDKMathQuad.fromUInt(0), ABDKMathQuad.fromUInt(1));\r\n                    convert(\"11\",ABDKMathQuad.fromUInt(\"451.25\".stringToUint()),\"ethusd\");\r\n                }\r\n                //and if cash token to redeem is not Via USD, we need to get the exchange rate of ether to the Via-USD, \r\n                //and then the exchange rate of this Via cash token to redeeem and the Via-USD\r\n                else{\r\n                    //bytes32 EthXid = oracle.request(\"eth\",\"ethusd\",\"EthCash\", address(this)); \r\n                    //bytes32 ViaXid = oracle.request(string(abi.encodePacked(token, \"_to_Via_USD\")).stringToBytes32(),\"ver\",\"Cash\", address(this)); \r\n                    //oracle.setCallbackId(EthXid,ViaXid);\r\n                    bytes32 EthXid = \"11\";\r\n                    bytes32 ViaXid = \"22\";\r\n                    conversionQ[ViaXid] = conversion(seller, receiver, operation, token, currency_in_deposit, EthXid, amount, ABDKMathQuad.fromUInt(0), ABDKMathQuad.fromUInt(0));\r\n                    convert(\"22\",ABDKMathQuad.fromUInt(\"451.25\".stringToUint()),\"ethusd\");\r\n                    convert(\"22\",ABDKMathQuad.fromUInt(\"1.2\".stringToUint()),\"ver\");\r\n                }\r\n            }\r\n            //else if the currency this cash token can be redeemed is another Via cash token,\r\n            //we just need the exchange rate of this Via cash token to redeem and the currency that is in deposit\r\n            else{\r\n                // bytes32 ViaXid = oracle.request(string(abi.encodePacked(token, \"_to_\", currency_in_deposit)).stringToBytes32(),\"er\",\"Cash\", address(this)); //\"1234\"; //only for testing\r\n                bytes32 ViaXid = \"33\";\r\n                conversionQ[ViaXid] = conversion(seller, receiver, operation, token, currency_in_deposit, ABDKMathQuad.fromUInt(0), amount, ABDKMathQuad.fromUInt(0), ABDKMathQuad.fromUInt(0));\r\n                convert(\"33\",ABDKMathQuad.fromUInt(\"7.6\".stringToUint()),\"er\");\r\n            }\r\n        }\r\n        else\r\n            //redemption is complete when amount to redeem becomes zero\r\n            return true;\r\n    }    \r\n\r\n    //function called back from Via oracle\r\n    function convert(bytes32 txId, bytes16 result, bytes32 rtype) public {\r\n        //require(viaoracle == msg.sender);\r\n        //check type of result returned\r\n        if(rtype ==\"ethusd\"){\r\n            conversionQ[txId].EthXvalue = result;\r\n        }\r\n        if(rtype == \"er\"){\r\n            conversionQ[txId].ViaXvalue = result;\r\n        }\r\n        if(rtype == \"ver\"){\r\n            conversionQ[txId].ViaXvalue = result;\r\n        }\r\n        //check if cash needs to be issued or redeemed\r\n        if(conversionQ[txId].operation==\"issue\"){\r\n            if(rtype == \"ethusd\" || rtype == \"ver\"){\r\n                emit LogCallback(conversionQ[txId].EthXid, conversionQ[txId].EthXvalue, txId, conversionQ[txId].ViaXvalue);\r\n                //for issuing to happen when ether is paid in,\r\n                //value of ethX (ie ether exchange rate to USD) has to be non-zero \r\n                //and viaX (ie via exchange) should be non-zero if cash token to be issued is not Via-USD. We store 1 for ViaXvalue if Via-USD has to be issued\r\n                if(ABDKMathQuad.cmp(conversionQ[txId].EthXvalue, ABDKMathQuad.fromUInt(0))!=0 && ABDKMathQuad.cmp(conversionQ[txId].ViaXvalue, ABDKMathQuad.fromUInt(0))!=0){\r\n                    bytes16 via = convertToVia(conversionQ[txId].amount, conversionQ[txId].paid_in_currency,conversionQ[txId].EthXvalue,conversionQ[txId].ViaXvalue);\r\n                    finallyIssue(via, conversionQ[txId].party, conversionQ[txId].paid_in_currency, conversionQ[txId].amount);\r\n                }\r\n            }\r\n            else if(rtype == \"er\"){\r\n                //for issuing to happen if some other Via cash token is paid in, \r\n                //only the value of ViaX (ie exchange rate of paid in Via cash token to Via cash token to issue) has to be non-zero\r\n                if(ABDKMathQuad.cmp(conversionQ[txId].ViaXvalue, ABDKMathQuad.fromUInt(0))!=0){\r\n                    bytes16 via = convertToVia(conversionQ[txId].amount, conversionQ[txId].paid_in_currency,conversionQ[txId].EthXvalue,conversionQ[txId].ViaXvalue);\r\n                    finallyIssue(via, conversionQ[txId].party, conversionQ[txId].paid_in_currency, conversionQ[txId].amount);\r\n                }\r\n            }\r\n        }\r\n        else if(conversionQ[txId].operation==\"redeem\" || conversionQ[txId].operation==\"transfer\"){\r\n            if(rtype == \"ethusd\" || rtype == \"ver\"){\r\n                //for redemption to happen in ether,\r\n                //value of ethX (ie ether exchange rate to USD) has to be non-zero \r\n                //and viaX (ie via exchange) should be non-zero if cash token to be redeemed is not Via-USD. We store 1 for ViaXvalue if Via-USD has to be redeemed\r\n                if(ABDKMathQuad.cmp(conversionQ[txId].EthXvalue, ABDKMathQuad.fromUInt(0))!=0 && ABDKMathQuad.cmp(conversionQ[txId].ViaXvalue, ABDKMathQuad.fromUInt(0))!=0){\r\n                    bytes16 value = convertFromVia(conversionQ[txId].amount, conversionQ[txId].payout_currency,conversionQ[txId].EthXvalue,conversionQ[txId].ViaXvalue);\r\n                    finallyRedeem(value, conversionQ[txId].payout_currency, conversionQ[txId].party, conversionQ[txId].amount, conversionQ[txId].operation, conversionQ[txId].counterparty);\r\n                }\r\n            }\r\n            else if(rtype == \"er\"){\r\n                //for redemption to happen in some other Via cash token\r\n                //the viaX (ie via exchange rate) between the cash token to redeem and the cash token in deposit should be non-zero\r\n                if(ABDKMathQuad.cmp(conversionQ[txId].ViaXvalue, ABDKMathQuad.fromUInt(0))!=0){\r\n                    bytes16 value = convertFromVia(conversionQ[txId].amount, conversionQ[txId].payout_currency,conversionQ[txId].EthXvalue,conversionQ[txId].ViaXvalue);\r\n                    finallyRedeem(value, conversionQ[txId].payout_currency, conversionQ[txId].party, conversionQ[txId].amount, conversionQ[txId].operation, conversionQ[txId].counterparty);\r\n                }\r\n            }\r\n        }\r\n    }\r\n\r\n    //via is the number of this via cash token that is being issued, party is the user account address to which issued tokens are credited\r\n    function finallyIssue(bytes16 via, address party, bytes32 currency, bytes16 amount) private {\r\n        //add paid in currency to depositor\r\n        if(deposits[party][currency]==0){\r\n            deposits[party][currency] = amount;\r\n        }\r\n        else{\r\n            deposits[party][currency] = ABDKMathQuad.add(deposits[party][currency], amount);\r\n        }\r\n        //add via to this contract's balance first (ie issue them first)\r\n        balances[address(this)] = ABDKMathQuad.add(balances[address(this)], via);\r\n        //transfer amount to buyer \r\n        transfer(party, ABDKMathQuad.toUInt(via));\r\n        //adjust total supply\r\n        totalSupply_ = ABDKMathQuad.add(totalSupply_, via);\r\n       //generate event\r\n        emit Transfer(address(this), party, ABDKMathQuad.toUInt(via));\r\n        emit ViaCashIssued(cashtokenName, via);\r\n    }\r\n\r\n    //value is the redeemable amount in the currency to pay out\r\n    //currency is the pay out currency or currency to pay out\r\n    //party is the user account address to which redemption has to be credited\r\n    //amount is the number of this via cash token that needs to be redeemed\r\n    function finallyRedeem(bytes16 value, bytes32 currency, address party, bytes16 amount, bytes32 operation, address receiver) private {\r\n        //check if currency in which redemption is to be done has sufficient balance\r\n        if(currency==\"ether\"){\r\n            if(ABDKMathQuad.cmp(deposits[party][\"ether\"], value)==1 || ABDKMathQuad.cmp(deposits[party][\"ether\"], value)==0){\r\n                deposits[party][\"ether\"] = ABDKMathQuad.sub(deposits[party][\"ether\"], value);\r\n                //reduces balances\r\n                balances[party] = ABDKMathQuad.sub(balances[party], amount);\r\n                if(operation==\"redeem\"){\r\n                    //adjust total supply\r\n                    totalSupply_ = ABDKMathQuad.sub(totalSupply_, amount);\r\n                    //check if any fee is payable on redemption and pay it if that is the case\r\n                    bytes16 fee = factory.getFee(\"redemption\");\r\n                    if(ABDKMathQuad.toUInt(fee)!=0){\r\n                        address feeTo = factory.getFeeToSetter();\r\n                        if(feeTo!=address(0x0)){\r\n                            address(uint160(feeTo)).transfer(ABDKMathQuad.toUInt(ABDKMathQuad.mul(fee, value)));\r\n                            value = ABDKMathQuad.sub(value, ABDKMathQuad.mul(fee, value));\r\n                        }\r\n                    }\r\n                    //send redeemed ether to party\r\n                    address(uint160(party)).transfer(ABDKMathQuad.toUInt(value));\r\n                    //generate event\r\n                    emit ViaCashRedeemed(currency, value);\r\n                }\r\n                else if(operation==\"transfer\"){\r\n                    //transfer balances\r\n                    balances[receiver] = ABDKMathQuad.add(balances[receiver], amount);\r\n                    //transfer deposits\r\n                    deposits[receiver][\"ether\"] = ABDKMathQuad.add(deposits[receiver][\"ether\"], value);                    \r\n                }\r\n            }\r\n            //amount to redeem is more than what is in deposit, so we need to remove deposit after redemption,\r\n            //and call the redeem function again for the balance amount that is not yet redeemed\r\n            else{\r\n                bytes16 proportionRedeemed = ABDKMathQuad.div(deposits[party][\"ether\"], value);\r\n                bytes16 balanceToRedeem = ABDKMathQuad.mul(amount,ABDKMathQuad.sub(ABDKMathQuad.fromUInt(1), proportionRedeemed));\r\n                // get amount to send\r\n                bytes16 amtSend = deposits[party][\"ether\"];\r\n                // set deposit to 0 as security measure\r\n                deposits[party][\"ether\"] = 0;\r\n                //reduces balances\r\n                balances[party] = ABDKMathQuad.sub(balances[party], ABDKMathQuad.mul(amount, proportionRedeemed));\r\n                if(operation==\"redeem\"){\r\n                    require(!lock);\r\n                    lock = true;\r\n                    //adjust total supply\r\n                    totalSupply_ = ABDKMathQuad.sub(totalSupply_, ABDKMathQuad.mul(amount, proportionRedeemed));\r\n                    // send redeemed ether to party which is all of the ether in deposit with this user (party)\r\n                    address(uint160(party)).transfer(ABDKMathQuad.toUInt(amtSend));\r\n                    //generate event\r\n                    emit ViaCashRedeemed(currency, deposits[party][\"ether\"]);\r\n                    lock = false;\r\n                }\r\n                else if(operation==\"transfer\"){\r\n                    //transfer balances\r\n                    balances[receiver] = ABDKMathQuad.add(balances[receiver], ABDKMathQuad.mul(amount, proportionRedeemed));\r\n                    //transfer deposits\r\n                    deposits[receiver][\"ether\"] = ABDKMathQuad.add(deposits[receiver][\"ether\"], amtSend);\r\n                }\r\n                redeem(balanceToRedeem, party, cashtokenName, operation, receiver);\r\n            }\r\n        }\r\n        //else currency to redeem is not ether\r\n        else{\r\n            for(uint256 q=0; q<factory.getTokenCount(); q++){\r\n                address viaAddress = factory.getToken(q);\r\n                (bytes32 tname, bytes32 ttype) = factory.getNameAndType(viaAddress);\r\n                if(tname == currency && ttype == \"ViaCash\"){\r\n                    if(ABDKMathQuad.cmp(Cash(address(uint160(viaAddress))).requestDeductFromBalance(value, party),0)==1){\r\n                        deposits[party][currency] = ABDKMathQuad.sub(deposits[party][currency], value);\r\n                        //reduces balances\r\n                        balances[party] = ABDKMathQuad.sub(balances[party], amount);\r\n                        if(operation==\"redeem\"){\r\n                            //adjust total supply\r\n                            totalSupply_ = ABDKMathQuad.sub(totalSupply_, amount);\r\n                            //send redeemed currency to party\r\n                            address(uint160(party)).transfer(ABDKMathQuad.toUInt(value));\r\n                            //generate event\r\n                            emit ViaCashRedeemed(currency, value);\r\n                        }\r\n                        else if(operation==\"transfer\"){\r\n                            //transfer balances\r\n                            balances[receiver] = ABDKMathQuad.add(balances[receiver], amount);\r\n                            //transfer deposits\r\n                            deposits[receiver][currency] = ABDKMathQuad.add(deposits[receiver][currency], value);\r\n                        }\r\n                    }\r\n                    //amount to redeem is more than what is in deposit, so we need to remove deposit after redemption,\r\n                    //and call the redeem function again for the balance amount that is not yet redeemed\r\n                    else{\r\n                        bytes16 proportionRedeemed = ABDKMathQuad.div(deposits[party][currency], value);\r\n                        bytes16 balanceToRedeem = ABDKMathQuad.mul(amount, ABDKMathQuad.sub(ABDKMathQuad.fromUInt(1), proportionRedeemed));\r\n                        // get amount to send\r\n                        bytes16 amtSend = deposits[party][currency];\r\n                        //deposit of the currency with the user (party) becomes zero\r\n                        deposits[party][currency] = 0;\r\n                        //reduces balances\r\n                        balances[party] = ABDKMathQuad.sub(balances[party], ABDKMathQuad.mul(amount, proportionRedeemed));\r\n                        if(operation==\"redeem\"){\r\n                            require(!lock);\r\n                            lock = true;\r\n                            //adjust total supply\r\n                            totalSupply_ = ABDKMathQuad.sub(totalSupply_, ABDKMathQuad.mul(amount, proportionRedeemed));\r\n                            // send redeemed currency to party which is all of the currency in deposit with this user (party)\r\n                            address(uint160(party)).transfer(ABDKMathQuad.toUInt(amtSend));\r\n                            //generate event\r\n                            emit ViaCashRedeemed(currency, deposits[party][currency]);\r\n                            lock = false;\r\n                        }\r\n                        else if(operation==\"transfer\"){\r\n                            //transfer balances\r\n                            balances[receiver] = ABDKMathQuad.add(balances[receiver], ABDKMathQuad.mul(amount, proportionRedeemed));\r\n                            //transfer deposits\r\n                            deposits[receiver][currency] = ABDKMathQuad.add(deposits[receiver][currency], amtSend);\r\n                        }\r\n                        redeem(balanceToRedeem, party, cashtokenName, operation, receiver);\r\n                    }\r\n                }\r\n            }\r\n        }\r\n    }\r\n    \r\n    //get Via exchange rates from oracle and convert given currency and amount to via cash token\r\n    function convertToVia(bytes16 amount, bytes32 paid_in_currency, bytes16 ethusd, bytes16 viarate) private view returns(bytes16){\r\n        if(paid_in_currency==\"ether\"){\r\n            //to first convert amount of ether passed to this function to USD\r\n            bytes16 amountInUSD = ABDKMathQuad.div(ABDKMathQuad.mul(amount, ethusd), ABDKMathQuad.fromUInt(1000000000000000000));\r\n            //to then convert USD to Via-currency if currency of this contract is not USD itself\r\n            if(cashtokenName!=\"Via_USD\"){\r\n                bytes16 inVia = ABDKMathQuad.mul(amountInUSD, viarate);\r\n                return inVia;\r\n            }\r\n            else{\r\n                return amountInUSD;\r\n            }\r\n        }\r\n        //if currency paid in another via currency\r\n        else{\r\n            bytes16 inVia = ABDKMathQuad.mul(amount, viarate);\r\n            return inVia;\r\n        }\r\n    }\r\n\r\n    //convert Via-currency (eg, Via-EUR, Via-INR, Via-USD) to Ether or another Via currency\r\n    //viarate is 1 if pay out currency is ether and this via cash token to redeem is Via-USD, otherwise viarate is exchange rate between this cash token to Via-USD\r\n    //if pay out currency is not ether, then viarate is exchange rate between this cash token and cash token to pay out \r\n    function convertFromVia(bytes16 amount, bytes32 payout_currency, bytes16 ethusd, bytes16 viarate) private pure returns(bytes16){\r\n        //if currency to convert to is ether\r\n        if(payout_currency==\"ether\"){\r\n            bytes16 amountInViaUSD = ABDKMathQuad.mul(amount, viarate);\r\n            bytes16 inEth = ABDKMathQuad.div(amountInViaUSD, ethusd);\r\n            return inEth;\r\n        }\r\n        //else convert to another via currency\r\n        else{\r\n            return ABDKMathQuad.mul(viarate, amount);\r\n        }\r\n    }\r\n    \r\n}\r\n",
  "sourcePath": "D:/verified/via-issuer/contracts/Cash.sol",
  "compiler": {
    "name": "solc",
    "version": "0.5.7+commit.6da8b019.Emscripten.clang"
  },
  "schemaVersion": "3.3.2",
  "updatedAt": "2020-12-29T06:44:43.997Z",
  "devdoc": {
    "methods": {
      "initialize(address)": {
        "details": "Initializes the contract setting the deployer as the initial owner.\r"
      },
      "isOwner()": {
        "details": "Returns true if the caller is the current owner.\r"
      },
      "owner()": {
        "details": "Returns the address of the current owner.\r"
      },
      "renounceOwnership()": {
        "details": "Leaves the contract without owner. It will not be possible to call\r `onlyOwner` functions anymore. Can only be called by the current owner.\r      * > Note: Renouncing ownership will leave the contract without an owner,\r thereby removing any functionality that is only available to the owner.\r"
      },
      "transferOwnership(address)": {
        "details": "Transfers ownership of the contract to a new account (`newOwner`).\r Can only be called by the current owner.\r"
      }
    }
  },
  "userdoc": {
    "methods": {}
  }
}