{
  "contractName": "ERC20",
  "abi": [
    {
      "constant": true,
      "inputs": [],
      "name": "issuer",
      "outputs": [
        {
          "name": "",
          "type": "address"
        }
      ],
      "payable": false,
      "stateMutability": "view",
      "type": "function"
    },
    {
      "constant": true,
      "inputs": [
        {
          "name": "",
          "type": "address"
        }
      ],
      "name": "balances",
      "outputs": [
        {
          "name": "",
          "type": "bytes16"
        }
      ],
      "payable": false,
      "stateMutability": "view",
      "type": "function"
    },
    {
      "constant": true,
      "inputs": [],
      "name": "decimals",
      "outputs": [
        {
          "name": "",
          "type": "uint8"
        }
      ],
      "payable": false,
      "stateMutability": "view",
      "type": "function"
    },
    {
      "anonymous": false,
      "inputs": [
        {
          "indexed": true,
          "name": "tokenOwner",
          "type": "address"
        },
        {
          "indexed": true,
          "name": "spender",
          "type": "address"
        },
        {
          "indexed": false,
          "name": "tokens",
          "type": "uint256"
        }
      ],
      "name": "Approval",
      "type": "event"
    },
    {
      "anonymous": false,
      "inputs": [
        {
          "indexed": true,
          "name": "from",
          "type": "address"
        },
        {
          "indexed": true,
          "name": "to",
          "type": "address"
        },
        {
          "indexed": false,
          "name": "tokens",
          "type": "uint256"
        }
      ],
      "name": "Transfer",
      "type": "event"
    },
    {
      "constant": true,
      "inputs": [],
      "name": "totalSupply",
      "outputs": [
        {
          "name": "",
          "type": "uint256"
        }
      ],
      "payable": false,
      "stateMutability": "view",
      "type": "function"
    },
    {
      "constant": true,
      "inputs": [
        {
          "name": "tokenOwner",
          "type": "address"
        }
      ],
      "name": "balanceOf",
      "outputs": [
        {
          "name": "",
          "type": "uint256"
        }
      ],
      "payable": false,
      "stateMutability": "view",
      "type": "function"
    },
    {
      "constant": false,
      "inputs": [
        {
          "name": "receiver",
          "type": "address"
        },
        {
          "name": "tokens",
          "type": "uint256"
        }
      ],
      "name": "transfer",
      "outputs": [
        {
          "name": "",
          "type": "bool"
        }
      ],
      "payable": false,
      "stateMutability": "nonpayable",
      "type": "function"
    },
    {
      "constant": false,
      "inputs": [
        {
          "name": "spender",
          "type": "address"
        },
        {
          "name": "tokens",
          "type": "uint256"
        }
      ],
      "name": "approve",
      "outputs": [
        {
          "name": "",
          "type": "bool"
        }
      ],
      "payable": false,
      "stateMutability": "nonpayable",
      "type": "function"
    },
    {
      "constant": true,
      "inputs": [
        {
          "name": "tokenOwner",
          "type": "address"
        },
        {
          "name": "spender",
          "type": "address"
        }
      ],
      "name": "allowance",
      "outputs": [
        {
          "name": "",
          "type": "uint256"
        }
      ],
      "payable": false,
      "stateMutability": "view",
      "type": "function"
    },
    {
      "constant": false,
      "inputs": [
        {
          "name": "owner",
          "type": "address"
        },
        {
          "name": "buyer",
          "type": "address"
        },
        {
          "name": "tokens",
          "type": "uint256"
        }
      ],
      "name": "transferFrom",
      "outputs": [
        {
          "name": "",
          "type": "bool"
        }
      ],
      "payable": false,
      "stateMutability": "nonpayable",
      "type": "function"
    }
  ],
  "bytecode": "0x608060405234801561001057600080fd5b50610dac806100206000396000f3fe608060405234801561001057600080fd5b50600436106100935760003560e01c806327e235e31161006657806327e235e31461014c578063313ce5671461018f57806370a08231146101ad578063a9059cbb146101d3578063dd62ed3e146101ff57610093565b8063095ea7b31461009857806318160ddd146100d85780631d143848146100f257806323b872dd14610116575b600080fd5b6100c4600480360360408110156100ae57600080fd5b506001600160a01b03813516906020013561022d565b604080519115158252519081900360200190f35b6100e06102b5565b60408051918252519081900360200190f35b6100fa6102cc565b604080516001600160a01b039092168252519081900360200190f35b6100c46004803603606081101561012c57600080fd5b506001600160a01b038135811691602081013590911690604001356102db565b6101726004803603602081101561016257600080fd5b50356001600160a01b03166104d7565b604080516001600160801b03199092168252519081900360200190f35b6101976104ec565b6040805160ff9092168252519081900360200190f35b6100e0600480360360208110156101c357600080fd5b50356001600160a01b03166104fc565b6100c4600480360360408110156101e957600080fd5b506001600160a01b038135169060200135610529565b6100e06004803603604081101561021557600080fd5b506001600160a01b038135811691602001351661064a565b600061023882610685565b3360008181526003602090815260408083206001600160a01b0389168085529083529281902080546001600160801b03191660809690961c959095179094558351868152935191937f8c5be1e5ebec7d5bd14f71427d1e84f3dd0314c0f7b2291e5b200ac8c7c3b925929081900390910190a35060015b92915050565b6001546000906102c79060801b6106ea565b905090565b6000546001600160a01b031681565b600061030a6102e983610685565b6001600160a01b03861660009081526002602052604090205460801b610782565b60000b600019148061032857506103236102e983610685565b60000b155b61033157600080fd5b61036961033d83610685565b6001600160a01b038616600090815260036020908152604080832033845290915290205460801b610782565b60000b6000191480610387575061038261033d83610685565b60000b155b61039057600080fd5b6001600160a01b0384166000908152600260205260409020546103be9060801b6103b984610685565b6108cb565b6001600160a01b038516600090815260026020908152604080832080546001600160801b031916608095861c1790556003825280832033845290915290205461040b911b6103b984610685565b6001600160a01b038581166000908152600360209081526040808320338452825280832080546001600160801b031916608096871c1790559287168252600290522054610461911b61045c84610685565b6108d9565b6001600160a01b0384811660008181526002602090815260409182902080546001600160801b03191660809690961c95909517909455805186815290519193928816927fddf252ad1be2c89b69c2b068fc378daa952ba7f163c4a11628f55a4df523b3ef92918290030190a35060019392505050565b60026020526000908152604090205460801b81565b600054600160a01b900460ff1681565b6001600160a01b0381166000908152600260205260408120546105219060801b6106ea565b90505b919050565b600061054f61053783610685565b3060009081526002602052604090205460801b610782565b60000b600019148061056d575061056861053783610685565b60000b155b61057657600080fd5b306000908152600260205260409020546105969060801b6103b984610685565b3060009081526002602052604080822080546001600160801b031916608094851c1790556001600160a01b03861682529020546105d7911b61045c84610685565b6001600160a01b03841660008181526002602090815260409182902080546001600160801b03191660809590951c9490941790935580518581529051919230927fddf252ad1be2c89b69c2b068fc378daa952ba7f163c4a11628f55a4df523b3ef9281900390910190a350600192915050565b6001600160a01b03808316600090815260036020908152604080832093851683529290529081205461067e9060801b6106ea565b9392505050565b60008161069457506000610524565b8160006106a082610cdd565b905060708110156106b9578060700382901b91506106cc565b60708111156106cc576070810382901c91505b613fff0160701b6001600160701b03919091161760801b9050610524565b6000617fff6001600160801b03608084901c1660701c16613fff811015610715576000915050610524565b6001607f1b8360801c6001600160801b03161061073157600080fd5b6140fe81111561074057600080fd5b600160701b6001600160701b03608085901c161761406f82101561076a5761406f8290031c61067e565b61406f82111561067e5761406e1982011b9392505050565b600060016001607f1b03608084901c16600160701b617fff028111156107a757600080fd5b60016001607f1b03608084901c16600160701b617fff028111156107ca57600080fd5b6001600160801b03198581169085161415806107f65750600160701b617fff02826001600160801b0316105b6107ff57600080fd5b6001600160801b0319858116908516141561081f576000925050506102af565b60006001607f1b8660801c6001600160801b03161015905060006001607f1b8660801c6001600160801b031610159050811561088a57801561087b57826001600160801b0316846001600160801b03161161087b57600161087f565b6000195b9450505050506102af565b801561089d5760019450505050506102af565b826001600160801b0316846001600160801b0316116108be5760001961087f565b60019450505050506102af565b600061067e83600160ff1b84185b6000617fff6001600160801b03608085811c8216607090811c8416939186901c90921690911c81169082141561094f5780617fff1415610945576001600160801b031985811690851614156109325784925050506102af565b50600160ef1b61ffff0291506102af9050565b84925050506102af565b80617fff14156109635783925050506102af565b6001607f1b608086901c6001600160801b0381169190911015906001600160701b031683610994576001935061099b565b600160701b175b6001607f1b608087901c6001600160801b0381169190911015906001600160701b0316846109cc57600194506109d3565b600160701b175b82610a03576001600160801b03198816600160ff1b146109f357876109f6565b60005b96505050505050506102af565b80610a23576001600160801b03198916600160ff1b146109f357886109f6565b8486038415158315151415610b31576070811315610a4a57899750505050505050506102af565b6000811315610a5c5790811c90610a8b565b606f19811215610a7557889750505050505050506102af565b6000811215610a8b578060000384901c93508596505b92810192600160711b8410610aa6576001968701969390931c925b86617fff1415610adb5784610ac357600160f01b617fff02610acd565b6001600160f01b03195b9750505050505050506102af565b600160701b841015610af05760009650610afd565b6001600160701b03841693505b83607088901b86610b0f576000610b15565b6001607f1b5b6001600160801b0316171760801b9750505050505050506102af565b6000811315610b4c57600184901b9350600187039650610b63565b6000811215610b6357600182901b91506001860396505b6070811315610b755760019150610bc2565b6001811315610b92576001810360018303901c6001019150610bc2565b606f19811215610ba55760019350610bc2565b600019811215610bc2576001816000030360018503901c60010193505b818410610bd3578184039350610bdc565b83820393508294505b83610bf25750600096506102af95505050505050565b6000610bfd85610cdd565b90508060711415610c2357600185901c6001600160701b03169450600188019750610c72565b6070811015610c6557607081900380891115610c52578086901b6001600160701b031695508089039850610c5f565b600098600019019590951b945b50610c72565b6001600160701b03851694505b87617fff1415610ca85785610c8f57600160f01b617fff02610c99565b6001600160f01b03195b985050505050505050506102af565b84607089901b87610cba576000610cc0565b6001607f1b5b6001600160801b0316171760801b985050505050505050506102af565b6000808211610ceb57600080fd5b6000600160801b8310610d0057608092831c92015b680100000000000000008310610d1857604092831c92015b6401000000008310610d2c57602092831c92015b620100008310610d3e57601092831c92015b6101008310610d4f57600892831c92015b60108310610d5f57600492831c92015b60048310610d6f57600292831c92015b60028310610521576001019291505056fea165627a7a72305820fd3b660f5469a0bd2123f5feb4a771e1001d7cfc847992783151bd983aab3add0029",
  "source": "// (c) Kallol Borah, 2020\r\n// Base ERC20 implementation.\r\n\r\npragma solidity >=0.5.0 <0.7.0;\r\n\r\nimport \"../abdk-libraries-solidity/ABDKMathQuad.sol\";\r\n\r\ncontract ERC20{\r\n\r\n    using ABDKMathQuad for uint256;\r\n    using ABDKMathQuad for int256;\r\n    using ABDKMathQuad for bytes16;\r\n\r\n    //address of the issuer of the Via, set once, never reset again\r\n    address public issuer;\r\n\r\n    //allowing 2-floating points for Via tokens\r\n    uint8 public decimals;\r\n\r\n    //variables\r\n    bytes16 totalSupply_;\r\n\r\n    //Via balances held by this address\r\n    mapping(address => bytes16) public balances;\r\n    //Delegates allowed to access this address\r\n    mapping(address => mapping (address => bytes16)) allowed;\r\n\r\n    //erc20 standard events\r\n    event Approval(address indexed tokenOwner, address indexed spender, uint tokens);\r\n    event Transfer(address indexed from, address indexed to, uint tokens);\r\n\r\n    //erc20 standard functions\r\n    function totalSupply() public view returns (uint){\r\n        return ABDKMathQuad.toUInt(totalSupply_);\r\n    }\r\n\r\n    function balanceOf(address tokenOwner) public view returns (uint){\r\n        return ABDKMathQuad.toUInt(balances[tokenOwner]);\r\n    }\r\n\r\n    function transfer(address receiver, uint tokens) public returns (bool){\r\n        require(ABDKMathQuad.cmp(ABDKMathQuad.fromUInt(tokens),balances[address(this)])==-1 || \r\n                ABDKMathQuad.cmp(ABDKMathQuad.fromUInt(tokens),balances[address(this)])==0);\r\n        balances[address(this)] = ABDKMathQuad.sub(balances[address(this)], ABDKMathQuad.fromUInt(tokens));\r\n        balances[receiver] = ABDKMathQuad.add(balances[receiver], ABDKMathQuad.fromUInt(tokens));\r\n        emit Transfer(address(this), receiver, tokens);\r\n        return true;\r\n    }    \r\n\r\n    function approve(address spender, uint tokens)  public returns (bool){\r\n        allowed[msg.sender][spender] = ABDKMathQuad.fromUInt(tokens);\r\n        emit Approval(msg.sender, spender, tokens);\r\n        return true;\r\n    }\r\n\r\n    function allowance(address tokenOwner, address spender) public view returns (uint){\r\n        return ABDKMathQuad.toUInt(allowed[tokenOwner][spender]);\r\n    }\r\n\r\n    function transferFrom(address owner, address buyer, uint tokens) public returns (bool){\r\n        require(ABDKMathQuad.cmp(ABDKMathQuad.fromUInt(tokens), balances[owner])==-1 ||\r\n                ABDKMathQuad.cmp(ABDKMathQuad.fromUInt(tokens), balances[owner])==0);\r\n        //require(ABDKMathQuad.cmp(ABDKMathQuad.fromUInt(tokens), balances[owner])==0);\r\n        require(ABDKMathQuad.cmp(ABDKMathQuad.fromUInt(tokens), allowed[owner][msg.sender])==-1 || ABDKMathQuad.cmp(ABDKMathQuad.fromUInt(tokens), allowed[owner][msg.sender])==0);\r\n        balances[owner] = ABDKMathQuad.sub(balances[owner], ABDKMathQuad.fromUInt(tokens));\r\n        allowed[owner][msg.sender] = ABDKMathQuad.sub(allowed[owner][msg.sender], ABDKMathQuad.fromUInt(tokens));\r\n        balances[buyer] = ABDKMathQuad.add(balances[buyer], ABDKMathQuad.fromUInt(tokens));\r\n        emit Transfer(owner, buyer, tokens);\r\n        return true;\r\n    }\r\n\r\n}\r\n",
  "sourcePath": "D:\\verified\\via-issuer\\contracts\\erc\\ERC20.sol",
  "compiler": {
    "name": "solc",
    "version": "0.5.7+commit.6da8b019.Emscripten.clang"
  },
  "schemaVersion": "3.2.5",
  "updatedAt": "2020-11-10T15:00:59.532Z",
  "devdoc": {
    "methods": {}
  },
  "userdoc": {
    "methods": {}
  }
}