{
  "contractName": "Factory",
  "abi": [
    {
      "constant": true,
      "inputs": [
        {
          "name": "_salt",
          "type": "uint256"
        },
        {
          "name": "_logic",
          "type": "address"
        },
        {
          "name": "_admin",
          "type": "address"
        },
        {
          "name": "_data",
          "type": "bytes"
        },
        {
          "name": "_signature",
          "type": "bytes"
        }
      ],
      "name": "getSigner",
      "outputs": [
        {
          "name": "",
          "type": "address"
        }
      ],
      "payable": false,
      "stateMutability": "view",
      "type": "function"
    },
    {
      "constant": false,
      "inputs": [
        {
          "name": "_salt",
          "type": "uint256"
        },
        {
          "name": "_logic",
          "type": "address"
        },
        {
          "name": "_admin",
          "type": "address"
        },
        {
          "name": "_data",
          "type": "bytes"
        },
        {
          "name": "_signature",
          "type": "bytes"
        }
      ],
      "name": "deploySigned",
      "outputs": [
        {
          "name": "",
          "type": "address"
        }
      ],
      "payable": false,
      "stateMutability": "nonpayable",
      "type": "function"
    },
    {
      "constant": true,
      "inputs": [
        {
          "name": "",
          "type": "uint256"
        }
      ],
      "name": "tokens",
      "outputs": [
        {
          "name": "",
          "type": "address"
        }
      ],
      "payable": false,
      "stateMutability": "view",
      "type": "function"
    },
    {
      "constant": false,
      "inputs": [
        {
          "name": "_salt",
          "type": "uint256"
        },
        {
          "name": "_logic",
          "type": "address"
        },
        {
          "name": "_admin",
          "type": "address"
        },
        {
          "name": "_data",
          "type": "bytes"
        }
      ],
      "name": "deploy",
      "outputs": [
        {
          "name": "",
          "type": "address"
        }
      ],
      "payable": false,
      "stateMutability": "nonpayable",
      "type": "function"
    },
    {
      "constant": true,
      "inputs": [
        {
          "name": "",
          "type": "address"
        }
      ],
      "name": "token",
      "outputs": [
        {
          "name": "tokenType",
          "type": "bytes32"
        },
        {
          "name": "name",
          "type": "bytes32"
        }
      ],
      "payable": false,
      "stateMutability": "view",
      "type": "function"
    },
    {
      "constant": false,
      "inputs": [],
      "name": "renounceOwnership",
      "outputs": [],
      "payable": false,
      "stateMutability": "nonpayable",
      "type": "function"
    },
    {
      "constant": true,
      "inputs": [
        {
          "name": "_salt",
          "type": "uint256"
        },
        {
          "name": "_sender",
          "type": "address"
        }
      ],
      "name": "getDeploymentAddress",
      "outputs": [
        {
          "name": "",
          "type": "address"
        }
      ],
      "payable": false,
      "stateMutability": "view",
      "type": "function"
    },
    {
      "constant": true,
      "inputs": [],
      "name": "owner",
      "outputs": [
        {
          "name": "",
          "type": "address"
        }
      ],
      "payable": false,
      "stateMutability": "view",
      "type": "function"
    },
    {
      "constant": true,
      "inputs": [],
      "name": "isOwner",
      "outputs": [
        {
          "name": "",
          "type": "bool"
        }
      ],
      "payable": false,
      "stateMutability": "view",
      "type": "function"
    },
    {
      "constant": false,
      "inputs": [
        {
          "name": "_logic",
          "type": "address"
        },
        {
          "name": "_data",
          "type": "bytes"
        }
      ],
      "name": "deployMinimal",
      "outputs": [
        {
          "name": "proxy",
          "type": "address"
        }
      ],
      "payable": false,
      "stateMutability": "nonpayable",
      "type": "function"
    },
    {
      "constant": false,
      "inputs": [
        {
          "name": "newOwner",
          "type": "address"
        }
      ],
      "name": "transferOwnership",
      "outputs": [],
      "payable": false,
      "stateMutability": "nonpayable",
      "type": "function"
    },
    {
      "anonymous": false,
      "inputs": [
        {
          "indexed": true,
          "name": "_address",
          "type": "address"
        },
        {
          "indexed": false,
          "name": "tokenName",
          "type": "bytes32"
        },
        {
          "indexed": false,
          "name": "tokenType",
          "type": "bytes32"
        }
      ],
      "name": "IssuerCreated",
      "type": "event"
    },
    {
      "anonymous": false,
      "inputs": [
        {
          "indexed": true,
          "name": "_address",
          "type": "address"
        },
        {
          "indexed": false,
          "name": "tokenName",
          "type": "bytes32"
        },
        {
          "indexed": false,
          "name": "tokenType",
          "type": "bytes32"
        }
      ],
      "name": "TokenCreated",
      "type": "event"
    },
    {
      "anonymous": false,
      "inputs": [
        {
          "indexed": true,
          "name": "previousOwner",
          "type": "address"
        },
        {
          "indexed": true,
          "name": "newOwner",
          "type": "address"
        }
      ],
      "name": "OwnershipTransferred",
      "type": "event"
    },
    {
      "anonymous": false,
      "inputs": [
        {
          "indexed": false,
          "name": "proxy",
          "type": "address"
        }
      ],
      "name": "ProxyCreated",
      "type": "event"
    },
    {
      "constant": false,
      "inputs": [],
      "name": "initialize",
      "outputs": [],
      "payable": false,
      "stateMutability": "nonpayable",
      "type": "function"
    },
    {
      "constant": false,
      "inputs": [
        {
          "name": "sender",
          "type": "address"
        }
      ],
      "name": "initialize",
      "outputs": [],
      "payable": false,
      "stateMutability": "nonpayable",
      "type": "function"
    },
    {
      "constant": true,
      "inputs": [],
      "name": "getTokenCount",
      "outputs": [
        {
          "name": "tokenCount",
          "type": "uint256"
        }
      ],
      "payable": false,
      "stateMutability": "view",
      "type": "function"
    },
    {
      "constant": true,
      "inputs": [
        {
          "name": "n",
          "type": "uint256"
        }
      ],
      "name": "getToken",
      "outputs": [
        {
          "name": "",
          "type": "address"
        }
      ],
      "payable": false,
      "stateMutability": "view",
      "type": "function"
    },
    {
      "constant": true,
      "inputs": [
        {
          "name": "viaAddress",
          "type": "address"
        }
      ],
      "name": "getName",
      "outputs": [
        {
          "name": "",
          "type": "bytes32"
        }
      ],
      "payable": false,
      "stateMutability": "view",
      "type": "function"
    },
    {
      "constant": true,
      "inputs": [
        {
          "name": "viaAddress",
          "type": "address"
        }
      ],
      "name": "getType",
      "outputs": [
        {
          "name": "",
          "type": "bytes32"
        }
      ],
      "payable": false,
      "stateMutability": "view",
      "type": "function"
    },
    {
      "constant": true,
      "inputs": [
        {
          "name": "viaAddress",
          "type": "address"
        }
      ],
      "name": "getNameAndType",
      "outputs": [
        {
          "name": "",
          "type": "bytes32"
        },
        {
          "name": "",
          "type": "bytes32"
        }
      ],
      "payable": false,
      "stateMutability": "view",
      "type": "function"
    },
    {
      "constant": true,
      "inputs": [
        {
          "name": "symbol",
          "type": "bytes32"
        }
      ],
      "name": "getProduct",
      "outputs": [
        {
          "name": "",
          "type": "address"
        }
      ],
      "payable": false,
      "stateMutability": "view",
      "type": "function"
    },
    {
      "constant": true,
      "inputs": [
        {
          "name": "tokenType",
          "type": "bytes32"
        },
        {
          "name": "tokenName",
          "type": "bytes32"
        }
      ],
      "name": "getIssuer",
      "outputs": [
        {
          "name": "",
          "type": "address"
        }
      ],
      "payable": false,
      "stateMutability": "view",
      "type": "function"
    },
    {
      "constant": true,
      "inputs": [
        {
          "name": "tokenName",
          "type": "bytes32"
        }
      ],
      "name": "getAddressAndType",
      "outputs": [
        {
          "name": "",
          "type": "address"
        },
        {
          "name": "",
          "type": "bytes32"
        }
      ],
      "payable": false,
      "stateMutability": "view",
      "type": "function"
    },
    {
      "constant": false,
      "inputs": [
        {
          "name": "_target",
          "type": "address"
        },
        {
          "name": "tokenName",
          "type": "bytes32"
        },
        {
          "name": "tokenType",
          "type": "bytes32"
        },
        {
          "name": "_oracle",
          "type": "address"
        },
        {
          "name": "_token",
          "type": "address"
        }
      ],
      "name": "createIssuer",
      "outputs": [],
      "payable": false,
      "stateMutability": "nonpayable",
      "type": "function"
    },
    {
      "constant": false,
      "inputs": [
        {
          "name": "_target",
          "type": "address"
        },
        {
          "name": "tokenName",
          "type": "bytes32"
        },
        {
          "name": "tokenProduct",
          "type": "bytes32"
        },
        {
          "name": "tokenSymbol",
          "type": "bytes32"
        }
      ],
      "name": "createToken",
      "outputs": [
        {
          "name": "",
          "type": "address"
        }
      ],
      "payable": false,
      "stateMutability": "nonpayable",
      "type": "function"
    }
  ],
  "bytecode": "0x6080604081905261001060a0610034565b601f1982820381018352601f90910116604052805160209190910120600055610041565b6109a68061225383390190565b612203806100506000396000f3fe608060405234801561001057600080fd5b506004361061014d5760003560e01c806378a89567116100c3578063b96b20041161007c578063b96b200414610720578063c4d66de814610760578063e0f850ff14610786578063e4b50cb8146107be578063f2fde38b146107db578063f429f19b146108015761014d565b806378a895671461060c5780638129fc1c1461061457806381ae1f5b1461061c5780638da5cb5b146106485780638f32d59b14610650578063b3eeb5e21461066c5761014d565b806357d8883b1161011557806357d8883b1461045d5780635fd4b08a146104a35780636150864c146104db578063668151a71461059f5780636d46a1db146105de578063715018a6146106045761014d565b8063290f8f56146101525780632ea77917146102b7578063332d6626146102da5780633a20e9df146104235780634f64b2be14610440575b600080fd5b61029b600480360360a081101561016857600080fd5b8135916001600160a01b03602082013581169260408301359091169190810190608081016060820135600160201b8111156101a257600080fd5b8201836020820111156101b457600080fd5b803590602001918460018302840111600160201b831117156101d557600080fd5b91908080601f0160208091040260200160405190810160405280939291908181526020018383808284376000920191909152509295949360208101935035915050600160201b81111561022757600080fd5b82018360208201111561023957600080fd5b803590602001918460018302840111600160201b8311171561025a57600080fd5b91908080601f016020809104026020016040519081016040528093929190818152602001838380828437600092019190915250929550610827945050505050565b604080516001600160a01b039092168252519081900360200190f35b61029b600480360360408110156102cd57600080fd5b5080359060200135610916565b61029b600480360360a08110156102f057600080fd5b8135916001600160a01b03602082013581169260408301359091169190810190608081016060820135600160201b81111561032a57600080fd5b82018360208201111561033c57600080fd5b803590602001918460018302840111600160201b8311171561035d57600080fd5b91908080601f0160208091040260200160405190810160405280939291908181526020018383808284376000920191909152509295949360208101935035915050600160201b8111156103af57600080fd5b8201836020820111156103c157600080fd5b803590602001918460018302840111600160201b831117156103e257600080fd5b91908080601f016020809104026020016040519081016040528093929190818152602001838380828437600092019190915250929550610940945050505050565b61029b6004803603602081101561043957600080fd5b50356109bd565b61029b6004803603602081101561045657600080fd5b50356109d8565b6104a1600480360360a081101561047357600080fd5b506001600160a01b0381358116916020810135916040820135916060810135821691608090910135166109ff565b005b6104c9600480360360208110156104b957600080fd5b50356001600160a01b0316610c5a565b60408051918252519081900360200190f35b61029b600480360360808110156104f157600080fd5b8135916001600160a01b03602082013581169260408301359091169190810190608081016060820135600160201b81111561052b57600080fd5b82018360208201111561053d57600080fd5b803590602001918460018302840111600160201b8311171561055e57600080fd5b91908080601f016020809104026020016040519081016040528093929190818152602001838380828437600092019190915250929550610c78945050505050565b6105c5600480360360208110156105b557600080fd5b50356001600160a01b0316610c90565b6040805192835260208301919091528051918290030190f35b6105c5600480360360208110156105f457600080fd5b50356001600160a01b0316610cb5565b6104a1610cce565b6104c9610d74565b6104a1610d7a565b61029b6004803603604081101561063257600080fd5b50803590602001356001600160a01b0316610e27565b61029b610e8c565b610658610e9b565b604080519115158252519081900360200190f35b61029b6004803603604081101561068257600080fd5b6001600160a01b038235169190810190604081016020820135600160201b8111156106ac57600080fd5b8201836020820111156106be57600080fd5b803590602001918460018302840111600160201b831117156106df57600080fd5b91908080601f016020809104026020016040519081016040528093929190818152602001838380828437600092019190915250929550610ec1945050505050565b61073d6004803603602081101561073657600080fd5b5035611022565b604080516001600160a01b03909316835260208301919091528051918290030190f35b6104a16004803603602081101561077657600080fd5b50356001600160a01b0316611102565b61029b6004803603608081101561079c57600080fd5b506001600160a01b0381351690602081013590604081013590606001356111f6565b61029b600480360360208110156107d457600080fd5b5035611373565b6104a1600480360360208110156107f157600080fd5b50356001600160a01b031661139d565b6104c96004803603602081101561081757600080fd5b50356001600160a01b0316611402565b6000806108ff878787873060405160200180868152602001856001600160a01b03166001600160a01b031660601b8152601401846001600160a01b03166001600160a01b031660601b815260140183805190602001908083835b602083106108a05780518252601f199092019160209182019101610881565b6001836020036101000a038019825116818451168082178552505050505050905001826001600160a01b03166001600160a01b031660601b8152601401955050505050506040516020818303038152906040528051906020012061141d565b905061090b818461146e565b979650505050505050565b6000828152606a602090815260408083208484529091529020546001600160a01b03165b92915050565b6000806109508787878787610827565b90506001600160a01b0381166109b05760408051600160e51b62461bcd02815260206004820152601160248201527f496e76616c6964207369676e6174757265000000000000000000000000000000604482015290519081900360640190fd5b61090b878787878561155c565b6000908152606960205260409020546001600160a01b031690565b606881815481106109e557fe5b6000918252602090912001546001600160a01b0316905081565b60408051602481018690526044810185905230606482018190526001600160a01b038086166084840152841660a4808401919091528351808403909101815260c49092019092526020810180516001600160e01b0316600160e41b6304649977021790526000610a6f8883610ec1565b9050806001600160a01b03167fc86ce51250387b92cfaa914f7afcac92982a98daa3e1b3dd6be12f8be38af5988888604051808381526020018281526020019250505060405180910390a285600160e31b63086c2e6d021415610b8757604080518082018252600160cb1b660acd2c286c2e6d02815260208082018a81526001600160a01b0385166000818152606784528581209451855591516001948501556068805494850190557fa2153420d844928b4421650203c77babc8b33d7f2e7b450e2966db0c2209775390930180546001600160a01b031990811685179091558b82527f68dcc6ecb62d649d2e33784f8b44697f078a6c2122f55550036dd8ccdda0277b909252929092208054909216179055610c50565b85600160e21b63109bdb99021415610c5057604080518082018252600160ca1b66159a58509bdb9902815260208082018a81526001600160a01b0385166000818152606784528581209451855591516001948501556068805494850190557fa2153420d844928b4421650203c77babc8b33d7f2e7b450e2966db0c2209775390930180546001600160a01b031990811685179091558b82527f7a0fe4ac34ae3ca2045df9af84662375058dd2ed61b784a6324a4381ad22b55c9092529290922080549092161790555b5050505050505050565b6001600160a01b031660009081526067602052604090206001015490565b6000610c87858585853361155c565b95945050505050565b6001600160a01b0381166000908152606760205260409020600181015490545b915091565b6067602052600090815260409020805460019091015482565b610cd6610e9b565b610d2a5760408051600160e51b62461bcd02815260206004820181905260248201527f4f776e61626c653a2063616c6c6572206973206e6f7420746865206f776e6572604482015290519081900360640190fd5b6034546040516000916001600160a01b0316907f8be0079c531659141344cd1fd0a4f28419497f9722a3daafe3b4186f6b6457e0908390a3603480546001600160a01b0319169055565b60685490565b600154610100900460ff1680610d935750610d93611690565b80610da1575060015460ff16155b610ddf57604051600160e51b62461bcd02815260040180806020018281038252602e8152602001806121aa602e913960400191505060405180910390fd5b600154610100900460ff16158015610e09576001805460ff1961ff00199091166101001716811790555b610e1233611102565b8015610e24576001805461ff00191690555b50565b600080610e348484611696565b600054604080516001600160f81b031960208083019190915230606090811b602184015260358301959095526055808301949094528251808303909401845260759091019091528151910120811b901c949350505050565b6034546001600160a01b031690565b6034546000906001600160a01b0316610eb26116cf565b6001600160a01b031614905090565b6000808360601b90506040517f3d602d80600a3d3981f3363d3d373d3d3d363d7300000000000000000000000081528160148201527f5af43d82803e903d91602b57fd5bf3000000000000000000000000000000000060288201526037816000f0604080516001600160a01b038316815290519194507efffc2da0b561cae30d9826d37709e9421c4725faebc226cbbb7ef5fc5e7349925081900360200190a182511561101b576000826001600160a01b0316846040518082805190602001908083835b60208310610fa45780518252601f199092019160209182019101610f85565b6001836020036101000a0380198251168184511680821785525050505050509050019150506000604051808303816000865af19150503d8060008114611006576040519150601f19603f3d011682016040523d82523d6000602084013e61100b565b606091505b505090508061101957600080fd5b505b5092915050565b60008080805b60685481101561107f5784606760006068848154811061104457fe5b60009182526020808320909101546001600160a01b0316835282019290925260400190206001015414156110775761107f565b600101611028565b81156110f3576068818154811061109257fe5b9060005260206000200160009054906101000a90046001600160a01b031660676000606884815481106110c157fe5b60009182526020808320909101546001600160a01b031683528201929092526040019020549094509250610cb0915050565b5060009250829150610cb09050565b600154610100900460ff168061111b575061111b611690565b80611129575060015460ff16155b61116757604051600160e51b62461bcd02815260040180806020018281038252602e8152602001806121aa602e913960400191505060405180910390fd5b600154610100900460ff16158015611191576001805460ff1961ff00199091166101001716811790555b603480546001600160a01b0319166001600160a01b0384811691909117918290556040519116906000907f8be0079c531659141344cd1fd0a4f28419497f9722a3daafe3b4186f6b6457e0908290a380156111f2576001805461ff00191690555b5050565b33600090815260676020526040812054600160ca1b66159a58509bdb99021461121e57600080fd5b604080513060248201526044810186905233606482018190526084820186905260a48083018690528351808403909101815260c49092019092526020810180516001600160e01b0316600160e01b63be06acfb0217905260006112818883610ec1565b6040805180820182527f566961426f6e64546f6b656e0000000000000000000000000000000000000000815260208082018b81526001600160a01b0385166000818152606784528581209451855591516001948501556068805494850190557fa2153420d844928b4421650203c77babc8b33d7f2e7b450e2966db0c2209775390930180546001600160a01b031990811685179091558a8252606983529084902080549091168317905582518b81529081018a9052825193945090927f59bcd02033e203f8af464062ce742d11a3358b7b8fd7e996b91d74bee929d7e5929181900390910190a2979650505050505050565b60006068828154811061138257fe5b6000918252602090912001546001600160a01b031692915050565b6113a5610e9b565b6113f95760408051600160e51b62461bcd02815260206004820181905260248201527f4f776e61626c653a2063616c6c6572206973206e6f7420746865206f776e6572604482015290519081900360640190fd5b610e24816116d3565b6001600160a01b031660009081526067602052604090205490565b604080517f19457468657265756d205369676e6564204d6573736167653a0a333200000000602080830191909152603c8083019490945282518083039094018452605c909101909152815191012090565b600081516041146114815750600061093a565b60208201516040830151606084015160001a7f7fffffffffffffffffffffffffffffff5d576e7357a4501ddfe92f46681b20a08211156114c7576000935050505061093a565b8060ff16601b141580156114df57508060ff16601c14155b156114f0576000935050505061093a565b6040805160008152602080820180845289905260ff8416828401526060820186905260808201859052915160019260a0808401939192601f1981019281900390910190855afa158015611547573d6000803e3d6000fd5b5050604051601f190151979650505050505050565b6000806115698784611777565b604080516001600160a01b038316815290519192507efffc2da0b561cae30d9826d37709e9421c4725faebc226cbbb7ef5fc5e7349919081900360200190a1604051600160e01b63cf7a1d770281526001600160a01b038781166004830190815287821660248401526060604484019081528751606485015287519285169363cf7a1d77938b938b938b939192909160840190602085019080838360005b8381101561161f578181015183820152602001611607565b50505050905090810190601f16801561164c5780820380516001836020036101000a031916815260200191505b50945050505050600060405180830381600087803b15801561166d57600080fd5b505af1158015611681573d6000803e3d6000fd5b50929998505050505050505050565b303b1590565b604080516020808201949094526001600160a01b039290921660601b828201528051808303603401815260549092019052805191012090565b3390565b6001600160a01b03811661171b57604051600160e51b62461bcd0281526004018080602001828103825260268152602001806121846026913960400191505060405180910390fd5b6034546040516001600160a01b038084169216907f8be0079c531659141344cd1fd0a4f28419497f9722a3daafe3b4186f6b6457e090600090a3603480546001600160a01b0319166001600160a01b0392909216919091179055565b60008060606040518060200161178c906117d0565b601f1982820381018352601f90910116604052905060006117ad8686611696565b9050808251602084016000f59250823b6117c657600080fd5b5090949350505050565b6109a6806117de8339019056fe608060405234801561001057600080fd5b50610986806100206000396000f3fe6080604052600436106100705760003560e01c80638f2839701161004e5780638f2839701461015e578063cf7a1d7714610191578063d1f5789414610250578063f851a4401461030657610070565b80633659cfe61461007a5780634f1ef286146100ad5780635c60da1b1461012d575b61007861031b565b005b34801561008657600080fd5b506100786004803603602081101561009d57600080fd5b50356001600160a01b0316610335565b610078600480360360408110156100c357600080fd5b6001600160a01b0382351691908101906040810160208201356401000000008111156100ee57600080fd5b82018360208201111561010057600080fd5b8035906020019184600183028401116401000000008311171561012257600080fd5b50909250905061036f565b34801561013957600080fd5b5061014261041c565b604080516001600160a01b039092168252519081900360200190f35b34801561016a57600080fd5b506100786004803603602081101561018157600080fd5b50356001600160a01b0316610459565b610078600480360360608110156101a757600080fd5b6001600160a01b0382358116926020810135909116918101906060810160408201356401000000008111156101db57600080fd5b8201836020820111156101ed57600080fd5b8035906020019184600183028401116401000000008311171561020f57600080fd5b91908080601f016020809104026020016040519081016040528093929190818152602001838380828437600092019190915250929550610516945050505050565b6100786004803603604081101561026657600080fd5b6001600160a01b03823516919081019060408101602082013564010000000081111561029157600080fd5b8201836020820111156102a357600080fd5b803590602001918460018302840111640100000000831117156102c557600080fd5b91908080601f0160208091040260200160405190810160405280939291908181526020018383808284376000920191909152509295506105a6945050505050565b34801561031257600080fd5b506101426106e6565b610323610711565b61033361032e610774565b610799565b565b61033d6107bd565b6001600160a01b0316336001600160a01b031614156103645761035f816107e2565b61036c565b61036c61031b565b50565b6103776107bd565b6001600160a01b0316336001600160a01b0316141561040f57610399836107e2565b6000836001600160a01b031683836040518083838082843760405192019450600093509091505080830381855af49150503d80600081146103f6576040519150601f19603f3d011682016040523d82523d6000602084013e6103fb565b606091505b505090508061040957600080fd5b50610417565b61041761031b565b505050565b60006104266107bd565b6001600160a01b0316336001600160a01b0316141561044e57610447610774565b9050610456565b61045661031b565b90565b6104616107bd565b6001600160a01b0316336001600160a01b03161415610364576001600160a01b0381166104c257604051600160e51b62461bcd0281526004018080602001828103825260368152602001806108ea6036913960400191505060405180910390fd5b7f7e644d79422f17c01e4894b5f4f588d331ebfa28653d42ae832dc59e38c9798f6104eb6107bd565b604080516001600160a01b03928316815291841660208301528051918290030190a161035f81610822565b6000610520610774565b6001600160a01b03161461053357600080fd5b61053d83826105a6565b604080517f656970313936372e70726f78792e61646d696e00000000000000000000000000815290519081900360130190207fb53127684a568b3173ae13b9f8a6016e243e63b6e8ee1178d6a717850b5d61036000199091011461059d57fe5b61041782610822565b60006105b0610774565b6001600160a01b0316146105c357600080fd5b604080517f656970313936372e70726f78792e696d706c656d656e746174696f6e000000008152905190819003601c0190207f360894a13ba1a3210667c828492db98dca3e2076cc3735a920a3ca505d382bbc6000199091011461062357fe5b61062c82610846565b8051156106e2576000826001600160a01b0316826040518082805190602001908083835b6020831061066f5780518252601f199092019160209182019101610650565b6001836020036101000a038019825116818451168082178552505050505050905001915050600060405180830381855af49150503d80600081146106cf576040519150601f19603f3d011682016040523d82523d6000602084013e6106d4565b606091505b505090508061041757600080fd5b5050565b60006106f06107bd565b6001600160a01b0316336001600160a01b0316141561044e576104476107bd565b6107196107bd565b6001600160a01b0316336001600160a01b0316141561076c57604051600160e51b62461bcd0281526004018080602001828103825260328152602001806108b86032913960400191505060405180910390fd5b610333610333565b7f360894a13ba1a3210667c828492db98dca3e2076cc3735a920a3ca505d382bbc5490565b3660008037600080366000845af43d6000803e8080156107b8573d6000f35b3d6000fd5b7fb53127684a568b3173ae13b9f8a6016e243e63b6e8ee1178d6a717850b5d61035490565b6107eb81610846565b6040516001600160a01b038216907fbc7cd75a20ee27fd9adebab32041f755214dbc6bffa90cc0225b39da2e5c2d3b90600090a250565b7fb53127684a568b3173ae13b9f8a6016e243e63b6e8ee1178d6a717850b5d610355565b61084f816108b1565b61088d57604051600160e51b62461bcd02815260040180806020018281038252603b815260200180610920603b913960400191505060405180910390fd5b7f360894a13ba1a3210667c828492db98dca3e2076cc3735a920a3ca505d382bbc55565b3b15159056fe43616e6e6f742063616c6c2066616c6c6261636b2066756e6374696f6e2066726f6d207468652070726f78792061646d696e43616e6e6f74206368616e6765207468652061646d696e206f6620612070726f787920746f20746865207a65726f206164647265737343616e6e6f742073657420612070726f787920696d706c656d656e746174696f6e20746f2061206e6f6e2d636f6e74726163742061646472657373a165627a7a72305820685006f326a7767878943f26cbcce642f01387e8680b674352be85d65bc10a7700294f776e61626c653a206e6577206f776e657220697320746865207a65726f2061646472657373436f6e747261637420696e7374616e63652068617320616c7265616479206265656e20696e697469616c697a6564a165627a7a72305820616db47652a59f6c1ca24d761c2c82175b70834f2fd94dc453b5278c90dcf3e00029608060405234801561001057600080fd5b50610986806100206000396000f3fe6080604052600436106100705760003560e01c80638f2839701161004e5780638f2839701461015e578063cf7a1d7714610191578063d1f5789414610250578063f851a4401461030657610070565b80633659cfe61461007a5780634f1ef286146100ad5780635c60da1b1461012d575b61007861031b565b005b34801561008657600080fd5b506100786004803603602081101561009d57600080fd5b50356001600160a01b0316610335565b610078600480360360408110156100c357600080fd5b6001600160a01b0382351691908101906040810160208201356401000000008111156100ee57600080fd5b82018360208201111561010057600080fd5b8035906020019184600183028401116401000000008311171561012257600080fd5b50909250905061036f565b34801561013957600080fd5b5061014261041c565b604080516001600160a01b039092168252519081900360200190f35b34801561016a57600080fd5b506100786004803603602081101561018157600080fd5b50356001600160a01b0316610459565b610078600480360360608110156101a757600080fd5b6001600160a01b0382358116926020810135909116918101906060810160408201356401000000008111156101db57600080fd5b8201836020820111156101ed57600080fd5b8035906020019184600183028401116401000000008311171561020f57600080fd5b91908080601f016020809104026020016040519081016040528093929190818152602001838380828437600092019190915250929550610516945050505050565b6100786004803603604081101561026657600080fd5b6001600160a01b03823516919081019060408101602082013564010000000081111561029157600080fd5b8201836020820111156102a357600080fd5b803590602001918460018302840111640100000000831117156102c557600080fd5b91908080601f0160208091040260200160405190810160405280939291908181526020018383808284376000920191909152509295506105a6945050505050565b34801561031257600080fd5b506101426106e6565b610323610711565b61033361032e610774565b610799565b565b61033d6107bd565b6001600160a01b0316336001600160a01b031614156103645761035f816107e2565b61036c565b61036c61031b565b50565b6103776107bd565b6001600160a01b0316336001600160a01b0316141561040f57610399836107e2565b6000836001600160a01b031683836040518083838082843760405192019450600093509091505080830381855af49150503d80600081146103f6576040519150601f19603f3d011682016040523d82523d6000602084013e6103fb565b606091505b505090508061040957600080fd5b50610417565b61041761031b565b505050565b60006104266107bd565b6001600160a01b0316336001600160a01b0316141561044e57610447610774565b9050610456565b61045661031b565b90565b6104616107bd565b6001600160a01b0316336001600160a01b03161415610364576001600160a01b0381166104c257604051600160e51b62461bcd0281526004018080602001828103825260368152602001806108ea6036913960400191505060405180910390fd5b7f7e644d79422f17c01e4894b5f4f588d331ebfa28653d42ae832dc59e38c9798f6104eb6107bd565b604080516001600160a01b03928316815291841660208301528051918290030190a161035f81610822565b6000610520610774565b6001600160a01b03161461053357600080fd5b61053d83826105a6565b604080517f656970313936372e70726f78792e61646d696e00000000000000000000000000815290519081900360130190207fb53127684a568b3173ae13b9f8a6016e243e63b6e8ee1178d6a717850b5d61036000199091011461059d57fe5b61041782610822565b60006105b0610774565b6001600160a01b0316146105c357600080fd5b604080517f656970313936372e70726f78792e696d706c656d656e746174696f6e000000008152905190819003601c0190207f360894a13ba1a3210667c828492db98dca3e2076cc3735a920a3ca505d382bbc6000199091011461062357fe5b61062c82610846565b8051156106e2576000826001600160a01b0316826040518082805190602001908083835b6020831061066f5780518252601f199092019160209182019101610650565b6001836020036101000a038019825116818451168082178552505050505050905001915050600060405180830381855af49150503d80600081146106cf576040519150601f19603f3d011682016040523d82523d6000602084013e6106d4565b606091505b505090508061041757600080fd5b5050565b60006106f06107bd565b6001600160a01b0316336001600160a01b0316141561044e576104476107bd565b6107196107bd565b6001600160a01b0316336001600160a01b0316141561076c57604051600160e51b62461bcd0281526004018080602001828103825260328152602001806108b86032913960400191505060405180910390fd5b610333610333565b7f360894a13ba1a3210667c828492db98dca3e2076cc3735a920a3ca505d382bbc5490565b3660008037600080366000845af43d6000803e8080156107b8573d6000f35b3d6000fd5b7fb53127684a568b3173ae13b9f8a6016e243e63b6e8ee1178d6a717850b5d61035490565b6107eb81610846565b6040516001600160a01b038216907fbc7cd75a20ee27fd9adebab32041f755214dbc6bffa90cc0225b39da2e5c2d3b90600090a250565b7fb53127684a568b3173ae13b9f8a6016e243e63b6e8ee1178d6a717850b5d610355565b61084f816108b1565b61088d57604051600160e51b62461bcd02815260040180806020018281038252603b815260200180610920603b913960400191505060405180910390fd5b7f360894a13ba1a3210667c828492db98dca3e2076cc3735a920a3ca505d382bbc55565b3b15159056fe43616e6e6f742063616c6c2066616c6c6261636b2066756e6374696f6e2066726f6d207468652070726f78792061646d696e43616e6e6f74206368616e6765207468652061646d696e206f6620612070726f787920746f20746865207a65726f206164647265737343616e6e6f742073657420612070726f787920696d706c656d656e746174696f6e20746f2061206e6f6e2d636f6e74726163742061646472657373a165627a7a72305820685006f326a7767878943f26cbcce642f01387e8680b674352be85d65bc10a770029",
  "source": "// (c) Kallol Borah, 2020\r\n// Implementation of the Via cash and bond factory.\r\n// SPDX-License-Identifier: MIT\r\n\r\npragma solidity 0.5.7;\r\n\r\nimport \"./interfaces/ViaFactory.sol\";\r\nimport \"@openzeppelin/upgrades/contracts/Initializable.sol\";\r\nimport \"@openzeppelin/upgrades/contracts/upgradeability/ProxyFactory.sol\";\r\nimport \"@openzeppelin/contracts-ethereum-package/contracts/ownership/Ownable.sol\";\r\n\r\ncontract Factory is ViaFactory, ProxyFactory, Initializable, Ownable {\r\n\r\n    //data structure for token proxies\r\n    struct via{\r\n        bytes32 tokenType;\r\n        bytes32 name;\r\n    }\r\n\r\n    //addresses of all Via proxies\r\n    mapping(address => via) public token;\r\n\r\n    address[] public tokens;\r\n\r\n    //list of issued token products\r\n    mapping(bytes32 => address) products;\r\n\r\n    //list of token product issuers\r\n    mapping(bytes32 => mapping(bytes32 => address)) issuers;\r\n\r\n    event IssuerCreated(address indexed _address, bytes32 tokenName, bytes32 tokenType);\r\n    event TokenCreated(address indexed _address, bytes32 tokenName, bytes32 tokenType);\r\n\r\n    function initialize() public initializer{\r\n        Ownable.initialize(msg.sender);\r\n    }\r\n\r\n    function getTokenCount() external view returns(uint tokenCount) {\r\n        return tokens.length;\r\n    }\r\n\r\n    function getToken(uint256 n) external view returns(address){\r\n        return tokens[n];\r\n    }\r\n\r\n    function getName(address viaAddress) external view returns(bytes32) {\r\n        return token[viaAddress].name;\r\n    }\r\n\r\n    function getType(address viaAddress) external view returns(bytes32) {\r\n        return token[viaAddress].tokenType;\r\n    }\r\n\r\n    function getNameAndType(address viaAddress) external view returns(bytes32, bytes32){\r\n        return (token[viaAddress].name, token[viaAddress].tokenType);\r\n    }\r\n\r\n    //retrieve token product address for given identifier (symbol)\r\n    function getProduct(bytes32 symbol) external view returns(address){\r\n        return products[symbol];\r\n    }\r\n\r\n    //retrieve token product issuer address for given token name and type\r\n    function getIssuer(bytes32 tokenType, bytes32 tokenName) external view returns(address){\r\n        return issuers[tokenType][tokenName];\r\n    }\r\n\r\n    //retrieves address and type of token for name specified\r\n    function getAddressAndType(bytes32 tokenName) external view returns (address, bytes32){\r\n        bool found = false;\r\n        uint256 i=0;\r\n        for(i=0; i<tokens.length; i++){\r\n            if(token[tokens[i]].name==tokenName){\r\n                found == true;\r\n                break;\r\n            }\r\n        }\r\n        if(found)\r\n            return (tokens[i], token[tokens[i]].tokenType);\r\n        else\r\n            return (address(0x0), \"\");\r\n    }\r\n\r\n    //token issuer factory \r\n    //function createIssuer(uint256 salt, address _target, bytes32 tokenName, bytes32 tokenType, address _oracle, address _token) external{\r\n    function createIssuer(address _target, bytes32 tokenName, bytes32 tokenType, address _oracle, address _token) external{\r\n        address _owner = address(this);\r\n\r\n        bytes memory _payload = abi.encodeWithSignature(\"initialize(bytes32,bytes32,address,address,address)\", tokenName, tokenType, _owner, _oracle, _token);\r\n\r\n        // Deploy proxy\r\n        address _issuer = deployMinimal(_target, _payload);\r\n        emit IssuerCreated(_issuer, tokenName, tokenType);\r\n\r\n        if(tokenType == \"Cash\"){\r\n                token[_issuer] = via(\"ViaCash\", tokenName);\r\n                tokens.push(_issuer);\r\n                issuers[\"ViaCash\"][tokenName] = _issuer;\r\n        }\r\n        else if(tokenType == \"Bond\"){\r\n                token[_issuer] = via(\"ViaBond\", tokenName);\r\n                tokens.push(_issuer);\r\n                issuers[\"ViaBond\"][tokenName] = _issuer;\r\n        }\r\n    }\r\n    \r\n    //token factory\r\n    function createToken(address _target, bytes32 tokenName, bytes32 tokenProduct, bytes32 tokenSymbol) external returns(address){\r\n        require(token[msg.sender].tokenType == \"ViaBond\");\r\n        address _owner = msg.sender;\r\n\r\n        bytes memory _payload = abi.encodeWithSignature(\"initialize(address,bytes32,address,bytes32,bytes32)\", address(this), tokenName, _owner, tokenProduct, tokenSymbol);\r\n\r\n        // Deploy proxy\r\n        address _token = deployMinimal(_target, _payload);\r\n        \r\n        token[_token] = via(\"ViaBondToken\", tokenName);\r\n        tokens.push(_token);\r\n        products[tokenSymbol] = _token;       \r\n        emit TokenCreated(_token, tokenName, tokenProduct);\r\n        return _token;\r\n    }\r\n}\r\n\r\n\r\n\r\n\r\n\r\n\r\n",
  "sourcePath": "D:/verified/via-issuer/contracts/Factory.sol",
  "compiler": {
    "name": "solc",
    "version": "0.5.7+commit.6da8b019.Emscripten.clang"
  },
  "schemaVersion": "3.3.2",
  "updatedAt": "2020-12-19T09:19:45.291Z",
  "devdoc": {
    "methods": {
      "initialize(address)": {
        "details": "Initializes the contract setting the deployer as the initial owner.\r"
      },
      "isOwner()": {
        "details": "Returns true if the caller is the current owner.\r"
      },
      "owner()": {
        "details": "Returns the address of the current owner.\r"
      },
      "renounceOwnership()": {
        "details": "Leaves the contract without owner. It will not be possible to call\r `onlyOwner` functions anymore. Can only be called by the current owner.\r      * > Note: Renouncing ownership will leave the contract without an owner,\r thereby removing any functionality that is only available to the owner.\r"
      },
      "transferOwnership(address)": {
        "details": "Transfers ownership of the contract to a new account (`newOwner`).\r Can only be called by the current owner.\r"
      }
    }
  },
  "userdoc": {
    "methods": {}
  }
}