{
  "contractName": "Factory",
  "abi": [
    {
      "constant": true,
      "inputs": [
        {
          "name": "_salt",
          "type": "uint256"
        },
        {
          "name": "_logic",
          "type": "address"
        },
        {
          "name": "_admin",
          "type": "address"
        },
        {
          "name": "_data",
          "type": "bytes"
        },
        {
          "name": "_signature",
          "type": "bytes"
        }
      ],
      "name": "getSigner",
      "outputs": [
        {
          "name": "",
          "type": "address"
        }
      ],
      "payable": false,
      "stateMutability": "view",
      "type": "function"
    },
    {
      "constant": false,
      "inputs": [
        {
          "name": "_salt",
          "type": "uint256"
        },
        {
          "name": "_logic",
          "type": "address"
        },
        {
          "name": "_admin",
          "type": "address"
        },
        {
          "name": "_data",
          "type": "bytes"
        },
        {
          "name": "_signature",
          "type": "bytes"
        }
      ],
      "name": "deploySigned",
      "outputs": [
        {
          "name": "",
          "type": "address"
        }
      ],
      "payable": false,
      "stateMutability": "nonpayable",
      "type": "function"
    },
    {
      "constant": true,
      "inputs": [
        {
          "name": "",
          "type": "uint256"
        }
      ],
      "name": "tokens",
      "outputs": [
        {
          "name": "",
          "type": "address"
        }
      ],
      "payable": false,
      "stateMutability": "view",
      "type": "function"
    },
    {
      "constant": false,
      "inputs": [
        {
          "name": "_salt",
          "type": "uint256"
        },
        {
          "name": "_logic",
          "type": "address"
        },
        {
          "name": "_admin",
          "type": "address"
        },
        {
          "name": "_data",
          "type": "bytes"
        }
      ],
      "name": "deploy",
      "outputs": [
        {
          "name": "",
          "type": "address"
        }
      ],
      "payable": false,
      "stateMutability": "nonpayable",
      "type": "function"
    },
    {
      "constant": true,
      "inputs": [
        {
          "name": "",
          "type": "address"
        }
      ],
      "name": "token",
      "outputs": [
        {
          "name": "tokenType",
          "type": "bytes32"
        },
        {
          "name": "name",
          "type": "bytes32"
        }
      ],
      "payable": false,
      "stateMutability": "view",
      "type": "function"
    },
    {
      "constant": true,
      "inputs": [
        {
          "name": "_salt",
          "type": "uint256"
        },
        {
          "name": "_sender",
          "type": "address"
        }
      ],
      "name": "getDeploymentAddress",
      "outputs": [
        {
          "name": "",
          "type": "address"
        }
      ],
      "payable": false,
      "stateMutability": "view",
      "type": "function"
    },
    {
      "constant": false,
      "inputs": [
        {
          "name": "_logic",
          "type": "address"
        },
        {
          "name": "_data",
          "type": "bytes"
        }
      ],
      "name": "deployMinimal",
      "outputs": [
        {
          "name": "proxy",
          "type": "address"
        }
      ],
      "payable": false,
      "stateMutability": "nonpayable",
      "type": "function"
    },
    {
      "anonymous": false,
      "inputs": [
        {
          "indexed": true,
          "name": "_address",
          "type": "address"
        },
        {
          "indexed": false,
          "name": "tokenName",
          "type": "bytes32"
        },
        {
          "indexed": false,
          "name": "tokenType",
          "type": "bytes32"
        }
      ],
      "name": "IssuerCreated",
      "type": "event"
    },
    {
      "anonymous": false,
      "inputs": [
        {
          "indexed": true,
          "name": "_address",
          "type": "address"
        },
        {
          "indexed": false,
          "name": "tokenName",
          "type": "bytes32"
        },
        {
          "indexed": false,
          "name": "tokenType",
          "type": "bytes32"
        }
      ],
      "name": "TokenCreated",
      "type": "event"
    },
    {
      "anonymous": false,
      "inputs": [
        {
          "indexed": false,
          "name": "proxy",
          "type": "address"
        }
      ],
      "name": "ProxyCreated",
      "type": "event"
    },
    {
      "constant": true,
      "inputs": [],
      "name": "getTokenCount",
      "outputs": [
        {
          "name": "tokenCount",
          "type": "uint256"
        }
      ],
      "payable": false,
      "stateMutability": "view",
      "type": "function"
    },
    {
      "constant": true,
      "inputs": [
        {
          "name": "viaAddress",
          "type": "address"
        }
      ],
      "name": "getName",
      "outputs": [
        {
          "name": "",
          "type": "bytes32"
        }
      ],
      "payable": false,
      "stateMutability": "view",
      "type": "function"
    },
    {
      "constant": true,
      "inputs": [
        {
          "name": "viaAddress",
          "type": "address"
        }
      ],
      "name": "getType",
      "outputs": [
        {
          "name": "",
          "type": "bytes32"
        }
      ],
      "payable": false,
      "stateMutability": "view",
      "type": "function"
    },
    {
      "constant": true,
      "inputs": [
        {
          "name": "symbol",
          "type": "bytes32"
        }
      ],
      "name": "getProduct",
      "outputs": [
        {
          "name": "",
          "type": "address"
        }
      ],
      "payable": false,
      "stateMutability": "view",
      "type": "function"
    },
    {
      "constant": true,
      "inputs": [
        {
          "name": "tokenType",
          "type": "bytes32"
        },
        {
          "name": "tokenName",
          "type": "bytes32"
        }
      ],
      "name": "getIssuer",
      "outputs": [
        {
          "name": "",
          "type": "address"
        }
      ],
      "payable": false,
      "stateMutability": "view",
      "type": "function"
    },
    {
      "constant": false,
      "inputs": [
        {
          "name": "_target",
          "type": "address"
        },
        {
          "name": "tokenName",
          "type": "bytes32"
        },
        {
          "name": "tokenType",
          "type": "bytes32"
        },
        {
          "name": "_oracle",
          "type": "address"
        },
        {
          "name": "_token",
          "type": "address"
        }
      ],
      "name": "createIssuer",
      "outputs": [],
      "payable": false,
      "stateMutability": "nonpayable",
      "type": "function"
    },
    {
      "constant": false,
      "inputs": [
        {
          "name": "_target",
          "type": "address"
        },
        {
          "name": "tokenName",
          "type": "bytes32"
        },
        {
          "name": "tokenProduct",
          "type": "bytes32"
        },
        {
          "name": "tokenSymbol",
          "type": "bytes32"
        }
      ],
      "name": "createToken",
      "outputs": [
        {
          "name": "",
          "type": "address"
        }
      ],
      "payable": false,
      "stateMutability": "nonpayable",
      "type": "function"
    }
  ],
  "bytecode": "0x6080604081905261001060a0610034565b601f1982820381018352601f90910116604052805160209190910120600055610041565b6109a680611b5383390190565b611b03806100506000396000f3fe608060405234801561001057600080fd5b50600436106100ea5760003560e01c80636150864c1161008c57806381ae1f5b1161006657806381ae1f5b14610583578063b3eeb5e2146105af578063e0f850ff14610663578063f429f19b1461069b576100ea565b80636150864c146104785780636d46a1db1461053c57806378a895671461057b576100ea565b80633a20e9df116100c85780633a20e9df146103c05780634f64b2be146103dd57806357d8883b146103fa5780635fd4b08a14610440576100ea565b8063290f8f56146100ef5780632ea7791714610254578063332d662614610277575b600080fd5b610238600480360360a081101561010557600080fd5b8135916001600160a01b03602082013581169260408301359091169190810190608081016060820135600160201b81111561013f57600080fd5b82018360208201111561015157600080fd5b803590602001918460018302840111600160201b8311171561017257600080fd5b91908080601f0160208091040260200160405190810160405280939291908181526020018383808284376000920191909152509295949360208101935035915050600160201b8111156101c457600080fd5b8201836020820111156101d657600080fd5b803590602001918460018302840111600160201b831117156101f757600080fd5b91908080601f0160208091040260200160405190810160405280939291908181526020018383808284376000920191909152509295506106c1945050505050565b604080516001600160a01b039092168252519081900360200190f35b6102386004803603604081101561026a57600080fd5b50803590602001356107b0565b610238600480360360a081101561028d57600080fd5b8135916001600160a01b03602082013581169260408301359091169190810190608081016060820135600160201b8111156102c757600080fd5b8201836020820111156102d957600080fd5b803590602001918460018302840111600160201b831117156102fa57600080fd5b91908080601f0160208091040260200160405190810160405280939291908181526020018383808284376000920191909152509295949360208101935035915050600160201b81111561034c57600080fd5b82018360208201111561035e57600080fd5b803590602001918460018302840111600160201b8311171561037f57600080fd5b91908080601f0160208091040260200160405190810160405280939291908181526020018383808284376000920191909152509295506107da945050505050565b610238600480360360208110156103d657600080fd5b5035610857565b610238600480360360208110156103f357600080fd5b5035610872565b61043e600480360360a081101561041057600080fd5b506001600160a01b038135811691602081013591604082013591606081013582169160809091013516610899565b005b6104666004803603602081101561045657600080fd5b50356001600160a01b0316610af4565b60408051918252519081900360200190f35b6102386004803603608081101561048e57600080fd5b8135916001600160a01b03602082013581169260408301359091169190810190608081016060820135600160201b8111156104c857600080fd5b8201836020820111156104da57600080fd5b803590602001918460018302840111600160201b831117156104fb57600080fd5b91908080601f016020809104026020016040519081016040528093929190818152602001838380828437600092019190915250929550610b12945050505050565b6105626004803603602081101561055257600080fd5b50356001600160a01b0316610b2a565b6040805192835260208301919091528051918290030190f35b610466610b43565b6102386004803603604081101561059957600080fd5b50803590602001356001600160a01b0316610b49565b610238600480360360408110156105c557600080fd5b6001600160a01b038235169190810190604081016020820135600160201b8111156105ef57600080fd5b82018360208201111561060157600080fd5b803590602001918460018302840111600160201b8311171561062257600080fd5b91908080601f016020809104026020016040519081016040528093929190818152602001838380828437600092019190915250929550610bae945050505050565b6102386004803603608081101561067957600080fd5b506001600160a01b038135169060208101359060408101359060600135610d0f565b610466600480360360208110156106b157600080fd5b50356001600160a01b0316610e04565b600080610799878787873060405160200180868152602001856001600160a01b03166001600160a01b031660601b8152601401846001600160a01b03166001600160a01b031660601b815260140183805190602001908083835b6020831061073a5780518252601f19909201916020918201910161071b565b6001836020036101000a038019825116818451168082178552505050505050905001826001600160a01b03166001600160a01b031660601b81526014019550505050505060405160208183030381529060405280519060200120610e1f565b90506107a58184610e70565b979650505050505050565b60008281526006602090815260408083208484529091529020546001600160a01b03165b92915050565b6000806107ea87878787876106c1565b90506001600160a01b03811661084a5760408051600160e51b62461bcd02815260206004820152601160248201527f496e76616c6964207369676e6174757265000000000000000000000000000000604482015290519081900360640190fd5b6107a58787878785610f5e565b6000908152600560205260409020546001600160a01b031690565b6004818154811061087f57fe5b6000918252602090912001546001600160a01b0316905081565b60408051602481018690526044810185905230606482018190526001600160a01b038086166084840152841660a4808401919091528351808403909101815260c49092019092526020810180516001600160e01b0316600160e41b63046499770217905260006109098883610bae565b9050806001600160a01b03167fc86ce51250387b92cfaa914f7afcac92982a98daa3e1b3dd6be12f8be38af5988888604051808381526020018281526020019250505060405180910390a285600160e31b63086c2e6d021415610a2157604080518082018252600160cb1b660acd2c286c2e6d02815260208082018a81526001600160a01b0385166000818152600384528581209451855591516001948501556004805494850190557f8a35acfbc15ff81a39ae7d344fd709f28e8600b4aa8c65c6b64bfe7fe36bd19b90930180546001600160a01b031990811685179091558b82527f207120bd96e7f2f2b7c1d170961a09ce2fbe54bbedd9d093527bebceca2a2c73909252929092208054909216179055610aea565b85600160e21b63109bdb99021415610aea57604080518082018252600160ca1b66159a58509bdb9902815260208082018a81526001600160a01b0385166000818152600384528581209451855591516001948501556004805494850190557f8a35acfbc15ff81a39ae7d344fd709f28e8600b4aa8c65c6b64bfe7fe36bd19b90930180546001600160a01b031990811685179091558b82527fef995417b77c8778007a2139b6a31699d4b9ca0f42512efedde5726b28e8c9d69092529290922080549092161790555b5050505050505050565b6001600160a01b031660009081526003602052604090206001015490565b6000610b218585858533610f5e565b95945050505050565b6003602052600090815260409020805460019091015482565b60045490565b600080610b568484611092565b600054604080516001600160f81b031960208083019190915230606090811b602184015260358301959095526055808301949094528251808303909401845260759091019091528151910120811b901c949350505050565b6000808360601b90506040517f3d602d80600a3d3981f3363d3d373d3d3d363d7300000000000000000000000081528160148201527f5af43d82803e903d91602b57fd5bf3000000000000000000000000000000000060288201526037816000f0604080516001600160a01b038316815290519194507efffc2da0b561cae30d9826d37709e9421c4725faebc226cbbb7ef5fc5e7349925081900360200190a1825115610d08576000826001600160a01b0316846040518082805190602001908083835b60208310610c915780518252601f199092019160209182019101610c72565b6001836020036101000a0380198251168184511680821785525050505050509050019150506000604051808303816000865af19150503d8060008114610cf3576040519150601f19603f3d011682016040523d82523d6000602084013e610cf8565b606091505b5050905080610d0657600080fd5b505b5092915050565b6000610d1a33610e04565b600160ca1b66159a58509bdb990214610d3257600080fd5b604080516024810186905233604482018190526064820186905260848083018690528351808403909101815260a49092019092526020810180516001600160e01b0316600160e01b63b3f15e75021790526000610d8f8883610bae565b60008681526005602090815260409182902080546001600160a01b0319166001600160a01b03851690811790915582518b81529182018a90528251939450927f59bcd02033e203f8af464062ce742d11a3358b7b8fd7e996b91d74bee929d7e5929181900390910190a2979650505050505050565b6001600160a01b031660009081526003602052604090205490565b604080517f19457468657265756d205369676e6564204d6573736167653a0a333200000000602080830191909152603c8083019490945282518083039094018452605c909101909152815191012090565b60008151604114610e83575060006107d4565b60208201516040830151606084015160001a7f7fffffffffffffffffffffffffffffff5d576e7357a4501ddfe92f46681b20a0821115610ec957600093505050506107d4565b8060ff16601b14158015610ee157508060ff16601c14155b15610ef257600093505050506107d4565b6040805160008152602080820180845289905260ff8416828401526060820186905260808201859052915160019260a0808401939192601f1981019281900390910190855afa158015610f49573d6000803e3d6000fd5b5050604051601f190151979650505050505050565b600080610f6b87846110cb565b604080516001600160a01b038316815290519192507efffc2da0b561cae30d9826d37709e9421c4725faebc226cbbb7ef5fc5e7349919081900360200190a1604051600160e01b63cf7a1d770281526001600160a01b038781166004830190815287821660248401526060604484019081528751606485015287519285169363cf7a1d77938b938b938b939192909160840190602085019080838360005b83811015611021578181015183820152602001611009565b50505050905090810190601f16801561104e5780820380516001836020036101000a031916815260200191505b50945050505050600060405180830381600087803b15801561106f57600080fd5b505af1158015611083573d6000803e3d6000fd5b50929998505050505050505050565b604080516020808201949094526001600160a01b039290921660601b828201528051808303603401815260549092019052805191012090565b6000806060604051806020016110e090611124565b601f1982820381018352601f90910116604052905060006111018686611092565b9050808251602084016000f59250823b61111a57600080fd5b5090949350505050565b6109a6806111328339019056fe608060405234801561001057600080fd5b50610986806100206000396000f3fe6080604052600436106100705760003560e01c80638f2839701161004e5780638f2839701461015e578063cf7a1d7714610191578063d1f5789414610250578063f851a4401461030657610070565b80633659cfe61461007a5780634f1ef286146100ad5780635c60da1b1461012d575b61007861031b565b005b34801561008657600080fd5b506100786004803603602081101561009d57600080fd5b50356001600160a01b0316610335565b610078600480360360408110156100c357600080fd5b6001600160a01b0382351691908101906040810160208201356401000000008111156100ee57600080fd5b82018360208201111561010057600080fd5b8035906020019184600183028401116401000000008311171561012257600080fd5b50909250905061036f565b34801561013957600080fd5b5061014261041c565b604080516001600160a01b039092168252519081900360200190f35b34801561016a57600080fd5b506100786004803603602081101561018157600080fd5b50356001600160a01b0316610459565b610078600480360360608110156101a757600080fd5b6001600160a01b0382358116926020810135909116918101906060810160408201356401000000008111156101db57600080fd5b8201836020820111156101ed57600080fd5b8035906020019184600183028401116401000000008311171561020f57600080fd5b91908080601f016020809104026020016040519081016040528093929190818152602001838380828437600092019190915250929550610516945050505050565b6100786004803603604081101561026657600080fd5b6001600160a01b03823516919081019060408101602082013564010000000081111561029157600080fd5b8201836020820111156102a357600080fd5b803590602001918460018302840111640100000000831117156102c557600080fd5b91908080601f0160208091040260200160405190810160405280939291908181526020018383808284376000920191909152509295506105a6945050505050565b34801561031257600080fd5b506101426106e6565b610323610711565b61033361032e610774565b610799565b565b61033d6107bd565b6001600160a01b0316336001600160a01b031614156103645761035f816107e2565b61036c565b61036c61031b565b50565b6103776107bd565b6001600160a01b0316336001600160a01b0316141561040f57610399836107e2565b6000836001600160a01b031683836040518083838082843760405192019450600093509091505080830381855af49150503d80600081146103f6576040519150601f19603f3d011682016040523d82523d6000602084013e6103fb565b606091505b505090508061040957600080fd5b50610417565b61041761031b565b505050565b60006104266107bd565b6001600160a01b0316336001600160a01b0316141561044e57610447610774565b9050610456565b61045661031b565b90565b6104616107bd565b6001600160a01b0316336001600160a01b03161415610364576001600160a01b0381166104c257604051600160e51b62461bcd0281526004018080602001828103825260368152602001806108ea6036913960400191505060405180910390fd5b7f7e644d79422f17c01e4894b5f4f588d331ebfa28653d42ae832dc59e38c9798f6104eb6107bd565b604080516001600160a01b03928316815291841660208301528051918290030190a161035f81610822565b6000610520610774565b6001600160a01b03161461053357600080fd5b61053d83826105a6565b604080517f656970313936372e70726f78792e61646d696e00000000000000000000000000815290519081900360130190207fb53127684a568b3173ae13b9f8a6016e243e63b6e8ee1178d6a717850b5d61036000199091011461059d57fe5b61041782610822565b60006105b0610774565b6001600160a01b0316146105c357600080fd5b604080517f656970313936372e70726f78792e696d706c656d656e746174696f6e000000008152905190819003601c0190207f360894a13ba1a3210667c828492db98dca3e2076cc3735a920a3ca505d382bbc6000199091011461062357fe5b61062c82610846565b8051156106e2576000826001600160a01b0316826040518082805190602001908083835b6020831061066f5780518252601f199092019160209182019101610650565b6001836020036101000a038019825116818451168082178552505050505050905001915050600060405180830381855af49150503d80600081146106cf576040519150601f19603f3d011682016040523d82523d6000602084013e6106d4565b606091505b505090508061041757600080fd5b5050565b60006106f06107bd565b6001600160a01b0316336001600160a01b0316141561044e576104476107bd565b6107196107bd565b6001600160a01b0316336001600160a01b0316141561076c57604051600160e51b62461bcd0281526004018080602001828103825260328152602001806108b86032913960400191505060405180910390fd5b610333610333565b7f360894a13ba1a3210667c828492db98dca3e2076cc3735a920a3ca505d382bbc5490565b3660008037600080366000845af43d6000803e8080156107b8573d6000f35b3d6000fd5b7fb53127684a568b3173ae13b9f8a6016e243e63b6e8ee1178d6a717850b5d61035490565b6107eb81610846565b6040516001600160a01b038216907fbc7cd75a20ee27fd9adebab32041f755214dbc6bffa90cc0225b39da2e5c2d3b90600090a250565b7fb53127684a568b3173ae13b9f8a6016e243e63b6e8ee1178d6a717850b5d610355565b61084f816108b1565b61088d57604051600160e51b62461bcd02815260040180806020018281038252603b815260200180610920603b913960400191505060405180910390fd5b7f360894a13ba1a3210667c828492db98dca3e2076cc3735a920a3ca505d382bbc55565b3b15159056fe43616e6e6f742063616c6c2066616c6c6261636b2066756e6374696f6e2066726f6d207468652070726f78792061646d696e43616e6e6f74206368616e6765207468652061646d696e206f6620612070726f787920746f20746865207a65726f206164647265737343616e6e6f742073657420612070726f787920696d706c656d656e746174696f6e20746f2061206e6f6e2d636f6e74726163742061646472657373a165627a7a72305820685006f326a7767878943f26cbcce642f01387e8680b674352be85d65bc10a770029a165627a7a72305820a7897ee182d75c8c9caee7b2942131564be901a3c8c75eb09e85ef3a7b68a2200029608060405234801561001057600080fd5b50610986806100206000396000f3fe6080604052600436106100705760003560e01c80638f2839701161004e5780638f2839701461015e578063cf7a1d7714610191578063d1f5789414610250578063f851a4401461030657610070565b80633659cfe61461007a5780634f1ef286146100ad5780635c60da1b1461012d575b61007861031b565b005b34801561008657600080fd5b506100786004803603602081101561009d57600080fd5b50356001600160a01b0316610335565b610078600480360360408110156100c357600080fd5b6001600160a01b0382351691908101906040810160208201356401000000008111156100ee57600080fd5b82018360208201111561010057600080fd5b8035906020019184600183028401116401000000008311171561012257600080fd5b50909250905061036f565b34801561013957600080fd5b5061014261041c565b604080516001600160a01b039092168252519081900360200190f35b34801561016a57600080fd5b506100786004803603602081101561018157600080fd5b50356001600160a01b0316610459565b610078600480360360608110156101a757600080fd5b6001600160a01b0382358116926020810135909116918101906060810160408201356401000000008111156101db57600080fd5b8201836020820111156101ed57600080fd5b8035906020019184600183028401116401000000008311171561020f57600080fd5b91908080601f016020809104026020016040519081016040528093929190818152602001838380828437600092019190915250929550610516945050505050565b6100786004803603604081101561026657600080fd5b6001600160a01b03823516919081019060408101602082013564010000000081111561029157600080fd5b8201836020820111156102a357600080fd5b803590602001918460018302840111640100000000831117156102c557600080fd5b91908080601f0160208091040260200160405190810160405280939291908181526020018383808284376000920191909152509295506105a6945050505050565b34801561031257600080fd5b506101426106e6565b610323610711565b61033361032e610774565b610799565b565b61033d6107bd565b6001600160a01b0316336001600160a01b031614156103645761035f816107e2565b61036c565b61036c61031b565b50565b6103776107bd565b6001600160a01b0316336001600160a01b0316141561040f57610399836107e2565b6000836001600160a01b031683836040518083838082843760405192019450600093509091505080830381855af49150503d80600081146103f6576040519150601f19603f3d011682016040523d82523d6000602084013e6103fb565b606091505b505090508061040957600080fd5b50610417565b61041761031b565b505050565b60006104266107bd565b6001600160a01b0316336001600160a01b0316141561044e57610447610774565b9050610456565b61045661031b565b90565b6104616107bd565b6001600160a01b0316336001600160a01b03161415610364576001600160a01b0381166104c257604051600160e51b62461bcd0281526004018080602001828103825260368152602001806108ea6036913960400191505060405180910390fd5b7f7e644d79422f17c01e4894b5f4f588d331ebfa28653d42ae832dc59e38c9798f6104eb6107bd565b604080516001600160a01b03928316815291841660208301528051918290030190a161035f81610822565b6000610520610774565b6001600160a01b03161461053357600080fd5b61053d83826105a6565b604080517f656970313936372e70726f78792e61646d696e00000000000000000000000000815290519081900360130190207fb53127684a568b3173ae13b9f8a6016e243e63b6e8ee1178d6a717850b5d61036000199091011461059d57fe5b61041782610822565b60006105b0610774565b6001600160a01b0316146105c357600080fd5b604080517f656970313936372e70726f78792e696d706c656d656e746174696f6e000000008152905190819003601c0190207f360894a13ba1a3210667c828492db98dca3e2076cc3735a920a3ca505d382bbc6000199091011461062357fe5b61062c82610846565b8051156106e2576000826001600160a01b0316826040518082805190602001908083835b6020831061066f5780518252601f199092019160209182019101610650565b6001836020036101000a038019825116818451168082178552505050505050905001915050600060405180830381855af49150503d80600081146106cf576040519150601f19603f3d011682016040523d82523d6000602084013e6106d4565b606091505b505090508061041757600080fd5b5050565b60006106f06107bd565b6001600160a01b0316336001600160a01b0316141561044e576104476107bd565b6107196107bd565b6001600160a01b0316336001600160a01b0316141561076c57604051600160e51b62461bcd0281526004018080602001828103825260328152602001806108b86032913960400191505060405180910390fd5b610333610333565b7f360894a13ba1a3210667c828492db98dca3e2076cc3735a920a3ca505d382bbc5490565b3660008037600080366000845af43d6000803e8080156107b8573d6000f35b3d6000fd5b7fb53127684a568b3173ae13b9f8a6016e243e63b6e8ee1178d6a717850b5d61035490565b6107eb81610846565b6040516001600160a01b038216907fbc7cd75a20ee27fd9adebab32041f755214dbc6bffa90cc0225b39da2e5c2d3b90600090a250565b7fb53127684a568b3173ae13b9f8a6016e243e63b6e8ee1178d6a717850b5d610355565b61084f816108b1565b61088d57604051600160e51b62461bcd02815260040180806020018281038252603b815260200180610920603b913960400191505060405180910390fd5b7f360894a13ba1a3210667c828492db98dca3e2076cc3735a920a3ca505d382bbc55565b3b15159056fe43616e6e6f742063616c6c2066616c6c6261636b2066756e6374696f6e2066726f6d207468652070726f78792061646d696e43616e6e6f74206368616e6765207468652061646d696e206f6620612070726f787920746f20746865207a65726f206164647265737343616e6e6f742073657420612070726f787920696d706c656d656e746174696f6e20746f2061206e6f6e2d636f6e74726163742061646472657373a165627a7a72305820685006f326a7767878943f26cbcce642f01387e8680b674352be85d65bc10a770029",
  "source": "// (c) Kallol Borah, 2020\r\n// Implementation of the Via cash and bond factory.\r\n\r\npragma solidity >=0.5.0 <0.7.0;\r\n\r\nimport \"./Cash.sol\";\r\nimport \"./Bond.sol\";\r\nimport \"@openzeppelin/upgrades/contracts/upgradeability/ProxyFactory.sol\";\r\n\r\ncontract Factory is ProxyFactory {\r\n\r\n    //data structure for token proxies\r\n    struct via{\r\n        bytes32 tokenType;\r\n        bytes32 name;\r\n    }\r\n\r\n    //address of Via contracts\r\n    address ViaBond;\r\n    address ViaCash;\r\n\r\n    //addresses of all Via proxies\r\n    mapping(address => via) public token;\r\n\r\n    address[] public tokens;\r\n\r\n    //list of issued token products\r\n    mapping(bytes32 => address) products;\r\n\r\n    //list of token product issuers\r\n    mapping(bytes32 => mapping(bytes32 => address)) issuers;\r\n\r\n    event IssuerCreated(address indexed _address, bytes32 tokenName, bytes32 tokenType);\r\n    event TokenCreated(address indexed _address, bytes32 tokenName, bytes32 tokenType);\r\n\r\n    function getTokenCount() public view returns(uint tokenCount) {\r\n        return tokens.length;\r\n    }\r\n\r\n    function getName(address viaAddress) public view returns(bytes32) {\r\n        return token[viaAddress].name;\r\n    }\r\n\r\n    function getType(address viaAddress) public view returns(bytes32) {\r\n        return token[viaAddress].tokenType;\r\n    }\r\n\r\n    //retrieve token product address for given identifier (symbol)\r\n    function getProduct(bytes32 symbol) public view returns(address){\r\n        return products[symbol];\r\n    }\r\n\r\n    //retrieve token product issuer address for given token name and type\r\n    function getIssuer(bytes32 tokenType, bytes32 tokenName) public view returns(address){\r\n        return issuers[tokenType][tokenName];\r\n    }\r\n\r\n    //token issuer factory \r\n    function createIssuer(address _target, bytes32 tokenName, bytes32 tokenType, address _oracle, address _token) external{\r\n        address _owner = address(this);\r\n\r\n        bytes memory _payload = abi.encodeWithSignature(\"initialize(bytes32,bytes32,address,address,address)\", tokenName, tokenType, _owner, _oracle, _token);\r\n\r\n        // Deploy proxy\r\n        address _issuer = deployMinimal(_target, _payload);\r\n        emit IssuerCreated(_issuer, tokenName, tokenType);\r\n\r\n        if(tokenType == \"Cash\"){\r\n                token[_issuer] = via(\"ViaCash\", tokenName);\r\n                tokens.push(_issuer);\r\n                issuers[\"ViaCash\"][tokenName] = _issuer;\r\n        }\r\n        else if(tokenType == \"Bond\"){\r\n                token[_issuer] = via(\"ViaBond\", tokenName);\r\n                tokens.push(_issuer);\r\n                issuers[\"ViaBond\"][tokenName] = _issuer;\r\n        }\r\n    }\r\n    \r\n    //token factory\r\n    function createToken(address _target, bytes32 tokenName, bytes32 tokenProduct, bytes32 tokenSymbol) public returns(address){\r\n        require(getType(msg.sender) == \"ViaBond\");\r\n        address _owner = msg.sender;\r\n\r\n        bytes memory _payload = abi.encodeWithSignature(\"initialize(bytes32,address,bytes32,bytes32)\", tokenName, _owner, tokenProduct, tokenSymbol);\r\n\r\n        // Deploy proxy\r\n        address _token = deployMinimal(_target, _payload);\r\n        products[tokenSymbol] = _token;       \r\n        emit TokenCreated(_token, tokenName, tokenProduct);\r\n        return _token;\r\n    }\r\n}\r\n\r\n\r\n\r\n\r\n\r\n\r\n",
  "sourcePath": "D:\\verified\\via-issuer\\contracts\\Factory.sol",
  "compiler": {
    "name": "solc",
    "version": "0.5.7+commit.6da8b019.Emscripten.clang"
  },
  "schemaVersion": "3.2.5",
  "updatedAt": "2020-10-15T04:41:15.437Z",
  "devdoc": {
    "methods": {}
  },
  "userdoc": {
    "methods": {}
  }
}