{
  "contractName": "Factory",
  "abi": [
    {
      "constant": true,
      "inputs": [
        {
          "name": "_salt",
          "type": "uint256"
        },
        {
          "name": "_logic",
          "type": "address"
        },
        {
          "name": "_admin",
          "type": "address"
        },
        {
          "name": "_data",
          "type": "bytes"
        },
        {
          "name": "_signature",
          "type": "bytes"
        }
      ],
      "name": "getSigner",
      "outputs": [
        {
          "name": "",
          "type": "address"
        }
      ],
      "payable": false,
      "stateMutability": "view",
      "type": "function"
    },
    {
      "constant": false,
      "inputs": [
        {
          "name": "_salt",
          "type": "uint256"
        },
        {
          "name": "_logic",
          "type": "address"
        },
        {
          "name": "_admin",
          "type": "address"
        },
        {
          "name": "_data",
          "type": "bytes"
        },
        {
          "name": "_signature",
          "type": "bytes"
        }
      ],
      "name": "deploySigned",
      "outputs": [
        {
          "name": "",
          "type": "address"
        }
      ],
      "payable": false,
      "stateMutability": "nonpayable",
      "type": "function"
    },
    {
      "constant": true,
      "inputs": [
        {
          "name": "",
          "type": "uint256"
        }
      ],
      "name": "tokens",
      "outputs": [
        {
          "name": "",
          "type": "address"
        }
      ],
      "payable": false,
      "stateMutability": "view",
      "type": "function"
    },
    {
      "constant": false,
      "inputs": [
        {
          "name": "_salt",
          "type": "uint256"
        },
        {
          "name": "_logic",
          "type": "address"
        },
        {
          "name": "_admin",
          "type": "address"
        },
        {
          "name": "_data",
          "type": "bytes"
        }
      ],
      "name": "deploy",
      "outputs": [
        {
          "name": "",
          "type": "address"
        }
      ],
      "payable": false,
      "stateMutability": "nonpayable",
      "type": "function"
    },
    {
      "constant": true,
      "inputs": [
        {
          "name": "",
          "type": "address"
        }
      ],
      "name": "token",
      "outputs": [
        {
          "name": "tokenType",
          "type": "bytes32"
        },
        {
          "name": "name",
          "type": "bytes32"
        }
      ],
      "payable": false,
      "stateMutability": "view",
      "type": "function"
    },
    {
      "constant": true,
      "inputs": [
        {
          "name": "_salt",
          "type": "uint256"
        },
        {
          "name": "_sender",
          "type": "address"
        }
      ],
      "name": "getDeploymentAddress",
      "outputs": [
        {
          "name": "",
          "type": "address"
        }
      ],
      "payable": false,
      "stateMutability": "view",
      "type": "function"
    },
    {
      "constant": false,
      "inputs": [
        {
          "name": "_logic",
          "type": "address"
        },
        {
          "name": "_data",
          "type": "bytes"
        }
      ],
      "name": "deployMinimal",
      "outputs": [
        {
          "name": "proxy",
          "type": "address"
        }
      ],
      "payable": false,
      "stateMutability": "nonpayable",
      "type": "function"
    },
    {
      "anonymous": false,
      "inputs": [
        {
          "indexed": true,
          "name": "_address",
          "type": "address"
        },
        {
          "indexed": false,
          "name": "tokenName",
          "type": "bytes32"
        },
        {
          "indexed": false,
          "name": "tokenType",
          "type": "bytes32"
        }
      ],
      "name": "IssuerCreated",
      "type": "event"
    },
    {
      "anonymous": false,
      "inputs": [
        {
          "indexed": true,
          "name": "_address",
          "type": "address"
        },
        {
          "indexed": false,
          "name": "tokenName",
          "type": "bytes32"
        },
        {
          "indexed": false,
          "name": "tokenType",
          "type": "bytes32"
        }
      ],
      "name": "TokenCreated",
      "type": "event"
    },
    {
      "anonymous": false,
      "inputs": [
        {
          "indexed": false,
          "name": "proxy",
          "type": "address"
        }
      ],
      "name": "ProxyCreated",
      "type": "event"
    },
    {
      "constant": true,
      "inputs": [],
      "name": "getTokenCount",
      "outputs": [
        {
          "name": "tokenCount",
          "type": "uint256"
        }
      ],
      "payable": false,
      "stateMutability": "view",
      "type": "function"
    },
    {
      "constant": true,
      "inputs": [
        {
          "name": "n",
          "type": "uint256"
        }
      ],
      "name": "getToken",
      "outputs": [
        {
          "name": "",
          "type": "address"
        }
      ],
      "payable": false,
      "stateMutability": "view",
      "type": "function"
    },
    {
      "constant": true,
      "inputs": [
        {
          "name": "viaAddress",
          "type": "address"
        }
      ],
      "name": "getName",
      "outputs": [
        {
          "name": "",
          "type": "bytes32"
        }
      ],
      "payable": false,
      "stateMutability": "view",
      "type": "function"
    },
    {
      "constant": true,
      "inputs": [
        {
          "name": "viaAddress",
          "type": "address"
        }
      ],
      "name": "getType",
      "outputs": [
        {
          "name": "",
          "type": "bytes32"
        }
      ],
      "payable": false,
      "stateMutability": "view",
      "type": "function"
    },
    {
      "constant": true,
      "inputs": [
        {
          "name": "viaAddress",
          "type": "address"
        }
      ],
      "name": "getNameAndType",
      "outputs": [
        {
          "name": "",
          "type": "bytes32"
        },
        {
          "name": "",
          "type": "bytes32"
        }
      ],
      "payable": false,
      "stateMutability": "view",
      "type": "function"
    },
    {
      "constant": true,
      "inputs": [
        {
          "name": "symbol",
          "type": "bytes32"
        }
      ],
      "name": "getProduct",
      "outputs": [
        {
          "name": "",
          "type": "address"
        }
      ],
      "payable": false,
      "stateMutability": "view",
      "type": "function"
    },
    {
      "constant": true,
      "inputs": [
        {
          "name": "tokenType",
          "type": "bytes32"
        },
        {
          "name": "tokenName",
          "type": "bytes32"
        }
      ],
      "name": "getIssuer",
      "outputs": [
        {
          "name": "",
          "type": "address"
        }
      ],
      "payable": false,
      "stateMutability": "view",
      "type": "function"
    },
    {
      "constant": false,
      "inputs": [
        {
          "name": "_target",
          "type": "address"
        },
        {
          "name": "tokenName",
          "type": "bytes32"
        },
        {
          "name": "tokenType",
          "type": "bytes32"
        },
        {
          "name": "_oracle",
          "type": "address"
        },
        {
          "name": "_token",
          "type": "address"
        }
      ],
      "name": "createIssuer",
      "outputs": [],
      "payable": false,
      "stateMutability": "nonpayable",
      "type": "function"
    },
    {
      "constant": false,
      "inputs": [
        {
          "name": "_target",
          "type": "address"
        },
        {
          "name": "tokenName",
          "type": "bytes32"
        },
        {
          "name": "tokenProduct",
          "type": "bytes32"
        },
        {
          "name": "tokenSymbol",
          "type": "bytes32"
        }
      ],
      "name": "createToken",
      "outputs": [
        {
          "name": "",
          "type": "address"
        }
      ],
      "payable": false,
      "stateMutability": "nonpayable",
      "type": "function"
    }
  ],
  "bytecode": "0x6080604081905261001060a0610034565b601f1982820381018352601f90910116604052805160209190910120600055610041565b6109a680611c0883390190565b611bb8806100506000396000f3fe608060405234801561001057600080fd5b50600436106101005760003560e01c8063668151a711610097578063b3eeb5e211610066578063b3eeb5e2146105eb578063e0f850ff1461069f578063e4b50cb8146106d7578063f429f19b146106f457610100565b8063668151a7146105525780636d46a1db1461059157806378a89567146105b757806381ae1f5b146105bf57610100565b80634f64b2be116100d35780634f64b2be146103f357806357d8883b146104105780635fd4b08a146104565780636150864c1461048e57610100565b8063290f8f56146101055780632ea779171461026a578063332d66261461028d5780633a20e9df146103d6575b600080fd5b61024e600480360360a081101561011b57600080fd5b8135916001600160a01b03602082013581169260408301359091169190810190608081016060820135600160201b81111561015557600080fd5b82018360208201111561016757600080fd5b803590602001918460018302840111600160201b8311171561018857600080fd5b91908080601f0160208091040260200160405190810160405280939291908181526020018383808284376000920191909152509295949360208101935035915050600160201b8111156101da57600080fd5b8201836020820111156101ec57600080fd5b803590602001918460018302840111600160201b8311171561020d57600080fd5b91908080601f01602080910402602001604051908101604052809392919081815260200183838082843760009201919091525092955061071a945050505050565b604080516001600160a01b039092168252519081900360200190f35b61024e6004803603604081101561028057600080fd5b5080359060200135610809565b61024e600480360360a08110156102a357600080fd5b8135916001600160a01b03602082013581169260408301359091169190810190608081016060820135600160201b8111156102dd57600080fd5b8201836020820111156102ef57600080fd5b803590602001918460018302840111600160201b8311171561031057600080fd5b91908080601f0160208091040260200160405190810160405280939291908181526020018383808284376000920191909152509295949360208101935035915050600160201b81111561036257600080fd5b82018360208201111561037457600080fd5b803590602001918460018302840111600160201b8311171561039557600080fd5b91908080601f016020809104026020016040519081016040528093929190818152602001838380828437600092019190915250929550610833945050505050565b61024e600480360360208110156103ec57600080fd5b50356108b0565b61024e6004803603602081101561040957600080fd5b50356108cb565b610454600480360360a081101561042657600080fd5b506001600160a01b0381358116916020810135916040820135916060810135821691608090910135166108f2565b005b61047c6004803603602081101561046c57600080fd5b50356001600160a01b0316610b55565b60408051918252519081900360200190f35b61024e600480360360808110156104a457600080fd5b8135916001600160a01b03602082013581169260408301359091169190810190608081016060820135600160201b8111156104de57600080fd5b8201836020820111156104f057600080fd5b803590602001918460018302840111600160201b8311171561051157600080fd5b91908080601f016020809104026020016040519081016040528093929190818152602001838380828437600092019190915250929550610b74945050505050565b6105786004803603602081101561056857600080fd5b50356001600160a01b0316610b8c565b6040805192835260208301919091528051918290030190f35b610578600480360360208110156105a757600080fd5b50356001600160a01b0316610bb0565b61047c610bc9565b61024e600480360360408110156105d557600080fd5b50803590602001356001600160a01b0316610bcf565b61024e6004803603604081101561060157600080fd5b6001600160a01b038235169190810190604081016020820135600160201b81111561062b57600080fd5b82018360208201111561063d57600080fd5b803590602001918460018302840111600160201b8311171561065e57600080fd5b91908080601f016020809104026020016040519081016040528093929190818152602001838380828437600092019190915250929550610c34945050505050565b61024e600480360360808110156106b557600080fd5b506001600160a01b038135169060208101359060408101359060600135610d95565b61024e600480360360208110156106ed57600080fd5b5035610e8f565b61047c6004803603602081101561070a57600080fd5b50356001600160a01b0316610eb9565b6000806107f2878787873060405160200180868152602001856001600160a01b03166001600160a01b031660601b8152601401846001600160a01b03166001600160a01b031660601b815260140183805190602001908083835b602083106107935780518252601f199092019160209182019101610774565b6001836020036101000a038019825116818451168082178552505050505050905001826001600160a01b03166001600160a01b031660601b81526014019550505050505060405160208183030381529060405280519060200120610ed4565b90506107fe8184610f25565b979650505050505050565b60008281526004602090815260408083208484529091529020546001600160a01b03165b92915050565b600080610843878787878761071a565b90506001600160a01b0381166108a35760408051600160e51b62461bcd02815260206004820152601160248201527f496e76616c6964207369676e6174757265000000000000000000000000000000604482015290519081900360640190fd5b6107fe8787878785611013565b6000908152600360205260409020546001600160a01b031690565b600281815481106108d857fe5b6000918252602090912001546001600160a01b0316905081565b60408051602481018690526044810185905230606482018190526001600160a01b038086166084840152841660a4808401919091528351808403909101815260c49092019092526020810180516001600160e01b0316600160e41b63046499770217905260006109628883610c34565b9050806001600160a01b03167fc86ce51250387b92cfaa914f7afcac92982a98daa3e1b3dd6be12f8be38af5988888604051808381526020018281526020019250505060405180910390a285600160e31b63086c2e6d021415610a7e57604080518082018252600160cb1b660acd2c286c2e6d02815260208082018a81526001600160a01b03851660008181526001808552868220955186559251948301949094556002805492830190557f405787fa12a823e0f2b7631cc41b3ba8828b3321ca811111fa75cd3aa3bb5ace90910180546001600160a01b031990811683179091558b84527f04943ef073e415e857dd76dbf2281c93b46eb52953c027bcaf699b6e7ace99489092529290912080549091169091179055610b4b565b85600160e21b63109bdb99021415610b4b57604080518082018252600160ca1b66159a58509bdb9902815260208082018a81526001600160a01b03851660008181526001808552868220955186559251948301949094556002805492830190557f405787fa12a823e0f2b7631cc41b3ba8828b3321ca811111fa75cd3aa3bb5ace90910180546001600160a01b031990811683179091558b84527f96d39e20db41a5662d16cb38371a7115a55122e8d1affdc47bf5943824bf293890925292909120805490911690911790555b5050505050505050565b6001600160a01b03166000908152600160208190526040909120015490565b6000610b838585858533611013565b95945050505050565b6001600160a01b031660009081526001602081905260409091209081015490549091565b6001602081905260009182526040909120805491015482565b60025490565b600080610bdc8484611147565b600054604080516001600160f81b031960208083019190915230606090811b602184015260358301959095526055808301949094528251808303909401845260759091019091528151910120811b901c949350505050565b6000808360601b90506040517f3d602d80600a3d3981f3363d3d373d3d3d363d7300000000000000000000000081528160148201527f5af43d82803e903d91602b57fd5bf3000000000000000000000000000000000060288201526037816000f0604080516001600160a01b038316815290519194507efffc2da0b561cae30d9826d37709e9421c4725faebc226cbbb7ef5fc5e7349925081900360200190a1825115610d8e576000826001600160a01b0316846040518082805190602001908083835b60208310610d175780518252601f199092019160209182019101610cf8565b6001836020036101000a0380198251168184511680821785525050505050509050019150506000604051808303816000865af19150503d8060008114610d79576040519150601f19603f3d011682016040523d82523d6000602084013e610d7e565b606091505b5050905080610d8c57600080fd5b505b5092915050565b33600090815260016020526040812054600160ca1b66159a58509bdb990214610dbd57600080fd5b604080516024810186905233604482018190526064820186905260848083018690528351808403909101815260a49092019092526020810180516001600160e01b0316600160e01b63b3f15e75021790526000610e1a8883610c34565b60008681526003602090815260409182902080546001600160a01b0319166001600160a01b03851690811790915582518b81529182018a90528251939450927f59bcd02033e203f8af464062ce742d11a3358b7b8fd7e996b91d74bee929d7e5929181900390910190a2979650505050505050565b600060028281548110610e9e57fe5b6000918252602090912001546001600160a01b031692915050565b6001600160a01b031660009081526001602052604090205490565b604080517f19457468657265756d205369676e6564204d6573736167653a0a333200000000602080830191909152603c8083019490945282518083039094018452605c909101909152815191012090565b60008151604114610f385750600061082d565b60208201516040830151606084015160001a7f7fffffffffffffffffffffffffffffff5d576e7357a4501ddfe92f46681b20a0821115610f7e576000935050505061082d565b8060ff16601b14158015610f9657508060ff16601c14155b15610fa7576000935050505061082d565b6040805160008152602080820180845289905260ff8416828401526060820186905260808201859052915160019260a0808401939192601f1981019281900390910190855afa158015610ffe573d6000803e3d6000fd5b5050604051601f190151979650505050505050565b6000806110208784611180565b604080516001600160a01b038316815290519192507efffc2da0b561cae30d9826d37709e9421c4725faebc226cbbb7ef5fc5e7349919081900360200190a1604051600160e01b63cf7a1d770281526001600160a01b038781166004830190815287821660248401526060604484019081528751606485015287519285169363cf7a1d77938b938b938b939192909160840190602085019080838360005b838110156110d65781810151838201526020016110be565b50505050905090810190601f1680156111035780820380516001836020036101000a031916815260200191505b50945050505050600060405180830381600087803b15801561112457600080fd5b505af1158015611138573d6000803e3d6000fd5b50929998505050505050505050565b604080516020808201949094526001600160a01b039290921660601b828201528051808303603401815260549092019052805191012090565b600080606060405180602001611195906111d9565b601f1982820381018352601f90910116604052905060006111b68686611147565b9050808251602084016000f59250823b6111cf57600080fd5b5090949350505050565b6109a6806111e78339019056fe608060405234801561001057600080fd5b50610986806100206000396000f3fe6080604052600436106100705760003560e01c80638f2839701161004e5780638f2839701461015e578063cf7a1d7714610191578063d1f5789414610250578063f851a4401461030657610070565b80633659cfe61461007a5780634f1ef286146100ad5780635c60da1b1461012d575b61007861031b565b005b34801561008657600080fd5b506100786004803603602081101561009d57600080fd5b50356001600160a01b0316610335565b610078600480360360408110156100c357600080fd5b6001600160a01b0382351691908101906040810160208201356401000000008111156100ee57600080fd5b82018360208201111561010057600080fd5b8035906020019184600183028401116401000000008311171561012257600080fd5b50909250905061036f565b34801561013957600080fd5b5061014261041c565b604080516001600160a01b039092168252519081900360200190f35b34801561016a57600080fd5b506100786004803603602081101561018157600080fd5b50356001600160a01b0316610459565b610078600480360360608110156101a757600080fd5b6001600160a01b0382358116926020810135909116918101906060810160408201356401000000008111156101db57600080fd5b8201836020820111156101ed57600080fd5b8035906020019184600183028401116401000000008311171561020f57600080fd5b91908080601f016020809104026020016040519081016040528093929190818152602001838380828437600092019190915250929550610516945050505050565b6100786004803603604081101561026657600080fd5b6001600160a01b03823516919081019060408101602082013564010000000081111561029157600080fd5b8201836020820111156102a357600080fd5b803590602001918460018302840111640100000000831117156102c557600080fd5b91908080601f0160208091040260200160405190810160405280939291908181526020018383808284376000920191909152509295506105a6945050505050565b34801561031257600080fd5b506101426106e6565b610323610711565b61033361032e610774565b610799565b565b61033d6107bd565b6001600160a01b0316336001600160a01b031614156103645761035f816107e2565b61036c565b61036c61031b565b50565b6103776107bd565b6001600160a01b0316336001600160a01b0316141561040f57610399836107e2565b6000836001600160a01b031683836040518083838082843760405192019450600093509091505080830381855af49150503d80600081146103f6576040519150601f19603f3d011682016040523d82523d6000602084013e6103fb565b606091505b505090508061040957600080fd5b50610417565b61041761031b565b505050565b60006104266107bd565b6001600160a01b0316336001600160a01b0316141561044e57610447610774565b9050610456565b61045661031b565b90565b6104616107bd565b6001600160a01b0316336001600160a01b03161415610364576001600160a01b0381166104c257604051600160e51b62461bcd0281526004018080602001828103825260368152602001806108ea6036913960400191505060405180910390fd5b7f7e644d79422f17c01e4894b5f4f588d331ebfa28653d42ae832dc59e38c9798f6104eb6107bd565b604080516001600160a01b03928316815291841660208301528051918290030190a161035f81610822565b6000610520610774565b6001600160a01b03161461053357600080fd5b61053d83826105a6565b604080517f656970313936372e70726f78792e61646d696e00000000000000000000000000815290519081900360130190207fb53127684a568b3173ae13b9f8a6016e243e63b6e8ee1178d6a717850b5d61036000199091011461059d57fe5b61041782610822565b60006105b0610774565b6001600160a01b0316146105c357600080fd5b604080517f656970313936372e70726f78792e696d706c656d656e746174696f6e000000008152905190819003601c0190207f360894a13ba1a3210667c828492db98dca3e2076cc3735a920a3ca505d382bbc6000199091011461062357fe5b61062c82610846565b8051156106e2576000826001600160a01b0316826040518082805190602001908083835b6020831061066f5780518252601f199092019160209182019101610650565b6001836020036101000a038019825116818451168082178552505050505050905001915050600060405180830381855af49150503d80600081146106cf576040519150601f19603f3d011682016040523d82523d6000602084013e6106d4565b606091505b505090508061041757600080fd5b5050565b60006106f06107bd565b6001600160a01b0316336001600160a01b0316141561044e576104476107bd565b6107196107bd565b6001600160a01b0316336001600160a01b0316141561076c57604051600160e51b62461bcd0281526004018080602001828103825260328152602001806108b86032913960400191505060405180910390fd5b610333610333565b7f360894a13ba1a3210667c828492db98dca3e2076cc3735a920a3ca505d382bbc5490565b3660008037600080366000845af43d6000803e8080156107b8573d6000f35b3d6000fd5b7fb53127684a568b3173ae13b9f8a6016e243e63b6e8ee1178d6a717850b5d61035490565b6107eb81610846565b6040516001600160a01b038216907fbc7cd75a20ee27fd9adebab32041f755214dbc6bffa90cc0225b39da2e5c2d3b90600090a250565b7fb53127684a568b3173ae13b9f8a6016e243e63b6e8ee1178d6a717850b5d610355565b61084f816108b1565b61088d57604051600160e51b62461bcd02815260040180806020018281038252603b815260200180610920603b913960400191505060405180910390fd5b7f360894a13ba1a3210667c828492db98dca3e2076cc3735a920a3ca505d382bbc55565b3b15159056fe43616e6e6f742063616c6c2066616c6c6261636b2066756e6374696f6e2066726f6d207468652070726f78792061646d696e43616e6e6f74206368616e6765207468652061646d696e206f6620612070726f787920746f20746865207a65726f206164647265737343616e6e6f742073657420612070726f787920696d706c656d656e746174696f6e20746f2061206e6f6e2d636f6e74726163742061646472657373a165627a7a72305820685006f326a7767878943f26cbcce642f01387e8680b674352be85d65bc10a770029a165627a7a723058205855db26bb6c6e52850002fed2ffa5005a4baa1c32dc070a4ed316b122f5ece30029608060405234801561001057600080fd5b50610986806100206000396000f3fe6080604052600436106100705760003560e01c80638f2839701161004e5780638f2839701461015e578063cf7a1d7714610191578063d1f5789414610250578063f851a4401461030657610070565b80633659cfe61461007a5780634f1ef286146100ad5780635c60da1b1461012d575b61007861031b565b005b34801561008657600080fd5b506100786004803603602081101561009d57600080fd5b50356001600160a01b0316610335565b610078600480360360408110156100c357600080fd5b6001600160a01b0382351691908101906040810160208201356401000000008111156100ee57600080fd5b82018360208201111561010057600080fd5b8035906020019184600183028401116401000000008311171561012257600080fd5b50909250905061036f565b34801561013957600080fd5b5061014261041c565b604080516001600160a01b039092168252519081900360200190f35b34801561016a57600080fd5b506100786004803603602081101561018157600080fd5b50356001600160a01b0316610459565b610078600480360360608110156101a757600080fd5b6001600160a01b0382358116926020810135909116918101906060810160408201356401000000008111156101db57600080fd5b8201836020820111156101ed57600080fd5b8035906020019184600183028401116401000000008311171561020f57600080fd5b91908080601f016020809104026020016040519081016040528093929190818152602001838380828437600092019190915250929550610516945050505050565b6100786004803603604081101561026657600080fd5b6001600160a01b03823516919081019060408101602082013564010000000081111561029157600080fd5b8201836020820111156102a357600080fd5b803590602001918460018302840111640100000000831117156102c557600080fd5b91908080601f0160208091040260200160405190810160405280939291908181526020018383808284376000920191909152509295506105a6945050505050565b34801561031257600080fd5b506101426106e6565b610323610711565b61033361032e610774565b610799565b565b61033d6107bd565b6001600160a01b0316336001600160a01b031614156103645761035f816107e2565b61036c565b61036c61031b565b50565b6103776107bd565b6001600160a01b0316336001600160a01b0316141561040f57610399836107e2565b6000836001600160a01b031683836040518083838082843760405192019450600093509091505080830381855af49150503d80600081146103f6576040519150601f19603f3d011682016040523d82523d6000602084013e6103fb565b606091505b505090508061040957600080fd5b50610417565b61041761031b565b505050565b60006104266107bd565b6001600160a01b0316336001600160a01b0316141561044e57610447610774565b9050610456565b61045661031b565b90565b6104616107bd565b6001600160a01b0316336001600160a01b03161415610364576001600160a01b0381166104c257604051600160e51b62461bcd0281526004018080602001828103825260368152602001806108ea6036913960400191505060405180910390fd5b7f7e644d79422f17c01e4894b5f4f588d331ebfa28653d42ae832dc59e38c9798f6104eb6107bd565b604080516001600160a01b03928316815291841660208301528051918290030190a161035f81610822565b6000610520610774565b6001600160a01b03161461053357600080fd5b61053d83826105a6565b604080517f656970313936372e70726f78792e61646d696e00000000000000000000000000815290519081900360130190207fb53127684a568b3173ae13b9f8a6016e243e63b6e8ee1178d6a717850b5d61036000199091011461059d57fe5b61041782610822565b60006105b0610774565b6001600160a01b0316146105c357600080fd5b604080517f656970313936372e70726f78792e696d706c656d656e746174696f6e000000008152905190819003601c0190207f360894a13ba1a3210667c828492db98dca3e2076cc3735a920a3ca505d382bbc6000199091011461062357fe5b61062c82610846565b8051156106e2576000826001600160a01b0316826040518082805190602001908083835b6020831061066f5780518252601f199092019160209182019101610650565b6001836020036101000a038019825116818451168082178552505050505050905001915050600060405180830381855af49150503d80600081146106cf576040519150601f19603f3d011682016040523d82523d6000602084013e6106d4565b606091505b505090508061041757600080fd5b5050565b60006106f06107bd565b6001600160a01b0316336001600160a01b0316141561044e576104476107bd565b6107196107bd565b6001600160a01b0316336001600160a01b0316141561076c57604051600160e51b62461bcd0281526004018080602001828103825260328152602001806108b86032913960400191505060405180910390fd5b610333610333565b7f360894a13ba1a3210667c828492db98dca3e2076cc3735a920a3ca505d382bbc5490565b3660008037600080366000845af43d6000803e8080156107b8573d6000f35b3d6000fd5b7fb53127684a568b3173ae13b9f8a6016e243e63b6e8ee1178d6a717850b5d61035490565b6107eb81610846565b6040516001600160a01b038216907fbc7cd75a20ee27fd9adebab32041f755214dbc6bffa90cc0225b39da2e5c2d3b90600090a250565b7fb53127684a568b3173ae13b9f8a6016e243e63b6e8ee1178d6a717850b5d610355565b61084f816108b1565b61088d57604051600160e51b62461bcd02815260040180806020018281038252603b815260200180610920603b913960400191505060405180910390fd5b7f360894a13ba1a3210667c828492db98dca3e2076cc3735a920a3ca505d382bbc55565b3b15159056fe43616e6e6f742063616c6c2066616c6c6261636b2066756e6374696f6e2066726f6d207468652070726f78792061646d696e43616e6e6f74206368616e6765207468652061646d696e206f6620612070726f787920746f20746865207a65726f206164647265737343616e6e6f742073657420612070726f787920696d706c656d656e746174696f6e20746f2061206e6f6e2d636f6e74726163742061646472657373a165627a7a72305820685006f326a7767878943f26cbcce642f01387e8680b674352be85d65bc10a770029",
  "source": "// (c) Kallol Borah, 2020\r\n// Implementation of the Via cash and bond factory.\r\n\r\npragma solidity >=0.5.0 <0.7.0;\r\n\r\nimport \"./ViaFactory.sol\";\r\nimport \"@openzeppelin/upgrades/contracts/upgradeability/ProxyFactory.sol\";\r\n\r\ncontract Factory is ViaFactory, ProxyFactory {\r\n\r\n    //data structure for token proxies\r\n    struct via{\r\n        bytes32 tokenType;\r\n        bytes32 name;\r\n    }\r\n\r\n    //addresses of all Via proxies\r\n    mapping(address => via) public token;\r\n\r\n    address[] public tokens;\r\n\r\n    //list of issued token products\r\n    mapping(bytes32 => address) products;\r\n\r\n    //list of token product issuers\r\n    mapping(bytes32 => mapping(bytes32 => address)) issuers;\r\n\r\n    event IssuerCreated(address indexed _address, bytes32 tokenName, bytes32 tokenType);\r\n    event TokenCreated(address indexed _address, bytes32 tokenName, bytes32 tokenType);\r\n\r\n    function getTokenCount() external view returns(uint tokenCount) {\r\n        return tokens.length;\r\n    }\r\n\r\n    function getToken(uint256 n) external view returns(address){\r\n        return tokens[n];\r\n    }\r\n\r\n    function getName(address viaAddress) external view returns(bytes32) {\r\n        return token[viaAddress].name;\r\n    }\r\n\r\n    function getType(address viaAddress) external view returns(bytes32) {\r\n        return token[viaAddress].tokenType;\r\n    }\r\n\r\n    function getNameAndType(address viaAddress) external view returns(bytes32, bytes32){\r\n        return (token[viaAddress].name, token[viaAddress].tokenType);\r\n    }\r\n\r\n    //retrieve token product address for given identifier (symbol)\r\n    function getProduct(bytes32 symbol) external view returns(address){\r\n        return products[symbol];\r\n    }\r\n\r\n    //retrieve token product issuer address for given token name and type\r\n    function getIssuer(bytes32 tokenType, bytes32 tokenName) external view returns(address){\r\n        return issuers[tokenType][tokenName];\r\n    }\r\n\r\n    //token issuer factory \r\n    function createIssuer(address _target, bytes32 tokenName, bytes32 tokenType, address _oracle, address _token) external{\r\n        address _owner = address(this);\r\n\r\n        bytes memory _payload = abi.encodeWithSignature(\"initialize(bytes32,bytes32,address,address,address)\", tokenName, tokenType, _owner, _oracle, _token);\r\n\r\n        // Deploy proxy\r\n        address _issuer = deployMinimal(_target, _payload);\r\n        emit IssuerCreated(_issuer, tokenName, tokenType);\r\n\r\n        if(tokenType == \"Cash\"){\r\n                token[_issuer] = via(\"ViaCash\", tokenName);\r\n                tokens.push(_issuer);\r\n                issuers[\"ViaCash\"][tokenName] = _issuer;\r\n        }\r\n        else if(tokenType == \"Bond\"){\r\n                token[_issuer] = via(\"ViaBond\", tokenName);\r\n                tokens.push(_issuer);\r\n                issuers[\"ViaBond\"][tokenName] = _issuer;\r\n        }\r\n    }\r\n    \r\n    //token factory\r\n    function createToken(address _target, bytes32 tokenName, bytes32 tokenProduct, bytes32 tokenSymbol) external returns(address){\r\n        require(token[msg.sender].tokenType == \"ViaBond\");\r\n        address _owner = msg.sender;\r\n\r\n        bytes memory _payload = abi.encodeWithSignature(\"initialize(bytes32,address,bytes32,bytes32)\", tokenName, _owner, tokenProduct, tokenSymbol);\r\n\r\n        // Deploy proxy\r\n        address _token = deployMinimal(_target, _payload);\r\n        products[tokenSymbol] = _token;       \r\n        emit TokenCreated(_token, tokenName, tokenProduct);\r\n        return _token;\r\n    }\r\n}\r\n\r\n\r\n\r\n\r\n\r\n\r\n",
  "sourcePath": "D:/verified/via-issuer/contracts/Factory.sol",
  "compiler": {
    "name": "solc",
    "version": "0.5.7+commit.6da8b019.Emscripten.clang"
  },
  "schemaVersion": "3.2.5",
  "updatedAt": "2020-11-10T14:52:34.759Z",
  "devdoc": {
    "methods": {}
  },
  "userdoc": {
    "methods": {}
  }
}