{
  "contractName": "Pausable",
  "abi": [
    {
      "anonymous": false,
      "inputs": [],
      "name": "Paused",
      "type": "event"
    },
    {
      "anonymous": false,
      "inputs": [],
      "name": "Unpaused",
      "type": "event"
    },
    {
      "constant": true,
      "inputs": [],
      "name": "isPaused",
      "outputs": [
        {
          "name": "",
          "type": "bool"
        }
      ],
      "payable": false,
      "stateMutability": "view",
      "type": "function"
    }
  ],
  "bytecode": "0x6080604052348015600f57600080fd5b50607c8061001e6000396000f3fe6080604052348015600f57600080fd5b506004361060285760003560e01c8063b187bd2614602d575b600080fd5b60336047565b604080519115158252519081900360200190f35b60005460ff169056fea165627a7a72305820d24bb1b09a111b309f56c48a9231c793a6d44c099d0a42529e335a6eed23e0290029",
  "source": "pragma solidity >=0.5.0 <0.7.0;\r\n\r\n\r\n/**\r\n    * @notice a pausable contract implementation\r\n*/\r\ncontract Pausable {\r\n    bool internal paused;\r\n\r\n    event Paused();\r\n    event Unpaused();\r\n\r\n    /**\r\n        * @notice sould be called by a wrapper function implementing access control\r\n    */\r\n    function _pause() internal {\r\n        paused = true;\r\n        emit Paused();\r\n    }\r\n\r\n    /**\r\n        * @notice sould be called by a wrapper function implementing access control\r\n    */\r\n    function _unpause() internal {\r\n        paused = false;\r\n        emit Unpaused();\r\n    }\r\n\r\n    /**\r\n        * @notice returns whether or not the contract is paused\r\n        * @return True: contract is paused\r\n        * @return False: contract is not paused\r\n    */\r\n    function isPaused() public view returns (bool) {\r\n        return paused;\r\n    }\r\n}",
  "sourcePath": "D:\\Code\\via-issuer\\contracts\\utilities\\Pausable.sol",
  "compiler": {
    "name": "solc",
    "version": "0.5.7+commit.6da8b019.Emscripten.clang"
  },
  "schemaVersion": "3.3.3",
  "updatedAt": "2021-01-09T18:19:22.690Z",
  "devdoc": {
    "methods": {
      "isPaused()": {
        "return": "True: contract is paused\rFalse: contract is not paused\r"
      }
    }
  },
  "userdoc": {
    "methods": {
      "isPaused()": {
        "notice": "returns whether or not the contract is paused\r"
      }
    },
    "notice": "a pausable contract implementation\r"
  }
}