{
  "contractName": "stringutils",
  "abi": [
    {
      "constant": true,
      "inputs": [
        {
          "name": "s",
          "type": "string"
        }
      ],
      "name": "stringToUint",
      "outputs": [
        {
          "name": "",
          "type": "uint256"
        }
      ],
      "payable": false,
      "stateMutability": "pure",
      "type": "function"
    },
    {
      "constant": true,
      "inputs": [
        {
          "name": "str",
          "type": "string"
        },
        {
          "name": "startIndex",
          "type": "uint256"
        },
        {
          "name": "endIndex",
          "type": "uint256"
        }
      ],
      "name": "substring",
      "outputs": [
        {
          "name": "",
          "type": "string"
        }
      ],
      "payable": false,
      "stateMutability": "pure",
      "type": "function"
    },
    {
      "constant": true,
      "inputs": [
        {
          "name": "a",
          "type": "string"
        },
        {
          "name": "b",
          "type": "string"
        }
      ],
      "name": "append",
      "outputs": [
        {
          "name": "",
          "type": "string"
        }
      ],
      "payable": false,
      "stateMutability": "pure",
      "type": "function"
    },
    {
      "constant": true,
      "inputs": [
        {
          "name": "source",
          "type": "string"
        }
      ],
      "name": "stringToBytes32",
      "outputs": [
        {
          "name": "result",
          "type": "bytes32"
        }
      ],
      "payable": false,
      "stateMutability": "pure",
      "type": "function"
    },
    {
      "constant": true,
      "inputs": [
        {
          "name": "_bytes32",
          "type": "bytes32"
        }
      ],
      "name": "bytes32ToString",
      "outputs": [
        {
          "name": "",
          "type": "string"
        }
      ],
      "payable": false,
      "stateMutability": "pure",
      "type": "function"
    }
  ],
  "bytecode": "0x610765610026600b82828239805160001a60731461001957fe5b30600052607381538281f3fe73000000000000000000000000000000000000000030146080604052600436106100615760003560e01c80631bd95155146100665780631dcd9b551461011c578063591c515f1461023a5780639201de5514610363578063cfb5192814610380575b600080fd5b61010a6004803603602081101561007c57600080fd5b810190602081018135600160201b81111561009657600080fd5b8201836020820111156100a857600080fd5b803590602001918460018302840111600160201b831117156100c957600080fd5b91908080601f016020809104026020016040519081016040528093929190818152602001838380828437600092019190915250929550610424945050505050565b60408051918252519081900360200190f35b6101c56004803603606081101561013257600080fd5b810190602081018135600160201b81111561014c57600080fd5b82018360208201111561015e57600080fd5b803590602001918460018302840111600160201b8311171561017f57600080fd5b91908080601f01602080910402602001604051908101604052809392919081815260200183838082843760009201919091525092955050823593505050602001356104da565b6040805160208082528351818301528351919283929083019185019080838360005b838110156101ff5781810151838201526020016101e7565b50505050905090810190601f16801561022c5780820380516001836020036101000a031916815260200191505b509250505060405180910390f35b6101c56004803603604081101561025057600080fd5b810190602081018135600160201b81111561026a57600080fd5b82018360208201111561027c57600080fd5b803590602001918460018302840111600160201b8311171561029d57600080fd5b91908080601f0160208091040260200160405190810160405280939291908181526020018383808284376000920191909152509295949360208101935035915050600160201b8111156102ef57600080fd5b82018360208201111561030157600080fd5b803590602001918460018302840111600160201b8311171561032257600080fd5b91908080601f01602080910402602001604051908101604052809392919081815260200183838082843760009201919091525092955061056a945050505050565b6101c56004803603602081101561037957600080fd5b5035610625565b61010a6004803603602081101561039657600080fd5b810190602081018135600160201b8111156103b057600080fd5b8201836020820111156103c257600080fd5b803590602001918460018302840111600160201b831117156103e357600080fd5b91908080601f01602080910402602001604051908101604052809392919081815260200183838082843760009201919091525092955061071b945050505050565b600080828180805b83518110156104cd57603084828151811061044357fe5b602001015160f81c60f81b60f81c60ff161015801561047f5750603984828151811061046b57fe5b602001015160f81c60f81b60f81c60ff1611155b156104c057829150603084828151811061049557fe5b602001015160f81c60f81b60f81c60ff160383600a02019250828211156104bb57600194505b6104c5565b600194505b60010161042c565b509093505050505b919050565b60608084905060608484036040519080825280601f01601f19166020018201604052801561050f576020820181803883390190505b509050845b848110156105605782818151811061052857fe5b602001015160f81c60f81b828783038151811061054157fe5b60200101906001600160f81b031916908160001a905350600101610514565b5095945050505050565b606082826040516020018083805190602001908083835b602083106105a05780518252601f199092019160209182019101610581565b51815160209384036101000a600019018019909216911617905285519190930192850191508083835b602083106105e85780518252601f1990920191602091820191016105c9565b6001836020036101000a03801982511681845116808217855250505050505090500192505050604051602081830303815290604052905092915050565b606060005b60208160ff161080156106585750828160ff166020811061064757fe5b1a60f81b6001600160f81b03191615155b156106655760010161062a565b60608160ff166040519080825280601f01601f191660200182016040528015610695576020820181803883390190505b509050600091505b60208260ff161080156106cb5750838260ff16602081106106ba57fe5b1a60f81b6001600160f81b03191615155b1561071457838260ff16602081106106df57fe5b1a60f81b818360ff16815181106106f257fe5b60200101906001600160f81b031916908160001a90535060019091019061069d565b9392505050565b805160009082906107305750600090506104d5565b5050602001519056fea165627a7a7230582076e09ca4972c5047717b223c03dc2b2e74c29d7792f5e541e9e1e76d079201b40029",
  "source": "pragma solidity >=0.5.0 <0.7.0;\r\n\r\nlibrary stringutils { // Only relevant functions\r\n    \r\n    //added from https://ethereum.stackexchange.com/questions/62371/convert-a-string-to-a-uint256-with-error-handling\r\n    function stringToUint(string memory s) public pure returns (uint) {\r\n        bool hasError = false;\r\n        bytes memory b = bytes(s);\r\n        uint result = 0;\r\n        uint oldResult = 0;\r\n        for (uint i = 0; i < b.length; i++) { // c = b[i] was not needed\r\n            if (uint(uint8(b[i])) >= 48 && uint(uint8(b[i])) <= 57) {\r\n                // store old value so we can check for overflows\r\n                oldResult = result;\r\n                result = result * 10 + (uint(uint8(b[i])) - 48); // bytes and int are not compatible with the operator -.\r\n                // prevent overflows\r\n                if(oldResult > result ) {\r\n                    // we can only get here if the result overflowed and is smaller than last stored value\r\n                    hasError = true;\r\n                }\r\n            } else {\r\n                hasError = true;\r\n            }\r\n        }\r\n        return (result); \r\n    }\r\n\r\n    function substring(string memory str, uint startIndex, uint endIndex) public pure returns (string memory) {\r\n        bytes memory strBytes = bytes(str);\r\n        bytes memory result = new bytes(endIndex-startIndex);\r\n        for(uint i = startIndex; i < endIndex; i++) {\r\n            result[i-startIndex] = strBytes[i];\r\n        }\r\n        return string(result);\r\n    }\r\n\r\n    function append(string memory a, string memory b) public pure returns (string memory) {\r\n        return string(abi.encodePacked(a, b));\r\n    }\r\n\r\n    //convert from string to bytes32\r\n    function stringToBytes32(string memory source) public pure returns (bytes32 result) {\r\n        bytes memory tempEmptyStringTest = bytes(source);\r\n        if (tempEmptyStringTest.length == 0) {\r\n            return 0x0;\r\n        }\r\n\r\n        assembly {\r\n            result := mload(add(source, 32))\r\n        }\r\n    }\r\n\r\n    function bytes32ToString(bytes32 _bytes32) public pure returns (string memory) {\r\n        uint8 i = 0;\r\n        while(i < 32 && _bytes32[i] != 0) {\r\n            i++;\r\n        }\r\n        bytes memory bytesArray = new bytes(i);\r\n        for (i = 0; i < 32 && _bytes32[i] != 0; i++) {\r\n            bytesArray[i] = _bytes32[i];\r\n        }\r\n        return string(bytesArray);\r\n    }\r\n\r\n}\r\n",
  "sourcePath": "D:\\verified\\via-issuer\\contracts\\utilities\\StringUtils.sol",
  "compiler": {
    "name": "solc",
    "version": "0.5.7+commit.6da8b019.Emscripten.clang"
  },
  "schemaVersion": "3.2.5",
  "updatedAt": "2020-11-07T12:13:01.780Z",
  "devdoc": {
    "methods": {}
  },
  "userdoc": {
    "methods": {}
  }
}