{
  "contractName": "stringutils",
  "abi": [
    {
      "constant": true,
      "inputs": [
        {
          "name": "s",
          "type": "string"
        }
      ],
      "name": "stringToUint",
      "outputs": [
        {
          "name": "",
          "type": "uint256"
        }
      ],
      "payable": false,
      "stateMutability": "pure",
      "type": "function"
    },
    {
      "constant": true,
      "inputs": [
        {
          "name": "strBytes",
          "type": "bytes32"
        },
        {
          "name": "startIndex",
          "type": "uint256"
        },
        {
          "name": "endIndex",
          "type": "uint256"
        }
      ],
      "name": "substring",
      "outputs": [
        {
          "name": "",
          "type": "string"
        }
      ],
      "payable": false,
      "stateMutability": "pure",
      "type": "function"
    },
    {
      "constant": true,
      "inputs": [
        {
          "name": "a",
          "type": "string"
        },
        {
          "name": "b",
          "type": "string"
        }
      ],
      "name": "append",
      "outputs": [
        {
          "name": "",
          "type": "string"
        }
      ],
      "payable": false,
      "stateMutability": "pure",
      "type": "function"
    },
    {
      "constant": true,
      "inputs": [
        {
          "name": "source",
          "type": "string"
        }
      ],
      "name": "stringToBytes32",
      "outputs": [
        {
          "name": "result",
          "type": "bytes32"
        }
      ],
      "payable": false,
      "stateMutability": "pure",
      "type": "function"
    },
    {
      "constant": true,
      "inputs": [
        {
          "name": "_bytes32",
          "type": "bytes32"
        }
      ],
      "name": "bytes32ToString",
      "outputs": [
        {
          "name": "",
          "type": "string"
        }
      ],
      "payable": false,
      "stateMutability": "pure",
      "type": "function"
    }
  ],
  "bytecode": "0x6106d8610026600b82828239805160001a60731461001957fe5b30600052607381538281f3fe73000000000000000000000000000000000000000030146080604052600436106100615760003560e01c80631bd9515514610066578063591c515f1461011c5780639201de55146102ba578063cfb51928146102d7578063f921e6471461037b575b600080fd5b61010a6004803603602081101561007c57600080fd5b810190602081018135600160201b81111561009657600080fd5b8201836020820111156100a857600080fd5b803590602001918460018302840111600160201b831117156100c957600080fd5b91908080601f0160208091040260200160405190810160405280939291908181526020018383808284376000920191909152509295506103a4945050505050565b60408051918252519081900360200190f35b6102456004803603604081101561013257600080fd5b810190602081018135600160201b81111561014c57600080fd5b82018360208201111561015e57600080fd5b803590602001918460018302840111600160201b8311171561017f57600080fd5b91908080601f0160208091040260200160405190810160405280939291908181526020018383808284376000920191909152509295949360208101935035915050600160201b8111156101d157600080fd5b8201836020820111156101e357600080fd5b803590602001918460018302840111600160201b8311171561020457600080fd5b91908080601f01602080910402602001604051908101604052809392919081815260200183838082843760009201919091525092955061045a945050505050565b6040805160208082528351818301528351919283929083019185019080838360005b8381101561027f578181015183820152602001610267565b50505050905090810190601f1680156102ac5780820380516001836020036101000a031916815260200191505b509250505060405180910390f35b610245600480360360208110156102d057600080fd5b5035610515565b61010a600480360360208110156102ed57600080fd5b810190602081018135600160201b81111561030757600080fd5b82018360208201111561031957600080fd5b803590602001918460018302840111600160201b8311171561033a57600080fd5b91908080601f01602080910402602001604051908101604052809392919081815260200183838082843760009201919091525092955061060b945050505050565b6102456004803603606081101561039157600080fd5b5080359060208101359060400135610629565b600080828180805b835181101561044d5760308482815181106103c357fe5b602001015160f81c60f81b60f81c60ff16101580156103ff575060398482815181106103eb57fe5b602001015160f81c60f81b60f81c60ff1611155b1561044057829150603084828151811061041557fe5b602001015160f81c60f81b60f81c60ff160383600a020192508282111561043b57600194505b610445565b600194505b6001016103ac565b509093505050505b919050565b606082826040516020018083805190602001908083835b602083106104905780518252601f199092019160209182019101610471565b51815160209384036101000a600019018019909216911617905285519190930192850191508083835b602083106104d85780518252601f1990920191602091820191016104b9565b6001836020036101000a03801982511681845116808217855250505050505090500192505050604051602081830303815290604052905092915050565b606060005b60208160ff161080156105485750828160ff166020811061053757fe5b1a60f81b6001600160f81b03191615155b156105555760010161051a565b60608160ff166040519080825280601f01601f191660200182016040528015610585576020820181803883390190505b509050600091505b60208260ff161080156105bb5750838260ff16602081106105aa57fe5b1a60f81b6001600160f81b03191615155b1561060457838260ff16602081106105cf57fe5b1a60f81b818360ff16815181106105e257fe5b60200101906001600160f81b031916908160001a90535060019091019061058d565b9392505050565b80516000908290610620575060009050610455565b50506020015190565b6060808383036040519080825280601f01601f191660200182016040528015610659576020820181803883390190505b509050835b838110156106a35785816020811061067257fe5b1a60f81b828683038151811061068457fe5b60200101906001600160f81b031916908160001a90535060010161065e565b5094935050505056fea165627a7a72305820f578109a33765ca7dcd3a148b3c05919a680a3128bffa12ae4d843de44ac8ff90029",
  "source": "pragma solidity 0.5.7;\r\n\r\nlibrary stringutils { // Only relevant functions\r\n    \r\n    //added from https://ethereum.stackexchange.com/questions/62371/convert-a-string-to-a-uint256-with-error-handling\r\n    function stringToUint(string memory s) public pure returns (uint) {\r\n        bool hasError = false;\r\n        bytes memory b = bytes(s);\r\n        uint result = 0;\r\n        uint oldResult = 0;\r\n        for (uint i = 0; i < b.length; i++) { // c = b[i] was not needed\r\n            if (uint(uint8(b[i])) >= 48 && uint(uint8(b[i])) <= 57) {\r\n                // store old value so we can check for overflows\r\n                oldResult = result;\r\n                result = result * 10 + (uint(uint8(b[i])) - 48); // bytes and int are not compatible with the operator -.\r\n                // prevent overflows\r\n                if(oldResult > result ) {\r\n                    // we can only get here if the result overflowed and is smaller than last stored value\r\n                    hasError = true;\r\n                }\r\n            } else {\r\n                hasError = true;\r\n            }\r\n        }\r\n        return (result); \r\n    }\r\n\r\n    function substring(bytes32 strBytes, uint startIndex, uint endIndex) public pure returns (string memory) {\r\n        //bytes memory strBytes = bytes(str);\r\n        bytes memory result = new bytes(endIndex-startIndex);\r\n        for(uint i = startIndex; i < endIndex; i++) {\r\n            result[i-startIndex] = strBytes[i];\r\n        }\r\n        return string(result);\r\n    }\r\n\r\n    function append(string memory a, string memory b) public pure returns (string memory) {\r\n        return string(abi.encodePacked(a, b));\r\n    }\r\n\r\n    //convert from string to bytes32\r\n    function stringToBytes32(string memory source) public pure returns (bytes32 result) {\r\n        bytes memory tempEmptyStringTest = bytes(source);\r\n        if (tempEmptyStringTest.length == 0) {\r\n            return 0x0;\r\n        }\r\n\r\n        assembly {\r\n            result := mload(add(source, 32))\r\n        }\r\n    }\r\n\r\n    function bytes32ToString(bytes32 _bytes32) public pure returns (string memory) {\r\n        uint8 i = 0;\r\n        while(i < 32 && _bytes32[i] != 0) {\r\n            i++;\r\n        }\r\n        bytes memory bytesArray = new bytes(i);\r\n        for (i = 0; i < 32 && _bytes32[i] != 0; i++) {\r\n            bytesArray[i] = _bytes32[i];\r\n        }\r\n        return string(bytesArray);\r\n    }\r\n\r\n}\r\n",
  "sourcePath": "D:\\Code\\via-issuer\\contracts\\utilities\\StringUtils.sol",
  "compiler": {
    "name": "solc",
    "version": "0.5.7+commit.6da8b019.Emscripten.clang"
  },
  "schemaVersion": "3.3.3",
  "updatedAt": "2021-01-06T08:11:34.084Z",
  "devdoc": {
    "methods": {}
  },
  "userdoc": {
    "methods": {}
  }
}