{
  "contractName": "Token",
  "abi": [
    {
      "constant": false,
      "inputs": [
        {
          "name": "spender",
          "type": "address"
        },
        {
          "name": "tokens",
          "type": "uint256"
        }
      ],
      "name": "approve",
      "outputs": [
        {
          "name": "",
          "type": "bool"
        }
      ],
      "payable": false,
      "stateMutability": "nonpayable",
      "type": "function"
    },
    {
      "constant": true,
      "inputs": [],
      "name": "totalSupply",
      "outputs": [
        {
          "name": "",
          "type": "uint256"
        }
      ],
      "payable": false,
      "stateMutability": "view",
      "type": "function"
    },
    {
      "constant": true,
      "inputs": [],
      "name": "issuer",
      "outputs": [
        {
          "name": "",
          "type": "address"
        }
      ],
      "payable": false,
      "stateMutability": "view",
      "type": "function"
    },
    {
      "constant": true,
      "inputs": [
        {
          "name": "",
          "type": "address"
        }
      ],
      "name": "balances",
      "outputs": [
        {
          "name": "",
          "type": "bytes16"
        }
      ],
      "payable": false,
      "stateMutability": "view",
      "type": "function"
    },
    {
      "constant": true,
      "inputs": [],
      "name": "decimals",
      "outputs": [
        {
          "name": "",
          "type": "uint8"
        }
      ],
      "payable": false,
      "stateMutability": "view",
      "type": "function"
    },
    {
      "constant": true,
      "inputs": [
        {
          "name": "tokenOwner",
          "type": "address"
        }
      ],
      "name": "balanceOf",
      "outputs": [
        {
          "name": "",
          "type": "uint256"
        }
      ],
      "payable": false,
      "stateMutability": "view",
      "type": "function"
    },
    {
      "constant": false,
      "inputs": [],
      "name": "renounceOwnership",
      "outputs": [],
      "payable": false,
      "stateMutability": "nonpayable",
      "type": "function"
    },
    {
      "constant": true,
      "inputs": [],
      "name": "tokenSymbol",
      "outputs": [
        {
          "name": "",
          "type": "bytes32"
        }
      ],
      "payable": false,
      "stateMutability": "view",
      "type": "function"
    },
    {
      "constant": true,
      "inputs": [],
      "name": "owner",
      "outputs": [
        {
          "name": "",
          "type": "address"
        }
      ],
      "payable": false,
      "stateMutability": "view",
      "type": "function"
    },
    {
      "constant": true,
      "inputs": [],
      "name": "isOwner",
      "outputs": [
        {
          "name": "",
          "type": "bool"
        }
      ],
      "payable": false,
      "stateMutability": "view",
      "type": "function"
    },
    {
      "constant": false,
      "inputs": [
        {
          "name": "receiver",
          "type": "address"
        },
        {
          "name": "tokens",
          "type": "uint256"
        }
      ],
      "name": "transfer",
      "outputs": [
        {
          "name": "",
          "type": "bool"
        }
      ],
      "payable": false,
      "stateMutability": "nonpayable",
      "type": "function"
    },
    {
      "constant": true,
      "inputs": [],
      "name": "product",
      "outputs": [
        {
          "name": "",
          "type": "bytes32"
        }
      ],
      "payable": false,
      "stateMutability": "view",
      "type": "function"
    },
    {
      "constant": true,
      "inputs": [
        {
          "name": "tokenOwner",
          "type": "address"
        },
        {
          "name": "spender",
          "type": "address"
        }
      ],
      "name": "allowance",
      "outputs": [
        {
          "name": "",
          "type": "uint256"
        }
      ],
      "payable": false,
      "stateMutability": "view",
      "type": "function"
    },
    {
      "constant": false,
      "inputs": [
        {
          "name": "newOwner",
          "type": "address"
        }
      ],
      "name": "transferOwnership",
      "outputs": [],
      "payable": false,
      "stateMutability": "nonpayable",
      "type": "function"
    },
    {
      "anonymous": false,
      "inputs": [
        {
          "indexed": true,
          "name": "previousOwner",
          "type": "address"
        },
        {
          "indexed": true,
          "name": "newOwner",
          "type": "address"
        }
      ],
      "name": "OwnershipTransferred",
      "type": "event"
    },
    {
      "anonymous": false,
      "inputs": [
        {
          "indexed": true,
          "name": "tokenOwner",
          "type": "address"
        },
        {
          "indexed": true,
          "name": "spender",
          "type": "address"
        },
        {
          "indexed": false,
          "name": "tokens",
          "type": "uint256"
        }
      ],
      "name": "Approval",
      "type": "event"
    },
    {
      "anonymous": false,
      "inputs": [
        {
          "indexed": true,
          "name": "from",
          "type": "address"
        },
        {
          "indexed": true,
          "name": "to",
          "type": "address"
        },
        {
          "indexed": false,
          "name": "tokens",
          "type": "uint256"
        }
      ],
      "name": "Transfer",
      "type": "event"
    },
    {
      "constant": false,
      "inputs": [
        {
          "name": "_name",
          "type": "bytes32"
        },
        {
          "name": "_owner",
          "type": "address"
        },
        {
          "name": "_product",
          "type": "bytes32"
        },
        {
          "name": "_symbol",
          "type": "bytes32"
        }
      ],
      "name": "initialize",
      "outputs": [],
      "payable": false,
      "stateMutability": "nonpayable",
      "type": "function"
    },
    {
      "constant": false,
      "inputs": [
        {
          "name": "sender",
          "type": "address"
        }
      ],
      "name": "initialize",
      "outputs": [],
      "payable": false,
      "stateMutability": "nonpayable",
      "type": "function"
    },
    {
      "constant": false,
      "inputs": [
        {
          "name": "amount",
          "type": "bytes16"
        }
      ],
      "name": "addTotalSupply",
      "outputs": [],
      "payable": false,
      "stateMutability": "nonpayable",
      "type": "function"
    },
    {
      "constant": false,
      "inputs": [
        {
          "name": "amount",
          "type": "bytes16"
        }
      ],
      "name": "reduceSupply",
      "outputs": [],
      "payable": false,
      "stateMutability": "nonpayable",
      "type": "function"
    },
    {
      "constant": false,
      "inputs": [
        {
          "name": "party",
          "type": "address"
        },
        {
          "name": "amount",
          "type": "bytes16"
        }
      ],
      "name": "addBalance",
      "outputs": [],
      "payable": false,
      "stateMutability": "nonpayable",
      "type": "function"
    },
    {
      "constant": false,
      "inputs": [
        {
          "name": "party",
          "type": "address"
        },
        {
          "name": "amount",
          "type": "bytes16"
        }
      ],
      "name": "reduceBalance",
      "outputs": [],
      "payable": false,
      "stateMutability": "nonpayable",
      "type": "function"
    },
    {
      "constant": false,
      "inputs": [
        {
          "name": "sender",
          "type": "address"
        },
        {
          "name": "receiver",
          "type": "address"
        },
        {
          "name": "tokens",
          "type": "uint256"
        }
      ],
      "name": "transferFrom",
      "outputs": [
        {
          "name": "",
          "type": "bool"
        }
      ],
      "payable": false,
      "stateMutability": "nonpayable",
      "type": "function"
    },
    {
      "constant": false,
      "inputs": [
        {
          "name": "sender",
          "type": "address"
        },
        {
          "name": "receiver",
          "type": "address"
        },
        {
          "name": "tokens",
          "type": "uint256"
        }
      ],
      "name": "transferToken",
      "outputs": [
        {
          "name": "",
          "type": "bool"
        }
      ],
      "payable": false,
      "stateMutability": "nonpayable",
      "type": "function"
    },
    {
      "constant": false,
      "inputs": [
        {
          "name": "receiver",
          "type": "address"
        },
        {
          "name": "tokens",
          "type": "uint256"
        }
      ],
      "name": "requestTransfer",
      "outputs": [
        {
          "name": "",
          "type": "bool"
        }
      ],
      "payable": false,
      "stateMutability": "nonpayable",
      "type": "function"
    }
  ],
  "bytecode": "0x608060405261160c806100136000396000f3fe608060405234801561001057600080fd5b506004361061014d5760003560e01c80638da5cb5b116100c3578063bf9ce9521161007c578063bf9ce952146103d2578063c4d66de8146103da578063dd62ed3e14610400578063f16725911461042e578063f2fde38b14610455578063f5537ede1461047b5761014d565b80638da5cb5b146102fc5780638f32d59b14610304578063a49b8a4c1461030c578063a9059cbb14610342578063aa5fc7941461036e578063b3f15e751461039a5761014d565b806327e235e31161011557806327e235e31461022f578063313ce567146102725780634c0992871461029057806370a08231146102c6578063715018a6146102ec5780637b61c320146102f45761014d565b80630141533314610152578063095ea7b31461017b57806318160ddd146101bb5780631d143848146101d557806323b872dd146101f9575b600080fd5b6101796004803603602081101561016857600080fd5b50356001600160801b0319166104b1565b005b6101a76004803603604081101561019157600080fd5b506001600160a01b0381351690602001356104f5565b604080519115158252519081900360200190f35b6101c361057d565b60408051918252519081900360200190f35b6101dd610594565b604080516001600160a01b039092168252519081900360200190f35b6101a76004803603606081101561020f57600080fd5b506001600160a01b038135811691602081013590911690604001356105a3565b6102556004803603602081101561024557600080fd5b50356001600160a01b03166106c9565b604080516001600160801b03199092168252519081900360200190f35b61027a6106de565b6040805160ff9092168252519081900360200190f35b610179600480360360408110156102a657600080fd5b5080356001600160a01b031690602001356001600160801b0319166106ee565b6101c3600480360360208110156102dc57600080fd5b50356001600160a01b0316610761565b61017961078e565b6101c3610834565b6101dd61083a565b6101a7610849565b6101796004803603604081101561032257600080fd5b5080356001600160a01b031690602001356001600160801b03191661086f565b6101a76004803603604081101561035857600080fd5b506001600160a01b0381351690602001356108ac565b6101a76004803603604081101561038457600080fd5b506001600160a01b0381351690602001356109d7565b610179600480360360808110156103b057600080fd5b508035906001600160a01b0360208201351690604081013590606001356109ea565b6101c3610ae5565b610179600480360360208110156103f057600080fd5b50356001600160a01b0316610aeb565b6101c36004803603604081101561041657600080fd5b506001600160a01b0381358116916020013516610be0565b6101796004803603602081101561044457600080fd5b50356001600160801b031916610c14565b6101796004803603602081101561046b57600080fd5b50356001600160a01b0316610c3b565b6101a76004803603606081101561049157600080fd5b506001600160a01b03813581169160208101359091169060400135610ca3565b606c546001600160a01b031633146104c857600080fd5b6001546104d89060801b82610db1565b600180546001600160801b03191660809290921c91909117905550565b6000610500826111e3565b3360008181526003602090815260408083206001600160a01b0389168085529083529281902080546001600160801b03191660809690961c959095179094558351868152935191937f8c5be1e5ebec7d5bd14f71427d1e84f3dd0314c0f7b2291e5b200ac8c7c3b925929081900390910190a35060015b92915050565b60015460009061058f9060801b611248565b905090565b6000546001600160a01b031681565b6001600160a01b0383166000908152600260205260408120546105d19060801b6105cc846111e3565b6112e0565b60000b6001148061060b57506001600160a01b0384166000908152600260205260409020546106069060801b6105cc846111e3565b60000b155b61061457600080fd5b606c54606b5460408051600160e01b6389063c8b02815260048101929092523060248301526001600160a01b03878116604484015286811660648401526084830186905290519216916389063c8b9160a4808201926020929091908290030181600087803b15801561068557600080fd5b505af1158015610699573d6000803e3d6000fd5b505050506040513d60208110156106af57600080fd5b5051156106be575060016106c2565b5060005b9392505050565b60026020526000908152604090205460801b81565b600054600160a01b900460ff1681565b606c546001600160a01b0316331461070557600080fd5b6001600160a01b03821660009081526002602052604090205461072b9060801b82611429565b6001600160a01b0392909216600090815260026020526040902080546001600160801b03191660809390931c9290921790915550565b6001600160a01b0381166000908152600260205260408120546107869060801b611248565b90505b919050565b610796610849565b6107ea5760408051600160e51b62461bcd02815260206004820181905260248201527f4f776e61626c653a2063616c6c6572206973206e6f7420746865206f776e6572604482015290519081900360640190fd5b6037546040516000916001600160a01b0316907f8be0079c531659141344cd1fd0a4f28419497f9722a3daafe3b4186f6b6457e0908390a3603780546001600160a01b0319169055565b606b5481565b6037546001600160a01b031690565b6037546000906001600160a01b031661086061143b565b6001600160a01b031614905090565b606c546001600160a01b0316331461088657600080fd5b6001600160a01b03821660009081526002602052604090205461072b9060801b82610db1565b60006108d26108ba836111e3565b3060009081526002602052604090205460801b6112e0565b60000b60001914806108f057506108eb6108ba836111e3565b60000b155b6108f957600080fd5b3060009081526002602052604090205461091e9060801b610919846111e3565b611429565b3060009081526002602052604080822080546001600160801b031916608094851c1790556001600160a01b0386168252902054610964911b61095f846111e3565b610db1565b6001600160a01b03841660008181526002602090815260409182902080546001600160801b03191660809590951c9490941790935580518581529051919230927fddf252ad1be2c89b69c2b068fc378daa952ba7f163c4a11628f55a4df523b3ef9281900390910190a350600192915050565b60006109e383836108ac565b5092915050565b600454610100900460ff1680610a035750610a0361143f565b80610a11575060045460ff16155b610a4f57604051600160e51b62461bcd02815260040180806020018281038252602e8152602001806115b3602e913960400191505060405180910390fd5b600454610100900460ff16158015610a7a576004805460ff1961ff0019909116610100171660011790555b610a8384610aeb565b606c80546001600160a01b0319166001600160a01b038616179055606b829055606a8390556000805474ff00000000000000000000000000000000000000001916600160a11b1790558015610ade576004805461ff00191690555b5050505050565b606a5481565b600454610100900460ff1680610b045750610b0461143f565b80610b12575060045460ff16155b610b5057604051600160e51b62461bcd02815260040180806020018281038252602e8152602001806115b3602e913960400191505060405180910390fd5b600454610100900460ff16158015610b7b576004805460ff1961ff0019909116610100171660011790555b603780546001600160a01b0319166001600160a01b0384811691909117918290556040519116906000907f8be0079c531659141344cd1fd0a4f28419497f9722a3daafe3b4186f6b6457e0908290a38015610bdc576004805461ff00191690555b5050565b6001600160a01b0380831660009081526003602090815260408083209385168352929052908120546106c29060801b611248565b606c546001600160a01b03163314610c2b57600080fd5b6001546104d89060801b82611429565b610c43610849565b610c975760408051600160e51b62461bcd02815260206004820181905260248201527f4f776e61626c653a2063616c6c6572206973206e6f7420746865206f776e6572604482015290519081900360640190fd5b610ca081611445565b50565b606c546000906001600160a01b03163314610cbd57600080fd5b610cea610cc9836111e3565b6001600160a01b03861660009081526002602052604090205460801b6112e0565b60000b6000191480610d085750610d03610cc9836111e3565b60000b155b156106be576001600160a01b038416600090815260026020526040902054610d369060801b610919846111e3565b6001600160a01b0385811660009081526002602052604080822080546001600160801b031916608095861c17905591861681522054610d79911b61095f846111e3565b6001600160a01b038416600090815260026020526040902080546001600160801b03191660809290921c9190911790555060016106c2565b6000617fff6001600160801b03608085811c8216607090811c8416939186901c90921690911c811690821415610e275780617fff1415610e1d576001600160801b03198581169085161415610e0a578492505050610577565b50600160ef1b61ffff0291506105779050565b8492505050610577565b80617fff1415610e3b578392505050610577565b6001607f1b608086901c6001600160801b0381169190911015906001600160701b031683610e6c5760019350610e73565b600160701b175b6001607f1b608087901c6001600160801b0381169190911015906001600160701b031684610ea45760019450610eab565b600160701b175b82610edb576001600160801b03198816600160ff1b14610ecb5787610ece565b60005b9650505050505050610577565b80610efb576001600160801b03198916600160ff1b14610ecb5788610ece565b8486038415158315151415611021576070811315610f225789975050505050505050610577565b6000811315610f415780826000821215610f3857fe5b901c9150610f7b565b606f19811215610f5a5788975050505050505050610577565b6000811215610f7b5780600003846000821215610f7357fe5b901c93508596505b92810192600160711b8410610f96576001968701969390931c925b86617fff1415610fcb5784610fb357600160f01b617fff02610fbd565b6001600160f01b03195b975050505050505050610577565b600160701b841015610fe05760009650610fed565b6001600160701b03841693505b83607088901b86610fff576000611005565b6001607f1b5b6001600160801b0316171760801b975050505050505050610577565b600081131561103c57600184901b9350600187039650611053565b600081121561105357600182901b91506001860396505b607081131561106557600191506110c8565b600181131561108d576001810360018303600082121561108157fe5b901c60010191506110c8565b606f198112156110a057600193506110c8565b6000198112156110c857600181600003036001850360008212156110c057fe5b901c60010193505b8184106110d95781840393506110e2565b83820393508294505b836110f857506000965061057795505050505050565b6000611103856114e9565b9050806071141561112957600185901c6001600160701b03169450600188019750611178565b607081101561116b57607081900380891115611158578086901b6001600160701b031695508089039850611165565b600098600019019590951b945b50611178565b6001600160701b03851694505b87617fff14156111ae578561119557600160f01b617fff0261119f565b6001600160f01b03195b98505050505050505050610577565b84607089901b876111c05760006111c6565b6001607f1b5b6001600160801b0316171760801b98505050505050505050610577565b6000816111f257506000610789565b8160006111fe826114e9565b90506070811015611217578060700382901b915061122a565b607081111561122a576070810382901c91505b613fff0160701b6001600160701b03919091161760801b9050610789565b6000617fff6001600160801b03608084901c1660701c16613fff811015611273576000915050610789565b6001607f1b8360801c6001600160801b03161061128f57600080fd5b6140fe81111561129e57600080fd5b600160701b6001600160701b03608085901c161761406f8210156112c85761406f8290031c6106c2565b61406f8211156106c25761406e1982011b9392505050565b600060016001607f1b03608084901c16600160701b617fff0281111561130557600080fd5b60016001607f1b03608084901c16600160701b617fff0281111561132857600080fd5b6001600160801b03198581169085161415806113545750600160701b617fff02826001600160801b0316105b61135d57600080fd5b6001600160801b0319858116908516141561137d57600092505050610577565b60006001607f1b8660801c6001600160801b03161015905060006001607f1b8660801c6001600160801b03161015905081156113e85780156113d957826001600160801b0316846001600160801b0316116113d95760016113dd565b6000195b945050505050610577565b80156113fb576001945050505050610577565b826001600160801b0316846001600160801b03161161141c576000196113dd565b6001945050505050610577565b60006106c283600160ff1b8418610db1565b3390565b303b1590565b6001600160a01b03811661148d57604051600160e51b62461bcd02815260040180806020018281038252602681526020018061158d6026913960400191505060405180910390fd5b6037546040516001600160a01b038084169216907f8be0079c531659141344cd1fd0a4f28419497f9722a3daafe3b4186f6b6457e090600090a3603780546001600160a01b0319166001600160a01b0392909216919091179055565b60008082116114f757600080fd5b6000600160801b831061150c57608092831c92015b68010000000000000000831061152457604092831c92015b640100000000831061153857602092831c92015b62010000831061154a57601092831c92015b610100831061155b57600892831c92015b6010831061156b57600492831c92015b6004831061157b57600292831c92015b60028310610786576001019291505056fe4f776e61626c653a206e6577206f776e657220697320746865207a65726f2061646472657373436f6e747261637420696e7374616e63652068617320616c7265616479206265656e20696e697469616c697a6564a165627a7a723058209b4cacd949a1ac7336633255c8fc673f6e8cf4f7e188c7bb267911010eea074a0029",
  "source": "// (c) Kallol Borah, 2020\r\n// Implements token issued by Bond issuer. Can be reused by any financial product issuer\r\n\r\npragma solidity >=0.5.0 <0.7.0;\r\n\r\nimport \"./erc/ERC20.sol\";\r\nimport \"./ViaBond.sol\";\r\nimport \"./ViaToken.sol\";\r\nimport \"@openzeppelin/upgrades/contracts/Initializable.sol\";\r\nimport \"@openzeppelin/contracts-ethereum-package/contracts/ownership/Ownable.sol\";\r\nimport \"abdk-libraries-solidity/ABDKMathQuad.sol\";\r\nimport \"./utilities/StringUtils.sol\";\r\n\r\ncontract Token is ViaToken, ERC20, Initializable, Ownable {\r\n\r\n    using stringutils for *;\r\n\r\n    //Via token attributes (eg, name : Via-USD, product : ViaBond, symbol : bond identifier)\r\n    //string public name;\r\n    bytes32 public product;\r\n    //string public symbol;\r\n    bytes32 public tokenSymbol;\r\n    address payable issuer;\r\n\r\n    //initiliaze proxies\r\n    function initialize(bytes32 _name, address payable _owner, bytes32 _product, bytes32 _symbol) public initializer{\r\n        Ownable.initialize(_owner);\r\n        issuer = _owner;\r\n        //name = _name.bytes32ToString();\r\n        //symbol = _symbol.bytes32ToString();\r\n        tokenSymbol = _symbol;\r\n        product = _product;\r\n        decimals = 2;\r\n    }\r\n\r\n    function addTotalSupply(bytes16 amount) external{\r\n        require(issuer==msg.sender);\r\n        //adjust total supply\r\n        totalSupply_ = ABDKMathQuad.add(totalSupply_, amount);\r\n    }\r\n\r\n    function reduceSupply(bytes16 amount) external{        \r\n        require(issuer==msg.sender);\r\n        totalSupply_ = ABDKMathQuad.sub(totalSupply_, amount);\r\n    }\r\n\r\n    function addBalance(address party, bytes16 amount) external{\r\n        require(issuer==msg.sender);\r\n        //add via to this contract's balance first (ie issue them first)\r\n        balances[party] = ABDKMathQuad.add(balances[party], amount);\r\n    }\r\n\r\n    function reduceBalance(address party, bytes16 amount) external{\r\n        require(issuer==msg.sender);\r\n        balances[party] = ABDKMathQuad.sub(balances[party], amount);\r\n    }\r\n\r\n    function transferFrom(address sender, address receiver, uint256 tokens) public returns (bool){\r\n        //ensure sender has enough tokens in balance before transferring or redeeming them\r\n        require(ABDKMathQuad.cmp(balances[sender],ABDKMathQuad.fromUInt(tokens))==1 ||\r\n                ABDKMathQuad.cmp(balances[sender],ABDKMathQuad.fromUInt(tokens))==0);\r\n        if(ViaBond(issuer).transferFoward(tokenSymbol, address(this), sender, receiver, tokens))\r\n            return true;\r\n        else\r\n            return false;\r\n    }\r\n\r\n    function transferToken(address sender, address receiver, uint256 tokens) external returns (bool){\r\n        require(issuer==msg.sender);\r\n        //owner should have more tokens than being transferred\r\n        if(ABDKMathQuad.cmp(ABDKMathQuad.fromUInt(tokens), balances[sender])==-1 || ABDKMathQuad.cmp(ABDKMathQuad.fromUInt(tokens), balances[sender])==0){\r\n            //sending contract should be allowed by token owner to make this transfer\r\n            //require(ABDKMathQuad.cmp(ABDKMathQuad.fromUInt(tokens), allowed[sender][msg.sender])==-1 || ABDKMathQuad.cmp(ABDKMathQuad.fromUInt(tokens), allowed[sender][msg.sender])==0);\r\n            balances[sender] = ABDKMathQuad.sub(balances[sender], ABDKMathQuad.fromUInt(tokens));\r\n            //allowed[sender][msg.sender] = ABDKMathQuad.sub(allowed[sender][msg.sender], ABDKMathQuad.fromUInt(tokens));\r\n            balances[receiver] = ABDKMathQuad.add(balances[receiver], ABDKMathQuad.fromUInt(tokens));\r\n            return true;\r\n        }\r\n        return false;\r\n    }   \r\n\r\n\r\n    function requestTransfer(address receiver, uint tokens) external returns (bool){\r\n        transfer(receiver, tokens);\r\n    }    \r\n\r\n}",
  "sourcePath": "D:/verified/via-issuer/contracts/Token.sol",
  "compiler": {
    "name": "solc",
    "version": "0.5.7+commit.6da8b019.Emscripten.clang"
  },
  "schemaVersion": "3.2.5",
  "updatedAt": "2020-11-08T14:57:06.193Z",
  "networkType": "ethereum",
  "devdoc": {
    "methods": {
      "initialize(address)": {
        "details": "Initializes the contract setting the deployer as the initial owner.\r"
      },
      "isOwner()": {
        "details": "Returns true if the caller is the current owner.\r"
      },
      "owner()": {
        "details": "Returns the address of the current owner.\r"
      },
      "renounceOwnership()": {
        "details": "Leaves the contract without owner. It will not be possible to call\r `onlyOwner` functions anymore. Can only be called by the current owner.\r      * > Note: Renouncing ownership will leave the contract without an owner,\r thereby removing any functionality that is only available to the owner.\r"
      },
      "transferOwnership(address)": {
        "details": "Transfers ownership of the contract to a new account (`newOwner`).\r Can only be called by the current owner.\r"
      }
    }
  },
  "userdoc": {
    "methods": {}
  }
}