{
  "contractName": "Token",
  "abi": [
    {
      "constant": true,
      "inputs": [],
      "name": "name",
      "outputs": [
        {
          "name": "",
          "type": "string"
        }
      ],
      "payable": false,
      "stateMutability": "view",
      "type": "function"
    },
    {
      "constant": false,
      "inputs": [
        {
          "name": "spender",
          "type": "address"
        },
        {
          "name": "tokens",
          "type": "uint256"
        }
      ],
      "name": "approve",
      "outputs": [
        {
          "name": "",
          "type": "bool"
        }
      ],
      "payable": false,
      "stateMutability": "nonpayable",
      "type": "function"
    },
    {
      "constant": true,
      "inputs": [],
      "name": "totalSupply",
      "outputs": [
        {
          "name": "",
          "type": "uint256"
        }
      ],
      "payable": false,
      "stateMutability": "view",
      "type": "function"
    },
    {
      "constant": true,
      "inputs": [],
      "name": "issuer",
      "outputs": [
        {
          "name": "",
          "type": "address"
        }
      ],
      "payable": false,
      "stateMutability": "view",
      "type": "function"
    },
    {
      "constant": true,
      "inputs": [
        {
          "name": "",
          "type": "address"
        }
      ],
      "name": "balances",
      "outputs": [
        {
          "name": "",
          "type": "bytes16"
        }
      ],
      "payable": false,
      "stateMutability": "view",
      "type": "function"
    },
    {
      "constant": true,
      "inputs": [],
      "name": "decimals",
      "outputs": [
        {
          "name": "",
          "type": "uint8"
        }
      ],
      "payable": false,
      "stateMutability": "view",
      "type": "function"
    },
    {
      "constant": true,
      "inputs": [
        {
          "name": "tokenOwner",
          "type": "address"
        }
      ],
      "name": "balanceOf",
      "outputs": [
        {
          "name": "",
          "type": "uint256"
        }
      ],
      "payable": false,
      "stateMutability": "view",
      "type": "function"
    },
    {
      "constant": false,
      "inputs": [],
      "name": "renounceOwnership",
      "outputs": [],
      "payable": false,
      "stateMutability": "nonpayable",
      "type": "function"
    },
    {
      "constant": true,
      "inputs": [],
      "name": "tokenSymbol",
      "outputs": [
        {
          "name": "",
          "type": "bytes32"
        }
      ],
      "payable": false,
      "stateMutability": "view",
      "type": "function"
    },
    {
      "constant": true,
      "inputs": [],
      "name": "owner",
      "outputs": [
        {
          "name": "",
          "type": "address"
        }
      ],
      "payable": false,
      "stateMutability": "view",
      "type": "function"
    },
    {
      "constant": true,
      "inputs": [],
      "name": "isOwner",
      "outputs": [
        {
          "name": "",
          "type": "bool"
        }
      ],
      "payable": false,
      "stateMutability": "view",
      "type": "function"
    },
    {
      "constant": true,
      "inputs": [],
      "name": "symbol",
      "outputs": [
        {
          "name": "",
          "type": "string"
        }
      ],
      "payable": false,
      "stateMutability": "view",
      "type": "function"
    },
    {
      "constant": false,
      "inputs": [
        {
          "name": "receiver",
          "type": "address"
        },
        {
          "name": "tokens",
          "type": "uint256"
        }
      ],
      "name": "transfer",
      "outputs": [
        {
          "name": "",
          "type": "bool"
        }
      ],
      "payable": false,
      "stateMutability": "nonpayable",
      "type": "function"
    },
    {
      "constant": true,
      "inputs": [],
      "name": "product",
      "outputs": [
        {
          "name": "",
          "type": "bytes32"
        }
      ],
      "payable": false,
      "stateMutability": "view",
      "type": "function"
    },
    {
      "constant": true,
      "inputs": [
        {
          "name": "tokenOwner",
          "type": "address"
        },
        {
          "name": "spender",
          "type": "address"
        }
      ],
      "name": "allowance",
      "outputs": [
        {
          "name": "",
          "type": "uint256"
        }
      ],
      "payable": false,
      "stateMutability": "view",
      "type": "function"
    },
    {
      "constant": false,
      "inputs": [
        {
          "name": "newOwner",
          "type": "address"
        }
      ],
      "name": "transferOwnership",
      "outputs": [],
      "payable": false,
      "stateMutability": "nonpayable",
      "type": "function"
    },
    {
      "anonymous": false,
      "inputs": [
        {
          "indexed": true,
          "name": "from",
          "type": "address"
        },
        {
          "indexed": true,
          "name": "to",
          "type": "address"
        },
        {
          "indexed": false,
          "name": "tokens",
          "type": "uint256"
        }
      ],
      "name": "Transfer",
      "type": "event"
    },
    {
      "anonymous": false,
      "inputs": [
        {
          "indexed": true,
          "name": "previousOwner",
          "type": "address"
        },
        {
          "indexed": true,
          "name": "newOwner",
          "type": "address"
        }
      ],
      "name": "OwnershipTransferred",
      "type": "event"
    },
    {
      "anonymous": false,
      "inputs": [
        {
          "indexed": true,
          "name": "tokenOwner",
          "type": "address"
        },
        {
          "indexed": true,
          "name": "spender",
          "type": "address"
        },
        {
          "indexed": false,
          "name": "tokens",
          "type": "uint256"
        }
      ],
      "name": "Approval",
      "type": "event"
    },
    {
      "constant": false,
      "inputs": [
        {
          "name": "_name",
          "type": "bytes32"
        },
        {
          "name": "_owner",
          "type": "address"
        },
        {
          "name": "_product",
          "type": "bytes32"
        },
        {
          "name": "_symbol",
          "type": "bytes32"
        }
      ],
      "name": "initialize",
      "outputs": [],
      "payable": false,
      "stateMutability": "nonpayable",
      "type": "function"
    },
    {
      "constant": false,
      "inputs": [
        {
          "name": "sender",
          "type": "address"
        }
      ],
      "name": "initialize",
      "outputs": [],
      "payable": false,
      "stateMutability": "nonpayable",
      "type": "function"
    },
    {
      "constant": false,
      "inputs": [
        {
          "name": "amount",
          "type": "bytes16"
        }
      ],
      "name": "addTotalSupply",
      "outputs": [],
      "payable": false,
      "stateMutability": "nonpayable",
      "type": "function"
    },
    {
      "constant": false,
      "inputs": [
        {
          "name": "amount",
          "type": "bytes16"
        }
      ],
      "name": "reduceSupply",
      "outputs": [],
      "payable": false,
      "stateMutability": "nonpayable",
      "type": "function"
    },
    {
      "constant": false,
      "inputs": [
        {
          "name": "party",
          "type": "address"
        },
        {
          "name": "amount",
          "type": "bytes16"
        }
      ],
      "name": "addBalance",
      "outputs": [],
      "payable": false,
      "stateMutability": "nonpayable",
      "type": "function"
    },
    {
      "constant": false,
      "inputs": [
        {
          "name": "party",
          "type": "address"
        },
        {
          "name": "amount",
          "type": "bytes16"
        }
      ],
      "name": "reduceBalance",
      "outputs": [],
      "payable": false,
      "stateMutability": "nonpayable",
      "type": "function"
    },
    {
      "constant": false,
      "inputs": [
        {
          "name": "sender",
          "type": "address"
        },
        {
          "name": "receiver",
          "type": "address"
        },
        {
          "name": "tokens",
          "type": "uint256"
        }
      ],
      "name": "transferFrom",
      "outputs": [
        {
          "name": "",
          "type": "bool"
        }
      ],
      "payable": false,
      "stateMutability": "nonpayable",
      "type": "function"
    },
    {
      "constant": false,
      "inputs": [
        {
          "name": "sender",
          "type": "address"
        },
        {
          "name": "receiver",
          "type": "address"
        },
        {
          "name": "tokens",
          "type": "uint256"
        }
      ],
      "name": "transferToken",
      "outputs": [
        {
          "name": "",
          "type": "bool"
        }
      ],
      "payable": false,
      "stateMutability": "nonpayable",
      "type": "function"
    },
    {
      "constant": false,
      "inputs": [
        {
          "name": "receiver",
          "type": "address"
        },
        {
          "name": "tokens",
          "type": "uint256"
        }
      ],
      "name": "requestTransfer",
      "outputs": [
        {
          "name": "",
          "type": "bool"
        }
      ],
      "payable": false,
      "stateMutability": "nonpayable",
      "type": "function"
    }
  ],
  "bytecode": "0x60806040526118df806100136000396000f3fe608060405234801561001057600080fd5b50600436106101735760003560e01c80638da5cb5b116100de578063b3f15e7511610097578063dd62ed3e11610071578063dd62ed3e146104ab578063f1672591146104d9578063f2fde38b14610500578063f5537ede1461052657610173565b8063b3f15e7514610445578063bf9ce9521461047d578063c4d66de81461048557610173565b80638da5cb5b1461039f5780638f32d59b146103a757806395d89b41146103af578063a49b8a4c146103b7578063a9059cbb146103ed578063aa5fc7941461041957610173565b806327e235e31161013057806327e235e3146102d2578063313ce567146103155780634c0992871461033357806370a0823114610369578063715018a61461038f5780637b61c3201461039757610173565b8063014153331461017857806306fdde03146101a1578063095ea7b31461021e57806318160ddd1461025e5780631d1438481461027857806323b872dd1461029c575b600080fd5b61019f6004803603602081101561018e57600080fd5b50356001600160801b03191661055c565b005b6101a96105a0565b6040805160208082528351818301528351919283929083019185019080838360005b838110156101e35781810151838201526020016101cb565b50505050905090810190601f1680156102105780820380516001836020036101000a031916815260200191505b509250505060405180910390f35b61024a6004803603604081101561023457600080fd5b506001600160a01b03813516906020013561062e565b604080519115158252519081900360200190f35b6102666106b6565b60408051918252519081900360200190f35b6102806106ce565b604080516001600160a01b039092168252519081900360200190f35b61024a600480360360608110156102b257600080fd5b506001600160a01b038135811691602081013590911690604001356106dd565b6102f8600480360360208110156102e857600080fd5b50356001600160a01b0316610803565b604080516001600160801b03199092168252519081900360200190f35b61031d610818565b6040805160ff9092168252519081900360200190f35b61019f6004803603604081101561034957600080fd5b5080356001600160a01b031690602001356001600160801b031916610828565b6102666004803603602081101561037f57600080fd5b50356001600160a01b031661089b565b61019f6108c8565b61026661096e565b610280610974565b61024a610983565b6101a96109a9565b61019f600480360360408110156103cd57600080fd5b5080356001600160a01b031690602001356001600160801b031916610a04565b61024a6004803603604081101561040357600080fd5b506001600160a01b038135169060200135610a41565b61024a6004803603604081101561042f57600080fd5b506001600160a01b038135169060200135610b6c565b61019f6004803603608081101561045b57600080fd5b508035906001600160a01b036020820135169060408101359060600135610bbf565b610266610d12565b61019f6004803603602081101561049b57600080fd5b50356001600160a01b0316610d18565b610266600480360360408110156104c157600080fd5b506001600160a01b0381358116916020013516610e0d565b61019f600480360360208110156104ef57600080fd5b50356001600160801b031916610e41565b61019f6004803603602081101561051657600080fd5b50356001600160a01b0316610e68565b61024a6004803603606081101561053c57600080fd5b506001600160a01b03813581169160208101359091169060400135610ed0565b606e546001600160a01b0316331461057357600080fd5b6001546105839060801b8261101a565b600180546001600160801b03191660809290921c91909117905550565b606a805460408051602060026001851615610100026000190190941693909304601f810184900484028201840190925281815292918301828280156106265780601f106105fb57610100808354040283529160200191610626565b820191906000526020600020905b81548152906001019060200180831161060957829003601f168201915b505050505081565b60006106398261141e565b3360008181526003602090815260408083206001600160a01b0389168085529083529281902080546001600160801b03191660809690961c959095179094558351868152935191937f8c5be1e5ebec7d5bd14f71427d1e84f3dd0314c0f7b2291e5b200ac8c7c3b925929081900390910190a35060015b92915050565b6001546000906106c89060801b611483565b90505b90565b6000546001600160a01b031681565b6001600160a01b03831660009081526002602052604081205461070b9060801b6107068461141e565b61151b565b60000b6001148061074557506001600160a01b0384166000908152600260205260409020546107409060801b6107068461141e565b60000b155b61074e57600080fd5b606e54606d5460408051600160e31b6303a12b6102815260048101929092523060248301526001600160a01b0387811660448401528681166064840152608483018690529051921691631d095b089160a4808201926020929091908290030181600087803b1580156107bf57600080fd5b505af11580156107d3573d6000803e3d6000fd5b505050506040513d60208110156107e957600080fd5b5051156107f8575060016107fc565b5060005b9392505050565b60026020526000908152604090205460801b81565b600054600160a01b900460ff1681565b606e546001600160a01b0316331461083f57600080fd5b6001600160a01b0382166000908152600260205260409020546108659060801b82611664565b6001600160a01b0392909216600090815260026020526040902080546001600160801b03191660809390931c9290921790915550565b6001600160a01b0381166000908152600260205260408120546108c09060801b611483565b90505b919050565b6108d0610983565b6109245760408051600160e51b62461bcd02815260206004820181905260248201527f4f776e61626c653a2063616c6c6572206973206e6f7420746865206f776e6572604482015290519081900360640190fd5b6037546040516000916001600160a01b0316907f8be0079c531659141344cd1fd0a4f28419497f9722a3daafe3b4186f6b6457e0908390a3603780546001600160a01b0319169055565b606d5481565b6037546001600160a01b031690565b6037546000906001600160a01b031661099a611676565b6001600160a01b031614905090565b606c805460408051602060026001851615610100026000190190941693909304601f810184900484028201840190925281815292918301828280156106265780601f106105fb57610100808354040283529160200191610626565b606e546001600160a01b03163314610a1b57600080fd5b6001600160a01b0382166000908152600260205260409020546108659060801b8261101a565b6000610a67610a4f8361141e565b3060009081526002602052604090205460801b61151b565b60000b6000191480610a855750610a80610a4f8361141e565b60000b155b610a8e57600080fd5b30600090815260026020526040902054610ab39060801b610aae8461141e565b611664565b3060009081526002602052604080822080546001600160801b031916608094851c1790556001600160a01b0386168252902054610af9911b610af48461141e565b61101a565b6001600160a01b03841660008181526002602090815260409182902080546001600160801b03191660809590951c9490941790935580518581529051919230927fddf252ad1be2c89b69c2b068fc378daa952ba7f163c4a11628f55a4df523b3ef9281900390910190a350600192915050565b6000610b788383610a41565b506040805183815290516001600160a01b0385169130917fddf252ad1be2c89b69c2b068fc378daa952ba7f163c4a11628f55a4df523b3ef9181900360200190a392915050565b600454610100900460ff1680610bd85750610bd861167a565b80610be6575060045460ff16155b610c2457604051600160e51b62461bcd02815260040180806020018281038252602e815260200180611886602e913960400191505060405180910390fd5b600454610100900460ff16158015610c4f576004805460ff1961ff0019909116610100171660011790555b610c5884610d18565b606e80546001600160a01b0319166001600160a01b0386161790556040805160208082018890528251808303820181529183019092528051610c9e92606a9201906117c7565b506040805160208082018590528251808303820181529183019092528051610cca92606c9201906117c7565b50606d829055606b8390556000805474ff00000000000000000000000000000000000000001916600160a11b1790558015610d0b576004805461ff00191690555b5050505050565b606b5481565b600454610100900460ff1680610d315750610d3161167a565b80610d3f575060045460ff16155b610d7d57604051600160e51b62461bcd02815260040180806020018281038252602e815260200180611886602e913960400191505060405180910390fd5b600454610100900460ff16158015610da8576004805460ff1961ff0019909116610100171660011790555b603780546001600160a01b0319166001600160a01b0384811691909117918290556040519116906000907f8be0079c531659141344cd1fd0a4f28419497f9722a3daafe3b4186f6b6457e0908290a38015610e09576004805461ff00191690555b5050565b6001600160a01b0380831660009081526003602090815260408083209385168352929052908120546107fc9060801b611483565b606e546001600160a01b03163314610e5857600080fd5b6001546105839060801b82611664565b610e70610983565b610ec45760408051600160e51b62461bcd02815260206004820181905260248201527f4f776e61626c653a2063616c6c6572206973206e6f7420746865206f776e6572604482015290519081900360640190fd5b610ecd81611680565b50565b606e546000906001600160a01b03163314610eea57600080fd5b610f17610ef68361141e565b6001600160a01b03861660009081526002602052604090205460801b61151b565b60000b6000191480610f355750610f30610ef68361141e565b60000b155b156107f8576001600160a01b038416600090815260026020526040902054610f639060801b610aae8461141e565b6001600160a01b0385811660009081526002602052604080822080546001600160801b031916608095861c17905591861681522054610fa6911b610af48461141e565b6001600160a01b0384811660008181526002602090815260409182902080546001600160801b03191660809690961c95909517909455805186815290519193928816927fddf252ad1be2c89b69c2b068fc378daa952ba7f163c4a11628f55a4df523b3ef92918290030190a35060016107fc565b6000617fff6001600160801b03608085811c8216607090811c8416939186901c90921690911c8116908214156110905780617fff1415611086576001600160801b031985811690851614156110735784925050506106b0565b50600160ef1b61ffff0291506106b09050565b84925050506106b0565b80617fff14156110a45783925050506106b0565b6001607f1b608086901c6001600160801b0381169190911015906001600160701b0316836110d557600193506110dc565b600160701b175b6001607f1b608087901c6001600160801b0381169190911015906001600160701b03168461110d5760019450611114565b600160701b175b82611144576001600160801b03198816600160ff1b146111345787611137565b60005b96505050505050506106b0565b80611164576001600160801b03198916600160ff1b146111345788611137565b848603841515831515141561127257607081131561118b57899750505050505050506106b0565b600081131561119d5790811c906111cc565b606f198112156111b657889750505050505050506106b0565b60008112156111cc578060000384901c93508596505b92810192600160711b84106111e7576001968701969390931c925b86617fff141561121c578461120457600160f01b617fff0261120e565b6001600160f01b03195b9750505050505050506106b0565b600160701b841015611231576000965061123e565b6001600160701b03841693505b83607088901b86611250576000611256565b6001607f1b5b6001600160801b0316171760801b9750505050505050506106b0565b600081131561128d57600184901b93506001870396506112a4565b60008112156112a457600182901b91506001860396505b60708113156112b65760019150611303565b60018113156112d3576001810360018303901c6001019150611303565b606f198112156112e65760019350611303565b600019811215611303576001816000030360018503901c60010193505b81841061131457818403935061131d565b83820393508294505b836113335750600096506106b095505050505050565b600061133e85611724565b9050806071141561136457600185901c6001600160701b031694506001880197506113b3565b60708110156113a657607081900380891115611393578086901b6001600160701b0316955080890398506113a0565b600098600019019590951b945b506113b3565b6001600160701b03851694505b87617fff14156113e957856113d057600160f01b617fff026113da565b6001600160f01b03195b985050505050505050506106b0565b84607089901b876113fb576000611401565b6001607f1b5b6001600160801b0316171760801b985050505050505050506106b0565b60008161142d575060006108c3565b81600061143982611724565b90506070811015611452578060700382901b9150611465565b6070811115611465576070810382901c91505b613fff0160701b6001600160701b03919091161760801b90506108c3565b6000617fff6001600160801b03608084901c1660701c16613fff8110156114ae5760009150506108c3565b6001607f1b8360801c6001600160801b0316106114ca57600080fd5b6140fe8111156114d957600080fd5b600160701b6001600160701b03608085901c161761406f8210156115035761406f8290031c6107fc565b61406f8211156107fc5761406e1982011b9392505050565b600060016001607f1b03608084901c16600160701b617fff0281111561154057600080fd5b60016001607f1b03608084901c16600160701b617fff0281111561156357600080fd5b6001600160801b031985811690851614158061158f5750600160701b617fff02826001600160801b0316105b61159857600080fd5b6001600160801b031985811690851614156115b8576000925050506106b0565b60006001607f1b8660801c6001600160801b03161015905060006001607f1b8660801c6001600160801b031610159050811561162357801561161457826001600160801b0316846001600160801b031611611614576001611618565b6000195b9450505050506106b0565b80156116365760019450505050506106b0565b826001600160801b0316846001600160801b03161161165757600019611618565b60019450505050506106b0565b60006107fc83600160ff1b841861101a565b3390565b303b1590565b6001600160a01b0381166116c857604051600160e51b62461bcd0281526004018080602001828103825260268152602001806118606026913960400191505060405180910390fd5b6037546040516001600160a01b038084169216907f8be0079c531659141344cd1fd0a4f28419497f9722a3daafe3b4186f6b6457e090600090a3603780546001600160a01b0319166001600160a01b0392909216919091179055565b600080821161173257600080fd5b6000600160801b831061174757608092831c92015b68010000000000000000831061175f57604092831c92015b640100000000831061177357602092831c92015b62010000831061178557601092831c92015b610100831061179657600892831c92015b601083106117a657600492831c92015b600483106117b657600292831c92015b600283106108c05760010192915050565b828054600181600116156101000203166002900490600052602060002090601f016020900481019282601f1061180857805160ff1916838001178555611835565b82800160010185558215611835579182015b8281111561183557825182559160200191906001019061181a565b50611841929150611845565b5090565b6106cb91905b80821115611841576000815560010161184b56fe4f776e61626c653a206e6577206f776e657220697320746865207a65726f2061646472657373436f6e747261637420696e7374616e63652068617320616c7265616479206265656e20696e697469616c697a6564a165627a7a72305820367986a9b9b834e5fc9a8fad01ce5c1b23c033596d83fb2bb409671fa55a5a520029",
  "source": "// (c) Kallol Borah, 2020\r\n// Implements token issued by Bond issuer. Can be reused by any financial product issuer\r\n\r\npragma solidity >=0.5.0 <0.7.0;\r\n\r\nimport \"./erc/ERC20.sol\";\r\nimport \"./ViaBond.sol\";\r\nimport \"./ViaToken.sol\";\r\nimport \"@openzeppelin/upgrades/contracts/Initializable.sol\";\r\nimport \"@openzeppelin/contracts-ethereum-package/contracts/ownership/Ownable.sol\";\r\nimport \"./abdk-libraries-solidity/ABDKMathQuad.sol\";\r\nimport \"./utilities/StringUtils.sol\";\r\n\r\ncontract Token is ViaToken, ERC20, Initializable, Ownable {\r\n\r\n    using stringutils for *;\r\n\r\n    //Via token attributes (eg, name : Via-USD, product : ViaBond, symbol : bond identifier)\r\n    string public name;\r\n    bytes32 public product;\r\n    string public symbol;\r\n    bytes32 public tokenSymbol;\r\n    address payable issuer;\r\n\r\n    //erc20 emit\r\n    event Transfer(address indexed from, address indexed to, uint tokens);\r\n\r\n    //initiliaze proxies\r\n    function initialize(bytes32 _name, address payable _owner, bytes32 _product, bytes32 _symbol) public initializer{\r\n        Ownable.initialize(_owner);\r\n        issuer = _owner;\r\n        name = string(abi.encodePacked(_name));\r\n        symbol = string(abi.encodePacked(_symbol));\r\n        tokenSymbol = _symbol;\r\n        product = _product;\r\n        decimals = 2;\r\n    }\r\n\r\n    function addTotalSupply(bytes16 amount) external{\r\n        require(issuer==msg.sender);\r\n        //adjust total supply\r\n        totalSupply_ = ABDKMathQuad.add(totalSupply_, amount);\r\n    }\r\n\r\n    function reduceSupply(bytes16 amount) external{        \r\n        require(issuer==msg.sender);\r\n        totalSupply_ = ABDKMathQuad.sub(totalSupply_, amount);\r\n    }\r\n\r\n    function addBalance(address party, bytes16 amount) external{\r\n        require(issuer==msg.sender);\r\n        //add via to this contract's balance first (ie issue them first)\r\n        balances[party] = ABDKMathQuad.add(balances[party], amount);\r\n    }\r\n\r\n    function reduceBalance(address party, bytes16 amount) external{\r\n        require(issuer==msg.sender);\r\n        balances[party] = ABDKMathQuad.sub(balances[party], amount);\r\n    }\r\n\r\n    function transferFrom(address sender, address receiver, uint256 tokens) public returns (bool){\r\n        //ensure sender has enough tokens in balance before transferring or redeeming them\r\n        require(ABDKMathQuad.cmp(balances[sender],ABDKMathQuad.fromUInt(tokens))==1 ||\r\n                ABDKMathQuad.cmp(balances[sender],ABDKMathQuad.fromUInt(tokens))==0);\r\n        if(ViaBond(issuer).transferForward(tokenSymbol, address(this), sender, receiver, tokens))\r\n            return true;\r\n        else\r\n            return false;\r\n    }\r\n\r\n    function transferToken(address sender, address receiver, uint256 tokens) external returns (bool){\r\n        require(issuer==msg.sender);\r\n        //owner should have more tokens than being transferred\r\n        if(ABDKMathQuad.cmp(ABDKMathQuad.fromUInt(tokens), balances[sender])==-1 || ABDKMathQuad.cmp(ABDKMathQuad.fromUInt(tokens), balances[sender])==0){\r\n            //sending contract should be allowed by token owner to make this transfer\r\n            //require(ABDKMathQuad.cmp(ABDKMathQuad.fromUInt(tokens), allowed[sender][msg.sender])==-1 || ABDKMathQuad.cmp(ABDKMathQuad.fromUInt(tokens), allowed[sender][msg.sender])==0);\r\n            balances[sender] = ABDKMathQuad.sub(balances[sender], ABDKMathQuad.fromUInt(tokens));\r\n            //allowed[sender][msg.sender] = ABDKMathQuad.sub(allowed[sender][msg.sender], ABDKMathQuad.fromUInt(tokens));\r\n            balances[receiver] = ABDKMathQuad.add(balances[receiver], ABDKMathQuad.fromUInt(tokens));\r\n            emit Transfer(sender, receiver, tokens);\r\n            return true;\r\n        }\r\n        return false;\r\n    }   \r\n\r\n\r\n    function requestTransfer(address receiver, uint tokens) external returns (bool){\r\n        transfer(receiver, tokens);\r\n        emit Transfer(address(this), receiver, tokens);\r\n    }    \r\n\r\n}",
  "sourcePath": "D:/verified/via-issuer/contracts/Token.sol",
  "compiler": {
    "name": "solc",
    "version": "0.5.7+commit.6da8b019.Emscripten.clang"
  },
  "schemaVersion": "3.2.5",
  "updatedAt": "2020-11-11T16:21:22.489Z",
  "devdoc": {
    "methods": {
      "initialize(address)": {
        "details": "Initializes the contract setting the deployer as the initial owner.\r"
      },
      "isOwner()": {
        "details": "Returns true if the caller is the current owner.\r"
      },
      "owner()": {
        "details": "Returns the address of the current owner.\r"
      },
      "renounceOwnership()": {
        "details": "Leaves the contract without owner. It will not be possible to call\r `onlyOwner` functions anymore. Can only be called by the current owner.\r      * > Note: Renouncing ownership will leave the contract without an owner,\r thereby removing any functionality that is only available to the owner.\r"
      },
      "transferOwnership(address)": {
        "details": "Transfers ownership of the contract to a new account (`newOwner`).\r Can only be called by the current owner.\r"
      }
    }
  },
  "userdoc": {
    "methods": {}
  }
}