{
  "contractName": "Token",
  "abi": [
    {
      "constant": true,
      "inputs": [],
      "name": "name",
      "outputs": [
        {
          "name": "",
          "type": "bytes32"
        }
      ],
      "payable": false,
      "stateMutability": "view",
      "type": "function"
    },
    {
      "constant": false,
      "inputs": [
        {
          "name": "spender",
          "type": "address"
        },
        {
          "name": "tokens",
          "type": "uint256"
        }
      ],
      "name": "approve",
      "outputs": [
        {
          "name": "",
          "type": "bool"
        }
      ],
      "payable": false,
      "stateMutability": "nonpayable",
      "type": "function"
    },
    {
      "constant": true,
      "inputs": [],
      "name": "totalSupply",
      "outputs": [
        {
          "name": "",
          "type": "uint256"
        }
      ],
      "payable": false,
      "stateMutability": "view",
      "type": "function"
    },
    {
      "constant": true,
      "inputs": [],
      "name": "issuer",
      "outputs": [
        {
          "name": "",
          "type": "address"
        }
      ],
      "payable": false,
      "stateMutability": "view",
      "type": "function"
    },
    {
      "constant": true,
      "inputs": [
        {
          "name": "",
          "type": "address"
        }
      ],
      "name": "balances",
      "outputs": [
        {
          "name": "",
          "type": "bytes16"
        }
      ],
      "payable": false,
      "stateMutability": "view",
      "type": "function"
    },
    {
      "constant": true,
      "inputs": [],
      "name": "decimals",
      "outputs": [
        {
          "name": "",
          "type": "uint8"
        }
      ],
      "payable": false,
      "stateMutability": "view",
      "type": "function"
    },
    {
      "constant": true,
      "inputs": [
        {
          "name": "tokenOwner",
          "type": "address"
        }
      ],
      "name": "balanceOf",
      "outputs": [
        {
          "name": "",
          "type": "uint256"
        }
      ],
      "payable": false,
      "stateMutability": "view",
      "type": "function"
    },
    {
      "constant": false,
      "inputs": [],
      "name": "renounceOwnership",
      "outputs": [],
      "payable": false,
      "stateMutability": "nonpayable",
      "type": "function"
    },
    {
      "constant": true,
      "inputs": [],
      "name": "owner",
      "outputs": [
        {
          "name": "",
          "type": "address"
        }
      ],
      "payable": false,
      "stateMutability": "view",
      "type": "function"
    },
    {
      "constant": true,
      "inputs": [],
      "name": "isOwner",
      "outputs": [
        {
          "name": "",
          "type": "bool"
        }
      ],
      "payable": false,
      "stateMutability": "view",
      "type": "function"
    },
    {
      "constant": true,
      "inputs": [],
      "name": "symbol",
      "outputs": [
        {
          "name": "",
          "type": "bytes32"
        }
      ],
      "payable": false,
      "stateMutability": "view",
      "type": "function"
    },
    {
      "constant": false,
      "inputs": [
        {
          "name": "receiver",
          "type": "address"
        },
        {
          "name": "tokens",
          "type": "uint256"
        }
      ],
      "name": "transfer",
      "outputs": [
        {
          "name": "",
          "type": "bool"
        }
      ],
      "payable": false,
      "stateMutability": "nonpayable",
      "type": "function"
    },
    {
      "constant": true,
      "inputs": [],
      "name": "product",
      "outputs": [
        {
          "name": "",
          "type": "bytes32"
        }
      ],
      "payable": false,
      "stateMutability": "view",
      "type": "function"
    },
    {
      "constant": true,
      "inputs": [
        {
          "name": "tokenOwner",
          "type": "address"
        },
        {
          "name": "spender",
          "type": "address"
        }
      ],
      "name": "allowance",
      "outputs": [
        {
          "name": "",
          "type": "uint256"
        }
      ],
      "payable": false,
      "stateMutability": "view",
      "type": "function"
    },
    {
      "constant": false,
      "inputs": [
        {
          "name": "newOwner",
          "type": "address"
        }
      ],
      "name": "transferOwnership",
      "outputs": [],
      "payable": false,
      "stateMutability": "nonpayable",
      "type": "function"
    },
    {
      "anonymous": false,
      "inputs": [
        {
          "indexed": true,
          "name": "previousOwner",
          "type": "address"
        },
        {
          "indexed": true,
          "name": "newOwner",
          "type": "address"
        }
      ],
      "name": "OwnershipTransferred",
      "type": "event"
    },
    {
      "anonymous": false,
      "inputs": [
        {
          "indexed": true,
          "name": "tokenOwner",
          "type": "address"
        },
        {
          "indexed": true,
          "name": "spender",
          "type": "address"
        },
        {
          "indexed": false,
          "name": "tokens",
          "type": "uint256"
        }
      ],
      "name": "Approval",
      "type": "event"
    },
    {
      "anonymous": false,
      "inputs": [
        {
          "indexed": true,
          "name": "from",
          "type": "address"
        },
        {
          "indexed": true,
          "name": "to",
          "type": "address"
        },
        {
          "indexed": false,
          "name": "tokens",
          "type": "uint256"
        }
      ],
      "name": "Transfer",
      "type": "event"
    },
    {
      "constant": false,
      "inputs": [
        {
          "name": "_name",
          "type": "bytes32"
        },
        {
          "name": "_owner",
          "type": "address"
        },
        {
          "name": "_product",
          "type": "bytes32"
        },
        {
          "name": "_symbol",
          "type": "bytes32"
        }
      ],
      "name": "initialize",
      "outputs": [],
      "payable": false,
      "stateMutability": "nonpayable",
      "type": "function"
    },
    {
      "constant": false,
      "inputs": [
        {
          "name": "sender",
          "type": "address"
        }
      ],
      "name": "initialize",
      "outputs": [],
      "payable": false,
      "stateMutability": "nonpayable",
      "type": "function"
    },
    {
      "constant": false,
      "inputs": [
        {
          "name": "amount",
          "type": "bytes16"
        }
      ],
      "name": "addTotalSupply",
      "outputs": [],
      "payable": false,
      "stateMutability": "nonpayable",
      "type": "function"
    },
    {
      "constant": false,
      "inputs": [
        {
          "name": "amount",
          "type": "bytes16"
        }
      ],
      "name": "reduceSupply",
      "outputs": [],
      "payable": false,
      "stateMutability": "nonpayable",
      "type": "function"
    },
    {
      "constant": false,
      "inputs": [
        {
          "name": "party",
          "type": "address"
        },
        {
          "name": "amount",
          "type": "bytes16"
        }
      ],
      "name": "addBalance",
      "outputs": [],
      "payable": false,
      "stateMutability": "nonpayable",
      "type": "function"
    },
    {
      "constant": false,
      "inputs": [
        {
          "name": "party",
          "type": "address"
        },
        {
          "name": "amount",
          "type": "bytes16"
        }
      ],
      "name": "reduceBalance",
      "outputs": [],
      "payable": false,
      "stateMutability": "nonpayable",
      "type": "function"
    },
    {
      "constant": false,
      "inputs": [
        {
          "name": "sender",
          "type": "address"
        },
        {
          "name": "receiver",
          "type": "address"
        },
        {
          "name": "tokens",
          "type": "uint256"
        }
      ],
      "name": "transferFrom",
      "outputs": [
        {
          "name": "",
          "type": "bool"
        }
      ],
      "payable": false,
      "stateMutability": "nonpayable",
      "type": "function"
    },
    {
      "constant": false,
      "inputs": [
        {
          "name": "sender",
          "type": "address"
        },
        {
          "name": "receiver",
          "type": "address"
        },
        {
          "name": "tokens",
          "type": "uint256"
        }
      ],
      "name": "transferToken",
      "outputs": [
        {
          "name": "",
          "type": "bool"
        }
      ],
      "payable": false,
      "stateMutability": "nonpayable",
      "type": "function"
    }
  ],
  "bytecode": "0x60806040526114c8806100136000396000f3fe608060405234801561001057600080fd5b506004361061014d5760003560e01c80638da5cb5b116100c3578063bf9ce9521161007c578063bf9ce952146103ae578063c4d66de8146103b6578063dd62ed3e146103dc578063f16725911461040a578063f2fde38b14610431578063f5537ede146104575761014d565b80638da5cb5b146102fc5780638f32d59b1461030457806395d89b411461030c578063a49b8a4c14610314578063a9059cbb1461034a578063b3f15e75146103765761014d565b806323b872dd1161011557806323b872dd1461020157806327e235e314610237578063313ce5671461027a5780634c0992871461029857806370a08231146102ce578063715018a6146102f45761014d565b8063014153331461015257806306fdde031461017b578063095ea7b31461019557806318160ddd146101d55780631d143848146101dd575b600080fd5b6101796004803603602081101561016857600080fd5b50356001600160801b03191661048d565b005b6101836104ba565b60408051918252519081900360200190f35b6101c1600480360360408110156101ab57600080fd5b506001600160a01b0381351690602001356104c0565b604080519115158252519081900360200190f35b610183610548565b6101e561055f565b604080516001600160a01b039092168252519081900360200190f35b6101c16004803603606081101561021757600080fd5b506001600160a01b0381358116916020810135909116906040013561056e565b61025d6004803603602081101561024d57600080fd5b50356001600160a01b0316610694565b604080516001600160801b03199092168252519081900360200190f35b6102826106a9565b6040805160ff9092168252519081900360200190f35b610179600480360360408110156102ae57600080fd5b5080356001600160a01b031690602001356001600160801b0319166106b9565b610183600480360360208110156102e457600080fd5b50356001600160a01b0316610715565b610179610742565b6101e56107e8565b6101c16107f7565b61018361081d565b6101796004803603604081101561032a57600080fd5b5080356001600160a01b031690602001356001600160801b031916610823565b6101c16004803603604081101561036057600080fd5b506001600160a01b038135169060200135610849565b6101796004803603608081101561038c57600080fd5b508035906001600160a01b036020820135169060408101359060600135610974565b6101836109d0565b610179600480360360208110156103cc57600080fd5b50356001600160a01b03166109d6565b610183600480360360408110156103f257600080fd5b506001600160a01b0381358116916020013516610acb565b6101796004803603602081101561042057600080fd5b50356001600160801b031916610aff565b6101796004803603602081101561044757600080fd5b50356001600160a01b0316610b0f565b6101c16004803603606081101561046d57600080fd5b506001600160a01b03813581169160208101359091169060400135610b77565b60015461049d9060801b82610c6d565b600180546001600160801b03191660809290921c91909117905550565b606a5481565b60006104cb8261109f565b3360008181526003602090815260408083206001600160a01b0389168085529083529281902080546001600160801b03191660809690961c959095179094558351868152935191937f8c5be1e5ebec7d5bd14f71427d1e84f3dd0314c0f7b2291e5b200ac8c7c3b925929081900390910190a35060015b92915050565b60015460009061055a9060801b611104565b905090565b6000546001600160a01b031681565b6001600160a01b03831660009081526002602052604081205461059c9060801b6105978461109f565b61119c565b60000b600114806105d657506001600160a01b0384166000908152600260205260409020546105d19060801b6105978461109f565b60000b155b6105df57600080fd5b606d54606c5460408051600160e01b6389063c8b02815260048101929092523060248301526001600160a01b03878116604484015286811660648401526084830186905290519216916389063c8b9160a4808201926020929091908290030181600087803b15801561065057600080fd5b505af1158015610664573d6000803e3d6000fd5b505050506040513d602081101561067a57600080fd5b5051156106895750600161068d565b5060005b9392505050565b60026020526000908152604090205460801b81565b600054600160a01b900460ff1681565b6001600160a01b0382166000908152600260205260409020546106df9060801b826112e5565b6001600160a01b0392909216600090815260026020526040902080546001600160801b03191660809390931c9290921790915550565b6001600160a01b03811660009081526002602052604081205461073a9060801b611104565b90505b919050565b61074a6107f7565b61079e5760408051600160e51b62461bcd02815260206004820181905260248201527f4f776e61626c653a2063616c6c6572206973206e6f7420746865206f776e6572604482015290519081900360640190fd5b6037546040516000916001600160a01b0316907f8be0079c531659141344cd1fd0a4f28419497f9722a3daafe3b4186f6b6457e0908390a3603780546001600160a01b0319169055565b6037546001600160a01b031690565b6037546000906001600160a01b031661080e6112f7565b6001600160a01b031614905090565b606c5481565b6001600160a01b0382166000908152600260205260409020546106df9060801b82610c6d565b600061086f6108578361109f565b3060009081526002602052604090205460801b61119c565b60000b600019148061088d57506108886108578361109f565b60000b155b61089657600080fd5b306000908152600260205260409020546108bb9060801b6108b68461109f565b6112e5565b3060009081526002602052604080822080546001600160801b031916608094851c1790556001600160a01b0386168252902054610901911b6108fc8461109f565b610c6d565b6001600160a01b03841660008181526002602090815260409182902080546001600160801b03191660809590951c9490941790935580518581529051919230927fddf252ad1be2c89b69c2b068fc378daa952ba7f163c4a11628f55a4df523b3ef9281900390910190a350600192915050565b61097d836109d6565b606d80546001600160a01b0319166001600160a01b039490941693909317909255606a92909255606c55606b556000805474ff00000000000000000000000000000000000000001916600160a11b179055565b606b5481565b600454610100900460ff16806109ef57506109ef6112fb565b806109fd575060045460ff16155b610a3b57604051600160e51b62461bcd02815260040180806020018281038252602e81526020018061146f602e913960400191505060405180910390fd5b600454610100900460ff16158015610a66576004805460ff1961ff0019909116610100171660011790555b603780546001600160a01b0319166001600160a01b0384811691909117918290556040519116906000907f8be0079c531659141344cd1fd0a4f28419497f9722a3daafe3b4186f6b6457e0908290a38015610ac7576004805461ff00191690555b5050565b6001600160a01b03808316600090815260036020908152604080832093851683529290529081205461068d9060801b611104565b60015461049d9060801b826112e5565b610b176107f7565b610b6b5760408051600160e51b62461bcd02815260206004820181905260248201527f4f776e61626c653a2063616c6c6572206973206e6f7420746865206f776e6572604482015290519081900360640190fd5b610b7481611301565b50565b6000610ba6610b858361109f565b6001600160a01b03861660009081526002602052604090205460801b61119c565b60000b6000191480610bc45750610bbf610b858361109f565b60000b155b15610689576001600160a01b038416600090815260026020526040902054610bf29060801b6108b68461109f565b6001600160a01b0385811660009081526002602052604080822080546001600160801b031916608095861c17905591861681522054610c35911b6108fc8461109f565b6001600160a01b038416600090815260026020526040902080546001600160801b03191660809290921c91909117905550600161068d565b6000617fff6001600160801b03608085811c8216607090811c8416939186901c90921690911c811690821415610ce35780617fff1415610cd9576001600160801b03198581169085161415610cc6578492505050610542565b50600160ef1b61ffff0291506105429050565b8492505050610542565b80617fff1415610cf7578392505050610542565b6001607f1b608086901c6001600160801b0381169190911015906001600160701b031683610d285760019350610d2f565b600160701b175b6001607f1b608087901c6001600160801b0381169190911015906001600160701b031684610d605760019450610d67565b600160701b175b82610d97576001600160801b03198816600160ff1b14610d875787610d8a565b60005b9650505050505050610542565b80610db7576001600160801b03198916600160ff1b14610d875788610d8a565b8486038415158315151415610edd576070811315610dde5789975050505050505050610542565b6000811315610dfd5780826000821215610df457fe5b901c9150610e37565b606f19811215610e165788975050505050505050610542565b6000811215610e375780600003846000821215610e2f57fe5b901c93508596505b92810192600160711b8410610e52576001968701969390931c925b86617fff1415610e875784610e6f57600160f01b617fff02610e79565b6001600160f01b03195b975050505050505050610542565b600160701b841015610e9c5760009650610ea9565b6001600160701b03841693505b83607088901b86610ebb576000610ec1565b6001607f1b5b6001600160801b0316171760801b975050505050505050610542565b6000811315610ef857600184901b9350600187039650610f0f565b6000811215610f0f57600182901b91506001860396505b6070811315610f215760019150610f84565b6001811315610f495760018103600183036000821215610f3d57fe5b901c6001019150610f84565b606f19811215610f5c5760019350610f84565b600019811215610f845760018160000303600185036000821215610f7c57fe5b901c60010193505b818410610f95578184039350610f9e565b83820393508294505b83610fb457506000965061054295505050505050565b6000610fbf856113a5565b90508060711415610fe557600185901c6001600160701b03169450600188019750611034565b607081101561102757607081900380891115611014578086901b6001600160701b031695508089039850611021565b600098600019019590951b945b50611034565b6001600160701b03851694505b87617fff141561106a578561105157600160f01b617fff0261105b565b6001600160f01b03195b98505050505050505050610542565b84607089901b8761107c576000611082565b6001607f1b5b6001600160801b0316171760801b98505050505050505050610542565b6000816110ae5750600061073d565b8160006110ba826113a5565b905060708110156110d3578060700382901b91506110e6565b60708111156110e6576070810382901c91505b613fff0160701b6001600160701b03919091161760801b905061073d565b6000617fff6001600160801b03608084901c1660701c16613fff81101561112f57600091505061073d565b6001607f1b8360801c6001600160801b03161061114b57600080fd5b6140fe81111561115a57600080fd5b600160701b6001600160701b03608085901c161761406f8210156111845761406f8290031c61068d565b61406f82111561068d5761406e1982011b9392505050565b600060016001607f1b03608084901c16600160701b617fff028111156111c157600080fd5b60016001607f1b03608084901c16600160701b617fff028111156111e457600080fd5b6001600160801b03198581169085161415806112105750600160701b617fff02826001600160801b0316105b61121957600080fd5b6001600160801b0319858116908516141561123957600092505050610542565b60006001607f1b8660801c6001600160801b03161015905060006001607f1b8660801c6001600160801b03161015905081156112a457801561129557826001600160801b0316846001600160801b031611611295576001611299565b6000195b945050505050610542565b80156112b7576001945050505050610542565b826001600160801b0316846001600160801b0316116112d857600019611299565b6001945050505050610542565b600061068d83600160ff1b8418610c6d565b3390565b303b1590565b6001600160a01b03811661134957604051600160e51b62461bcd0281526004018080602001828103825260268152602001806114496026913960400191505060405180910390fd5b6037546040516001600160a01b038084169216907f8be0079c531659141344cd1fd0a4f28419497f9722a3daafe3b4186f6b6457e090600090a3603780546001600160a01b0319166001600160a01b0392909216919091179055565b60008082116113b357600080fd5b6000600160801b83106113c857608092831c92015b6801000000000000000083106113e057604092831c92015b64010000000083106113f457602092831c92015b62010000831061140657601092831c92015b610100831061141757600892831c92015b6010831061142757600492831c92015b6004831061143757600292831c92015b6002831061073a576001019291505056fe4f776e61626c653a206e6577206f776e657220697320746865207a65726f2061646472657373436f6e747261637420696e7374616e63652068617320616c7265616479206265656e20696e697469616c697a6564a165627a7a72305820b74a6555820d332893d6c66b0f368c051c3d71a611619b3217eb34b7c05297570029",
  "source": "// (c) Kallol Borah, 2020\r\n// Implements token issued by Bond issuer. Can be reused by any financial product issuer\r\n\r\npragma solidity >=0.5.0 <0.7.0;\r\n\r\nimport \"./erc/ERC20.sol\";\r\nimport \"./Bond.sol\";\r\nimport \"@openzeppelin/upgrades/contracts/Initializable.sol\";\r\nimport \"@openzeppelin/contracts-ethereum-package/contracts/ownership/Ownable.sol\";\r\nimport \"abdk-libraries-solidity/ABDKMathQuad.sol\";\r\n\r\ncontract Token is ERC20, Initializable, Ownable {\r\n\r\n    //Via token attributes (eg, name : Via-USD, product : ViaBond, symbol : bond identifier)\r\n    bytes32 public name;\r\n    bytes32 public product;\r\n    bytes32 public symbol;\r\n    address payable issuer;\r\n\r\n    //initiliaze proxies\r\n    function initialize(bytes32 _name, address payable _owner, bytes32 _product, bytes32 _symbol) public {\r\n        Ownable.initialize(_owner);\r\n        issuer = _owner;\r\n        name = _name;\r\n        symbol = _symbol;\r\n        product = _product;\r\n        decimals = 2;\r\n    }\r\n\r\n    function addTotalSupply(bytes16 amount) external{\r\n        //adjust total supply\r\n        totalSupply_ = ABDKMathQuad.add(totalSupply_, amount);\r\n    }\r\n\r\n    function reduceSupply(bytes16 amount) external{        \r\n        totalSupply_ = ABDKMathQuad.sub(totalSupply_, amount);\r\n    }\r\n\r\n    function addBalance(address party, bytes16 amount) external{\r\n        //add via to this contract's balance first (ie issue them first)\r\n        balances[party] = ABDKMathQuad.add(balances[party], amount);\r\n    }\r\n\r\n    function reduceBalance(address party, bytes16 amount) external{\r\n        balances[party] = ABDKMathQuad.sub(balances[party], amount);\r\n    }\r\n\r\n    function transferFrom(address sender, address receiver, uint256 tokens) public returns (bool){\r\n        //ensure sender has enough tokens in balance before transferring or redeeming them\r\n        require(ABDKMathQuad.cmp(balances[sender],ABDKMathQuad.fromUInt(tokens))==1 ||\r\n                ABDKMathQuad.cmp(balances[sender],ABDKMathQuad.fromUInt(tokens))==0);\r\n        if(Bond(issuer).transferFoward(symbol, address(this), sender, receiver, tokens))\r\n            return true;\r\n        else\r\n            return false;\r\n    }\r\n\r\n    function transferToken(address sender, address receiver, uint256 tokens) public returns (bool){\r\n        //owner should have more tokens than being transferred\r\n        if(ABDKMathQuad.cmp(ABDKMathQuad.fromUInt(tokens), balances[sender])==-1 || ABDKMathQuad.cmp(ABDKMathQuad.fromUInt(tokens), balances[sender])==0){\r\n            //sending contract should be allowed by token owner to make this transfer\r\n            //require(ABDKMathQuad.cmp(ABDKMathQuad.fromUInt(tokens), allowed[sender][msg.sender])==-1 || ABDKMathQuad.cmp(ABDKMathQuad.fromUInt(tokens), allowed[sender][msg.sender])==0);\r\n            balances[sender] = ABDKMathQuad.sub(balances[sender], ABDKMathQuad.fromUInt(tokens));\r\n            //allowed[sender][msg.sender] = ABDKMathQuad.sub(allowed[sender][msg.sender], ABDKMathQuad.fromUInt(tokens));\r\n            balances[receiver] = ABDKMathQuad.add(balances[receiver], ABDKMathQuad.fromUInt(tokens));\r\n            return true;\r\n        }\r\n        return false;\r\n    }    \r\n\r\n}",
  "sourcePath": "D:\\verified\\via-issuer\\contracts\\Token.sol",
  "compiler": {
    "name": "solc",
    "version": "0.5.7+commit.6da8b019.Emscripten.clang"
  },
  "schemaVersion": "3.2.5",
  "updatedAt": "2020-10-06T05:42:19.308Z",
  "devdoc": {
    "methods": {
      "initialize(address)": {
        "details": "Initializes the contract setting the deployer as the initial owner.\r"
      },
      "isOwner()": {
        "details": "Returns true if the caller is the current owner.\r"
      },
      "owner()": {
        "details": "Returns the address of the current owner.\r"
      },
      "renounceOwnership()": {
        "details": "Leaves the contract without owner. It will not be possible to call\r `onlyOwner` functions anymore. Can only be called by the current owner.\r      * > Note: Renouncing ownership will leave the contract without an owner,\r thereby removing any functionality that is only available to the owner.\r"
      },
      "transferOwnership(address)": {
        "details": "Transfers ownership of the contract to a new account (`newOwner`).\r Can only be called by the current owner.\r"
      }
    }
  },
  "userdoc": {
    "methods": {}
  }
}