{
  "contractName": "Token",
  "abi": [
    {
      "constant": true,
      "inputs": [],
      "name": "name",
      "outputs": [
        {
          "name": "",
          "type": "string"
        }
      ],
      "payable": false,
      "stateMutability": "view",
      "type": "function"
    },
    {
      "constant": false,
      "inputs": [
        {
          "name": "spender",
          "type": "address"
        },
        {
          "name": "tokens",
          "type": "uint256"
        }
      ],
      "name": "approve",
      "outputs": [
        {
          "name": "",
          "type": "bool"
        }
      ],
      "payable": false,
      "stateMutability": "nonpayable",
      "type": "function"
    },
    {
      "constant": true,
      "inputs": [],
      "name": "totalSupply",
      "outputs": [
        {
          "name": "",
          "type": "uint256"
        }
      ],
      "payable": false,
      "stateMutability": "view",
      "type": "function"
    },
    {
      "constant": true,
      "inputs": [
        {
          "name": "",
          "type": "address"
        }
      ],
      "name": "balances",
      "outputs": [
        {
          "name": "",
          "type": "bytes16"
        }
      ],
      "payable": false,
      "stateMutability": "view",
      "type": "function"
    },
    {
      "constant": true,
      "inputs": [],
      "name": "decimals",
      "outputs": [
        {
          "name": "",
          "type": "uint8"
        }
      ],
      "payable": false,
      "stateMutability": "view",
      "type": "function"
    },
    {
      "constant": true,
      "inputs": [
        {
          "name": "tokenOwner",
          "type": "address"
        }
      ],
      "name": "balanceOf",
      "outputs": [
        {
          "name": "",
          "type": "uint256"
        }
      ],
      "payable": false,
      "stateMutability": "view",
      "type": "function"
    },
    {
      "constant": false,
      "inputs": [],
      "name": "renounceOwnership",
      "outputs": [],
      "payable": false,
      "stateMutability": "nonpayable",
      "type": "function"
    },
    {
      "constant": true,
      "inputs": [],
      "name": "tokenSymbol",
      "outputs": [
        {
          "name": "",
          "type": "bytes32"
        }
      ],
      "payable": false,
      "stateMutability": "view",
      "type": "function"
    },
    {
      "constant": true,
      "inputs": [],
      "name": "owner",
      "outputs": [
        {
          "name": "",
          "type": "address"
        }
      ],
      "payable": false,
      "stateMutability": "view",
      "type": "function"
    },
    {
      "constant": true,
      "inputs": [],
      "name": "isOwner",
      "outputs": [
        {
          "name": "",
          "type": "bool"
        }
      ],
      "payable": false,
      "stateMutability": "view",
      "type": "function"
    },
    {
      "constant": true,
      "inputs": [],
      "name": "symbol",
      "outputs": [
        {
          "name": "",
          "type": "string"
        }
      ],
      "payable": false,
      "stateMutability": "view",
      "type": "function"
    },
    {
      "constant": false,
      "inputs": [
        {
          "name": "receiver",
          "type": "address"
        },
        {
          "name": "tokens",
          "type": "uint256"
        }
      ],
      "name": "transfer",
      "outputs": [
        {
          "name": "",
          "type": "bool"
        }
      ],
      "payable": false,
      "stateMutability": "nonpayable",
      "type": "function"
    },
    {
      "constant": true,
      "inputs": [],
      "name": "product",
      "outputs": [
        {
          "name": "",
          "type": "bytes32"
        }
      ],
      "payable": false,
      "stateMutability": "view",
      "type": "function"
    },
    {
      "constant": true,
      "inputs": [
        {
          "name": "tokenOwner",
          "type": "address"
        },
        {
          "name": "spender",
          "type": "address"
        }
      ],
      "name": "allowance",
      "outputs": [
        {
          "name": "",
          "type": "uint256"
        }
      ],
      "payable": false,
      "stateMutability": "view",
      "type": "function"
    },
    {
      "constant": false,
      "inputs": [
        {
          "name": "newOwner",
          "type": "address"
        }
      ],
      "name": "transferOwnership",
      "outputs": [],
      "payable": false,
      "stateMutability": "nonpayable",
      "type": "function"
    },
    {
      "anonymous": false,
      "inputs": [
        {
          "indexed": true,
          "name": "previousOwner",
          "type": "address"
        },
        {
          "indexed": true,
          "name": "newOwner",
          "type": "address"
        }
      ],
      "name": "OwnershipTransferred",
      "type": "event"
    },
    {
      "anonymous": false,
      "inputs": [
        {
          "indexed": true,
          "name": "tokenOwner",
          "type": "address"
        },
        {
          "indexed": true,
          "name": "spender",
          "type": "address"
        },
        {
          "indexed": false,
          "name": "tokens",
          "type": "uint256"
        }
      ],
      "name": "Approval",
      "type": "event"
    },
    {
      "anonymous": false,
      "inputs": [
        {
          "indexed": true,
          "name": "from",
          "type": "address"
        },
        {
          "indexed": true,
          "name": "to",
          "type": "address"
        },
        {
          "indexed": false,
          "name": "tokens",
          "type": "uint256"
        }
      ],
      "name": "Transfer",
      "type": "event"
    },
    {
      "constant": false,
      "inputs": [
        {
          "name": "_factory",
          "type": "address"
        },
        {
          "name": "_name",
          "type": "bytes32"
        },
        {
          "name": "_owner",
          "type": "address"
        },
        {
          "name": "_product",
          "type": "bytes32"
        },
        {
          "name": "_symbol",
          "type": "bytes32"
        }
      ],
      "name": "initialize",
      "outputs": [],
      "payable": false,
      "stateMutability": "nonpayable",
      "type": "function"
    },
    {
      "constant": false,
      "inputs": [
        {
          "name": "sender",
          "type": "address"
        }
      ],
      "name": "initialize",
      "outputs": [],
      "payable": false,
      "stateMutability": "nonpayable",
      "type": "function"
    },
    {
      "constant": false,
      "inputs": [
        {
          "name": "amount",
          "type": "bytes16"
        }
      ],
      "name": "addTotalSupply",
      "outputs": [],
      "payable": false,
      "stateMutability": "nonpayable",
      "type": "function"
    },
    {
      "constant": false,
      "inputs": [
        {
          "name": "amount",
          "type": "bytes16"
        }
      ],
      "name": "reduceSupply",
      "outputs": [],
      "payable": false,
      "stateMutability": "nonpayable",
      "type": "function"
    },
    {
      "constant": false,
      "inputs": [
        {
          "name": "party",
          "type": "address"
        },
        {
          "name": "amount",
          "type": "bytes16"
        }
      ],
      "name": "addBalance",
      "outputs": [],
      "payable": false,
      "stateMutability": "nonpayable",
      "type": "function"
    },
    {
      "constant": false,
      "inputs": [
        {
          "name": "party",
          "type": "address"
        },
        {
          "name": "amount",
          "type": "bytes16"
        }
      ],
      "name": "reduceBalance",
      "outputs": [],
      "payable": false,
      "stateMutability": "nonpayable",
      "type": "function"
    },
    {
      "constant": false,
      "inputs": [
        {
          "name": "sender",
          "type": "address"
        },
        {
          "name": "receiver",
          "type": "address"
        },
        {
          "name": "tokens",
          "type": "uint256"
        }
      ],
      "name": "transferFrom",
      "outputs": [
        {
          "name": "",
          "type": "bool"
        }
      ],
      "payable": false,
      "stateMutability": "nonpayable",
      "type": "function"
    },
    {
      "constant": false,
      "inputs": [
        {
          "name": "sender",
          "type": "address"
        },
        {
          "name": "receiver",
          "type": "address"
        },
        {
          "name": "tokens",
          "type": "uint256"
        }
      ],
      "name": "transferToken",
      "outputs": [
        {
          "name": "",
          "type": "bool"
        }
      ],
      "payable": false,
      "stateMutability": "nonpayable",
      "type": "function"
    },
    {
      "constant": false,
      "inputs": [
        {
          "name": "receiver",
          "type": "address"
        },
        {
          "name": "tokens",
          "type": "uint256"
        }
      ],
      "name": "requestTransfer",
      "outputs": [
        {
          "name": "",
          "type": "bool"
        }
      ],
      "payable": false,
      "stateMutability": "nonpayable",
      "type": "function"
    },
    {
      "constant": false,
      "inputs": [
        {
          "name": "amount",
          "type": "bytes16"
        },
        {
          "name": "payer",
          "type": "address"
        },
        {
          "name": "currency",
          "type": "bytes32"
        },
        {
          "name": "cashContract",
          "type": "address"
        }
      ],
      "name": "requestIssue",
      "outputs": [
        {
          "name": "",
          "type": "bool"
        }
      ],
      "payable": false,
      "stateMutability": "nonpayable",
      "type": "function"
    }
  ],
  "bytecode": "0x6080604052611aba806100136000396000f3fe608060405234801561001057600080fd5b50600436106101735760003560e01c80638da5cb5b116100de578063be06acfb11610097578063dd62ed3e11610071578063dd62ed3e146104f1578063f16725911461051f578063f2fde38b14610546578063f5537ede1461056c57610173565b8063be06acfb14610483578063bf9ce952146104c3578063c4d66de8146104cb57610173565b80638da5cb5b146103c15780638f32d59b146103e557806395d89b41146103ed578063a49b8a4c146103f5578063a9059cbb1461042b578063aa5fc7941461045757610173565b80632c5fc01d116101305780632c5fc01d146102f1578063313ce567146103375780634c0992871461035557806370a082311461038b578063715018a6146103b15780637b61c320146103b957610173565b8063014153331461017857806306fdde03146101a1578063095ea7b31461021e57806318160ddd1461025e57806323b872dd1461027857806327e235e3146102ae575b600080fd5b61019f6004803603602081101561018e57600080fd5b50356001600160801b0319166105a2565b005b6101a96105e6565b6040805160208082528351818301528351919283929083019185019080838360005b838110156101e35781810151838201526020016101cb565b50505050905090810190601f1680156102105780820380516001836020036101000a031916815260200191505b509250505060405180910390f35b61024a6004803603604081101561023457600080fd5b506001600160a01b038135169060200135610674565b604080519115158252519081900360200190f35b6102666106fc565b60408051918252519081900360200190f35b61024a6004803603606081101561028e57600080fd5b506001600160a01b03813581169160208101359091169060400135610714565b6102d4600480360360208110156102c457600080fd5b50356001600160a01b031661083b565b604080516001600160801b03199092168252519081900360200190f35b61024a6004803603608081101561030757600080fd5b506001600160801b0319813516906001600160a01b03602082013581169160408101359160609091013516610850565b61033f61099b565b6040805160ff9092168252519081900360200190f35b61019f6004803603604081101561036b57600080fd5b5080356001600160a01b031690602001356001600160801b0319166109ab565b610266600480360360208110156103a157600080fd5b50356001600160a01b0316610a1e565b61019f610a4b565b610266610af1565b6103c9610af7565b604080516001600160a01b039092168252519081900360200190f35b61024a610b06565b6101a9610b2c565b61019f6004803603604081101561040b57600080fd5b5080356001600160a01b031690602001356001600160801b031916610b87565b61024a6004803603604081101561044157600080fd5b506001600160a01b038135169060200135610bc4565b61024a6004803603604081101561046d57600080fd5b506001600160a01b038135169060200135610cef565b61019f600480360360a081101561049957600080fd5b506001600160a01b0381358116916020810135916040820135169060608101359060800135610d58565b610266610ec1565b61019f600480360360208110156104e157600080fd5b50356001600160a01b0316610ec7565b6102666004803603604081101561050757600080fd5b506001600160a01b0381358116916020013516610fbc565b61019f6004803603602081101561053557600080fd5b50356001600160801b031916610ff0565b61019f6004803603602081101561055c57600080fd5b50356001600160a01b0316611017565b61024a6004803603606081101561058257600080fd5b506001600160a01b0381358116916020810135909116906040013561107f565b6000546001600160a01b031633146105b957600080fd5b6001546105c99060801b826111c7565b600180546001600160801b03191660809290921c91909117905550565b606a805460408051602060026001851615610100026000190190941693909304601f8101849004840282018401909252818152929183018282801561066c5780601f106106415761010080835404028352916020019161066c565b820191906000526020600020905b81548152906001019060200180831161064f57829003601f168201915b505050505081565b600061067f826115f9565b3360008181526003602090815260408083206001600160a01b0389168085529083529281902080546001600160801b03191660809690961c959095179094558351868152935191937f8c5be1e5ebec7d5bd14f71427d1e84f3dd0314c0f7b2291e5b200ac8c7c3b925929081900390910190a35060015b92915050565b60015460009061070e9060801b61165e565b90505b90565b6001600160a01b0383166000908152600260205260408120546107429060801b61073d846115f9565b6116f6565b60000b6001148061077c57506001600160a01b0384166000908152600260205260409020546107779060801b61073d846115f9565b60000b155b61078557600080fd5b60008054606d5460408051600160e31b6303a12b6102815260048101929092523060248301526001600160a01b0388811660448401528781166064840152608483018790529051921692631d095b089260a4808401936020939083900390910190829087803b1580156107f757600080fd5b505af115801561080b573d6000803e3d6000fd5b505050506040513d602081101561082157600080fd5b50511561083057506001610834565b5060005b9392505050565b60026020526000908152604090205460801b81565b606e5460408051600160e01b63f429f19b02815233600482015290516000926001600160a01b03169163f429f19b916024808301926020929190829003018186803b15801561089e57600080fd5b505afa1580156108b2573d6000803e3d6000fd5b505050506040513d60208110156108c857600080fd5b5051600160cb1b660acd2c286c2e6d02146108e257600080fd5b6000805460408051600160e01b632c5fc01d0281526001600160801b0319891660048201526001600160a01b03888116602483015260448201889052868116606483015291519190921692632c5fc01d92608480820193602093909283900390910190829087803b15801561095657600080fd5b505af115801561096a573d6000803e3d6000fd5b505050506040513d602081101561098057600080fd5b50511561098f57506001610993565b5060005b949350505050565b600054600160a01b900460ff1681565b6000546001600160a01b031633146109c257600080fd5b6001600160a01b0382166000908152600260205260409020546109e89060801b8261183f565b6001600160a01b0392909216600090815260026020526040902080546001600160801b03191660809390931c9290921790915550565b6001600160a01b038116600090815260026020526040812054610a439060801b61165e565b90505b919050565b610a53610b06565b610aa75760408051600160e51b62461bcd02815260206004820181905260248201527f4f776e61626c653a2063616c6c6572206973206e6f7420746865206f776e6572604482015290519081900360640190fd5b6037546040516000916001600160a01b0316907f8be0079c531659141344cd1fd0a4f28419497f9722a3daafe3b4186f6b6457e0908390a3603780546001600160a01b0319169055565b606d5481565b6037546001600160a01b031690565b6037546000906001600160a01b0316610b1d611851565b6001600160a01b031614905090565b606c805460408051602060026001851615610100026000190190941693909304601f8101849004840282018401909252818152929183018282801561066c5780601f106106415761010080835404028352916020019161066c565b6000546001600160a01b03163314610b9e57600080fd5b6001600160a01b0382166000908152600260205260409020546109e89060801b826111c7565b6000610bea610bd2836115f9565b3060009081526002602052604090205460801b6116f6565b60000b6000191480610c085750610c03610bd2836115f9565b60000b155b610c1157600080fd5b30600090815260026020526040902054610c369060801b610c31846115f9565b61183f565b3060009081526002602052604080822080546001600160801b031916608094851c1790556001600160a01b0386168252902054610c7c911b610c77846115f9565b6111c7565b6001600160a01b03841660008181526002602090815260409182902080546001600160801b03191660809590951c9490941790935580518581529051919230927fddf252ad1be2c89b69c2b068fc378daa952ba7f163c4a11628f55a4df523b3ef9281900390910190a350600192915050565b600080546001600160a01b03163314610d0757600080fd5b610d118383610bc4565b506040805183815290516001600160a01b0385169130917fddf252ad1be2c89b69c2b068fc378daa952ba7f163c4a11628f55a4df523b3ef9181900360200190a392915050565b600454610100900460ff1680610d715750610d71611855565b80610d7f575060045460ff16155b610dbd57604051600160e51b62461bcd02815260040180806020018281038252602e815260200180611a61602e913960400191505060405180910390fd5b600454610100900460ff16158015610de8576004805460ff1961ff0019909116610100171660011790555b610df184610ec7565b606e80546001600160a01b038089166001600160a01b03199283161790925560008054928716929091169190911790556040805160208082018890528251808303820181529183019092528051610e4c92606a9201906119a2565b506040805160208082018590528251808303820181529183019092528051610e7892606c9201906119a2565b50606d829055606b8390556000805474ff00000000000000000000000000000000000000001916600160a11b1790558015610eb9576004805461ff00191690555b505050505050565b606b5481565b600454610100900460ff1680610ee05750610ee0611855565b80610eee575060045460ff16155b610f2c57604051600160e51b62461bcd02815260040180806020018281038252602e815260200180611a61602e913960400191505060405180910390fd5b600454610100900460ff16158015610f57576004805460ff1961ff0019909116610100171660011790555b603780546001600160a01b0319166001600160a01b0384811691909117918290556040519116906000907f8be0079c531659141344cd1fd0a4f28419497f9722a3daafe3b4186f6b6457e0908290a38015610fb8576004805461ff00191690555b5050565b6001600160a01b0380831660009081526003602090815260408083209385168352929052908120546108349060801b61165e565b6000546001600160a01b0316331461100757600080fd5b6001546105c99060801b8261183f565b61101f610b06565b6110735760408051600160e51b62461bcd02815260206004820181905260248201527f4f776e61626c653a2063616c6c6572206973206e6f7420746865206f776e6572604482015290519081900360640190fd5b61107c8161185b565b50565b600080546001600160a01b0316331461109757600080fd5b6110c46110a3836115f9565b6001600160a01b03861660009081526002602052604090205460801b6116f6565b60000b60001914806110e257506110dd6110a3836115f9565b60000b155b15610830576001600160a01b0384166000908152600260205260409020546111109060801b610c31846115f9565b6001600160a01b0385811660009081526002602052604080822080546001600160801b031916608095861c17905591861681522054611153911b610c77846115f9565b6001600160a01b0384811660008181526002602090815260409182902080546001600160801b03191660809690961c95909517909455805186815290519193928816927fddf252ad1be2c89b69c2b068fc378daa952ba7f163c4a11628f55a4df523b3ef92918290030190a3506001610834565b6000617fff6001600160801b03608085811c8216607090811c8416939186901c90921690911c81169082141561123d5780617fff1415611233576001600160801b031985811690851614156112205784925050506106f6565b50600160ef1b61ffff0291506106f69050565b84925050506106f6565b80617fff14156112515783925050506106f6565b6001607f1b608086901c6001600160801b0381169190911015906001600160701b0316836112825760019350611289565b600160701b175b6001607f1b608087901c6001600160801b0381169190911015906001600160701b0316846112ba57600194506112c1565b600160701b175b826112f1576001600160801b03198816600160ff1b146112e157876112e4565b60005b96505050505050506106f6565b80611311576001600160801b03198916600160ff1b146112e157886112e4565b848603841515831515141561143757607081131561133857899750505050505050506106f6565b6000811315611357578082600082121561134e57fe5b901c9150611391565b606f1981121561137057889750505050505050506106f6565b6000811215611391578060000384600082121561138957fe5b901c93508596505b92810192600160711b84106113ac576001968701969390931c925b86617fff14156113e157846113c957600160f01b617fff026113d3565b6001600160f01b03195b9750505050505050506106f6565b600160701b8410156113f65760009650611403565b6001600160701b03841693505b83607088901b8661141557600061141b565b6001607f1b5b6001600160801b0316171760801b9750505050505050506106f6565b600081131561145257600184901b9350600187039650611469565b600081121561146957600182901b91506001860396505b607081131561147b57600191506114de565b60018113156114a3576001810360018303600082121561149757fe5b901c60010191506114de565b606f198112156114b657600193506114de565b6000198112156114de57600181600003036001850360008212156114d657fe5b901c60010193505b8184106114ef5781840393506114f8565b83820393508294505b8361150e5750600096506106f695505050505050565b6000611519856118ff565b9050806071141561153f57600185901c6001600160701b0316945060018801975061158e565b60708110156115815760708190038089111561156e578086901b6001600160701b03169550808903985061157b565b600098600019019590951b945b5061158e565b6001600160701b03851694505b87617fff14156115c457856115ab57600160f01b617fff026115b5565b6001600160f01b03195b985050505050505050506106f6565b84607089901b876115d65760006115dc565b6001607f1b5b6001600160801b0316171760801b985050505050505050506106f6565b60008161160857506000610a46565b816000611614826118ff565b9050607081101561162d578060700382901b9150611640565b6070811115611640576070810382901c91505b613fff0160701b6001600160701b03919091161760801b9050610a46565b6000617fff6001600160801b03608084901c1660701c16613fff811015611689576000915050610a46565b6001607f1b8360801c6001600160801b0316106116a557600080fd5b6140fe8111156116b457600080fd5b600160701b6001600160701b03608085901c161761406f8210156116de5761406f8290031c610834565b61406f8211156108345761406e1982011b9392505050565b600060016001607f1b03608084901c16600160701b617fff0281111561171b57600080fd5b60016001607f1b03608084901c16600160701b617fff0281111561173e57600080fd5b6001600160801b031985811690851614158061176a5750600160701b617fff02826001600160801b0316105b61177357600080fd5b6001600160801b03198581169085161415611793576000925050506106f6565b60006001607f1b8660801c6001600160801b03161015905060006001607f1b8660801c6001600160801b03161015905081156117fe5780156117ef57826001600160801b0316846001600160801b0316116117ef5760016117f3565b6000195b9450505050506106f6565b80156118115760019450505050506106f6565b826001600160801b0316846001600160801b031611611832576000196117f3565b60019450505050506106f6565b600061083483600160ff1b84186111c7565b3390565b303b1590565b6001600160a01b0381166118a357604051600160e51b62461bcd028152600401808060200182810382526026815260200180611a3b6026913960400191505060405180910390fd5b6037546040516001600160a01b038084169216907f8be0079c531659141344cd1fd0a4f28419497f9722a3daafe3b4186f6b6457e090600090a3603780546001600160a01b0319166001600160a01b0392909216919091179055565b600080821161190d57600080fd5b6000600160801b831061192257608092831c92015b68010000000000000000831061193a57604092831c92015b640100000000831061194e57602092831c92015b62010000831061196057601092831c92015b610100831061197157600892831c92015b6010831061198157600492831c92015b6004831061199157600292831c92015b60028310610a435760010192915050565b828054600181600116156101000203166002900490600052602060002090601f016020900481019282601f106119e357805160ff1916838001178555611a10565b82800160010185558215611a10579182015b82811115611a105782518255916020019190600101906119f5565b50611a1c929150611a20565b5090565b61071191905b80821115611a1c5760008155600101611a2656fe4f776e61626c653a206e6577206f776e657220697320746865207a65726f2061646472657373436f6e747261637420696e7374616e63652068617320616c7265616479206265656e20696e697469616c697a6564a165627a7a723058200c24b6d12a3f6ee13609f97f550353e1becabcf834ce54c8193384a1ed5cbe3f0029",
  "source": "// (c) Kallol Borah, 2020\r\n// Implements token issued by Bond issuer. Can be reused by any financial product issuer\r\n// SPDX-License-Identifier: MIT\r\n\r\npragma solidity 0.5.7;\r\n\r\nimport \"./erc/ERC20.sol\";\r\nimport \"./interfaces/ViaBond.sol\";\r\nimport \"./interfaces/ViaToken.sol\";\r\nimport \"./interfaces/ViaFactory.sol\";\r\nimport \"@openzeppelin/upgrades/contracts/Initializable.sol\";\r\nimport \"@openzeppelin/contracts-ethereum-package/contracts/ownership/Ownable.sol\";\r\nimport \"abdk-libraries-solidity/ABDKMathQuad.sol\";\r\nimport \"./utilities/StringUtils.sol\";\r\n\r\ncontract Token is ViaToken, ERC20, Initializable, Ownable {\r\n\r\n    using stringutils for *;\r\n\r\n    //Via token attributes (eg, name : Via-USD, product : ViaBond, symbol : bond identifier)\r\n    string public name;\r\n    bytes32 public product;\r\n    string public symbol;\r\n    bytes32 public tokenSymbol;\r\n\r\n    ViaFactory private factory;\r\n\r\n    //initiliaze proxies\r\n    function initialize(address _factory, bytes32 _name, address payable _owner, bytes32 _product, bytes32 _symbol) public initializer{\r\n        Ownable.initialize(_owner);\r\n        factory = ViaFactory(_factory);\r\n        issuer = _owner;\r\n        name = string(abi.encodePacked(_name));\r\n        symbol = string(abi.encodePacked(_symbol));\r\n        tokenSymbol = _symbol;\r\n        product = _product;\r\n        decimals = 2;\r\n    }\r\n\r\n    function addTotalSupply(bytes16 amount) external{\r\n        require(issuer==msg.sender);\r\n        //adjust total supply\r\n        totalSupply_ = ABDKMathQuad.add(totalSupply_, amount);\r\n    }\r\n\r\n    function reduceSupply(bytes16 amount) external{        \r\n        require(issuer==msg.sender);\r\n        totalSupply_ = ABDKMathQuad.sub(totalSupply_, amount);\r\n    }\r\n\r\n    function addBalance(address party, bytes16 amount) external{\r\n        require(issuer==msg.sender);\r\n        //add via to this contract's balance first (ie issue them first)\r\n        balances[party] = ABDKMathQuad.add(balances[party], amount);\r\n    }\r\n\r\n    function reduceBalance(address party, bytes16 amount) external{\r\n        require(issuer==msg.sender);\r\n        balances[party] = ABDKMathQuad.sub(balances[party], amount);\r\n    }\r\n\r\n    function transferFrom(address sender, address receiver, uint256 tokens) public returns (bool){\r\n        //ensure sender has enough tokens in balance before transferring or redeeming them\r\n        require(ABDKMathQuad.cmp(balances[sender],ABDKMathQuad.fromUInt(tokens))==1 ||\r\n                ABDKMathQuad.cmp(balances[sender],ABDKMathQuad.fromUInt(tokens))==0);\r\n        if(ViaBond(issuer).transferForward(tokenSymbol, address(this), sender, receiver, tokens))\r\n            return true;\r\n        else\r\n            return false;\r\n    }\r\n\r\n    function transferToken(address sender, address receiver, uint256 tokens) external returns (bool){\r\n        require(issuer==msg.sender);\r\n        //owner should have more tokens than being transferred\r\n        if(ABDKMathQuad.cmp(ABDKMathQuad.fromUInt(tokens), balances[sender])==-1 || ABDKMathQuad.cmp(ABDKMathQuad.fromUInt(tokens), balances[sender])==0){\r\n            //sending contract should be allowed by token owner to make this transfer\r\n            //require(ABDKMathQuad.cmp(ABDKMathQuad.fromUInt(tokens), allowed[sender][msg.sender])==-1 || ABDKMathQuad.cmp(ABDKMathQuad.fromUInt(tokens), allowed[sender][msg.sender])==0);\r\n            balances[sender] = ABDKMathQuad.sub(balances[sender], ABDKMathQuad.fromUInt(tokens));\r\n            //allowed[sender][msg.sender] = ABDKMathQuad.sub(allowed[sender][msg.sender], ABDKMathQuad.fromUInt(tokens));\r\n            balances[receiver] = ABDKMathQuad.add(balances[receiver], ABDKMathQuad.fromUInt(tokens));\r\n            emit Transfer(sender, receiver, tokens);\r\n            return true;\r\n        }\r\n        return false;\r\n    }   \r\n\r\n    function requestTransfer(address receiver, uint tokens) external returns (bool){\r\n        require(issuer==msg.sender);\r\n        transfer(receiver, tokens);\r\n        emit Transfer(address(this), receiver, tokens);\r\n    }  \r\n\r\n    function requestIssue(bytes16 amount, address payer, bytes32 currency, address cashContract) external returns(bool){\r\n        require(factory.getType(msg.sender) == \"ViaCash\");\r\n        if(ViaBond(issuer).requestIssue(amount, payer, currency, cashContract))\r\n            return true;\r\n        else\r\n            return false;\r\n    }  \r\n\r\n}\r\n",
  "sourcePath": "D:/Code/via-issuer/contracts/Token.sol",
  "compiler": {
    "name": "solc",
    "version": "0.5.7+commit.6da8b019.Emscripten.clang"
  },
  "schemaVersion": "3.3.3",
  "updatedAt": "2021-01-02T15:52:32.440Z",
  "devdoc": {
    "methods": {
      "initialize(address)": {
        "details": "Initializes the contract setting the deployer as the initial owner.\r"
      },
      "isOwner()": {
        "details": "Returns true if the caller is the current owner.\r"
      },
      "owner()": {
        "details": "Returns the address of the current owner.\r"
      },
      "renounceOwnership()": {
        "details": "Leaves the contract without owner. It will not be possible to call\r `onlyOwner` functions anymore. Can only be called by the current owner.\r      * > Note: Renouncing ownership will leave the contract without an owner,\r thereby removing any functionality that is only available to the owner.\r"
      },
      "transferOwnership(address)": {
        "details": "Transfers ownership of the contract to a new account (`newOwner`).\r Can only be called by the current owner.\r"
      }
    }
  },
  "userdoc": {
    "methods": {}
  }
}