{
  "contractName": "Token",
  "abi": [
    {
      "constant": true,
      "inputs": [],
      "name": "name",
      "outputs": [
        {
          "name": "",
          "type": "string"
        }
      ],
      "payable": false,
      "stateMutability": "view",
      "type": "function"
    },
    {
      "constant": false,
      "inputs": [
        {
          "name": "spender",
          "type": "address"
        },
        {
          "name": "tokens",
          "type": "uint256"
        }
      ],
      "name": "approve",
      "outputs": [
        {
          "name": "",
          "type": "bool"
        }
      ],
      "payable": false,
      "stateMutability": "nonpayable",
      "type": "function"
    },
    {
      "constant": true,
      "inputs": [],
      "name": "totalSupply",
      "outputs": [
        {
          "name": "",
          "type": "uint256"
        }
      ],
      "payable": false,
      "stateMutability": "view",
      "type": "function"
    },
    {
      "constant": true,
      "inputs": [],
      "name": "issuer",
      "outputs": [
        {
          "name": "",
          "type": "address"
        }
      ],
      "payable": false,
      "stateMutability": "view",
      "type": "function"
    },
    {
      "constant": true,
      "inputs": [
        {
          "name": "",
          "type": "address"
        }
      ],
      "name": "balances",
      "outputs": [
        {
          "name": "",
          "type": "bytes16"
        }
      ],
      "payable": false,
      "stateMutability": "view",
      "type": "function"
    },
    {
      "constant": true,
      "inputs": [],
      "name": "decimals",
      "outputs": [
        {
          "name": "",
          "type": "uint8"
        }
      ],
      "payable": false,
      "stateMutability": "view",
      "type": "function"
    },
    {
      "constant": true,
      "inputs": [
        {
          "name": "tokenOwner",
          "type": "address"
        }
      ],
      "name": "balanceOf",
      "outputs": [
        {
          "name": "",
          "type": "uint256"
        }
      ],
      "payable": false,
      "stateMutability": "view",
      "type": "function"
    },
    {
      "constant": false,
      "inputs": [],
      "name": "renounceOwnership",
      "outputs": [],
      "payable": false,
      "stateMutability": "nonpayable",
      "type": "function"
    },
    {
      "constant": true,
      "inputs": [],
      "name": "owner",
      "outputs": [
        {
          "name": "",
          "type": "address"
        }
      ],
      "payable": false,
      "stateMutability": "view",
      "type": "function"
    },
    {
      "constant": true,
      "inputs": [],
      "name": "isOwner",
      "outputs": [
        {
          "name": "",
          "type": "bool"
        }
      ],
      "payable": false,
      "stateMutability": "view",
      "type": "function"
    },
    {
      "constant": true,
      "inputs": [],
      "name": "symbol",
      "outputs": [
        {
          "name": "",
          "type": "string"
        }
      ],
      "payable": false,
      "stateMutability": "view",
      "type": "function"
    },
    {
      "constant": false,
      "inputs": [
        {
          "name": "receiver",
          "type": "address"
        },
        {
          "name": "tokens",
          "type": "uint256"
        }
      ],
      "name": "transfer",
      "outputs": [
        {
          "name": "",
          "type": "bool"
        }
      ],
      "payable": false,
      "stateMutability": "nonpayable",
      "type": "function"
    },
    {
      "constant": true,
      "inputs": [],
      "name": "product",
      "outputs": [
        {
          "name": "",
          "type": "bytes32"
        }
      ],
      "payable": false,
      "stateMutability": "view",
      "type": "function"
    },
    {
      "constant": true,
      "inputs": [
        {
          "name": "tokenOwner",
          "type": "address"
        },
        {
          "name": "spender",
          "type": "address"
        }
      ],
      "name": "allowance",
      "outputs": [
        {
          "name": "",
          "type": "uint256"
        }
      ],
      "payable": false,
      "stateMutability": "view",
      "type": "function"
    },
    {
      "constant": false,
      "inputs": [
        {
          "name": "newOwner",
          "type": "address"
        }
      ],
      "name": "transferOwnership",
      "outputs": [],
      "payable": false,
      "stateMutability": "nonpayable",
      "type": "function"
    },
    {
      "anonymous": false,
      "inputs": [
        {
          "indexed": true,
          "name": "previousOwner",
          "type": "address"
        },
        {
          "indexed": true,
          "name": "newOwner",
          "type": "address"
        }
      ],
      "name": "OwnershipTransferred",
      "type": "event"
    },
    {
      "anonymous": false,
      "inputs": [
        {
          "indexed": true,
          "name": "tokenOwner",
          "type": "address"
        },
        {
          "indexed": true,
          "name": "spender",
          "type": "address"
        },
        {
          "indexed": false,
          "name": "tokens",
          "type": "uint256"
        }
      ],
      "name": "Approval",
      "type": "event"
    },
    {
      "anonymous": false,
      "inputs": [
        {
          "indexed": true,
          "name": "from",
          "type": "address"
        },
        {
          "indexed": true,
          "name": "to",
          "type": "address"
        },
        {
          "indexed": false,
          "name": "tokens",
          "type": "uint256"
        }
      ],
      "name": "Transfer",
      "type": "event"
    },
    {
      "constant": false,
      "inputs": [
        {
          "name": "_name",
          "type": "string"
        },
        {
          "name": "_owner",
          "type": "address"
        },
        {
          "name": "_product",
          "type": "bytes32"
        },
        {
          "name": "_symbol",
          "type": "string"
        }
      ],
      "name": "initialize",
      "outputs": [],
      "payable": false,
      "stateMutability": "nonpayable",
      "type": "function"
    },
    {
      "constant": false,
      "inputs": [
        {
          "name": "sender",
          "type": "address"
        }
      ],
      "name": "initialize",
      "outputs": [],
      "payable": false,
      "stateMutability": "nonpayable",
      "type": "function"
    },
    {
      "constant": false,
      "inputs": [
        {
          "name": "amount",
          "type": "bytes16"
        }
      ],
      "name": "addTotalSupply",
      "outputs": [],
      "payable": false,
      "stateMutability": "nonpayable",
      "type": "function"
    },
    {
      "constant": false,
      "inputs": [
        {
          "name": "amount",
          "type": "bytes16"
        }
      ],
      "name": "reduceSupply",
      "outputs": [],
      "payable": false,
      "stateMutability": "nonpayable",
      "type": "function"
    },
    {
      "constant": false,
      "inputs": [
        {
          "name": "party",
          "type": "address"
        },
        {
          "name": "amount",
          "type": "bytes16"
        }
      ],
      "name": "addBalance",
      "outputs": [],
      "payable": false,
      "stateMutability": "nonpayable",
      "type": "function"
    },
    {
      "constant": false,
      "inputs": [
        {
          "name": "party",
          "type": "address"
        },
        {
          "name": "amount",
          "type": "bytes16"
        }
      ],
      "name": "reduceBalance",
      "outputs": [],
      "payable": false,
      "stateMutability": "nonpayable",
      "type": "function"
    },
    {
      "constant": false,
      "inputs": [
        {
          "name": "sender",
          "type": "address"
        },
        {
          "name": "receiver",
          "type": "address"
        },
        {
          "name": "tokens",
          "type": "uint256"
        }
      ],
      "name": "transferFrom",
      "outputs": [
        {
          "name": "",
          "type": "bool"
        }
      ],
      "payable": false,
      "stateMutability": "nonpayable",
      "type": "function"
    },
    {
      "constant": false,
      "inputs": [
        {
          "name": "sender",
          "type": "address"
        },
        {
          "name": "receiver",
          "type": "address"
        },
        {
          "name": "tokens",
          "type": "uint256"
        }
      ],
      "name": "transferToken",
      "outputs": [
        {
          "name": "",
          "type": "bool"
        }
      ],
      "payable": false,
      "stateMutability": "nonpayable",
      "type": "function"
    }
  ],
  "bytecode": "0x6080604052611970806100136000396000f3fe608060405234801561001057600080fd5b506004361061014d5760003560e01c80638c3760f3116100c3578063bf9ce9521161007c578063bf9ce9521461052d578063c4d66de814610535578063dd62ed3e1461055b578063f167259114610589578063f2fde38b146105b0578063f5537ede146105d65761014d565b80638c3760f3146103715780638da5cb5b146104b35780638f32d59b146104bb57806395d89b41146104c3578063a49b8a4c146104cb578063a9059cbb146105015761014d565b806323b872dd1161011557806323b872dd1461027657806327e235e3146102ac578063313ce567146102ef5780634c0992871461030d57806370a0823114610343578063715018a6146103695761014d565b8063014153331461015257806306fdde031461017b578063095ea7b3146101f857806318160ddd146102385780631d14384814610252575b600080fd5b6101796004803603602081101561016857600080fd5b50356001600160801b03191661060c565b005b610183610650565b6040805160208082528351818301528351919283929083019185019080838360005b838110156101bd5781810151838201526020016101a5565b50505050905090810190601f1680156101ea5780820380516001836020036101000a031916815260200191505b509250505060405180910390f35b6102246004803603604081101561020e57600080fd5b506001600160a01b0381351690602001356106de565b604080519115158252519081900360200190f35b610240610766565b60408051918252519081900360200190f35b61025a61077e565b604080516001600160a01b039092168252519081900360200190f35b6102246004803603606081101561028c57600080fd5b506001600160a01b0381358116916020810135909116906040013561078d565b6102d2600480360360208110156102c257600080fd5b50356001600160a01b0316610930565b604080516001600160801b03199092168252519081900360200190f35b6102f7610945565b6040805160ff9092168252519081900360200190f35b6101796004803603604081101561032357600080fd5b5080356001600160a01b031690602001356001600160801b031916610955565b6102406004803603602081101561035957600080fd5b50356001600160a01b03166109c8565b6101796109f5565b6101796004803603608081101561038757600080fd5b8101906020810181356401000000008111156103a257600080fd5b8201836020820111156103b457600080fd5b803590602001918460018302840111640100000000831117156103d657600080fd5b91908080601f01602080910402602001604051908101604052809392919081815260200183838082843760009201919091525092956001600160a01b038535169560208601359591945092506060810191506040013564010000000081111561043e57600080fd5b82018360208201111561045057600080fd5b8035906020019184600183028401116401000000008311171561047257600080fd5b91908080601f016020809104026020016040519081016040528093929190818152602001838380828437600092019190915250929550610a9b945050505050565b61025a610bb9565b610224610bc8565b610183610bee565b610179600480360360408110156104e157600080fd5b5080356001600160a01b031690602001356001600160801b031916610c49565b6102246004803603604081101561051757600080fd5b506001600160a01b038135169060200135610c86565b610240610db1565b6101796004803603602081101561054b57600080fd5b50356001600160a01b0316610db7565b6102406004803603604081101561057157600080fd5b506001600160a01b0381358116916020013516610eac565b6101796004803603602081101561059f57600080fd5b50356001600160801b031916610ee0565b610179600480360360208110156105c657600080fd5b50356001600160a01b0316610f07565b610224600480360360608110156105ec57600080fd5b506001600160a01b03813581169160208101359091169060400135610f6f565b606d546001600160a01b0316331461062357600080fd5b6001546106339060801b8261107d565b600180546001600160801b03191660809290921c91909117905550565b606a805460408051602060026001851615610100026000190190941693909304601f810184900484028201840190925281815292918301828280156106d65780601f106106ab576101008083540402835291602001916106d6565b820191906000526020600020905b8154815290600101906020018083116106b957829003601f168201915b505050505081565b60006106e9826114af565b3360008181526003602090815260408083206001600160a01b0389168085529083529281902080546001600160801b03191660809690961c959095179094558351868152935191937f8c5be1e5ebec7d5bd14f71427d1e84f3dd0314c0f7b2291e5b200ac8c7c3b925929081900390910190a35060015b92915050565b6001546000906107789060801b611514565b90505b90565b6000546001600160a01b031681565b6001600160a01b0383166000908152600260205260408120546107bb9060801b6107b6846114af565b6115ac565b60000b600114806107f557506001600160a01b0384166000908152600260205260409020546107f09060801b6107b6846114af565b60000b155b6107fe57600080fd5b606d54604051600160e01b632ad3123102815230602482018190526001600160a01b03878116604484015286811660648401526084830186905260a060048401908152606c80546002600019600183161561010002019091160460a486018190529290951694632ad31231949093928a928a928a92829160c40190889080156108c85780601f1061089d576101008083540402835291602001916108c8565b820191906000526020600020905b8154815290600101906020018083116108ab57829003601f168201915b50509650505050505050602060405180830381600087803b1580156108ec57600080fd5b505af1158015610900573d6000803e3d6000fd5b505050506040513d602081101561091657600080fd5b50511561092557506001610929565b5060005b9392505050565b60026020526000908152604090205460801b81565b600054600160a01b900460ff1681565b606d546001600160a01b0316331461096c57600080fd5b6001600160a01b0382166000908152600260205260409020546109929060801b826116f5565b6001600160a01b0392909216600090815260026020526040902080546001600160801b03191660809390931c9290921790915550565b6001600160a01b0381166000908152600260205260408120546109ed9060801b611514565b90505b919050565b6109fd610bc8565b610a515760408051600160e51b62461bcd02815260206004820181905260248201527f4f776e61626c653a2063616c6c6572206973206e6f7420746865206f776e6572604482015290519081900360640190fd5b6037546040516000916001600160a01b0316907f8be0079c531659141344cd1fd0a4f28419497f9722a3daafe3b4186f6b6457e0908390a3603780546001600160a01b0319169055565b600454610100900460ff1680610ab45750610ab4611707565b80610ac2575060045460ff16155b610b0057604051600160e51b62461bcd02815260040180806020018281038252602e815260200180611917602e913960400191505060405180910390fd5b600454610100900460ff16158015610b2b576004805460ff1961ff0019909116610100171660011790555b610b3484610db7565b606d80546001600160a01b0319166001600160a01b0386161790558451610b6290606a906020880190611858565b508151610b7690606c906020850190611858565b50606b8390556000805474ff00000000000000000000000000000000000000001916600160a11b1790558015610bb2576004805461ff00191690555b5050505050565b6037546001600160a01b031690565b6037546000906001600160a01b0316610bdf61170d565b6001600160a01b031614905090565b606c805460408051602060026001851615610100026000190190941693909304601f810184900484028201840190925281815292918301828280156106d65780601f106106ab576101008083540402835291602001916106d6565b606d546001600160a01b03163314610c6057600080fd5b6001600160a01b0382166000908152600260205260409020546109929060801b8261107d565b6000610cac610c94836114af565b3060009081526002602052604090205460801b6115ac565b60000b6000191480610cca5750610cc5610c94836114af565b60000b155b610cd357600080fd5b30600090815260026020526040902054610cf89060801b610cf3846114af565b6116f5565b3060009081526002602052604080822080546001600160801b031916608094851c1790556001600160a01b0386168252902054610d3e911b610d39846114af565b61107d565b6001600160a01b03841660008181526002602090815260409182902080546001600160801b03191660809590951c9490941790935580518581529051919230927fddf252ad1be2c89b69c2b068fc378daa952ba7f163c4a11628f55a4df523b3ef9281900390910190a350600192915050565b606b5481565b600454610100900460ff1680610dd05750610dd0611707565b80610dde575060045460ff16155b610e1c57604051600160e51b62461bcd02815260040180806020018281038252602e815260200180611917602e913960400191505060405180910390fd5b600454610100900460ff16158015610e47576004805460ff1961ff0019909116610100171660011790555b603780546001600160a01b0319166001600160a01b0384811691909117918290556040519116906000907f8be0079c531659141344cd1fd0a4f28419497f9722a3daafe3b4186f6b6457e0908290a38015610ea8576004805461ff00191690555b5050565b6001600160a01b0380831660009081526003602090815260408083209385168352929052908120546109299060801b611514565b606d546001600160a01b03163314610ef757600080fd5b6001546106339060801b826116f5565b610f0f610bc8565b610f635760408051600160e51b62461bcd02815260206004820181905260248201527f4f776e61626c653a2063616c6c6572206973206e6f7420746865206f776e6572604482015290519081900360640190fd5b610f6c81611711565b50565b606d546000906001600160a01b03163314610f8957600080fd5b610fb6610f95836114af565b6001600160a01b03861660009081526002602052604090205460801b6115ac565b60000b6000191480610fd45750610fcf610f95836114af565b60000b155b15610925576001600160a01b0384166000908152600260205260409020546110029060801b610cf3846114af565b6001600160a01b0385811660009081526002602052604080822080546001600160801b031916608095861c17905591861681522054611045911b610d39846114af565b6001600160a01b038416600090815260026020526040902080546001600160801b03191660809290921c919091179055506001610929565b6000617fff6001600160801b03608085811c8216607090811c8416939186901c90921690911c8116908214156110f35780617fff14156110e9576001600160801b031985811690851614156110d6578492505050610760565b50600160ef1b61ffff0291506107609050565b8492505050610760565b80617fff1415611107578392505050610760565b6001607f1b608086901c6001600160801b0381169190911015906001600160701b031683611138576001935061113f565b600160701b175b6001607f1b608087901c6001600160801b0381169190911015906001600160701b0316846111705760019450611177565b600160701b175b826111a7576001600160801b03198816600160ff1b14611197578761119a565b60005b9650505050505050610760565b806111c7576001600160801b03198916600160ff1b14611197578861119a565b84860384151583151514156112ed5760708113156111ee5789975050505050505050610760565b600081131561120d578082600082121561120457fe5b901c9150611247565b606f198112156112265788975050505050505050610760565b6000811215611247578060000384600082121561123f57fe5b901c93508596505b92810192600160711b8410611262576001968701969390931c925b86617fff1415611297578461127f57600160f01b617fff02611289565b6001600160f01b03195b975050505050505050610760565b600160701b8410156112ac57600096506112b9565b6001600160701b03841693505b83607088901b866112cb5760006112d1565b6001607f1b5b6001600160801b0316171760801b975050505050505050610760565b600081131561130857600184901b935060018703965061131f565b600081121561131f57600182901b91506001860396505b60708113156113315760019150611394565b6001811315611359576001810360018303600082121561134d57fe5b901c6001019150611394565b606f1981121561136c5760019350611394565b600019811215611394576001816000030360018503600082121561138c57fe5b901c60010193505b8184106113a55781840393506113ae565b83820393508294505b836113c457506000965061076095505050505050565b60006113cf856117b5565b905080607114156113f557600185901c6001600160701b03169450600188019750611444565b607081101561143757607081900380891115611424578086901b6001600160701b031695508089039850611431565b600098600019019590951b945b50611444565b6001600160701b03851694505b87617fff141561147a578561146157600160f01b617fff0261146b565b6001600160f01b03195b98505050505050505050610760565b84607089901b8761148c576000611492565b6001607f1b5b6001600160801b0316171760801b98505050505050505050610760565b6000816114be575060006109f0565b8160006114ca826117b5565b905060708110156114e3578060700382901b91506114f6565b60708111156114f6576070810382901c91505b613fff0160701b6001600160701b03919091161760801b90506109f0565b6000617fff6001600160801b03608084901c1660701c16613fff81101561153f5760009150506109f0565b6001607f1b8360801c6001600160801b03161061155b57600080fd5b6140fe81111561156a57600080fd5b600160701b6001600160701b03608085901c161761406f8210156115945761406f8290031c610929565b61406f8211156109295761406e1982011b9392505050565b600060016001607f1b03608084901c16600160701b617fff028111156115d157600080fd5b60016001607f1b03608084901c16600160701b617fff028111156115f457600080fd5b6001600160801b03198581169085161415806116205750600160701b617fff02826001600160801b0316105b61162957600080fd5b6001600160801b0319858116908516141561164957600092505050610760565b60006001607f1b8660801c6001600160801b03161015905060006001607f1b8660801c6001600160801b03161015905081156116b45780156116a557826001600160801b0316846001600160801b0316116116a55760016116a9565b6000195b945050505050610760565b80156116c7576001945050505050610760565b826001600160801b0316846001600160801b0316116116e8576000196116a9565b6001945050505050610760565b600061092983600160ff1b841861107d565b303b1590565b3390565b6001600160a01b03811661175957604051600160e51b62461bcd0281526004018080602001828103825260268152602001806118f16026913960400191505060405180910390fd5b6037546040516001600160a01b038084169216907f8be0079c531659141344cd1fd0a4f28419497f9722a3daafe3b4186f6b6457e090600090a3603780546001600160a01b0319166001600160a01b0392909216919091179055565b60008082116117c357600080fd5b6000600160801b83106117d857608092831c92015b6801000000000000000083106117f057604092831c92015b640100000000831061180457602092831c92015b62010000831061181657601092831c92015b610100831061182757600892831c92015b6010831061183757600492831c92015b6004831061184757600292831c92015b600283106109ed5760010192915050565b828054600181600116156101000203166002900490600052602060002090601f016020900481019282601f1061189957805160ff19168380011785556118c6565b828001600101855582156118c6579182015b828111156118c65782518255916020019190600101906118ab565b506118d29291506118d6565b5090565b61077b91905b808211156118d257600081556001016118dc56fe4f776e61626c653a206e6577206f776e657220697320746865207a65726f2061646472657373436f6e747261637420696e7374616e63652068617320616c7265616479206265656e20696e697469616c697a6564a165627a7a72305820bb3e07ed64c1d96469d7f40ca8d08100bb97894e61afd88aca8ae5da973713ac0029",
  "source": "// (c) Kallol Borah, 2020\r\n// Implements token issued by Bond issuer. Can be reused by any financial product issuer\r\n\r\npragma solidity >=0.5.0 <0.7.0;\r\n\r\nimport \"./erc/ERC20.sol\";\r\nimport \"./Bond.sol\";\r\nimport \"@openzeppelin/upgrades/contracts/Initializable.sol\";\r\nimport \"@openzeppelin/contracts-ethereum-package/contracts/ownership/Ownable.sol\";\r\nimport \"abdk-libraries-solidity/ABDKMathQuad.sol\";\r\nimport \"./utilities/StringUtils.sol\";\r\n\r\ncontract Token is ERC20, Initializable, Ownable {\r\n\r\n    using stringutils for *;\r\n\r\n    //Via token attributes (eg, name : Via-USD, product : ViaBond, symbol : bond identifier)\r\n    string public name;\r\n    bytes32 public product;\r\n    string public symbol;\r\n    address payable issuer;\r\n\r\n    //initiliaze proxies\r\n    function initialize(string memory _name, address payable _owner, bytes32 _product, string memory _symbol) public initializer{\r\n        Ownable.initialize(_owner);\r\n        issuer = _owner;\r\n        name = _name;\r\n        symbol = _symbol;\r\n        product = _product;\r\n        decimals = 2;\r\n    }\r\n\r\n    function addTotalSupply(bytes16 amount) external{\r\n        require(issuer==msg.sender);\r\n        //adjust total supply\r\n        totalSupply_ = ABDKMathQuad.add(totalSupply_, amount);\r\n    }\r\n\r\n    function reduceSupply(bytes16 amount) external{        \r\n        require(issuer==msg.sender);\r\n        totalSupply_ = ABDKMathQuad.sub(totalSupply_, amount);\r\n    }\r\n\r\n    function addBalance(address party, bytes16 amount) external{\r\n        require(issuer==msg.sender);\r\n        //add via to this contract's balance first (ie issue them first)\r\n        balances[party] = ABDKMathQuad.add(balances[party], amount);\r\n    }\r\n\r\n    function reduceBalance(address party, bytes16 amount) external{\r\n        require(issuer==msg.sender);\r\n        balances[party] = ABDKMathQuad.sub(balances[party], amount);\r\n    }\r\n\r\n    function transferFrom(address sender, address receiver, uint256 tokens) public returns (bool){\r\n        //ensure sender has enough tokens in balance before transferring or redeeming them\r\n        require(ABDKMathQuad.cmp(balances[sender],ABDKMathQuad.fromUInt(tokens))==1 ||\r\n                ABDKMathQuad.cmp(balances[sender],ABDKMathQuad.fromUInt(tokens))==0);\r\n        if(Bond(issuer).transferFoward(symbol, address(this), sender, receiver, tokens))\r\n            return true;\r\n        else\r\n            return false;\r\n    }\r\n\r\n    function transferToken(address sender, address receiver, uint256 tokens) public returns (bool){\r\n        require(issuer==msg.sender);\r\n        //owner should have more tokens than being transferred\r\n        if(ABDKMathQuad.cmp(ABDKMathQuad.fromUInt(tokens), balances[sender])==-1 || ABDKMathQuad.cmp(ABDKMathQuad.fromUInt(tokens), balances[sender])==0){\r\n            //sending contract should be allowed by token owner to make this transfer\r\n            //require(ABDKMathQuad.cmp(ABDKMathQuad.fromUInt(tokens), allowed[sender][msg.sender])==-1 || ABDKMathQuad.cmp(ABDKMathQuad.fromUInt(tokens), allowed[sender][msg.sender])==0);\r\n            balances[sender] = ABDKMathQuad.sub(balances[sender], ABDKMathQuad.fromUInt(tokens));\r\n            //allowed[sender][msg.sender] = ABDKMathQuad.sub(allowed[sender][msg.sender], ABDKMathQuad.fromUInt(tokens));\r\n            balances[receiver] = ABDKMathQuad.add(balances[receiver], ABDKMathQuad.fromUInt(tokens));\r\n            return true;\r\n        }\r\n        return false;\r\n    }    \r\n\r\n}",
  "sourcePath": "D:\\verified\\via-issuer\\contracts\\Token.sol",
  "compiler": {
    "name": "solc",
    "version": "0.5.7+commit.6da8b019.Emscripten.clang"
  },
  "schemaVersion": "3.2.5",
  "updatedAt": "2020-11-07T12:12:55.704Z",
  "devdoc": {
    "methods": {
      "initialize(address)": {
        "details": "Initializes the contract setting the deployer as the initial owner.\r"
      },
      "isOwner()": {
        "details": "Returns true if the caller is the current owner.\r"
      },
      "owner()": {
        "details": "Returns the address of the current owner.\r"
      },
      "renounceOwnership()": {
        "details": "Leaves the contract without owner. It will not be possible to call\r `onlyOwner` functions anymore. Can only be called by the current owner.\r      * > Note: Renouncing ownership will leave the contract without an owner,\r thereby removing any functionality that is only available to the owner.\r"
      },
      "transferOwnership(address)": {
        "details": "Transfers ownership of the contract to a new account (`newOwner`).\r Can only be called by the current owner.\r"
      }
    }
  },
  "userdoc": {
    "methods": {}
  }
}