{
  "contractName": "Token",
  "abi": [
    {
      "constant": true,
      "inputs": [],
      "name": "name",
      "outputs": [
        {
          "name": "",
          "type": "string"
        }
      ],
      "payable": false,
      "stateMutability": "view",
      "type": "function"
    },
    {
      "constant": false,
      "inputs": [
        {
          "name": "spender",
          "type": "address"
        },
        {
          "name": "tokens",
          "type": "uint256"
        }
      ],
      "name": "approve",
      "outputs": [
        {
          "name": "",
          "type": "bool"
        }
      ],
      "payable": false,
      "stateMutability": "nonpayable",
      "type": "function"
    },
    {
      "constant": true,
      "inputs": [],
      "name": "totalSupply",
      "outputs": [
        {
          "name": "",
          "type": "uint256"
        }
      ],
      "payable": false,
      "stateMutability": "view",
      "type": "function"
    },
    {
      "constant": true,
      "inputs": [],
      "name": "issuer",
      "outputs": [
        {
          "name": "",
          "type": "address"
        }
      ],
      "payable": false,
      "stateMutability": "view",
      "type": "function"
    },
    {
      "constant": true,
      "inputs": [
        {
          "name": "",
          "type": "address"
        }
      ],
      "name": "balances",
      "outputs": [
        {
          "name": "",
          "type": "bytes16"
        }
      ],
      "payable": false,
      "stateMutability": "view",
      "type": "function"
    },
    {
      "constant": true,
      "inputs": [],
      "name": "decimals",
      "outputs": [
        {
          "name": "",
          "type": "uint8"
        }
      ],
      "payable": false,
      "stateMutability": "view",
      "type": "function"
    },
    {
      "constant": true,
      "inputs": [
        {
          "name": "tokenOwner",
          "type": "address"
        }
      ],
      "name": "balanceOf",
      "outputs": [
        {
          "name": "",
          "type": "uint256"
        }
      ],
      "payable": false,
      "stateMutability": "view",
      "type": "function"
    },
    {
      "constant": false,
      "inputs": [],
      "name": "renounceOwnership",
      "outputs": [],
      "payable": false,
      "stateMutability": "nonpayable",
      "type": "function"
    },
    {
      "constant": true,
      "inputs": [],
      "name": "tokenSymbol",
      "outputs": [
        {
          "name": "",
          "type": "bytes32"
        }
      ],
      "payable": false,
      "stateMutability": "view",
      "type": "function"
    },
    {
      "constant": true,
      "inputs": [],
      "name": "owner",
      "outputs": [
        {
          "name": "",
          "type": "address"
        }
      ],
      "payable": false,
      "stateMutability": "view",
      "type": "function"
    },
    {
      "constant": true,
      "inputs": [],
      "name": "isOwner",
      "outputs": [
        {
          "name": "",
          "type": "bool"
        }
      ],
      "payable": false,
      "stateMutability": "view",
      "type": "function"
    },
    {
      "constant": true,
      "inputs": [],
      "name": "symbol",
      "outputs": [
        {
          "name": "",
          "type": "string"
        }
      ],
      "payable": false,
      "stateMutability": "view",
      "type": "function"
    },
    {
      "constant": false,
      "inputs": [
        {
          "name": "receiver",
          "type": "address"
        },
        {
          "name": "tokens",
          "type": "uint256"
        }
      ],
      "name": "transfer",
      "outputs": [
        {
          "name": "",
          "type": "bool"
        }
      ],
      "payable": false,
      "stateMutability": "nonpayable",
      "type": "function"
    },
    {
      "constant": true,
      "inputs": [],
      "name": "product",
      "outputs": [
        {
          "name": "",
          "type": "bytes32"
        }
      ],
      "payable": false,
      "stateMutability": "view",
      "type": "function"
    },
    {
      "constant": true,
      "inputs": [
        {
          "name": "tokenOwner",
          "type": "address"
        },
        {
          "name": "spender",
          "type": "address"
        }
      ],
      "name": "allowance",
      "outputs": [
        {
          "name": "",
          "type": "uint256"
        }
      ],
      "payable": false,
      "stateMutability": "view",
      "type": "function"
    },
    {
      "constant": false,
      "inputs": [
        {
          "name": "newOwner",
          "type": "address"
        }
      ],
      "name": "transferOwnership",
      "outputs": [],
      "payable": false,
      "stateMutability": "nonpayable",
      "type": "function"
    },
    {
      "anonymous": false,
      "inputs": [
        {
          "indexed": true,
          "name": "previousOwner",
          "type": "address"
        },
        {
          "indexed": true,
          "name": "newOwner",
          "type": "address"
        }
      ],
      "name": "OwnershipTransferred",
      "type": "event"
    },
    {
      "anonymous": false,
      "inputs": [
        {
          "indexed": true,
          "name": "tokenOwner",
          "type": "address"
        },
        {
          "indexed": true,
          "name": "spender",
          "type": "address"
        },
        {
          "indexed": false,
          "name": "tokens",
          "type": "uint256"
        }
      ],
      "name": "Approval",
      "type": "event"
    },
    {
      "anonymous": false,
      "inputs": [
        {
          "indexed": true,
          "name": "from",
          "type": "address"
        },
        {
          "indexed": true,
          "name": "to",
          "type": "address"
        },
        {
          "indexed": false,
          "name": "tokens",
          "type": "uint256"
        }
      ],
      "name": "Transfer",
      "type": "event"
    },
    {
      "constant": false,
      "inputs": [
        {
          "name": "_name",
          "type": "bytes32"
        },
        {
          "name": "_owner",
          "type": "address"
        },
        {
          "name": "_product",
          "type": "bytes32"
        },
        {
          "name": "_symbol",
          "type": "bytes32"
        }
      ],
      "name": "initialize",
      "outputs": [],
      "payable": false,
      "stateMutability": "nonpayable",
      "type": "function"
    },
    {
      "constant": false,
      "inputs": [
        {
          "name": "sender",
          "type": "address"
        }
      ],
      "name": "initialize",
      "outputs": [],
      "payable": false,
      "stateMutability": "nonpayable",
      "type": "function"
    },
    {
      "constant": false,
      "inputs": [
        {
          "name": "amount",
          "type": "bytes16"
        }
      ],
      "name": "addTotalSupply",
      "outputs": [],
      "payable": false,
      "stateMutability": "nonpayable",
      "type": "function"
    },
    {
      "constant": false,
      "inputs": [
        {
          "name": "amount",
          "type": "bytes16"
        }
      ],
      "name": "reduceSupply",
      "outputs": [],
      "payable": false,
      "stateMutability": "nonpayable",
      "type": "function"
    },
    {
      "constant": false,
      "inputs": [
        {
          "name": "party",
          "type": "address"
        },
        {
          "name": "amount",
          "type": "bytes16"
        }
      ],
      "name": "addBalance",
      "outputs": [],
      "payable": false,
      "stateMutability": "nonpayable",
      "type": "function"
    },
    {
      "constant": false,
      "inputs": [
        {
          "name": "party",
          "type": "address"
        },
        {
          "name": "amount",
          "type": "bytes16"
        }
      ],
      "name": "reduceBalance",
      "outputs": [],
      "payable": false,
      "stateMutability": "nonpayable",
      "type": "function"
    },
    {
      "constant": false,
      "inputs": [
        {
          "name": "sender",
          "type": "address"
        },
        {
          "name": "receiver",
          "type": "address"
        },
        {
          "name": "tokens",
          "type": "uint256"
        }
      ],
      "name": "transferFrom",
      "outputs": [
        {
          "name": "",
          "type": "bool"
        }
      ],
      "payable": false,
      "stateMutability": "nonpayable",
      "type": "function"
    },
    {
      "constant": false,
      "inputs": [
        {
          "name": "sender",
          "type": "address"
        },
        {
          "name": "receiver",
          "type": "address"
        },
        {
          "name": "tokens",
          "type": "uint256"
        }
      ],
      "name": "transferToken",
      "outputs": [
        {
          "name": "",
          "type": "bool"
        }
      ],
      "payable": false,
      "stateMutability": "nonpayable",
      "type": "function"
    },
    {
      "constant": false,
      "inputs": [
        {
          "name": "receiver",
          "type": "address"
        },
        {
          "name": "tokens",
          "type": "uint256"
        }
      ],
      "name": "requestTransfer",
      "outputs": [
        {
          "name": "",
          "type": "bool"
        }
      ],
      "payable": false,
      "stateMutability": "nonpayable",
      "type": "function"
    }
  ],
  "bytecode": "0x6080604052611863806100136000396000f3fe608060405234801561001057600080fd5b50600436106101735760003560e01c80638da5cb5b116100de578063b3f15e7511610097578063dd62ed3e11610071578063dd62ed3e146104ab578063f1672591146104d9578063f2fde38b14610500578063f5537ede1461052657610173565b8063b3f15e7514610445578063bf9ce9521461047d578063c4d66de81461048557610173565b80638da5cb5b1461039f5780638f32d59b146103a757806395d89b41146103af578063a49b8a4c146103b7578063a9059cbb146103ed578063aa5fc7941461041957610173565b806327e235e31161013057806327e235e3146102d2578063313ce567146103155780634c0992871461033357806370a0823114610369578063715018a61461038f5780637b61c3201461039757610173565b8063014153331461017857806306fdde03146101a1578063095ea7b31461021e57806318160ddd1461025e5780631d1438481461027857806323b872dd1461029c575b600080fd5b61019f6004803603602081101561018e57600080fd5b50356001600160801b03191661055c565b005b6101a96105a0565b6040805160208082528351818301528351919283929083019185019080838360005b838110156101e35781810151838201526020016101cb565b50505050905090810190601f1680156102105780820380516001836020036101000a031916815260200191505b509250505060405180910390f35b61024a6004803603604081101561023457600080fd5b506001600160a01b03813516906020013561062e565b604080519115158252519081900360200190f35b6102666106b6565b60408051918252519081900360200190f35b6102806106ce565b604080516001600160a01b039092168252519081900360200190f35b61024a600480360360608110156102b257600080fd5b506001600160a01b038135811691602081013590911690604001356106dd565b6102f8600480360360208110156102e857600080fd5b50356001600160a01b0316610803565b604080516001600160801b03199092168252519081900360200190f35b61031d610818565b6040805160ff9092168252519081900360200190f35b61019f6004803603604081101561034957600080fd5b5080356001600160a01b031690602001356001600160801b031916610828565b6102666004803603602081101561037f57600080fd5b50356001600160a01b031661089b565b61019f6108c8565b61026661096e565b610280610974565b61024a610983565b6101a96109a9565b61019f600480360360408110156103cd57600080fd5b5080356001600160a01b031690602001356001600160801b031916610a04565b61024a6004803603604081101561040357600080fd5b506001600160a01b038135169060200135610a41565b61024a6004803603604081101561042f57600080fd5b506001600160a01b038135169060200135610b6c565b61019f6004803603608081101561045b57600080fd5b508035906001600160a01b036020820135169060408101359060600135610b7f565b610266610cd2565b61019f6004803603602081101561049b57600080fd5b50356001600160a01b0316610cd8565b610266600480360360408110156104c157600080fd5b506001600160a01b0381358116916020013516610dcd565b61019f600480360360208110156104ef57600080fd5b50356001600160801b031916610e01565b61019f6004803603602081101561051657600080fd5b50356001600160a01b0316610e28565b61024a6004803603606081101561053c57600080fd5b506001600160a01b03813581169160208101359091169060400135610e90565b606e546001600160a01b0316331461057357600080fd5b6001546105839060801b82610f9e565b600180546001600160801b03191660809290921c91909117905550565b606a805460408051602060026001851615610100026000190190941693909304601f810184900484028201840190925281815292918301828280156106265780601f106105fb57610100808354040283529160200191610626565b820191906000526020600020905b81548152906001019060200180831161060957829003601f168201915b505050505081565b6000610639826113a2565b3360008181526003602090815260408083206001600160a01b0389168085529083529281902080546001600160801b03191660809690961c959095179094558351868152935191937f8c5be1e5ebec7d5bd14f71427d1e84f3dd0314c0f7b2291e5b200ac8c7c3b925929081900390910190a35060015b92915050565b6001546000906106c89060801b611407565b90505b90565b6000546001600160a01b031681565b6001600160a01b03831660009081526002602052604081205461070b9060801b610706846113a2565b61149f565b60000b6001148061074557506001600160a01b0384166000908152600260205260409020546107409060801b610706846113a2565b60000b155b61074e57600080fd5b606e54606d5460408051600160e01b6389063c8b02815260048101929092523060248301526001600160a01b03878116604484015286811660648401526084830186905290519216916389063c8b9160a4808201926020929091908290030181600087803b1580156107bf57600080fd5b505af11580156107d3573d6000803e3d6000fd5b505050506040513d60208110156107e957600080fd5b5051156107f8575060016107fc565b5060005b9392505050565b60026020526000908152604090205460801b81565b600054600160a01b900460ff1681565b606e546001600160a01b0316331461083f57600080fd5b6001600160a01b0382166000908152600260205260409020546108659060801b826115e8565b6001600160a01b0392909216600090815260026020526040902080546001600160801b03191660809390931c9290921790915550565b6001600160a01b0381166000908152600260205260408120546108c09060801b611407565b90505b919050565b6108d0610983565b6109245760408051600160e51b62461bcd02815260206004820181905260248201527f4f776e61626c653a2063616c6c6572206973206e6f7420746865206f776e6572604482015290519081900360640190fd5b6037546040516000916001600160a01b0316907f8be0079c531659141344cd1fd0a4f28419497f9722a3daafe3b4186f6b6457e0908390a3603780546001600160a01b0319169055565b606d5481565b6037546001600160a01b031690565b6037546000906001600160a01b031661099a6115fa565b6001600160a01b031614905090565b606c805460408051602060026001851615610100026000190190941693909304601f810184900484028201840190925281815292918301828280156106265780601f106105fb57610100808354040283529160200191610626565b606e546001600160a01b03163314610a1b57600080fd5b6001600160a01b0382166000908152600260205260409020546108659060801b82610f9e565b6000610a67610a4f836113a2565b3060009081526002602052604090205460801b61149f565b60000b6000191480610a855750610a80610a4f836113a2565b60000b155b610a8e57600080fd5b30600090815260026020526040902054610ab39060801b610aae846113a2565b6115e8565b3060009081526002602052604080822080546001600160801b031916608094851c1790556001600160a01b0386168252902054610af9911b610af4846113a2565b610f9e565b6001600160a01b03841660008181526002602090815260409182902080546001600160801b03191660809590951c9490941790935580518581529051919230927fddf252ad1be2c89b69c2b068fc378daa952ba7f163c4a11628f55a4df523b3ef9281900390910190a350600192915050565b6000610b788383610a41565b5092915050565b600454610100900460ff1680610b985750610b986115fe565b80610ba6575060045460ff16155b610be457604051600160e51b62461bcd02815260040180806020018281038252602e81526020018061180a602e913960400191505060405180910390fd5b600454610100900460ff16158015610c0f576004805460ff1961ff0019909116610100171660011790555b610c1884610cd8565b606e80546001600160a01b0319166001600160a01b0386161790556040805160208082018890528251808303820181529183019092528051610c5e92606a92019061174b565b506040805160208082018590528251808303820181529183019092528051610c8a92606c92019061174b565b50606d829055606b8390556000805474ff00000000000000000000000000000000000000001916600160a11b1790558015610ccb576004805461ff00191690555b5050505050565b606b5481565b600454610100900460ff1680610cf15750610cf16115fe565b80610cff575060045460ff16155b610d3d57604051600160e51b62461bcd02815260040180806020018281038252602e81526020018061180a602e913960400191505060405180910390fd5b600454610100900460ff16158015610d68576004805460ff1961ff0019909116610100171660011790555b603780546001600160a01b0319166001600160a01b0384811691909117918290556040519116906000907f8be0079c531659141344cd1fd0a4f28419497f9722a3daafe3b4186f6b6457e0908290a38015610dc9576004805461ff00191690555b5050565b6001600160a01b0380831660009081526003602090815260408083209385168352929052908120546107fc9060801b611407565b606e546001600160a01b03163314610e1857600080fd5b6001546105839060801b826115e8565b610e30610983565b610e845760408051600160e51b62461bcd02815260206004820181905260248201527f4f776e61626c653a2063616c6c6572206973206e6f7420746865206f776e6572604482015290519081900360640190fd5b610e8d81611604565b50565b606e546000906001600160a01b03163314610eaa57600080fd5b610ed7610eb6836113a2565b6001600160a01b03861660009081526002602052604090205460801b61149f565b60000b6000191480610ef55750610ef0610eb6836113a2565b60000b155b156107f8576001600160a01b038416600090815260026020526040902054610f239060801b610aae846113a2565b6001600160a01b0385811660009081526002602052604080822080546001600160801b031916608095861c17905591861681522054610f66911b610af4846113a2565b6001600160a01b038416600090815260026020526040902080546001600160801b03191660809290921c9190911790555060016107fc565b6000617fff6001600160801b03608085811c8216607090811c8416939186901c90921690911c8116908214156110145780617fff141561100a576001600160801b03198581169085161415610ff75784925050506106b0565b50600160ef1b61ffff0291506106b09050565b84925050506106b0565b80617fff14156110285783925050506106b0565b6001607f1b608086901c6001600160801b0381169190911015906001600160701b0316836110595760019350611060565b600160701b175b6001607f1b608087901c6001600160801b0381169190911015906001600160701b0316846110915760019450611098565b600160701b175b826110c8576001600160801b03198816600160ff1b146110b857876110bb565b60005b96505050505050506106b0565b806110e8576001600160801b03198916600160ff1b146110b857886110bb565b84860384151583151514156111f657607081131561110f57899750505050505050506106b0565b60008113156111215790811c90611150565b606f1981121561113a57889750505050505050506106b0565b6000811215611150578060000384901c93508596505b92810192600160711b841061116b576001968701969390931c925b86617fff14156111a0578461118857600160f01b617fff02611192565b6001600160f01b03195b9750505050505050506106b0565b600160701b8410156111b557600096506111c2565b6001600160701b03841693505b83607088901b866111d45760006111da565b6001607f1b5b6001600160801b0316171760801b9750505050505050506106b0565b600081131561121157600184901b9350600187039650611228565b600081121561122857600182901b91506001860396505b607081131561123a5760019150611287565b6001811315611257576001810360018303901c6001019150611287565b606f1981121561126a5760019350611287565b600019811215611287576001816000030360018503901c60010193505b8184106112985781840393506112a1565b83820393508294505b836112b75750600096506106b095505050505050565b60006112c2856116a8565b905080607114156112e857600185901c6001600160701b03169450600188019750611337565b607081101561132a57607081900380891115611317578086901b6001600160701b031695508089039850611324565b600098600019019590951b945b50611337565b6001600160701b03851694505b87617fff141561136d578561135457600160f01b617fff0261135e565b6001600160f01b03195b985050505050505050506106b0565b84607089901b8761137f576000611385565b6001607f1b5b6001600160801b0316171760801b985050505050505050506106b0565b6000816113b1575060006108c3565b8160006113bd826116a8565b905060708110156113d6578060700382901b91506113e9565b60708111156113e9576070810382901c91505b613fff0160701b6001600160701b03919091161760801b90506108c3565b6000617fff6001600160801b03608084901c1660701c16613fff8110156114325760009150506108c3565b6001607f1b8360801c6001600160801b03161061144e57600080fd5b6140fe81111561145d57600080fd5b600160701b6001600160701b03608085901c161761406f8210156114875761406f8290031c6107fc565b61406f8211156107fc5761406e1982011b9392505050565b600060016001607f1b03608084901c16600160701b617fff028111156114c457600080fd5b60016001607f1b03608084901c16600160701b617fff028111156114e757600080fd5b6001600160801b03198581169085161415806115135750600160701b617fff02826001600160801b0316105b61151c57600080fd5b6001600160801b0319858116908516141561153c576000925050506106b0565b60006001607f1b8660801c6001600160801b03161015905060006001607f1b8660801c6001600160801b03161015905081156115a757801561159857826001600160801b0316846001600160801b03161161159857600161159c565b6000195b9450505050506106b0565b80156115ba5760019450505050506106b0565b826001600160801b0316846001600160801b0316116115db5760001961159c565b60019450505050506106b0565b60006107fc83600160ff1b8418610f9e565b3390565b303b1590565b6001600160a01b03811661164c57604051600160e51b62461bcd0281526004018080602001828103825260268152602001806117e46026913960400191505060405180910390fd5b6037546040516001600160a01b038084169216907f8be0079c531659141344cd1fd0a4f28419497f9722a3daafe3b4186f6b6457e090600090a3603780546001600160a01b0319166001600160a01b0392909216919091179055565b60008082116116b657600080fd5b6000600160801b83106116cb57608092831c92015b6801000000000000000083106116e357604092831c92015b64010000000083106116f757602092831c92015b62010000831061170957601092831c92015b610100831061171a57600892831c92015b6010831061172a57600492831c92015b6004831061173a57600292831c92015b600283106108c05760010192915050565b828054600181600116156101000203166002900490600052602060002090601f016020900481019282601f1061178c57805160ff19168380011785556117b9565b828001600101855582156117b9579182015b828111156117b957825182559160200191906001019061179e565b506117c59291506117c9565b5090565b6106cb91905b808211156117c557600081556001016117cf56fe4f776e61626c653a206e6577206f776e657220697320746865207a65726f2061646472657373436f6e747261637420696e7374616e63652068617320616c7265616479206265656e20696e697469616c697a6564a165627a7a72305820436dcc4ccbfaca1bc0ebc69a59746681a4934eb72574994405142eb4ac752ae00029",
  "source": "// (c) Kallol Borah, 2020\n// Implements token issued by Bond issuer. Can be reused by any financial product issuer\n\npragma solidity >=0.5.0 <0.7.0;\n\nimport \"./erc/ERC20.sol\";\nimport \"./ViaBond.sol\";\nimport \"./ViaToken.sol\";\nimport \"@openzeppelin/upgrades/contracts/Initializable.sol\";\nimport \"@openzeppelin/contracts-ethereum-package/contracts/ownership/Ownable.sol\";\nimport \"./abdk-libraries-solidity/ABDKMathQuad.sol\";\nimport \"./utilities/StringUtils.sol\";\n\ncontract Token is ViaToken, ERC20, Initializable, Ownable {\n\n    using stringutils for *;\n\n    //Via token attributes (eg, name : Via-USD, product : ViaBond, symbol : bond identifier)\n    string public name;\n    bytes32 public product;\n    string public symbol;\n    bytes32 public tokenSymbol;\n    address payable issuer;\n\n    //initiliaze proxies\n    function initialize(bytes32 _name, address payable _owner, bytes32 _product, bytes32 _symbol) public initializer{\n        Ownable.initialize(_owner);\n        issuer = _owner;\n        name = string(abi.encodePacked(_name));\n        symbol = string(abi.encodePacked(_symbol));\n        tokenSymbol = _symbol;\n        product = _product;\n        decimals = 2;\n    }\n\n    function addTotalSupply(bytes16 amount) external{\n        require(issuer==msg.sender);\n        //adjust total supply\n        totalSupply_ = ABDKMathQuad.add(totalSupply_, amount);\n    }\n\n    function reduceSupply(bytes16 amount) external{        \n        require(issuer==msg.sender);\n        totalSupply_ = ABDKMathQuad.sub(totalSupply_, amount);\n    }\n\n    function addBalance(address party, bytes16 amount) external{\n        require(issuer==msg.sender);\n        //add via to this contract's balance first (ie issue them first)\n        balances[party] = ABDKMathQuad.add(balances[party], amount);\n    }\n\n    function reduceBalance(address party, bytes16 amount) external{\n        require(issuer==msg.sender);\n        balances[party] = ABDKMathQuad.sub(balances[party], amount);\n    }\n\n    function transferFrom(address sender, address receiver, uint256 tokens) public returns (bool){\n        //ensure sender has enough tokens in balance before transferring or redeeming them\n        require(ABDKMathQuad.cmp(balances[sender],ABDKMathQuad.fromUInt(tokens))==1 ||\n                ABDKMathQuad.cmp(balances[sender],ABDKMathQuad.fromUInt(tokens))==0);\n        if(ViaBond(issuer).transferFoward(tokenSymbol, address(this), sender, receiver, tokens))\n            return true;\n        else\n            return false;\n    }\n\n    function transferToken(address sender, address receiver, uint256 tokens) external returns (bool){\n        require(issuer==msg.sender);\n        //owner should have more tokens than being transferred\n        if(ABDKMathQuad.cmp(ABDKMathQuad.fromUInt(tokens), balances[sender])==-1 || ABDKMathQuad.cmp(ABDKMathQuad.fromUInt(tokens), balances[sender])==0){\n            //sending contract should be allowed by token owner to make this transfer\n            //require(ABDKMathQuad.cmp(ABDKMathQuad.fromUInt(tokens), allowed[sender][msg.sender])==-1 || ABDKMathQuad.cmp(ABDKMathQuad.fromUInt(tokens), allowed[sender][msg.sender])==0);\n            balances[sender] = ABDKMathQuad.sub(balances[sender], ABDKMathQuad.fromUInt(tokens));\n            //allowed[sender][msg.sender] = ABDKMathQuad.sub(allowed[sender][msg.sender], ABDKMathQuad.fromUInt(tokens));\n            balances[receiver] = ABDKMathQuad.add(balances[receiver], ABDKMathQuad.fromUInt(tokens));\n            return true;\n        }\n        return false;\n    }   \n\n\n    function requestTransfer(address receiver, uint tokens) external returns (bool){\n        transfer(receiver, tokens);\n    }    \n\n}",
  "sourcePath": "/media/solidity/DATA/Code/via-issuer/contracts/Token.sol",
  "compiler": {
    "name": "solc",
    "version": "0.5.7+commit.6da8b019.Emscripten.clang"
  },
  "schemaVersion": "3.3.1",
  "updatedAt": "2020-11-08T18:13:24.407Z",
  "devdoc": {
    "methods": {
      "initialize(address)": {
        "details": "Initializes the contract setting the deployer as the initial owner."
      },
      "isOwner()": {
        "details": "Returns true if the caller is the current owner."
      },
      "owner()": {
        "details": "Returns the address of the current owner."
      },
      "renounceOwnership()": {
        "details": "Leaves the contract without owner. It will not be possible to call `onlyOwner` functions anymore. Can only be called by the current owner.     * > Note: Renouncing ownership will leave the contract without an owner, thereby removing any functionality that is only available to the owner."
      },
      "transferOwnership(address)": {
        "details": "Transfers ownership of the contract to a new account (`newOwner`). Can only be called by the current owner."
      }
    }
  },
  "userdoc": {
    "methods": {}
  }
}