{
  "contractName": "Token",
  "abi": [
    {
      "constant": true,
      "inputs": [],
      "name": "name",
      "outputs": [
        {
          "name": "",
          "type": "bytes32"
        }
      ],
      "payable": false,
      "stateMutability": "view",
      "type": "function"
    },
    {
      "constant": false,
      "inputs": [
        {
          "name": "spender",
          "type": "address"
        },
        {
          "name": "tokens",
          "type": "uint256"
        }
      ],
      "name": "approve",
      "outputs": [
        {
          "name": "",
          "type": "bool"
        }
      ],
      "payable": false,
      "stateMutability": "nonpayable",
      "type": "function"
    },
    {
      "constant": true,
      "inputs": [],
      "name": "totalSupply",
      "outputs": [
        {
          "name": "",
          "type": "uint256"
        }
      ],
      "payable": false,
      "stateMutability": "view",
      "type": "function"
    },
    {
      "constant": true,
      "inputs": [],
      "name": "issuer",
      "outputs": [
        {
          "name": "",
          "type": "address"
        }
      ],
      "payable": false,
      "stateMutability": "view",
      "type": "function"
    },
    {
      "constant": true,
      "inputs": [
        {
          "name": "",
          "type": "address"
        }
      ],
      "name": "balances",
      "outputs": [
        {
          "name": "",
          "type": "bytes16"
        }
      ],
      "payable": false,
      "stateMutability": "view",
      "type": "function"
    },
    {
      "constant": true,
      "inputs": [],
      "name": "decimals",
      "outputs": [
        {
          "name": "",
          "type": "uint8"
        }
      ],
      "payable": false,
      "stateMutability": "view",
      "type": "function"
    },
    {
      "constant": true,
      "inputs": [
        {
          "name": "tokenOwner",
          "type": "address"
        }
      ],
      "name": "balanceOf",
      "outputs": [
        {
          "name": "",
          "type": "uint256"
        }
      ],
      "payable": false,
      "stateMutability": "view",
      "type": "function"
    },
    {
      "constant": false,
      "inputs": [],
      "name": "renounceOwnership",
      "outputs": [],
      "payable": false,
      "stateMutability": "nonpayable",
      "type": "function"
    },
    {
      "constant": true,
      "inputs": [],
      "name": "owner",
      "outputs": [
        {
          "name": "",
          "type": "address"
        }
      ],
      "payable": false,
      "stateMutability": "view",
      "type": "function"
    },
    {
      "constant": true,
      "inputs": [],
      "name": "isOwner",
      "outputs": [
        {
          "name": "",
          "type": "bool"
        }
      ],
      "payable": false,
      "stateMutability": "view",
      "type": "function"
    },
    {
      "constant": true,
      "inputs": [],
      "name": "symbol",
      "outputs": [
        {
          "name": "",
          "type": "bytes32"
        }
      ],
      "payable": false,
      "stateMutability": "view",
      "type": "function"
    },
    {
      "constant": false,
      "inputs": [
        {
          "name": "receiver",
          "type": "address"
        },
        {
          "name": "tokens",
          "type": "uint256"
        }
      ],
      "name": "transfer",
      "outputs": [
        {
          "name": "",
          "type": "bool"
        }
      ],
      "payable": false,
      "stateMutability": "nonpayable",
      "type": "function"
    },
    {
      "constant": true,
      "inputs": [],
      "name": "product",
      "outputs": [
        {
          "name": "",
          "type": "bytes32"
        }
      ],
      "payable": false,
      "stateMutability": "view",
      "type": "function"
    },
    {
      "constant": true,
      "inputs": [
        {
          "name": "tokenOwner",
          "type": "address"
        },
        {
          "name": "spender",
          "type": "address"
        }
      ],
      "name": "allowance",
      "outputs": [
        {
          "name": "",
          "type": "uint256"
        }
      ],
      "payable": false,
      "stateMutability": "view",
      "type": "function"
    },
    {
      "constant": false,
      "inputs": [
        {
          "name": "newOwner",
          "type": "address"
        }
      ],
      "name": "transferOwnership",
      "outputs": [],
      "payable": false,
      "stateMutability": "nonpayable",
      "type": "function"
    },
    {
      "anonymous": false,
      "inputs": [
        {
          "indexed": true,
          "name": "previousOwner",
          "type": "address"
        },
        {
          "indexed": true,
          "name": "newOwner",
          "type": "address"
        }
      ],
      "name": "OwnershipTransferred",
      "type": "event"
    },
    {
      "anonymous": false,
      "inputs": [
        {
          "indexed": true,
          "name": "tokenOwner",
          "type": "address"
        },
        {
          "indexed": true,
          "name": "spender",
          "type": "address"
        },
        {
          "indexed": false,
          "name": "tokens",
          "type": "uint256"
        }
      ],
      "name": "Approval",
      "type": "event"
    },
    {
      "anonymous": false,
      "inputs": [
        {
          "indexed": true,
          "name": "from",
          "type": "address"
        },
        {
          "indexed": true,
          "name": "to",
          "type": "address"
        },
        {
          "indexed": false,
          "name": "tokens",
          "type": "uint256"
        }
      ],
      "name": "Transfer",
      "type": "event"
    },
    {
      "constant": false,
      "inputs": [
        {
          "name": "_name",
          "type": "bytes32"
        },
        {
          "name": "_owner",
          "type": "address"
        },
        {
          "name": "_product",
          "type": "bytes32"
        },
        {
          "name": "_symbol",
          "type": "bytes32"
        }
      ],
      "name": "initialize",
      "outputs": [],
      "payable": false,
      "stateMutability": "nonpayable",
      "type": "function"
    },
    {
      "constant": false,
      "inputs": [
        {
          "name": "sender",
          "type": "address"
        }
      ],
      "name": "initialize",
      "outputs": [],
      "payable": false,
      "stateMutability": "nonpayable",
      "type": "function"
    },
    {
      "constant": false,
      "inputs": [
        {
          "name": "amount",
          "type": "bytes16"
        }
      ],
      "name": "addTotalSupply",
      "outputs": [],
      "payable": false,
      "stateMutability": "nonpayable",
      "type": "function"
    },
    {
      "constant": false,
      "inputs": [
        {
          "name": "amount",
          "type": "bytes16"
        }
      ],
      "name": "reduceSupply",
      "outputs": [],
      "payable": false,
      "stateMutability": "nonpayable",
      "type": "function"
    },
    {
      "constant": false,
      "inputs": [
        {
          "name": "party",
          "type": "address"
        },
        {
          "name": "amount",
          "type": "bytes16"
        }
      ],
      "name": "addBalance",
      "outputs": [],
      "payable": false,
      "stateMutability": "nonpayable",
      "type": "function"
    },
    {
      "constant": false,
      "inputs": [
        {
          "name": "party",
          "type": "address"
        },
        {
          "name": "amount",
          "type": "bytes16"
        }
      ],
      "name": "reduceBalance",
      "outputs": [],
      "payable": false,
      "stateMutability": "nonpayable",
      "type": "function"
    },
    {
      "constant": false,
      "inputs": [
        {
          "name": "sender",
          "type": "address"
        },
        {
          "name": "receiver",
          "type": "address"
        },
        {
          "name": "tokens",
          "type": "uint256"
        }
      ],
      "name": "transferFrom",
      "outputs": [
        {
          "name": "",
          "type": "bool"
        }
      ],
      "payable": false,
      "stateMutability": "nonpayable",
      "type": "function"
    },
    {
      "constant": false,
      "inputs": [
        {
          "name": "sender",
          "type": "address"
        },
        {
          "name": "receiver",
          "type": "address"
        },
        {
          "name": "tokens",
          "type": "uint256"
        }
      ],
      "name": "transferToken",
      "outputs": [
        {
          "name": "",
          "type": "bool"
        }
      ],
      "payable": false,
      "stateMutability": "nonpayable",
      "type": "function"
    }
  ],
  "bytecode": "0x608060405261153c806100136000396000f3fe608060405234801561001057600080fd5b506004361061014d5760003560e01c80638da5cb5b116100c3578063bf9ce9521161007c578063bf9ce952146103ae578063c4d66de8146103b6578063dd62ed3e146103dc578063f16725911461040a578063f2fde38b14610431578063f5537ede146104575761014d565b80638da5cb5b146102fc5780638f32d59b1461030457806395d89b411461030c578063a49b8a4c14610314578063a9059cbb1461034a578063b3f15e75146103765761014d565b806323b872dd1161011557806323b872dd1461020157806327e235e314610237578063313ce5671461027a5780634c0992871461029857806370a08231146102ce578063715018a6146102f45761014d565b8063014153331461015257806306fdde031461017b578063095ea7b31461019557806318160ddd146101d55780631d143848146101dd575b600080fd5b6101796004803603602081101561016857600080fd5b50356001600160801b03191661048d565b005b6101836104d1565b60408051918252519081900360200190f35b6101c1600480360360408110156101ab57600080fd5b506001600160a01b0381351690602001356104d7565b604080519115158252519081900360200190f35b61018361055f565b6101e5610576565b604080516001600160a01b039092168252519081900360200190f35b6101c16004803603606081101561021757600080fd5b506001600160a01b03813581169160208101359091169060400135610585565b61025d6004803603602081101561024d57600080fd5b50356001600160a01b03166106ab565b604080516001600160801b03199092168252519081900360200190f35b6102826106c0565b6040805160ff9092168252519081900360200190f35b610179600480360360408110156102ae57600080fd5b5080356001600160a01b031690602001356001600160801b0319166106d0565b610183600480360360208110156102e457600080fd5b50356001600160a01b0316610743565b610179610770565b6101e5610816565b6101c1610825565b61018361084b565b6101796004803603604081101561032a57600080fd5b5080356001600160a01b031690602001356001600160801b031916610851565b6101c16004803603604081101561036057600080fd5b506001600160a01b03813516906020013561088e565b6101796004803603608081101561038c57600080fd5b508035906001600160a01b0360208201351690604081013590606001356109b9565b610183610a15565b610179600480360360208110156103cc57600080fd5b50356001600160a01b0316610a1b565b610183600480360360408110156103f257600080fd5b506001600160a01b0381358116916020013516610b10565b6101796004803603602081101561042057600080fd5b50356001600160801b031916610b44565b6101796004803603602081101561044757600080fd5b50356001600160a01b0316610b6b565b6101c16004803603606081101561046d57600080fd5b506001600160a01b03813581169160208101359091169060400135610bd3565b606d546001600160a01b031633146104a457600080fd5b6001546104b49060801b82610ce1565b600180546001600160801b03191660809290921c91909117905550565b606a5481565b60006104e282611113565b3360008181526003602090815260408083206001600160a01b0389168085529083529281902080546001600160801b03191660809690961c959095179094558351868152935191937f8c5be1e5ebec7d5bd14f71427d1e84f3dd0314c0f7b2291e5b200ac8c7c3b925929081900390910190a35060015b92915050565b6001546000906105719060801b611178565b905090565b6000546001600160a01b031681565b6001600160a01b0383166000908152600260205260408120546105b39060801b6105ae84611113565b611210565b60000b600114806105ed57506001600160a01b0384166000908152600260205260409020546105e89060801b6105ae84611113565b60000b155b6105f657600080fd5b606d54606c5460408051600160e01b6389063c8b02815260048101929092523060248301526001600160a01b03878116604484015286811660648401526084830186905290519216916389063c8b9160a4808201926020929091908290030181600087803b15801561066757600080fd5b505af115801561067b573d6000803e3d6000fd5b505050506040513d602081101561069157600080fd5b5051156106a0575060016106a4565b5060005b9392505050565b60026020526000908152604090205460801b81565b600054600160a01b900460ff1681565b606d546001600160a01b031633146106e757600080fd5b6001600160a01b03821660009081526002602052604090205461070d9060801b82611359565b6001600160a01b0392909216600090815260026020526040902080546001600160801b03191660809390931c9290921790915550565b6001600160a01b0381166000908152600260205260408120546107689060801b611178565b90505b919050565b610778610825565b6107cc5760408051600160e51b62461bcd02815260206004820181905260248201527f4f776e61626c653a2063616c6c6572206973206e6f7420746865206f776e6572604482015290519081900360640190fd5b6037546040516000916001600160a01b0316907f8be0079c531659141344cd1fd0a4f28419497f9722a3daafe3b4186f6b6457e0908390a3603780546001600160a01b0319169055565b6037546001600160a01b031690565b6037546000906001600160a01b031661083c61136b565b6001600160a01b031614905090565b606c5481565b606d546001600160a01b0316331461086857600080fd5b6001600160a01b03821660009081526002602052604090205461070d9060801b82610ce1565b60006108b461089c83611113565b3060009081526002602052604090205460801b611210565b60000b60001914806108d257506108cd61089c83611113565b60000b155b6108db57600080fd5b306000908152600260205260409020546109009060801b6108fb84611113565b611359565b3060009081526002602052604080822080546001600160801b031916608094851c1790556001600160a01b0386168252902054610946911b61094184611113565b610ce1565b6001600160a01b03841660008181526002602090815260409182902080546001600160801b03191660809590951c9490941790935580518581529051919230927fddf252ad1be2c89b69c2b068fc378daa952ba7f163c4a11628f55a4df523b3ef9281900390910190a350600192915050565b6109c283610a1b565b606d80546001600160a01b0319166001600160a01b039490941693909317909255606a92909255606c55606b556000805474ff00000000000000000000000000000000000000001916600160a11b179055565b606b5481565b600454610100900460ff1680610a345750610a3461136f565b80610a42575060045460ff16155b610a8057604051600160e51b62461bcd02815260040180806020018281038252602e8152602001806114e3602e913960400191505060405180910390fd5b600454610100900460ff16158015610aab576004805460ff1961ff0019909116610100171660011790555b603780546001600160a01b0319166001600160a01b0384811691909117918290556040519116906000907f8be0079c531659141344cd1fd0a4f28419497f9722a3daafe3b4186f6b6457e0908290a38015610b0c576004805461ff00191690555b5050565b6001600160a01b0380831660009081526003602090815260408083209385168352929052908120546106a49060801b611178565b606d546001600160a01b03163314610b5b57600080fd5b6001546104b49060801b82611359565b610b73610825565b610bc75760408051600160e51b62461bcd02815260206004820181905260248201527f4f776e61626c653a2063616c6c6572206973206e6f7420746865206f776e6572604482015290519081900360640190fd5b610bd081611375565b50565b606d546000906001600160a01b03163314610bed57600080fd5b610c1a610bf983611113565b6001600160a01b03861660009081526002602052604090205460801b611210565b60000b6000191480610c385750610c33610bf983611113565b60000b155b156106a0576001600160a01b038416600090815260026020526040902054610c669060801b6108fb84611113565b6001600160a01b0385811660009081526002602052604080822080546001600160801b031916608095861c17905591861681522054610ca9911b61094184611113565b6001600160a01b038416600090815260026020526040902080546001600160801b03191660809290921c9190911790555060016106a4565b6000617fff6001600160801b03608085811c8216607090811c8416939186901c90921690911c811690821415610d575780617fff1415610d4d576001600160801b03198581169085161415610d3a578492505050610559565b50600160ef1b61ffff0291506105599050565b8492505050610559565b80617fff1415610d6b578392505050610559565b6001607f1b608086901c6001600160801b0381169190911015906001600160701b031683610d9c5760019350610da3565b600160701b175b6001607f1b608087901c6001600160801b0381169190911015906001600160701b031684610dd45760019450610ddb565b600160701b175b82610e0b576001600160801b03198816600160ff1b14610dfb5787610dfe565b60005b9650505050505050610559565b80610e2b576001600160801b03198916600160ff1b14610dfb5788610dfe565b8486038415158315151415610f51576070811315610e525789975050505050505050610559565b6000811315610e715780826000821215610e6857fe5b901c9150610eab565b606f19811215610e8a5788975050505050505050610559565b6000811215610eab5780600003846000821215610ea357fe5b901c93508596505b92810192600160711b8410610ec6576001968701969390931c925b86617fff1415610efb5784610ee357600160f01b617fff02610eed565b6001600160f01b03195b975050505050505050610559565b600160701b841015610f105760009650610f1d565b6001600160701b03841693505b83607088901b86610f2f576000610f35565b6001607f1b5b6001600160801b0316171760801b975050505050505050610559565b6000811315610f6c57600184901b9350600187039650610f83565b6000811215610f8357600182901b91506001860396505b6070811315610f955760019150610ff8565b6001811315610fbd5760018103600183036000821215610fb157fe5b901c6001019150610ff8565b606f19811215610fd05760019350610ff8565b600019811215610ff85760018160000303600185036000821215610ff057fe5b901c60010193505b818410611009578184039350611012565b83820393508294505b8361102857506000965061055995505050505050565b600061103385611419565b9050806071141561105957600185901c6001600160701b031694506001880197506110a8565b607081101561109b57607081900380891115611088578086901b6001600160701b031695508089039850611095565b600098600019019590951b945b506110a8565b6001600160701b03851694505b87617fff14156110de57856110c557600160f01b617fff026110cf565b6001600160f01b03195b98505050505050505050610559565b84607089901b876110f05760006110f6565b6001607f1b5b6001600160801b0316171760801b98505050505050505050610559565b6000816111225750600061076b565b81600061112e82611419565b90506070811015611147578060700382901b915061115a565b607081111561115a576070810382901c91505b613fff0160701b6001600160701b03919091161760801b905061076b565b6000617fff6001600160801b03608084901c1660701c16613fff8110156111a357600091505061076b565b6001607f1b8360801c6001600160801b0316106111bf57600080fd5b6140fe8111156111ce57600080fd5b600160701b6001600160701b03608085901c161761406f8210156111f85761406f8290031c6106a4565b61406f8211156106a45761406e1982011b9392505050565b600060016001607f1b03608084901c16600160701b617fff0281111561123557600080fd5b60016001607f1b03608084901c16600160701b617fff0281111561125857600080fd5b6001600160801b03198581169085161415806112845750600160701b617fff02826001600160801b0316105b61128d57600080fd5b6001600160801b031985811690851614156112ad57600092505050610559565b60006001607f1b8660801c6001600160801b03161015905060006001607f1b8660801c6001600160801b031610159050811561131857801561130957826001600160801b0316846001600160801b03161161130957600161130d565b6000195b945050505050610559565b801561132b576001945050505050610559565b826001600160801b0316846001600160801b03161161134c5760001961130d565b6001945050505050610559565b60006106a483600160ff1b8418610ce1565b3390565b303b1590565b6001600160a01b0381166113bd57604051600160e51b62461bcd0281526004018080602001828103825260268152602001806114bd6026913960400191505060405180910390fd5b6037546040516001600160a01b038084169216907f8be0079c531659141344cd1fd0a4f28419497f9722a3daafe3b4186f6b6457e090600090a3603780546001600160a01b0319166001600160a01b0392909216919091179055565b600080821161142757600080fd5b6000600160801b831061143c57608092831c92015b68010000000000000000831061145457604092831c92015b640100000000831061146857602092831c92015b62010000831061147a57601092831c92015b610100831061148b57600892831c92015b6010831061149b57600492831c92015b600483106114ab57600292831c92015b60028310610768576001019291505056fe4f776e61626c653a206e6577206f776e657220697320746865207a65726f2061646472657373436f6e747261637420696e7374616e63652068617320616c7265616479206265656e20696e697469616c697a6564a165627a7a723058206e43c5cb21350887cbb77203133fe1819052c4af342181aabcd0abe9b1ae1cb00029",
  "source": "// (c) Kallol Borah, 2020\r\n// Implements token issued by Bond issuer. Can be reused by any financial product issuer\r\n\r\npragma solidity >=0.5.0 <0.7.0;\r\n\r\nimport \"./erc/ERC20.sol\";\r\nimport \"./Bond.sol\";\r\nimport \"@openzeppelin/upgrades/contracts/Initializable.sol\";\r\nimport \"@openzeppelin/contracts-ethereum-package/contracts/ownership/Ownable.sol\";\r\nimport \"abdk-libraries-solidity/ABDKMathQuad.sol\";\r\n\r\ncontract Token is ERC20, Initializable, Ownable {\r\n\r\n    //Via token attributes (eg, name : Via-USD, product : ViaBond, symbol : bond identifier)\r\n    bytes32 public name;\r\n    bytes32 public product;\r\n    bytes32 public symbol;\r\n    address payable issuer;\r\n\r\n    //initiliaze proxies\r\n    function initialize(bytes32 _name, address payable _owner, bytes32 _product, bytes32 _symbol) public {\r\n        Ownable.initialize(_owner);\r\n        issuer = _owner;\r\n        name = _name;\r\n        symbol = _symbol;\r\n        product = _product;\r\n        decimals = 2;\r\n    }\r\n\r\n    function addTotalSupply(bytes16 amount) external{\r\n        require(issuer==msg.sender);\r\n        //adjust total supply\r\n        totalSupply_ = ABDKMathQuad.add(totalSupply_, amount);\r\n    }\r\n\r\n    function reduceSupply(bytes16 amount) external{        \r\n        require(issuer==msg.sender);\r\n        totalSupply_ = ABDKMathQuad.sub(totalSupply_, amount);\r\n    }\r\n\r\n    function addBalance(address party, bytes16 amount) external{\r\n        require(issuer==msg.sender);\r\n        //add via to this contract's balance first (ie issue them first)\r\n        balances[party] = ABDKMathQuad.add(balances[party], amount);\r\n    }\r\n\r\n    function reduceBalance(address party, bytes16 amount) external{\r\n        require(issuer==msg.sender);\r\n        balances[party] = ABDKMathQuad.sub(balances[party], amount);\r\n    }\r\n\r\n    function transferFrom(address sender, address receiver, uint256 tokens) public returns (bool){\r\n        //ensure sender has enough tokens in balance before transferring or redeeming them\r\n        require(ABDKMathQuad.cmp(balances[sender],ABDKMathQuad.fromUInt(tokens))==1 ||\r\n                ABDKMathQuad.cmp(balances[sender],ABDKMathQuad.fromUInt(tokens))==0);\r\n        if(Bond(issuer).transferFoward(symbol, address(this), sender, receiver, tokens))\r\n            return true;\r\n        else\r\n            return false;\r\n    }\r\n\r\n    function transferToken(address sender, address receiver, uint256 tokens) public returns (bool){\r\n        require(issuer==msg.sender);\r\n        //owner should have more tokens than being transferred\r\n        if(ABDKMathQuad.cmp(ABDKMathQuad.fromUInt(tokens), balances[sender])==-1 || ABDKMathQuad.cmp(ABDKMathQuad.fromUInt(tokens), balances[sender])==0){\r\n            //sending contract should be allowed by token owner to make this transfer\r\n            //require(ABDKMathQuad.cmp(ABDKMathQuad.fromUInt(tokens), allowed[sender][msg.sender])==-1 || ABDKMathQuad.cmp(ABDKMathQuad.fromUInt(tokens), allowed[sender][msg.sender])==0);\r\n            balances[sender] = ABDKMathQuad.sub(balances[sender], ABDKMathQuad.fromUInt(tokens));\r\n            //allowed[sender][msg.sender] = ABDKMathQuad.sub(allowed[sender][msg.sender], ABDKMathQuad.fromUInt(tokens));\r\n            balances[receiver] = ABDKMathQuad.add(balances[receiver], ABDKMathQuad.fromUInt(tokens));\r\n            return true;\r\n        }\r\n        return false;\r\n    }    \r\n\r\n}",
  "sourcePath": "D:\\verified\\via-issuer\\contracts\\Token.sol",
  "compiler": {
    "name": "solc",
    "version": "0.5.7+commit.6da8b019.Emscripten.clang"
  },
  "schemaVersion": "3.2.5",
  "updatedAt": "2020-10-14T16:31:43.388Z",
  "devdoc": {
    "methods": {
      "initialize(address)": {
        "details": "Initializes the contract setting the deployer as the initial owner.\r"
      },
      "isOwner()": {
        "details": "Returns true if the caller is the current owner.\r"
      },
      "owner()": {
        "details": "Returns the address of the current owner.\r"
      },
      "renounceOwnership()": {
        "details": "Leaves the contract without owner. It will not be possible to call\r `onlyOwner` functions anymore. Can only be called by the current owner.\r      * > Note: Renouncing ownership will leave the contract without an owner,\r thereby removing any functionality that is only available to the owner.\r"
      },
      "transferOwnership(address)": {
        "details": "Transfers ownership of the contract to a new account (`newOwner`).\r Can only be called by the current owner.\r"
      }
    }
  },
  "userdoc": {
    "methods": {}
  }
}