{
  "contractName": "ViaOracle",
  "abi": [
    {
      "constant": true,
      "inputs": [
        {
          "name": "",
          "type": "bytes32"
        }
      ],
      "name": "pendingQueries",
      "outputs": [
        {
          "name": "caller",
          "type": "address"
        },
        {
          "name": "tokenType",
          "type": "bytes32"
        },
        {
          "name": "rateType",
          "type": "bytes32"
        },
        {
          "name": "callbackId",
          "type": "bytes32"
        }
      ],
      "payable": false,
      "stateMutability": "view",
      "type": "function"
    },
    {
      "inputs": [],
      "payable": true,
      "stateMutability": "payable",
      "type": "constructor"
    },
    {
      "anonymous": false,
      "inputs": [
        {
          "indexed": false,
          "name": "description",
          "type": "string"
        }
      ],
      "name": "LogNewProvableQuery",
      "type": "event"
    },
    {
      "anonymous": false,
      "inputs": [
        {
          "indexed": false,
          "name": "caller",
          "type": "address"
        },
        {
          "indexed": false,
          "name": "myid",
          "type": "bytes32"
        },
        {
          "indexed": false,
          "name": "tokenType",
          "type": "bytes32"
        },
        {
          "indexed": false,
          "name": "rateType",
          "type": "bytes32"
        },
        {
          "indexed": false,
          "name": "result",
          "type": "string"
        }
      ],
      "name": "LogResult",
      "type": "event"
    },
    {
      "constant": false,
      "inputs": [
        {
          "name": "_factory",
          "type": "address"
        }
      ],
      "name": "initialize",
      "outputs": [],
      "payable": false,
      "stateMutability": "nonpayable",
      "type": "function"
    },
    {
      "constant": false,
      "inputs": [
        {
          "name": "_myid",
          "type": "bytes32"
        },
        {
          "name": "_result",
          "type": "string"
        }
      ],
      "name": "__callback",
      "outputs": [],
      "payable": false,
      "stateMutability": "nonpayable",
      "type": "function"
    },
    {
      "constant": false,
      "inputs": [
        {
          "name": "_myid",
          "type": "bytes32"
        },
        {
          "name": "_result",
          "type": "string"
        },
        {
          "name": "_proof",
          "type": "bytes"
        }
      ],
      "name": "__callback",
      "outputs": [],
      "payable": false,
      "stateMutability": "nonpayable",
      "type": "function"
    },
    {
      "constant": false,
      "inputs": [
        {
          "name": "_currency",
          "type": "bytes32"
        },
        {
          "name": "_ratetype",
          "type": "bytes32"
        },
        {
          "name": "_tokenType",
          "type": "bytes32"
        },
        {
          "name": "_tokenContract",
          "type": "address"
        }
      ],
      "name": "request",
      "outputs": [
        {
          "name": "",
          "type": "bytes32"
        }
      ],
      "payable": true,
      "stateMutability": "payable",
      "type": "function"
    },
    {
      "constant": false,
      "inputs": [
        {
          "name": "_queryId",
          "type": "bytes32"
        },
        {
          "name": "_callbackId",
          "type": "bytes32"
        }
      ],
      "name": "setCallbackId",
      "outputs": [],
      "payable": false,
      "stateMutability": "nonpayable",
      "type": "function"
    },
    {
      "constant": false,
      "inputs": [
        {
          "name": "_currency",
          "type": "bytes32"
        },
        {
          "name": "_amount",
          "type": "bytes16"
        }
      ],
      "name": "payOut",
      "outputs": [],
      "payable": false,
      "stateMutability": "nonpayable",
      "type": "function"
    }
  ],
  "bytecode": "0x6080604052600180546001600160a01b031916736f485c8bf6fc43ea212e93bbf8ce046c7f1cb4751790556200005c7f110000000000000000000000000000000000000000000000000000000000000062000077602090811b901c565b6200007163ee6b28006200029860201b60201c565b62000981565b6001546001600160a01b03161580620000ab5750600154620000a9906001600160a01b03166200047c602090811b901c565b155b15620000c557620000c360006200048060201b60201c565b505b600160009054906101000a90046001600160a01b03166001600160a01b03166338cc48316040518163ffffffff1660e01b8152600401602060405180830381600087803b1580156200011657600080fd5b505af11580156200012b573d6000803e3d6000fd5b505050506040513d60208110156200014257600080fd5b50516000546001600160a01b03908116911614620001f957600160009054906101000a90046001600160a01b03166001600160a01b03166338cc48316040518163ffffffff1660e01b8152600401602060405180830381600087803b158015620001ab57600080fd5b505af1158015620001c0573d6000803e3d6000fd5b505050506040513d6020811015620001d757600080fd5b5051600080546001600160a01b0319166001600160a01b039092169190911790555b60008054604080517f688dcfd70000000000000000000000000000000000000000000000000000000081527fff000000000000000000000000000000000000000000000000000000000000008516600482015290516001600160a01b039092169263688dcfd79260248084019382900301818387803b1580156200027c57600080fd5b505af115801562000291573d6000803e3d6000fd5b5050505050565b6001546001600160a01b03161580620002cc5750600154620002ca906001600160a01b03166200047c602090811b901c565b155b15620002e657620002e460006200048060201b60201c565b505b600160009054906101000a90046001600160a01b03166001600160a01b03166338cc48316040518163ffffffff1660e01b8152600401602060405180830381600087803b1580156200033757600080fd5b505af11580156200034c573d6000803e3d6000fd5b505050506040513d60208110156200036357600080fd5b50516000546001600160a01b039081169116146200041a57600160009054906101000a90046001600160a01b03166001600160a01b03166338cc48316040518163ffffffff1660e01b8152600401602060405180830381600087803b158015620003cc57600080fd5b505af1158015620003e1573d6000803e3d6000fd5b505050506040513d6020811015620003f857600080fd5b5051600080546001600160a01b0319166001600160a01b039092169190911790555b60008054604080517fca6ad1e40000000000000000000000000000000000000000000000000000000081526004810185905290516001600160a01b039092169263ca6ad1e49260248084019382900301818387803b1580156200027c57600080fd5b3b90565b6000620004926200049860201b60201c565b92915050565b600080620004c0731d3b2638a7cc9f2cb3d298a3da7a90b67e5506ed6200047c60201b60201c565b11156200053e57600180546001600160a01b031916731d3b2638a7cc9f2cb3d298a3da7a90b67e5506ed17905560408051808201909152600b81527f6574685f6d61696e6e6574000000000000000000000000000000000000000000602080830191909152620005359190620008c6811b901c565b506001620008c3565b60006200056573c03a2615d5efaf5f49f60b7bb6583eaec212fdf16200047c60201b60201c565b1115620005da57600180546001600160a01b03191673c03a2615d5efaf5f49f60b7bb6583eaec212fdf117905560408051808201909152600c81527f6574685f726f707374656e330000000000000000000000000000000000000000602080830191909152620005359190620008c6811b901c565b60006200060173b7a07bcf2ba2f2703b24c0691b5278999c59ac7e6200047c60201b60201c565b11156200067657600180546001600160a01b03191673b7a07bcf2ba2f2703b24c0691b5278999c59ac7e17905560408051808201909152600981527f6574685f6b6f76616e0000000000000000000000000000000000000000000000602080830191909152620005359190620008c6811b901c565b60006200069d73146500cfd35b22e4a392fe0adc06de1a1368ed486200047c60201b60201c565b11156200071257600180546001600160a01b03191673146500cfd35b22e4a392fe0adc06de1a1368ed4817905560408051808201909152600b81527f6574685f72696e6b656279000000000000000000000000000000000000000000602080830191909152620005359190620008c6811b901c565b60006200073973a2998efd205fb9d4b4963afb70778d6354ad3a416200047c60201b60201c565b1115620007ae57600180546001600160a01b03191673a2998efd205fb9d4b4963afb70778d6354ad3a4117905560408051808201909152600a81527f6574685f676f65726c6900000000000000000000000000000000000000000000602080830191909152620005359190620008c6811b901c565b6000620007d5736f485c8bf6fc43ea212e93bbf8ce046c7f1cb4756200047c60201b60201c565b1115620008095750600180546001600160a01b031916736f485c8bf6fc43ea212e93bbf8ce046c7f1cb475178155620008c3565b6000620008307320e12a1f859b3feae5fb2a0a32c18f5a65555bbf6200047c60201b60201c565b1115620008645750600180546001600160a01b0319167320e12a1f859b3feae5fb2a0a32c18f5a65555bbf178155620008c3565b60006200088b7351efaf4c8b3c9afbd5ab9f4bbc82784ab6ef8faa6200047c60201b60201c565b1115620008bf5750600180546001600160a01b0319167351efaf4c8b3c9afbd5ab9f4bbc82784ab6ef8faa178155620008c3565b5060005b90565b8051620008db906002906020840190620008df565b5050565b828054600181600116156101000203166002900490600052602060002090601f016020900481019282601f106200092257805160ff191683800117855562000952565b8280016001018555821562000952579182015b828111156200095257825182559160200191906001019062000935565b506200096092915062000964565b5090565b620008c391905b808211156200096057600081556001016200096b565b61292d80620009916000396000f3fe6080604052600436106100705760003560e01c80636069d8a71161004e5780636069d8a71461029c5780636954ee9e146102e657806389a2cdcb14610320578063c4d66de81461037a57610070565b806327dc297e1461007557806338bbfa501461012f5780634fd24e9c1461026c575b600080fd5b34801561008157600080fd5b5061012d6004803603604081101561009857600080fd5b81359190810190604081016020820135600160201b8111156100b957600080fd5b8201836020820111156100cb57600080fd5b803590602001918460018302840111600160201b831117156100ec57600080fd5b91908080601f0160208091040260200160405190810160405280939291908181526020018383808284376000920191909152509295506103ad945050505050565b005b34801561013b57600080fd5b5061012d6004803603606081101561015257600080fd5b81359190810190604081016020820135600160201b81111561017357600080fd5b82018360208201111561018557600080fd5b803590602001918460018302840111600160201b831117156101a657600080fd5b91908080601f0160208091040260200160405190810160405280939291908181526020018383808284376000920191909152509295949360208101935035915050600160201b8111156101f857600080fd5b82018360208201111561020a57600080fd5b803590602001918460018302840111600160201b8311171561022b57600080fd5b91908080601f0160208091040260200160405190810160405280939291908181526020018383808284376000920191909152509295506103cd945050505050565b34801561027857600080fd5b5061012d6004803603604081101561028f57600080fd5b5080359060200135610920565b6102d4600480360360808110156102b257600080fd5b50803590602081013590604081013590606001356001600160a01b0316610958565b60408051918252519081900360200190f35b3480156102f257600080fd5b5061012d6004803603604081101561030957600080fd5b50803590602001356001600160801b03191661127d565b34801561032c57600080fd5b5061034a6004803603602081101561034357600080fd5b50356118d6565b604080516001600160a01b0390951685526020850193909352838301919091526060830152519081900360800190f35b34801561038657600080fd5b5061012d6004803603602081101561039d57600080fd5b50356001600160a01b0316611907565b6040805160008152602081019091526103c990839083906103cd565b5050565b6103d56119dd565b6001600160a01b0316336001600160a01b0316146103f257600080fd5b826103fb612699565b506000848152603960208181526040808420815160808101835281546001600160a01b03811682526001830180548387015260028401805495840195909552600384018054606085019081528d8a52979096526001600160a01b03199091169092559085905590849055929055511561047657806060015191505b7f6122fd11e571fc97247892b733e9287d1d0264feefed58c5f87f454f87a560b0816000015183836020015184604001518860405180866001600160a01b03166001600160a01b0316815260200185815260200184815260200183815260200180602001828103825283818151815260200191508051906020019080838360005b8381101561050f5781810151838201526020016104f7565b50505050905090810190601f16801561053c5780820380516001836020036101000a031916815260200191505b50965050505050505060405180910390a18060200151600160e31b63086c2e6d0214156106d85780600001516001600160a01b03166321f68b4e8361065e8773__stringutils___________________________631bd9515590916040518263ffffffff1660e01b81526004018080602001828103825283818151815260200191508051906020019080838360005b838110156105e35781810151838201526020016105cb565b50505050905090810190601f1680156106105780820380516001836020036101000a031916815260200191505b509250505060206040518083038186803b15801561062d57600080fd5b505af4158015610641573d6000803e3d6000fd5b505050506040513d602081101561065757600080fd5b5051611bc7565b84604001516040518463ffffffff1660e01b815260040180848152602001836001600160801b0319166001600160801b03191681526020018281526020019350505050600060405180830381600087803b1580156106bb57600080fd5b505af11580156106cf573d6000803e3d6000fd5b50505050610919565b8060200151600160e21b63109bdb9902141561076f578051604051600160e01b631bd951550281526020600482018181528751602484015287516001600160a01b03909416936321f68b4e93879361065e9373__stringutils___________________________93631bd95155938d93839260449092019190850190808383600083156105e35781810151838201526020016105cb565b8060200151600160cb1b6608ae8d086c2e6d021415610809578051604051600160e01b631bd951550281526020600482018181528751602484015287516001600160a01b03909416936321f68b4e93879361065e9373__stringutils___________________________93631bd95155938d93839260449092019190850190808383600083156105e35781810151838201526020016105cb565b8060200151600160ca1b66115d1a109bdb99021415610919578051604051600160e01b631bd951550281526020600482018181528751602484015287516001600160a01b03909416936321f68b4e9387936108a39373__stringutils___________________________93631bd95155938d93839260449092019190850190808383600083156105e35781810151838201526020016105cb565b84604001516040518463ffffffff1660e01b815260040180848152602001836001600160801b0319166001600160801b03191681526020018281526020019350505050600060405180830381600087803b15801561090057600080fd5b505af1158015610914573d6000803e3d6000fd5b505050505b5050505050565b6000828152603960205260409020546001600160a01b0316331461094357600080fd5b60009182526039602052604090912060030155565b60385460408051600160e01b63f429f19b02815233600482015290516000926001600160a01b03169163f429f19b916024808301926020929190829003018186803b1580156109a657600080fd5b505afa1580156109ba573d6000803e3d6000fd5b505050506040513d60208110156109d057600080fd5b5051600160cb1b660acd2c286c2e6d021480610a71575060385460408051600160e01b63f429f19b02815233600482015290516001600160a01b039092169163f429f19b91602480820192602092909190829003018186803b158015610a3557600080fd5b505afa158015610a49573d6000803e3d6000fd5b505050506040513d6020811015610a5f57600080fd5b5051600160ca1b66159a58509bdb9902145b610a7a57600080fd5b306001600160a01b031631610ab0604051806040016040528060038152602001600160ea1b62155493028152506207a120611c34565b1115610af4576000805160206127a583398151915260405180806020018281038252604c815260200180612759604c913960600191505060405180910390a1611275565b60608573__stringutils___________________________639201de5590916040518263ffffffff1660e01b81526004018082815260200191505060006040518083038186803b158015610b4757600080fd5b505af4158015610b5b573d6000803e3d6000fd5b505050506040513d6000823e601f3d908101601f191682016040526020811015610b8457600080fd5b810190808051600160201b811115610b9b57600080fd5b82016020810184811115610bae57600080fd5b8151600160201b811182820187101715610bc757600080fd5b505060385460408051600160e01b633e18b01b0281529051929650606095506001600160a01b039091169350633e18b01b92506004808201926020929091908290030181600087803b158015610c1c57600080fd5b505af1158015610c30573d6000803e3d6000fd5b505050506040513d6020811015610c4657600080fd5b505160408051600160e01b639201de5502815260048101929092525173__stringutils___________________________91639201de55916024808301926000929190829003018186803b158015610c9d57600080fd5b505af4158015610cb1573d6000803e3d6000fd5b505050506040513d6000823e601f3d908101601f191682016040526020811015610cda57600080fd5b810190808051600160201b811115610cf157600080fd5b82016020810184811115610d0457600080fd5b8151600160201b811182820187101715610d1d57600080fd5b5050929190505050905085600160f11b6132b9021480610d45575085600160e91b623b32b902145b15610f8b576000610e68604051806040016040528060038152602001600160ea1b621554930281525083856040516020018080600160db1b640d4e6dedc50281525060050183805190602001908083835b60208310610db55780518252601f199092019160209182019101610d96565b51815160209384036101000a6000190180199092169116179052600160b01b692f72617465732f65722f02919093019081528451600a90910192850191508083835b60208310610e165780518252601f199092019160209182019101610df7565b6001836020036101000a03801982511681845116808217855250505050505090500180600160d01b65292e7261746502815250600601925050506040516020818303038152906040526207a120611e8f565b604080516080810182526001600160a01b03888116825260208083018b81528385018d81526000606086018181528882526039855290879020955186546001600160a01b031916951694909417855590516001850155516002840155905160039092019190915590519192506000805160206127a5833981519152918a910180603361288f82396033018281526020019150506040516020818303038152906040526040518080602001828103825283818151815260200191508051906020019080838360005b83811015610f47578181015183820152602001610f2f565b50505050905090810190601f168015610f745780820380516001836020036101000a031916815260200191505b509250505060405180910390a19250611275915050565b85600160f11b6134b9021415611143576000611069604051806040016040528060038152602001600160ea1b621554930281525083856040516020018080600160db1b640d4e6dedc50281525060050183805190602001908083835b602083106110065780518252601f199092019160209182019101610fe7565b51815160001960209485036101000a01908116901991909116179052600160b01b692f72617465732f69722f02939091019283528451600a90930192908501915080838360208310610e165780518252601f199092019160209182019101610df7565b604080516080810182526001600160a01b03888116825260208083018b81528385018d81526000606086018181528882526039855290879020955186546001600160a01b031916951694909417855590516001850155516002840155905160039092019190915590519192506000805160206127a5833981519152918a91018060336127c58239603381810193909352604080518083039094018452605382019081905260208082528451607384015284519193508392609301919085019080838360008315610f47578181015183820152602001610f2f565b85600160d21b65195d1a1d5cd902141561127257600061119d604051806040016040528060038152602001600160ea1b62155493028152506040518060600160405280604081526020016128c2604091396207a120611e8f565b604080516080810182526001600160a01b03888116825260208083018b81528385018d81526000606086018181528882526039855290879020955186546001600160a01b031916951694909417855590516001850155516002840155905160039092019190915590519192506000805160206127a5833981519152910180604261284d8239604201905060405160208183030381529060405260405180806020018281038252838181518152602001915080519060200190808383600083811015610f47578181015183820152602001610f2f565b50505b949350505050565b60385460408051600160e01b63f429f19b02815233600482015290516001600160a01b039092169163f429f19b91602480820192602092909190829003018186803b1580156112cb57600080fd5b505afa1580156112df573d6000803e3d6000fd5b505050506040513d60208110156112f557600080fd5b5051600160cb1b660acd2c286c2e6d021461130f57600080fd5b306001600160a01b031631611345604051806040016040528060038152602001600160ea1b62155493028152506207a120611c34565b1115611389576000805160206127a583398151915260405180806020018281038252604c815260200180612759604c913960600191505060405180910390a16103c9565b60608273__stringutils___________________________639201de5590916040518263ffffffff1660e01b81526004018082815260200191505060006040518083038186803b1580156113dc57600080fd5b505af41580156113f0573d6000803e3d6000fd5b505050506040513d6000823e601f3d908101601f19168201604052602081101561141957600080fd5b810190808051600160201b81111561143057600080fd5b8201602081018481111561144357600080fd5b8151600160201b81118282018710171561145c57600080fd5b505060385460408051600160e01b633e18b01b0281529051929650606095506001600160a01b039091169350633e18b01b92506004808201926020929091908290030181600087803b1580156114b157600080fd5b505af11580156114c5573d6000803e3d6000fd5b505050506040513d60208110156114db57600080fd5b505160408051600160e01b639201de5502815260048101929092525173__stringutils___________________________91639201de55916024808301926000929190829003018186803b15801561153257600080fd5b505af4158015611546573d6000803e3d6000fd5b505050506040513d6000823e601f3d908101601f19168201604052602081101561156f57600080fd5b810190808051600160201b81111561158657600080fd5b8201602081018481111561159957600080fd5b8151600160201b8111828201871017156115b257600080fd5b505060408051600160e01b639201de550281526001600160801b03198916600482015290519195506060945073__stringutils___________________________9350639201de559250602480820192600092909190829003018186803b15801561161c57600080fd5b505af4158015611630573d6000803e3d6000fd5b505050506040513d6000823e601f3d908101601f19168201604052602081101561165957600080fd5b810190808051600160201b81111561167057600080fd5b8201602081018481111561168357600080fd5b8151600160201b81118282018710171561169c57600080fd5b5050929190505050905061181d604051806040016040528060038152602001600160ea1b62155493028152508385846040516020018080600160db1b640d4e6dedc50281525060050184805190602001908083835b602083106117105780518252601f1990920191602091820191016116f1565b51815160209384036101000a6000190180199092169116179052600160c01b672f7061796f75742f02919093019081528551600890910192860191508083835b6020831061176f5780518252601f199092019160209182019101611750565b6001836020036101000a03801982511681845116808217855250505050505090500180600160f81b602f0281525060010182805190602001908083835b602083106117cb5780518252601f1990920191602091820191016117ac565b6001836020036101000a03801982511681845116808217855250505050505090500180600160d81b64292e7061790281525060050193505050506040516020818303038152906040526207a120611e8f565b506000805160206127a58339815191528560405160200180806127f8602791396027018281526020019150506040516020818303038152906040526040518080602001828103825283818151815260200191508051906020019080838360005b8381101561189557818101518382015260200161187d565b50505050905090810190601f1680156118c25780820380516001836020036101000a031916815260200191505b509250505060405180910390a15050505050565b60396020526000908152604090208054600182015460028301546003909301546001600160a01b0390921692909184565b600554610100900460ff1680611920575061192061225f565b8061192e575060055460ff16155b61196c57604051600160e51b62461bcd02815260040180806020018281038252602e81526020018061281f602e913960400191505060405180910390fd5b600554610100900460ff16158015611997576005805460ff1961ff0019909116610100171660011790555b6038546001600160a01b0316156119ad57600080fd5b603880546001600160a01b0319166001600160a01b03841617905580156103c9576005805461ff00191690555050565b6001546000906001600160a01b03161580611a0a5750600154611a08906001600160a01b0316612265565b155b15611a1b57611a196000612269565b505b600160009054906101000a90046001600160a01b03166001600160a01b03166338cc48316040518163ffffffff1660e01b8152600401602060405180830381600087803b158015611a6b57600080fd5b505af1158015611a7f573d6000803e3d6000fd5b505050506040513d6020811015611a9557600080fd5b50516000546001600160a01b03908116911614611b4857600160009054906101000a90046001600160a01b03166001600160a01b03166338cc48316040518163ffffffff1660e01b8152600401602060405180830381600087803b158015611afc57600080fd5b505af1158015611b10573d6000803e3d6000fd5b505050506040513d6020811015611b2657600080fd5b5051600080546001600160a01b0319166001600160a01b039092169190911790555b6000809054906101000a90046001600160a01b03166001600160a01b031663c281d19e6040518163ffffffff1660e01b815260040160206040518083038186803b158015611b9557600080fd5b505afa158015611ba9573d6000803e3d6000fd5b505050506040513d6020811015611bbf57600080fd5b505190505b90565b600081611bd657506000611c2f565b816000611be282612279565b90506070811015611bfb578060700382901b9150611c0e565b6070811115611c0e576070810382901c91505b613fff0160701b6dffffffffffffffffffffffffffff919091161760801b90505b919050565b6001546000906001600160a01b03161580611c615750600154611c5f906001600160a01b0316612265565b155b15611c7257611c706000612269565b505b600160009054906101000a90046001600160a01b03166001600160a01b03166338cc48316040518163ffffffff1660e01b8152600401602060405180830381600087803b158015611cc257600080fd5b505af1158015611cd6573d6000803e3d6000fd5b505050506040513d6020811015611cec57600080fd5b50516000546001600160a01b03908116911614611d9f57600160009054906101000a90046001600160a01b03166001600160a01b03166338cc48316040518163ffffffff1660e01b8152600401602060405180830381600087803b158015611d5357600080fd5b505af1158015611d67573d6000803e3d6000fd5b505050506040513d6020811015611d7d57600080fd5b5051600080546001600160a01b0319166001600160a01b039092169190911790555b6000805460408051600160e21b630bbceb3302815260248101869052600481019182528651604482015286516001600160a01b0390931693632ef3accc93889388939092839260649092019160208701918190849084905b83811015611e0f578181015183820152602001611df7565b50505050905090810190601f168015611e3c5780820380516001836020036101000a031916815260200191505b509350505050602060405180830381600087803b158015611e5c57600080fd5b505af1158015611e70573d6000803e3d6000fd5b505050506040513d6020811015611e8657600080fd5b50519392505050565b6001546000906001600160a01b03161580611ebc5750600154611eba906001600160a01b0316612265565b155b15611ecd57611ecb6000612269565b505b600160009054906101000a90046001600160a01b03166001600160a01b03166338cc48316040518163ffffffff1660e01b8152600401602060405180830381600087803b158015611f1d57600080fd5b505af1158015611f31573d6000803e3d6000fd5b505050506040513d6020811015611f4757600080fd5b50516000546001600160a01b03908116911614611ffa57600160009054906101000a90046001600160a01b03166001600160a01b03166338cc48316040518163ffffffff1660e01b8152600401602060405180830381600087803b158015611fae57600080fd5b505af1158015611fc2573d6000803e3d6000fd5b505050506040513d6020811015611fd857600080fd5b5051600080546001600160a01b0319166001600160a01b039092169190911790555b6000805460408051600160e21b630bbceb3302815260248101869052600481019182528751604482015287516001600160a01b0390931692632ef3accc928992889282916064019060208601908083838c5b8381101561206457818101518382015260200161204c565b50505050905090810190601f1680156120915780820380516001836020036101000a031916815260200191505b509350505050602060405180830381600087803b1580156120b157600080fd5b505af11580156120c5573d6000803e3d6000fd5b505050506040513d60208110156120db57600080fd5b50519050670de0b6b3a76400003a8402018111156120fd575060009050612258565b60008054604051600160e01b63c51be90f02815260048101838152606482018790526080602483019081528951608484015289516001600160a01b039094169463c51be90f94879491938c938c938c93604482019160a4019060208801908083838c5b83811015612178578181015183820152602001612160565b50505050905090810190601f1680156121a55780820380516001836020036101000a031916815260200191505b50838103825285518152855160209182019187019080838360005b838110156121d85781810151838201526020016121c0565b50505050905090810190601f1680156122055780820380516001836020036101000a031916815260200191505b5096505050505050506020604051808303818588803b15801561222757600080fd5b505af115801561223b573d6000803e3d6000fd5b50505050506040513d602081101561225257600080fd5b50519150505b9392505050565b303b1590565b3b90565b600061227361231b565b92915050565b600080821161228757600080fd5b6000600160801b831061229c57608092831c92015b6801000000000000000083106122b457604092831c92015b600160201b83106122c757602092831c92015b6201000083106122d957601092831c92015b61010083106122ea57600892831c92015b601083106122fa57600492831c92015b6004831061230a57600292831c92015b600283106122735760010192915050565b60008061233b731d3b2638a7cc9f2cb3d298a3da7a90b67e5506ed612265565b111561239d57600180546001600160a01b031916731d3b2638a7cc9f2cb3d298a3da7a90b67e5506ed17905560408051808201909152600b8152600160aa1b6a195d1a17db585a5b9b995d02602082015261239590612686565b506001611bc4565b60006123bc73c03a2615d5efaf5f49f60b7bb6583eaec212fdf1612265565b111561242557600180546001600160a01b03191673c03a2615d5efaf5f49f60b7bb6583eaec212fdf117905560408051808201909152600c81527f6574685f726f707374656e330000000000000000000000000000000000000000602082015261239590612686565b600061244473b7a07bcf2ba2f2703b24c0691b5278999c59ac7e612265565b111561249c57600180546001600160a01b03191673b7a07bcf2ba2f2703b24c0691b5278999c59ac7e1790556040805180820190915260098152600160b91b6832ba342fb5b7bb30b702602082015261239590612686565b60006124bb73146500cfd35b22e4a392fe0adc06de1a1368ed48612265565b111561251557600180546001600160a01b03191673146500cfd35b22e4a392fe0adc06de1a1368ed4817905560408051808201909152600b8152600160a81b6a6574685f72696e6b65627902602082015261239590612686565b600061253473a2998efd205fb9d4b4963afb70778d6354ad3a41612265565b111561258d57600180546001600160a01b03191673a2998efd205fb9d4b4963afb70778d6354ad3a4117905560408051808201909152600a8152600160b01b696574685f676f65726c6902602082015261239590612686565b60006125ac736f485c8bf6fc43ea212e93bbf8ce046c7f1cb475612265565b11156125de5750600180546001600160a01b031916736f485c8bf6fc43ea212e93bbf8ce046c7f1cb475178155611bc4565b60006125fd7320e12a1f859b3feae5fb2a0a32c18f5a65555bbf612265565b111561262f5750600180546001600160a01b0319167320e12a1f859b3feae5fb2a0a32c18f5a65555bbf178155611bc4565b600061264e7351efaf4c8b3c9afbd5ab9f4bbc82784ab6ef8faa612265565b11156126805750600180546001600160a01b0319167351efaf4c8b3c9afbd5ab9f4bbc82784ab6ef8faa178155611bc4565b50600090565b80516103c99060029060208401906126c0565b60408051608081018252600080825260208201819052918101829052606081019190915290565b828054600181600116156101000203166002900490600052602060002090601f016020900481019282601f1061270157805160ff191683800117855561272e565b8280016001018555821561272e579182015b8281111561272e578251825591602001919060010190612713565b5061273a92915061273e565b5090565b611bc491905b8082111561273a576000815560010161274456fe50726f7661626c6520717565727920776173204e4f542073656e742c20706c656173652061646420736f6d652045544820746f20636f76657220666f72207468652071756572792066656521c4dc360d0a9c0677a3379ae0a3d81e887f761e65fdf3d7e00859d1bcd3c4738950726f7661626c65207175657279207761732073656e7420666f722056696120696e74657265737420726174657320666f722050726f7661626c65207175657279207761732073656e7420666f7220706179696e67206f757420436f6e747261637420696e7374616e63652068617320616c7265616479206265656e20696e697469616c697a656450726f7661626c65207175657279207761732073656e7420666f72204554482d5553442c207374616e64696e6720627920666f722074686520616e737765722e2e2e50726f7661626c65207175657279207761732073656e7420666f72205669612065786368616e676520726174657320666f72206a736f6e2868747470733a2f2f6170692e70726f2e636f696e626173652e636f6d2f70726f64756374732f4554482d5553442f7469636b6572292e7072696365a165627a7a72305820815a7d7d6665029ce25d648119514f9a7e44d1ae24ab0e0844012fdb03c144190029",
  "source": "//(c) Kallol Borah, 2020\r\n// Via oracle client\r\n// SPDX-License-Identifier: MIT\r\n\r\npragma solidity 0.5.7;\r\n\r\nimport \"./provableAPI.sol\";\r\nimport \"../interfaces/Oracle.sol\";\r\nimport \"../utilities/StringUtils.sol\";\r\nimport \"../interfaces/ViaFactory.sol\";\r\nimport \"../interfaces/ViaCash.sol\";\r\nimport \"../interfaces/ViaBond.sol\";\r\nimport \"../interfaces/ViaCash.sol\";\r\nimport \"abdk-libraries-solidity/ABDKMathQuad.sol\";\r\nimport \"@openzeppelin/upgrades/contracts/Initializable.sol\";\r\n\r\ncontract ViaOracle is Oracle, usingProvable, Initializable {\r\n\r\n    using stringutils for *;\r\n\r\n    using ABDKMathQuad for uint256;\r\n    using ABDKMathQuad for int256;\r\n    using ABDKMathQuad for bytes16;\r\n\r\n    //via factory address\r\n    ViaFactory private factory;\r\n\r\n    struct params{\r\n        address payable caller;\r\n        bytes32 tokenType;\r\n        bytes32 rateType;\r\n        bytes32 callbackId;\r\n    }\r\n\r\n    uint constant CUSTOM_GASLIMIT = 500000;\r\n\r\n    mapping (bytes32 => params) public pendingQueries;\r\n\r\n    event LogNewProvableQuery(string description);\r\n    event LogResult(address payable caller, bytes32 myid, bytes32 tokenType, bytes32 rateType, string result);\r\n    \r\n    constructor()\r\n        public\r\n        payable\r\n    {\r\n        // note : replace OAR if you are testing Oracle with ethereum-bridge (https://github.com/provable-things/ethereum-bridge)\r\n        OAR = OracleAddrResolverI(0x6f485C8BF6fc43eA212E93BBF8ce046C7f1cb475); \r\n        provable_setProof(proofType_TLSNotary | proofStorage_IPFS);\r\n        provable_setCustomGasPrice(4000000000); // i.e. 4 GWei\r\n    }\r\n\r\n    function initialize(address _factory) external initializer{\r\n        require(address(factory)==address(0x0));\r\n        factory = ViaFactory(_factory);\r\n    }                              \r\n\r\n    function __callback(\r\n        bytes32 _myid,\r\n        string memory _result,\r\n        bytes memory _proof\r\n    )\r\n        public \r\n    {\r\n        //to do : lines below throw error\r\n        require(msg.sender == provable_cbAddress());\r\n\r\n        bytes32 callbackId = _myid;\r\n        params memory mpramas = pendingQueries[_myid];\r\n        delete pendingQueries[_myid];\r\n\r\n        if(mpramas.callbackId!=\"\")\r\n            callbackId = mpramas.callbackId;\r\n\r\n        emit LogResult(mpramas.caller, callbackId, mpramas.tokenType, mpramas.rateType, _result);\r\n        \r\n        if(mpramas.tokenType == \"Cash\"){\r\n            ViaCash(mpramas.caller).convert(callbackId, ABDKMathQuad.fromUInt(_result.stringToUint()), mpramas.rateType);\r\n        }\r\n        else if(mpramas.tokenType == \"Bond\"){\r\n            ViaBond(mpramas.caller).convert(callbackId, ABDKMathQuad.fromUInt(_result.stringToUint()), mpramas.rateType);\r\n        }\r\n        else if(mpramas.tokenType == \"EthCash\"){\r\n            ViaCash(mpramas.caller).convert(callbackId, ABDKMathQuad.fromUInt(_result.stringToUint()), mpramas.rateType);\r\n        }\r\n        else if(mpramas.tokenType == \"EthBond\"){\r\n            ViaBond(mpramas.caller).convert(callbackId, ABDKMathQuad.fromUInt(_result.stringToUint()), mpramas.rateType);\r\n        }\r\n    }\r\n\r\n    function request(bytes32 _currency, bytes32 _ratetype, bytes32 _tokenType, address payable _tokenContract)\r\n        external\r\n        payable\r\n        returns (bytes32)\r\n    {  \r\n        require(factory.getType(msg.sender) == \"ViaCash\" || factory.getType(msg.sender) == \"ViaBond\");\r\n        if (provable_getPrice(\"URL\", CUSTOM_GASLIMIT) > address(this).balance) {\r\n            emit LogNewProvableQuery(\"Provable query was NOT sent, please add some ETH to cover for the query fee!\");\r\n        } else {\r\n            string memory currency = _currency.bytes32ToString();\r\n            string memory url = factory.getViaOracleUrl().bytes32ToString();\r\n            if(_ratetype == \"er\" || _ratetype == \"ver\"){\r\n                bytes32 queryId = provable_query(\"URL\", string(abi.encodePacked(\"json(\",url,\"/rates/er/\",currency,\").rate\")),CUSTOM_GASLIMIT);  \r\n                pendingQueries[queryId] = params(_tokenContract, _tokenType, _ratetype,\"\");\r\n                emit LogNewProvableQuery(string(abi.encodePacked(\"Provable query was sent for Via exchange rates for \",_currency)));\r\n                return queryId;\r\n            }\r\n            else if(_ratetype == \"ir\"){\r\n                bytes32 queryId = provable_query(\"URL\", string(abi.encodePacked(\"json(\",url,\"/rates/ir/\",currency,\").rate\")),CUSTOM_GASLIMIT);\r\n                pendingQueries[queryId] = params(_tokenContract, _tokenType, _ratetype,\"\");\r\n                emit LogNewProvableQuery(string(abi.encodePacked(\"Provable query was sent for Via interest rates for \",_currency)));\r\n                return queryId;\r\n            }\r\n            else if(_ratetype == \"ethusd\"){\r\n                bytes32 queryId = provable_query(\"URL\", \"json(https://api.pro.coinbase.com/products/ETH-USD/ticker).price\",CUSTOM_GASLIMIT);\r\n                pendingQueries[queryId] = params(_tokenContract, _tokenType, _ratetype,\"\");\r\n                emit LogNewProvableQuery(string(abi.encodePacked(\"Provable query was sent for ETH-USD, standing by for the answer...\")));\r\n                return queryId;\r\n            }\r\n        }        \r\n    }\r\n\r\n    function setCallbackId(bytes32 _queryId, bytes32 _callbackId) external {\r\n        require(pendingQueries[_queryId].caller==msg.sender);\r\n        pendingQueries[_queryId].callbackId = _callbackId;\r\n    }\r\n\r\n    \r\n    //payout fiat\r\n    function payOut(bytes32 _currency, bytes16 _amount) external {\r\n        require(factory.getType(msg.sender) == \"ViaCash\");\r\n        if (provable_getPrice(\"URL\", CUSTOM_GASLIMIT) > address(this).balance) {\r\n            emit LogNewProvableQuery(\"Provable query was NOT sent, please add some ETH to cover for the query fee!\");\r\n        } else {\r\n            string memory currency = _currency.bytes32ToString();\r\n            string memory url = factory.getViaOracleUrl().bytes32ToString();\r\n            string memory amount = bytes32(_amount).bytes32ToString();\r\n            provable_query(\"URL\", string(abi.encodePacked(\"json(\",url,\"/payout/\",currency,\"/\",amount,\").pay\")),CUSTOM_GASLIMIT);  \r\n            emit LogNewProvableQuery(string(abi.encodePacked(\"Provable query was sent for paying out \",_currency)));\r\n        }      \r\n    }\r\n\r\n}",
  "sourcePath": "D:/Code/via-issuer/contracts/oraclize/ViaOracle.sol",
  "compiler": {
    "name": "solc",
    "version": "0.5.7+commit.6da8b019.Emscripten.clang"
  },
  "schemaVersion": "3.3.3",
  "updatedAt": "2021-01-09T18:19:22.456Z",
  "devdoc": {
    "methods": {
      "__callback(bytes32,string)": {
        "details": "The following `__callback` functions are just placeholders ideally\r     meant to be defined in child contract when proofs are used.\r     The function bodies simply silence compiler warnings.\r"
      }
    }
  },
  "userdoc": {
    "methods": {}
  }
}