{
  "contractName": "ViaOracle",
  "abi": [
    {
      "constant": true,
      "inputs": [
        {
          "name": "",
          "type": "bytes32"
        }
      ],
      "name": "pendingQueries",
      "outputs": [
        {
          "name": "caller",
          "type": "address"
        },
        {
          "name": "tokenType",
          "type": "bytes32"
        },
        {
          "name": "rateType",
          "type": "bytes32"
        }
      ],
      "payable": false,
      "stateMutability": "view",
      "type": "function"
    },
    {
      "inputs": [],
      "payable": true,
      "stateMutability": "payable",
      "type": "constructor"
    },
    {
      "anonymous": false,
      "inputs": [
        {
          "indexed": false,
          "name": "description",
          "type": "string"
        }
      ],
      "name": "LogNewProvableQuery",
      "type": "event"
    },
    {
      "anonymous": false,
      "inputs": [
        {
          "indexed": false,
          "name": "caller",
          "type": "address"
        },
        {
          "indexed": false,
          "name": "myid",
          "type": "bytes32"
        },
        {
          "indexed": false,
          "name": "tokenType",
          "type": "bytes32"
        },
        {
          "indexed": false,
          "name": "rateType",
          "type": "bytes32"
        },
        {
          "indexed": false,
          "name": "result",
          "type": "string"
        }
      ],
      "name": "LogResult",
      "type": "event"
    },
    {
      "constant": false,
      "inputs": [
        {
          "name": "_factory",
          "type": "address"
        }
      ],
      "name": "initialize",
      "outputs": [],
      "payable": false,
      "stateMutability": "nonpayable",
      "type": "function"
    },
    {
      "constant": false,
      "inputs": [
        {
          "name": "_myid",
          "type": "bytes32"
        },
        {
          "name": "_result",
          "type": "string"
        }
      ],
      "name": "__callback",
      "outputs": [],
      "payable": false,
      "stateMutability": "nonpayable",
      "type": "function"
    },
    {
      "constant": false,
      "inputs": [
        {
          "name": "_myid",
          "type": "bytes32"
        },
        {
          "name": "_result",
          "type": "string"
        },
        {
          "name": "_proof",
          "type": "bytes"
        }
      ],
      "name": "__callback",
      "outputs": [],
      "payable": false,
      "stateMutability": "nonpayable",
      "type": "function"
    },
    {
      "constant": false,
      "inputs": [
        {
          "name": "_currency",
          "type": "bytes32"
        },
        {
          "name": "_ratetype",
          "type": "bytes32"
        },
        {
          "name": "_tokenType",
          "type": "bytes32"
        },
        {
          "name": "_tokenContract",
          "type": "address"
        }
      ],
      "name": "request",
      "outputs": [
        {
          "name": "",
          "type": "bytes32"
        }
      ],
      "payable": true,
      "stateMutability": "payable",
      "type": "function"
    }
  ],
  "bytecode": "0x6080604052600180546001600160a01b031916736f485c8bf6fc43ea212e93bbf8ce046c7f1cb4751790556200005c7f110000000000000000000000000000000000000000000000000000000000000062000077602090811b901c565b6200007163ee6b28006200029860201b60201c565b62000981565b6001546001600160a01b03161580620000ab5750600154620000a9906001600160a01b03166200047c602090811b901c565b155b15620000c557620000c360006200048060201b60201c565b505b600160009054906101000a90046001600160a01b03166001600160a01b03166338cc48316040518163ffffffff1660e01b8152600401602060405180830381600087803b1580156200011657600080fd5b505af11580156200012b573d6000803e3d6000fd5b505050506040513d60208110156200014257600080fd5b50516000546001600160a01b03908116911614620001f957600160009054906101000a90046001600160a01b03166001600160a01b03166338cc48316040518163ffffffff1660e01b8152600401602060405180830381600087803b158015620001ab57600080fd5b505af1158015620001c0573d6000803e3d6000fd5b505050506040513d6020811015620001d757600080fd5b5051600080546001600160a01b0319166001600160a01b039092169190911790555b60008054604080517f688dcfd70000000000000000000000000000000000000000000000000000000081527fff000000000000000000000000000000000000000000000000000000000000008516600482015290516001600160a01b039092169263688dcfd79260248084019382900301818387803b1580156200027c57600080fd5b505af115801562000291573d6000803e3d6000fd5b5050505050565b6001546001600160a01b03161580620002cc5750600154620002ca906001600160a01b03166200047c602090811b901c565b155b15620002e657620002e460006200048060201b60201c565b505b600160009054906101000a90046001600160a01b03166001600160a01b03166338cc48316040518163ffffffff1660e01b8152600401602060405180830381600087803b1580156200033757600080fd5b505af11580156200034c573d6000803e3d6000fd5b505050506040513d60208110156200036357600080fd5b50516000546001600160a01b039081169116146200041a57600160009054906101000a90046001600160a01b03166001600160a01b03166338cc48316040518163ffffffff1660e01b8152600401602060405180830381600087803b158015620003cc57600080fd5b505af1158015620003e1573d6000803e3d6000fd5b505050506040513d6020811015620003f857600080fd5b5051600080546001600160a01b0319166001600160a01b039092169190911790555b60008054604080517fca6ad1e40000000000000000000000000000000000000000000000000000000081526004810185905290516001600160a01b039092169263ca6ad1e49260248084019382900301818387803b1580156200027c57600080fd5b3b90565b6000620004926200049860201b60201c565b92915050565b600080620004c0731d3b2638a7cc9f2cb3d298a3da7a90b67e5506ed6200047c60201b60201c565b11156200053e57600180546001600160a01b031916731d3b2638a7cc9f2cb3d298a3da7a90b67e5506ed17905560408051808201909152600b81527f6574685f6d61696e6e6574000000000000000000000000000000000000000000602080830191909152620005359190620008c6811b901c565b506001620008c3565b60006200056573c03a2615d5efaf5f49f60b7bb6583eaec212fdf16200047c60201b60201c565b1115620005da57600180546001600160a01b03191673c03a2615d5efaf5f49f60b7bb6583eaec212fdf117905560408051808201909152600c81527f6574685f726f707374656e330000000000000000000000000000000000000000602080830191909152620005359190620008c6811b901c565b60006200060173b7a07bcf2ba2f2703b24c0691b5278999c59ac7e6200047c60201b60201c565b11156200067657600180546001600160a01b03191673b7a07bcf2ba2f2703b24c0691b5278999c59ac7e17905560408051808201909152600981527f6574685f6b6f76616e0000000000000000000000000000000000000000000000602080830191909152620005359190620008c6811b901c565b60006200069d73146500cfd35b22e4a392fe0adc06de1a1368ed486200047c60201b60201c565b11156200071257600180546001600160a01b03191673146500cfd35b22e4a392fe0adc06de1a1368ed4817905560408051808201909152600b81527f6574685f72696e6b656279000000000000000000000000000000000000000000602080830191909152620005359190620008c6811b901c565b60006200073973a2998efd205fb9d4b4963afb70778d6354ad3a416200047c60201b60201c565b1115620007ae57600180546001600160a01b03191673a2998efd205fb9d4b4963afb70778d6354ad3a4117905560408051808201909152600a81527f6574685f676f65726c6900000000000000000000000000000000000000000000602080830191909152620005359190620008c6811b901c565b6000620007d5736f485c8bf6fc43ea212e93bbf8ce046c7f1cb4756200047c60201b60201c565b1115620008095750600180546001600160a01b031916736f485c8bf6fc43ea212e93bbf8ce046c7f1cb475178155620008c3565b6000620008307320e12a1f859b3feae5fb2a0a32c18f5a65555bbf6200047c60201b60201c565b1115620008645750600180546001600160a01b0319167320e12a1f859b3feae5fb2a0a32c18f5a65555bbf178155620008c3565b60006200088b7351efaf4c8b3c9afbd5ab9f4bbc82784ab6ef8faa6200047c60201b60201c565b1115620008bf5750600180546001600160a01b0319167351efaf4c8b3c9afbd5ab9f4bbc82784ab6ef8faa178155620008c3565b5060005b90565b8051620008db906002906020840190620008df565b5050565b828054600181600116156101000203166002900490600052602060002090601f016020900481019282601f106200092257805160ff191683800117855562000952565b8280016001018555821562000952579182015b828111156200095257825182559160200191906001019062000935565b506200096092915062000964565b5090565b620008c391905b808211156200096057600081556001016200096b565b611cf680620009916000396000f3fe60806040526004361061004a5760003560e01c806327dc297e1461004f57806338bbfa50146101095780636069d8a71461024657806389a2cdcb14610290578063c4d66de8146102e2575b600080fd5b34801561005b57600080fd5b506101076004803603604081101561007257600080fd5b81359190810190604081016020820135600160201b81111561009357600080fd5b8201836020820111156100a557600080fd5b803590602001918460018302840111600160201b831117156100c657600080fd5b91908080601f016020809104026020016040519081016040528093929190818152602001838380828437600092019190915250929550610315945050505050565b005b34801561011557600080fd5b506101076004803603606081101561012c57600080fd5b81359190810190604081016020820135600160201b81111561014d57600080fd5b82018360208201111561015f57600080fd5b803590602001918460018302840111600160201b8311171561018057600080fd5b91908080601f0160208091040260200160405190810160405280939291908181526020018383808284376000920191909152509295949360208101935035915050600160201b8111156101d257600080fd5b8201836020820111156101e457600080fd5b803590602001918460018302840111600160201b8311171561020557600080fd5b91908080601f016020809104026020016040519081016040528093929190818152602001838380828437600092019190915250929550610335945050505050565b61027e6004803603608081101561025c57600080fd5b50803590602081013590604081013590606001356001600160a01b0316610898565b60408051918252519081900360200190f35b34801561029c57600080fd5b506102ba600480360360208110156102b357600080fd5b5035610d68565b604080516001600160a01b039094168452602084019290925282820152519081900360600190f35b3480156102ee57600080fd5b506101076004803603602081101561030557600080fd5b50356001600160a01b0316610d93565b6040805160008152602081019091526103319083908390610335565b5050565b61033d610dcb565b6001600160a01b0316336001600160a01b03161461035a57600080fd5b60008381526006602090815260408083208054600182015460029092015483516001600160a01b039092168083528286018a90529382018390526060820181905260a06080830181815289519184019190915288517f6122fd11e571fc97247892b733e9287d1d0264feefed58c5f87f454f87a560b09795968b9693948b9490939260c08501928601918190849084905b838110156104035781810151838201526020016103eb565b50505050905090810190601f1680156104305780820380516001836020036101000a031916815260200191505b50965050505050505060405180910390a1600083815260066020526040902060010154600160e31b63086c2e6d0214156105f2576000838152600660209081526040808320549051600160e01b631bd95155028152600481018381528651602483015286516001600160a01b039093169485946321f68b4e948a946105759473__stringutils___________________________94631bd95155948d9492938493604490910192918601918190849084905b838110156104fa5781810151838201526020016104e2565b50505050905090810190601f1680156105275780820380516001836020036101000a031916815260200191505b509250505060206040518083038186803b15801561054457600080fd5b505af4158015610558573d6000803e3d6000fd5b505050506040513d602081101561056e57600080fd5b5051610fb5565b60008881526006602052604080822060020154815163ffffffff871660e01b815260048101959095526001600160801b031990931660248501526044840192909252905160648084019382900301818387803b1580156105d457600080fd5b505af11580156105e8573d6000803e3d6000fd5b5050505050610893565b600083815260066020526040902060010154600160e21b63109bdb990214156106a8576000838152600660209081526040808320549051600160e01b631bd95155028152600481018381528651602483015286516001600160a01b039093169485946321f68b4e948a946105759473__stringutils___________________________94631bd95155948d94929384936044909101929186019181908490849083156104fa5781810151838201526020016104e2565b600083815260066020526040902060010154600160cb1b6608ae8d086c2e6d021415610761576000838152600660209081526040808320549051600160e01b631bd95155028152600481018381528651602483015286516001600160a01b039093169485946321f68b4e948a946105759473__stringutils___________________________94631bd95155948d94929384936044909101929186019181908490849083156104fa5781810151838201526020016104e2565b600083815260066020526040902060010154600160ca1b66115d1a109bdb99021415610893576000838152600660209081526040808320549051600160e01b631bd95155028152600481018381528651602483015286516001600160a01b039093169485946321f68b4e948a9461081a9473__stringutils___________________________94631bd95155948d94929384936044909101929186019181908490849083156104fa5781810151838201526020016104e2565b60008881526006602052604080822060020154815163ffffffff871660e01b815260048101959095526001600160801b031990931660248501526044840192909252905160648084019382900301818387803b15801561087957600080fd5b505af115801561088d573d6000803e3d6000fd5b50505050505b505050565b60055460408051600160e01b63f429f19b02815233600482015290516000926001600160a01b03169163f429f19b916024808301926020929190829003018186803b1580156108e657600080fd5b505afa1580156108fa573d6000803e3d6000fd5b505050506040513d602081101561091057600080fd5b5051600160cb1b660acd2c286c2e6d0214806109b1575060055460408051600160e01b63f429f19b02815233600482015290516001600160a01b039092169163f429f19b91602480820192602092909190829003018186803b15801561097557600080fd5b505afa158015610989573d6000803e3d6000fd5b505050506040513d602081101561099f57600080fd5b5051600160ca1b66159a58509bdb9902145b6109ba57600080fd5b306001600160a01b0316316109f0604051806040016040528060038152602001600160ea1b62155493028152506207a120611022565b1115610a3457600080516020611b6183398151915260405180806020018281038252604c815260200180611b15604c913960600191505060405180910390a1610d60565b83600160f11b6132b9021480610a52575083600160e91b623b32b902145b15610b5c576000610ac3604051806040016040528060038152602001600160ea1b6215549302815250876040516020018080611bb26033913960330182815260200180600160d01b65292e72617465028152506006019150506040516020818303038152906040526207a12061127d565b604080516060810182526001600160a01b03868116825260208083018981528385018b8152600087815260068452869020945185546001600160a01b0319169416939093178455516001840155905160029092019190915581518181526031918101829052929350600080516020611b618339815191529291829190820190611b81823960400191505060405180910390a19050610d60565b83600160f11b6134b9021415610c71576000610bd8604051806040016040528060038152602001600160ea1b6215549302815250876040516020018080611c586033913960330182815260200180600160d01b65292e72617465028152506006019150506040516020818303038152906040526207a12061127d565b604080516060810182526001600160a01b03868116825260208083018981528385018b8152600087815260068452869020945185546001600160a01b0319169416939093178455516001840155905160029092019190915581518181526031918101829052929350600080516020611b618339815191529291829190820190611c27823960400191505060405180910390a19050610d60565b83600160d21b65195d1a1d5cd9021415610d60576000610ccb604051806040016040528060038152602001600160ea1b6215549302815250604051806060016040528060408152602001611c8b604091396207a12061127d565b604080516060810182526001600160a01b03868116825260208083018981528385018b8152600087815260068452869020945185546001600160a01b0319169416939093178455516001840155905160029092019190915581518181526042918101829052929350600080516020611b618339815191529291829190820190611be5823960600191505060405180910390a190505b949350505050565b6006602052600090815260409020805460018201546002909201546001600160a01b03909116919083565b6005546001600160a01b031615610da957600080fd5b600580546001600160a01b0319166001600160a01b0392909216919091179055565b6001546000906001600160a01b03161580610df85750600154610df6906001600160a01b031661164d565b155b15610e0957610e076000611651565b505b600160009054906101000a90046001600160a01b03166001600160a01b03166338cc48316040518163ffffffff1660e01b8152600401602060405180830381600087803b158015610e5957600080fd5b505af1158015610e6d573d6000803e3d6000fd5b505050506040513d6020811015610e8357600080fd5b50516000546001600160a01b03908116911614610f3657600160009054906101000a90046001600160a01b03166001600160a01b03166338cc48316040518163ffffffff1660e01b8152600401602060405180830381600087803b158015610eea57600080fd5b505af1158015610efe573d6000803e3d6000fd5b505050506040513d6020811015610f1457600080fd5b5051600080546001600160a01b0319166001600160a01b039092169190911790555b6000809054906101000a90046001600160a01b03166001600160a01b031663c281d19e6040518163ffffffff1660e01b815260040160206040518083038186803b158015610f8357600080fd5b505afa158015610f97573d6000803e3d6000fd5b505050506040513d6020811015610fad57600080fd5b505190505b90565b600081610fc45750600061101d565b816000610fd082611661565b90506070811015610fe9578060700382901b9150610ffc565b6070811115610ffc576070810382901c91505b613fff0160701b6dffffffffffffffffffffffffffff919091161760801b90505b919050565b6001546000906001600160a01b0316158061104f575060015461104d906001600160a01b031661164d565b155b156110605761105e6000611651565b505b600160009054906101000a90046001600160a01b03166001600160a01b03166338cc48316040518163ffffffff1660e01b8152600401602060405180830381600087803b1580156110b057600080fd5b505af11580156110c4573d6000803e3d6000fd5b505050506040513d60208110156110da57600080fd5b50516000546001600160a01b0390811691161461118d57600160009054906101000a90046001600160a01b03166001600160a01b03166338cc48316040518163ffffffff1660e01b8152600401602060405180830381600087803b15801561114157600080fd5b505af1158015611155573d6000803e3d6000fd5b505050506040513d602081101561116b57600080fd5b5051600080546001600160a01b0319166001600160a01b039092169190911790555b6000805460408051600160e21b630bbceb3302815260248101869052600481019182528651604482015286516001600160a01b0390931693632ef3accc93889388939092839260649092019160208701918190849084905b838110156111fd5781810151838201526020016111e5565b50505050905090810190601f16801561122a5780820380516001836020036101000a031916815260200191505b509350505050602060405180830381600087803b15801561124a57600080fd5b505af115801561125e573d6000803e3d6000fd5b505050506040513d602081101561127457600080fd5b50519392505050565b6001546000906001600160a01b031615806112aa57506001546112a8906001600160a01b031661164d565b155b156112bb576112b96000611651565b505b600160009054906101000a90046001600160a01b03166001600160a01b03166338cc48316040518163ffffffff1660e01b8152600401602060405180830381600087803b15801561130b57600080fd5b505af115801561131f573d6000803e3d6000fd5b505050506040513d602081101561133557600080fd5b50516000546001600160a01b039081169116146113e857600160009054906101000a90046001600160a01b03166001600160a01b03166338cc48316040518163ffffffff1660e01b8152600401602060405180830381600087803b15801561139c57600080fd5b505af11580156113b0573d6000803e3d6000fd5b505050506040513d60208110156113c657600080fd5b5051600080546001600160a01b0319166001600160a01b039092169190911790555b6000805460408051600160e21b630bbceb3302815260248101869052600481019182528751604482015287516001600160a01b0390931692632ef3accc928992889282916064019060208601908083838c5b8381101561145257818101518382015260200161143a565b50505050905090810190601f16801561147f5780820380516001836020036101000a031916815260200191505b509350505050602060405180830381600087803b15801561149f57600080fd5b505af11580156114b3573d6000803e3d6000fd5b505050506040513d60208110156114c957600080fd5b50519050670de0b6b3a76400003a8402018111156114eb575060009050611646565b60008054604051600160e01b63c51be90f02815260048101838152606482018790526080602483019081528951608484015289516001600160a01b039094169463c51be90f94879491938c938c938c93604482019160a4019060208801908083838c5b8381101561156657818101518382015260200161154e565b50505050905090810190601f1680156115935780820380516001836020036101000a031916815260200191505b50838103825285518152855160209182019187019080838360005b838110156115c65781810151838201526020016115ae565b50505050905090810190601f1680156115f35780820380516001836020036101000a031916815260200191505b5096505050505050506020604051808303818588803b15801561161557600080fd5b505af1158015611629573d6000803e3d6000fd5b50505050506040513d602081101561164057600080fd5b50519150505b9392505050565b3b90565b600061165b611703565b92915050565b600080821161166f57600080fd5b6000600160801b831061168457608092831c92015b68010000000000000000831061169c57604092831c92015b600160201b83106116af57602092831c92015b6201000083106116c157601092831c92015b61010083106116d257600892831c92015b601083106116e257600492831c92015b600483106116f257600292831c92015b6002831061165b5760010192915050565b600080611723731d3b2638a7cc9f2cb3d298a3da7a90b67e5506ed61164d565b111561178557600180546001600160a01b031916731d3b2638a7cc9f2cb3d298a3da7a90b67e5506ed17905560408051808201909152600b8152600160aa1b6a195d1a17db585a5b9b995d02602082015261177d90611a6e565b506001610fb2565b60006117a473c03a2615d5efaf5f49f60b7bb6583eaec212fdf161164d565b111561180d57600180546001600160a01b03191673c03a2615d5efaf5f49f60b7bb6583eaec212fdf117905560408051808201909152600c81527f6574685f726f707374656e330000000000000000000000000000000000000000602082015261177d90611a6e565b600061182c73b7a07bcf2ba2f2703b24c0691b5278999c59ac7e61164d565b111561188457600180546001600160a01b03191673b7a07bcf2ba2f2703b24c0691b5278999c59ac7e1790556040805180820190915260098152600160b91b6832ba342fb5b7bb30b702602082015261177d90611a6e565b60006118a373146500cfd35b22e4a392fe0adc06de1a1368ed4861164d565b11156118fd57600180546001600160a01b03191673146500cfd35b22e4a392fe0adc06de1a1368ed4817905560408051808201909152600b8152600160a81b6a6574685f72696e6b65627902602082015261177d90611a6e565b600061191c73a2998efd205fb9d4b4963afb70778d6354ad3a4161164d565b111561197557600180546001600160a01b03191673a2998efd205fb9d4b4963afb70778d6354ad3a4117905560408051808201909152600a8152600160b01b696574685f676f65726c6902602082015261177d90611a6e565b6000611994736f485c8bf6fc43ea212e93bbf8ce046c7f1cb47561164d565b11156119c65750600180546001600160a01b031916736f485c8bf6fc43ea212e93bbf8ce046c7f1cb475178155610fb2565b60006119e57320e12a1f859b3feae5fb2a0a32c18f5a65555bbf61164d565b1115611a175750600180546001600160a01b0319167320e12a1f859b3feae5fb2a0a32c18f5a65555bbf178155610fb2565b6000611a367351efaf4c8b3c9afbd5ab9f4bbc82784ab6ef8faa61164d565b1115611a685750600180546001600160a01b0319167351efaf4c8b3c9afbd5ab9f4bbc82784ab6ef8faa178155610fb2565b50600090565b8051610331906002906020840190828054600181600116156101000203166002900490600052602060002090601f016020900481019282601f10611abd57805160ff1916838001178555611aea565b82800160010185558215611aea579182015b82811115611aea578251825591602001919060010190611acf565b50611af6929150611afa565b5090565b610fb291905b80821115611af65760008155600101611b0056fe50726f7661626c6520717565727920776173204e4f542073656e742c20706c656173652061646420736f6d652045544820746f20636f76657220666f72207468652071756572792066656521c4dc360d0a9c0677a3379ae0a3d81e887f761e65fdf3d7e00859d1bcd3c4738950726f7661626c65207175657279207761732073656e7420666f72205669612065786368616e67652072617465732e2e2e6a736f6e2868747470733a2f2f7669612d6f7261636c652e617a75726577656273697465732e6e65742f72617465732f65722f50726f7661626c65207175657279207761732073656e7420666f72204554482d5553442c207374616e64696e6720627920666f722074686520616e737765722e2e2e50726f7661626c65207175657279207761732073656e7420666f722056696120696e7465726573742072617465732e2e2e6a736f6e2868747470733a2f2f7669612d6f7261636c652e617a75726577656273697465732e6e65742f72617465732f69722f6a736f6e2868747470733a2f2f6170692e70726f2e636f696e626173652e636f6d2f70726f64756374732f4554482d5553442f7469636b6572292e7072696365a165627a7a723058208f3517f80269d96075681ff26da6d6ec9068a67acf5fde645b14e1deec2bd7520029",
  "source": "//(c) Kallol Borah, 2020\r\n// Via oracle client\r\n\r\npragma solidity >=0.5.0 <0.7.0;\r\n\r\nimport \"./provableAPI.sol\";\r\nimport \"../utilities/StringUtils.sol\";\r\nimport \"../Factory.sol\";\r\nimport \"../Cash.sol\";\r\nimport \"../Bond.sol\";\r\nimport \"abdk-libraries-solidity/ABDKMathQuad.sol\";\r\n\r\ncontract ViaOracle is usingProvable {\r\n\r\n    using stringutils for *;\r\n\r\n    using ABDKMathQuad for uint256;\r\n    using ABDKMathQuad for int256;\r\n    using ABDKMathQuad for bytes16;\r\n\r\n    //via factory address\r\n    Factory private factory;\r\n\r\n    struct params{\r\n        address payable caller;\r\n        bytes32 tokenType;\r\n        bytes32 rateType;\r\n    }\r\n\r\n    uint constant CUSTOM_GASLIMIT = 500000;\r\n\r\n    mapping (bytes32 => params) public pendingQueries;\r\n\r\n    event LogNewProvableQuery(string description);\r\n    event LogResult(address payable caller, bytes32 myid, bytes32 tokenType, bytes32 rateType, string result);\r\n\r\n    constructor()\r\n        public\r\n        payable\r\n    {\r\n        // note : replace OAR if you are testing Oracle with ethereum-bridge (https://github.com/provable-things/ethereum-bridge)\r\n        OAR = OracleAddrResolverI(0x6f485C8BF6fc43eA212E93BBF8ce046C7f1cb475); \r\n        provable_setProof(proofType_TLSNotary | proofStorage_IPFS);\r\n        provable_setCustomGasPrice(4000000000); // i.e. 4 GWei\r\n    }\r\n\r\n    function initialize(address _factory) external {\r\n        require(address(factory)==address(0x0));\r\n        factory = Factory(_factory);\r\n    }                              \r\n\r\n    function __callback(\r\n        bytes32 _myid,\r\n        string memory _result,\r\n        bytes memory _proof\r\n    )\r\n        public \r\n    {\r\n        //to do : lines below throw error\r\n        require(msg.sender == provable_cbAddress());\r\n\r\n        emit LogResult(pendingQueries[_myid].caller, _myid, pendingQueries[_myid].tokenType, pendingQueries[_myid].rateType, _result);\r\n        \r\n        if(pendingQueries[_myid].tokenType == \"Cash\"){\r\n            Cash cash = Cash(pendingQueries[_myid].caller);\r\n            cash.convert(_myid, ABDKMathQuad.fromUInt(_result.stringToUint()), pendingQueries[_myid].rateType);\r\n        }\r\n        else if(pendingQueries[_myid].tokenType == \"Bond\"){\r\n            Bond bond = Bond(pendingQueries[_myid].caller);\r\n            bond.convert(_myid, ABDKMathQuad.fromUInt(_result.stringToUint()), pendingQueries[_myid].rateType);\r\n        }\r\n        else if(pendingQueries[_myid].tokenType == \"EthCash\"){\r\n            Cash cash = Cash(pendingQueries[_myid].caller);\r\n            cash.convert(_myid, ABDKMathQuad.fromUInt(_result.stringToUint()), pendingQueries[_myid].rateType);\r\n        }\r\n        else if(pendingQueries[_myid].tokenType == \"EthBond\"){\r\n            Bond bond = Bond(pendingQueries[_myid].caller);\r\n            bond.convert(_myid, ABDKMathQuad.fromUInt(_result.stringToUint()), pendingQueries[_myid].rateType);\r\n        }\r\n\r\n        //delete pendingQueries[_myid]; \r\n    }\r\n\r\n    function request(bytes32 _currency, bytes32 _ratetype, bytes32 _tokenType, address payable _tokenContract)\r\n        public\r\n        payable\r\n        returns (bytes32)\r\n    {  \r\n        require(factory.getType(msg.sender) == \"ViaCash\" || factory.getType(msg.sender) == \"ViaBond\");\r\n        if (provable_getPrice(\"URL\", CUSTOM_GASLIMIT) > address(this).balance) {\r\n            emit LogNewProvableQuery(\"Provable query was NOT sent, please add some ETH to cover for the query fee!\");\r\n        } else {\r\n            if(_ratetype == \"er\" || _ratetype == \"ver\"){\r\n                bytes32 queryId = provable_query(\"URL\", string(abi.encodePacked(\"json(https://via-oracle.azurewebsites.net/rates/er/\",_currency,\").rate\")),CUSTOM_GASLIMIT);  \r\n                pendingQueries[queryId] = params(_tokenContract, _tokenType, _ratetype);\r\n                emit LogNewProvableQuery(\"Provable query was sent for Via exchange rates...\");\r\n                return queryId;\r\n            }\r\n            else if(_ratetype == \"ir\"){\r\n                bytes32 queryId = provable_query(\"URL\", string(abi.encodePacked(\"json(https://via-oracle.azurewebsites.net/rates/ir/\",_currency,\").rate\")),CUSTOM_GASLIMIT);\r\n                pendingQueries[queryId] = params(_tokenContract, _tokenType, _ratetype);\r\n                emit LogNewProvableQuery(\"Provable query was sent for Via interest rates...\");\r\n                return queryId;\r\n                \r\n            }\r\n            else if(_ratetype == \"ethusd\"){\r\n                bytes32 queryId = provable_query(\"URL\", \"json(https://api.pro.coinbase.com/products/ETH-USD/ticker).price\",CUSTOM_GASLIMIT);\r\n                pendingQueries[queryId] = params(_tokenContract, _tokenType, _ratetype);\r\n                emit LogNewProvableQuery(\"Provable query was sent for ETH-USD, standing by for the answer...\");\r\n                return queryId;\r\n            }\r\n        }        \r\n    }\r\n}",
  "sourcePath": "D:\\verified\\via-issuer\\contracts\\oraclize\\ViaOracle.sol",
  "compiler": {
    "name": "solc",
    "version": "0.5.7+commit.6da8b019.Emscripten.clang"
  },
  "schemaVersion": "3.2.5",
  "updatedAt": "2020-11-07T12:12:56.457Z",
  "devdoc": {
    "methods": {
      "__callback(bytes32,string)": {
        "details": "The following `__callback` functions are just placeholders ideally\r     meant to be defined in child contract when proofs are used.\r     The function bodies simply silence compiler warnings.\r"
      }
    }
  },
  "userdoc": {
    "methods": {}
  }
}