{
  "contractName": "ViaOracle",
  "abi": [
    {
      "constant": true,
      "inputs": [
        {
          "name": "",
          "type": "bytes32"
        }
      ],
      "name": "pendingQueries",
      "outputs": [
        {
          "name": "caller",
          "type": "address"
        },
        {
          "name": "tokenType",
          "type": "bytes32"
        },
        {
          "name": "rateType",
          "type": "bytes32"
        },
        {
          "name": "callbackId",
          "type": "bytes32"
        }
      ],
      "payable": false,
      "stateMutability": "view",
      "type": "function"
    },
    {
      "inputs": [],
      "payable": true,
      "stateMutability": "payable",
      "type": "constructor"
    },
    {
      "anonymous": false,
      "inputs": [
        {
          "indexed": false,
          "name": "description",
          "type": "string"
        }
      ],
      "name": "LogNewProvableQuery",
      "type": "event"
    },
    {
      "anonymous": false,
      "inputs": [
        {
          "indexed": false,
          "name": "caller",
          "type": "address"
        },
        {
          "indexed": false,
          "name": "myid",
          "type": "bytes32"
        },
        {
          "indexed": false,
          "name": "tokenType",
          "type": "bytes32"
        },
        {
          "indexed": false,
          "name": "rateType",
          "type": "bytes32"
        },
        {
          "indexed": false,
          "name": "result",
          "type": "string"
        }
      ],
      "name": "LogResult",
      "type": "event"
    },
    {
      "constant": false,
      "inputs": [
        {
          "name": "_factory",
          "type": "address"
        }
      ],
      "name": "initialize",
      "outputs": [],
      "payable": false,
      "stateMutability": "nonpayable",
      "type": "function"
    },
    {
      "constant": false,
      "inputs": [
        {
          "name": "_myid",
          "type": "bytes32"
        },
        {
          "name": "_result",
          "type": "string"
        }
      ],
      "name": "__callback",
      "outputs": [],
      "payable": false,
      "stateMutability": "nonpayable",
      "type": "function"
    },
    {
      "constant": false,
      "inputs": [
        {
          "name": "_myid",
          "type": "bytes32"
        },
        {
          "name": "_result",
          "type": "string"
        },
        {
          "name": "_proof",
          "type": "bytes"
        }
      ],
      "name": "__callback",
      "outputs": [],
      "payable": false,
      "stateMutability": "nonpayable",
      "type": "function"
    },
    {
      "constant": false,
      "inputs": [
        {
          "name": "_currency",
          "type": "bytes32"
        },
        {
          "name": "_ratetype",
          "type": "bytes32"
        },
        {
          "name": "_tokenType",
          "type": "bytes32"
        },
        {
          "name": "_tokenContract",
          "type": "address"
        }
      ],
      "name": "request",
      "outputs": [
        {
          "name": "",
          "type": "bytes32"
        }
      ],
      "payable": true,
      "stateMutability": "payable",
      "type": "function"
    },
    {
      "constant": false,
      "inputs": [
        {
          "name": "_queryId",
          "type": "bytes32"
        },
        {
          "name": "_callbackId",
          "type": "bytes32"
        }
      ],
      "name": "setCallbackId",
      "outputs": [],
      "payable": false,
      "stateMutability": "nonpayable",
      "type": "function"
    }
  ],
  "bytecode": "0x6080604052600180546001600160a01b031916736f485c8bf6fc43ea212e93bbf8ce046c7f1cb4751790556200005c7f110000000000000000000000000000000000000000000000000000000000000062000077602090811b901c565b6200007163ee6b28006200029860201b60201c565b62000981565b6001546001600160a01b03161580620000ab5750600154620000a9906001600160a01b03166200047c602090811b901c565b155b15620000c557620000c360006200048060201b60201c565b505b600160009054906101000a90046001600160a01b03166001600160a01b03166338cc48316040518163ffffffff1660e01b8152600401602060405180830381600087803b1580156200011657600080fd5b505af11580156200012b573d6000803e3d6000fd5b505050506040513d60208110156200014257600080fd5b50516000546001600160a01b03908116911614620001f957600160009054906101000a90046001600160a01b03166001600160a01b03166338cc48316040518163ffffffff1660e01b8152600401602060405180830381600087803b158015620001ab57600080fd5b505af1158015620001c0573d6000803e3d6000fd5b505050506040513d6020811015620001d757600080fd5b5051600080546001600160a01b0319166001600160a01b039092169190911790555b60008054604080517f688dcfd70000000000000000000000000000000000000000000000000000000081527fff000000000000000000000000000000000000000000000000000000000000008516600482015290516001600160a01b039092169263688dcfd79260248084019382900301818387803b1580156200027c57600080fd5b505af115801562000291573d6000803e3d6000fd5b5050505050565b6001546001600160a01b03161580620002cc5750600154620002ca906001600160a01b03166200047c602090811b901c565b155b15620002e657620002e460006200048060201b60201c565b505b600160009054906101000a90046001600160a01b03166001600160a01b03166338cc48316040518163ffffffff1660e01b8152600401602060405180830381600087803b1580156200033757600080fd5b505af11580156200034c573d6000803e3d6000fd5b505050506040513d60208110156200036357600080fd5b50516000546001600160a01b039081169116146200041a57600160009054906101000a90046001600160a01b03166001600160a01b03166338cc48316040518163ffffffff1660e01b8152600401602060405180830381600087803b158015620003cc57600080fd5b505af1158015620003e1573d6000803e3d6000fd5b505050506040513d6020811015620003f857600080fd5b5051600080546001600160a01b0319166001600160a01b039092169190911790555b60008054604080517fca6ad1e40000000000000000000000000000000000000000000000000000000081526004810185905290516001600160a01b039092169263ca6ad1e49260248084019382900301818387803b1580156200027c57600080fd5b3b90565b6000620004926200049860201b60201c565b92915050565b600080620004c0731d3b2638a7cc9f2cb3d298a3da7a90b67e5506ed6200047c60201b60201c565b11156200053e57600180546001600160a01b031916731d3b2638a7cc9f2cb3d298a3da7a90b67e5506ed17905560408051808201909152600b81527f6574685f6d61696e6e6574000000000000000000000000000000000000000000602080830191909152620005359190620008c6811b901c565b506001620008c3565b60006200056573c03a2615d5efaf5f49f60b7bb6583eaec212fdf16200047c60201b60201c565b1115620005da57600180546001600160a01b03191673c03a2615d5efaf5f49f60b7bb6583eaec212fdf117905560408051808201909152600c81527f6574685f726f707374656e330000000000000000000000000000000000000000602080830191909152620005359190620008c6811b901c565b60006200060173b7a07bcf2ba2f2703b24c0691b5278999c59ac7e6200047c60201b60201c565b11156200067657600180546001600160a01b03191673b7a07bcf2ba2f2703b24c0691b5278999c59ac7e17905560408051808201909152600981527f6574685f6b6f76616e0000000000000000000000000000000000000000000000602080830191909152620005359190620008c6811b901c565b60006200069d73146500cfd35b22e4a392fe0adc06de1a1368ed486200047c60201b60201c565b11156200071257600180546001600160a01b03191673146500cfd35b22e4a392fe0adc06de1a1368ed4817905560408051808201909152600b81527f6574685f72696e6b656279000000000000000000000000000000000000000000602080830191909152620005359190620008c6811b901c565b60006200073973a2998efd205fb9d4b4963afb70778d6354ad3a416200047c60201b60201c565b1115620007ae57600180546001600160a01b03191673a2998efd205fb9d4b4963afb70778d6354ad3a4117905560408051808201909152600a81527f6574685f676f65726c6900000000000000000000000000000000000000000000602080830191909152620005359190620008c6811b901c565b6000620007d5736f485c8bf6fc43ea212e93bbf8ce046c7f1cb4756200047c60201b60201c565b1115620008095750600180546001600160a01b031916736f485c8bf6fc43ea212e93bbf8ce046c7f1cb475178155620008c3565b6000620008307320e12a1f859b3feae5fb2a0a32c18f5a65555bbf6200047c60201b60201c565b1115620008645750600180546001600160a01b0319167320e12a1f859b3feae5fb2a0a32c18f5a65555bbf178155620008c3565b60006200088b7351efaf4c8b3c9afbd5ab9f4bbc82784ab6ef8faa6200047c60201b60201c565b1115620008bf5750600180546001600160a01b0319167351efaf4c8b3c9afbd5ab9f4bbc82784ab6ef8faa178155620008c3565b5060005b90565b8051620008db906002906020840190620008df565b5050565b828054600181600116156101000203166002900490600052602060002090601f016020900481019282601f106200092257805160ff191683800117855562000952565b8280016001018555821562000952579182015b828111156200095257825182559160200191906001019062000935565b506200096092915062000964565b5090565b620008c391905b808211156200096057600081556001016200096b565b61209980620009916000396000f3fe6080604052600436106100555760003560e01c806327dc297e1461005a57806338bbfa50146101145780634fd24e9c146102515780636069d8a71461028157806389a2cdcb146102cb578063c4d66de814610325575b600080fd5b34801561006657600080fd5b506101126004803603604081101561007d57600080fd5b81359190810190604081016020820135600160201b81111561009e57600080fd5b8201836020820111156100b057600080fd5b803590602001918460018302840111600160201b831117156100d157600080fd5b91908080601f016020809104026020016040519081016040528093929190818152602001838380828437600092019190915250929550610358945050505050565b005b34801561012057600080fd5b506101126004803603606081101561013757600080fd5b81359190810190604081016020820135600160201b81111561015857600080fd5b82018360208201111561016a57600080fd5b803590602001918460018302840111600160201b8311171561018b57600080fd5b91908080601f0160208091040260200160405190810160405280939291908181526020018383808284376000920191909152509295949360208101935035915050600160201b8111156101dd57600080fd5b8201836020820111156101ef57600080fd5b803590602001918460018302840111600160201b8311171561021057600080fd5b91908080601f016020809104026020016040519081016040528093929190818152602001838380828437600092019190915250929550610378945050505050565b34801561025d57600080fd5b506101126004803603604081101561027457600080fd5b50803590602001356108cb565b6102b96004803603608081101561029757600080fd5b50803590602081013590604081013590606001356001600160a01b0316610903565b60408051918252519081900360200190f35b3480156102d757600080fd5b506102f5600480360360208110156102ee57600080fd5b5035611003565b604080516001600160a01b0390951685526020850193909352838301919091526060830152519081900360800190f35b34801561033157600080fd5b506101126004803603602081101561034857600080fd5b50356001600160a01b0316611034565b6040805160008152602081019091526103749083908390610378565b5050565b61038061110a565b6001600160a01b0316336001600160a01b03161461039d57600080fd5b826103a6611dc6565b506000848152603960208181526040808420815160808101835281546001600160a01b03811682526001830180548387015260028401805495840195909552600384018054606085019081528d8a52979096526001600160a01b03199091169092559085905590849055929055511561042157806060015191505b7f6122fd11e571fc97247892b733e9287d1d0264feefed58c5f87f454f87a560b0816000015183836020015184604001518860405180866001600160a01b03166001600160a01b0316815260200185815260200184815260200183815260200180602001828103825283818151815260200191508051906020019080838360005b838110156104ba5781810151838201526020016104a2565b50505050905090810190601f1680156104e75780820380516001836020036101000a031916815260200191505b50965050505050505060405180910390a18060200151600160e31b63086c2e6d0214156106835780600001516001600160a01b03166321f68b4e836106098773__stringutils___________________________631bd9515590916040518263ffffffff1660e01b81526004018080602001828103825283818151815260200191508051906020019080838360005b8381101561058e578181015183820152602001610576565b50505050905090810190601f1680156105bb5780820380516001836020036101000a031916815260200191505b509250505060206040518083038186803b1580156105d857600080fd5b505af41580156105ec573d6000803e3d6000fd5b505050506040513d602081101561060257600080fd5b50516112f4565b84604001516040518463ffffffff1660e01b815260040180848152602001836001600160801b0319166001600160801b03191681526020018281526020019350505050600060405180830381600087803b15801561066657600080fd5b505af115801561067a573d6000803e3d6000fd5b505050506108c4565b8060200151600160e21b63109bdb9902141561071a578051604051600160e01b631bd951550281526020600482018181528751602484015287516001600160a01b03909416936321f68b4e9387936106099373__stringutils___________________________93631bd95155938d938392604490920191908501908083836000831561058e578181015183820152602001610576565b8060200151600160cb1b6608ae8d086c2e6d0214156107b4578051604051600160e01b631bd951550281526020600482018181528751602484015287516001600160a01b03909416936321f68b4e9387936106099373__stringutils___________________________93631bd95155938d938392604490920191908501908083836000831561058e578181015183820152602001610576565b8060200151600160ca1b66115d1a109bdb990214156108c4578051604051600160e01b631bd951550281526020600482018181528751602484015287516001600160a01b03909416936321f68b4e93879361084e9373__stringutils___________________________93631bd95155938d938392604490920191908501908083836000831561058e578181015183820152602001610576565b84604001516040518463ffffffff1660e01b815260040180848152602001836001600160801b0319166001600160801b03191681526020018281526020019350505050600060405180830381600087803b1580156108ab57600080fd5b505af11580156108bf573d6000803e3d6000fd5b505050505b5050505050565b6000828152603960205260409020546001600160a01b031633146108ee57600080fd5b60009182526039602052604090912060030155565b60385460408051600160e01b63f429f19b02815233600482015290516000926001600160a01b03169163f429f19b916024808301926020929190829003018186803b15801561095157600080fd5b505afa158015610965573d6000803e3d6000fd5b505050506040513d602081101561097b57600080fd5b5051600160cb1b660acd2c286c2e6d021480610a1c575060385460408051600160e01b63f429f19b02815233600482015290516001600160a01b039092169163f429f19b91602480820192602092909190829003018186803b1580156109e057600080fd5b505afa1580156109f4573d6000803e3d6000fd5b505050506040513d6020811015610a0a57600080fd5b5051600160ca1b66159a58509bdb9902145b610a2557600080fd5b306001600160a01b031631610a5b604051806040016040528060038152602001600160ea1b62155493028152506207a120611361565b1115610a9f57600080516020611ed283398151915260405180806020018281038252604c815260200180611e86604c913960600191505060405180910390a1610ffb565b60608573__stringutils___________________________639201de5590916040518263ffffffff1660e01b81526004018082815260200191505060006040518083038186803b158015610af257600080fd5b505af4158015610b06573d6000803e3d6000fd5b505050506040513d6000823e601f3d908101601f191682016040526020811015610b2f57600080fd5b810190808051600160201b811115610b4657600080fd5b82016020810184811115610b5957600080fd5b8151600160201b811182820187101715610b7257600080fd5b5050929190505050905084600160f11b6132b9021480610b9a575084600160e91b623b32b902145b15610d74576000610c52604051806040016040528060038152602001600160ea1b6215549302815250836040516020018080611f256033913960330182805190602001908083835b60208310610c015780518252601f199092019160209182019101610be2565b6001836020036101000a03801982511681845116808217855250505050505090500180600160d01b65292e72617465028152506006019150506040516020818303038152906040526207a1206115bc565b604080516080810182526001600160a01b03878116825260208083018a81528385018c81526000606086018181528882526039855290879020955186546001600160a01b03191695169490941785559051600185015551600284015590516003909201919091559051919250600080516020611ed283398151915291899101806033611ffb82396033018281526020019150506040516020818303038152906040526040518080602001828103825283818151815260200191508051906020019080838360005b83811015610d31578181015183820152602001610d19565b50505050905090810190601f168015610d5e5780820380516001836020036101000a031916815260200191505b509250505060405180910390a19150610ffb9050565b84600160f11b6134b9021415610eca576000610df0604051806040016040528060038152602001600160ea1b6215549302815250886040516020018080611fc86033913960330182815260200180600160d01b65292e72617465028152506006019150506040516020818303038152906040526207a1206115bc565b604080516080810182526001600160a01b03878116825260208083018a81528385018c81526000606086018181528882526039855290879020955186546001600160a01b03191695169490941785559051600185015551600284015590516003909201919091559051919250600080516020611ed283398151915291899101806033611ef28239603381810193909352604080518083039094018452605382019081905260208082528451607384015284519193508392609301919085019080838360008315610d31578181015183820152602001610d19565b84600160d21b65195d1a1d5cd9021415610ff9576000610f24604051806040016040528060038152602001600160ea1b621554930281525060405180606001604052806040815260200161202e604091396207a1206115bc565b604080516080810182526001600160a01b03878116825260208083018a81528385018c81526000606086018181528882526039855290879020955186546001600160a01b03191695169490941785559051600185015551600284015590516003909201919091559051919250600080516020611ed28339815191529101806042611f868239604201905060405160208183030381529060405260405180806020018281038252838181518152602001915080519060200190808383600083811015610d31578181015183820152602001610d19565b505b949350505050565b60396020526000908152604090208054600182015460028301546003909301546001600160a01b0390921692909184565b600554610100900460ff168061104d575061104d61198c565b8061105b575060055460ff16155b61109957604051600160e51b62461bcd02815260040180806020018281038252602e815260200180611f58602e913960400191505060405180910390fd5b600554610100900460ff161580156110c4576005805460ff1961ff0019909116610100171660011790555b6038546001600160a01b0316156110da57600080fd5b603880546001600160a01b0319166001600160a01b0384161790558015610374576005805461ff00191690555050565b6001546000906001600160a01b031615806111375750600154611135906001600160a01b0316611992565b155b15611148576111466000611996565b505b600160009054906101000a90046001600160a01b03166001600160a01b03166338cc48316040518163ffffffff1660e01b8152600401602060405180830381600087803b15801561119857600080fd5b505af11580156111ac573d6000803e3d6000fd5b505050506040513d60208110156111c257600080fd5b50516000546001600160a01b0390811691161461127557600160009054906101000a90046001600160a01b03166001600160a01b03166338cc48316040518163ffffffff1660e01b8152600401602060405180830381600087803b15801561122957600080fd5b505af115801561123d573d6000803e3d6000fd5b505050506040513d602081101561125357600080fd5b5051600080546001600160a01b0319166001600160a01b039092169190911790555b6000809054906101000a90046001600160a01b03166001600160a01b031663c281d19e6040518163ffffffff1660e01b815260040160206040518083038186803b1580156112c257600080fd5b505afa1580156112d6573d6000803e3d6000fd5b505050506040513d60208110156112ec57600080fd5b505190505b90565b6000816113035750600061135c565b81600061130f826119a6565b90506070811015611328578060700382901b915061133b565b607081111561133b576070810382901c91505b613fff0160701b6dffffffffffffffffffffffffffff919091161760801b90505b919050565b6001546000906001600160a01b0316158061138e575060015461138c906001600160a01b0316611992565b155b1561139f5761139d6000611996565b505b600160009054906101000a90046001600160a01b03166001600160a01b03166338cc48316040518163ffffffff1660e01b8152600401602060405180830381600087803b1580156113ef57600080fd5b505af1158015611403573d6000803e3d6000fd5b505050506040513d602081101561141957600080fd5b50516000546001600160a01b039081169116146114cc57600160009054906101000a90046001600160a01b03166001600160a01b03166338cc48316040518163ffffffff1660e01b8152600401602060405180830381600087803b15801561148057600080fd5b505af1158015611494573d6000803e3d6000fd5b505050506040513d60208110156114aa57600080fd5b5051600080546001600160a01b0319166001600160a01b039092169190911790555b6000805460408051600160e21b630bbceb3302815260248101869052600481019182528651604482015286516001600160a01b0390931693632ef3accc93889388939092839260649092019160208701918190849084905b8381101561153c578181015183820152602001611524565b50505050905090810190601f1680156115695780820380516001836020036101000a031916815260200191505b509350505050602060405180830381600087803b15801561158957600080fd5b505af115801561159d573d6000803e3d6000fd5b505050506040513d60208110156115b357600080fd5b50519392505050565b6001546000906001600160a01b031615806115e957506001546115e7906001600160a01b0316611992565b155b156115fa576115f86000611996565b505b600160009054906101000a90046001600160a01b03166001600160a01b03166338cc48316040518163ffffffff1660e01b8152600401602060405180830381600087803b15801561164a57600080fd5b505af115801561165e573d6000803e3d6000fd5b505050506040513d602081101561167457600080fd5b50516000546001600160a01b0390811691161461172757600160009054906101000a90046001600160a01b03166001600160a01b03166338cc48316040518163ffffffff1660e01b8152600401602060405180830381600087803b1580156116db57600080fd5b505af11580156116ef573d6000803e3d6000fd5b505050506040513d602081101561170557600080fd5b5051600080546001600160a01b0319166001600160a01b039092169190911790555b6000805460408051600160e21b630bbceb3302815260248101869052600481019182528751604482015287516001600160a01b0390931692632ef3accc928992889282916064019060208601908083838c5b83811015611791578181015183820152602001611779565b50505050905090810190601f1680156117be5780820380516001836020036101000a031916815260200191505b509350505050602060405180830381600087803b1580156117de57600080fd5b505af11580156117f2573d6000803e3d6000fd5b505050506040513d602081101561180857600080fd5b50519050670de0b6b3a76400003a84020181111561182a575060009050611985565b60008054604051600160e01b63c51be90f02815260048101838152606482018790526080602483019081528951608484015289516001600160a01b039094169463c51be90f94879491938c938c938c93604482019160a4019060208801908083838c5b838110156118a557818101518382015260200161188d565b50505050905090810190601f1680156118d25780820380516001836020036101000a031916815260200191505b50838103825285518152855160209182019187019080838360005b838110156119055781810151838201526020016118ed565b50505050905090810190601f1680156119325780820380516001836020036101000a031916815260200191505b5096505050505050506020604051808303818588803b15801561195457600080fd5b505af1158015611968573d6000803e3d6000fd5b50505050506040513d602081101561197f57600080fd5b50519150505b9392505050565b303b1590565b3b90565b60006119a0611a48565b92915050565b60008082116119b457600080fd5b6000600160801b83106119c957608092831c92015b6801000000000000000083106119e157604092831c92015b600160201b83106119f457602092831c92015b620100008310611a0657601092831c92015b6101008310611a1757600892831c92015b60108310611a2757600492831c92015b60048310611a3757600292831c92015b600283106119a05760010192915050565b600080611a68731d3b2638a7cc9f2cb3d298a3da7a90b67e5506ed611992565b1115611aca57600180546001600160a01b031916731d3b2638a7cc9f2cb3d298a3da7a90b67e5506ed17905560408051808201909152600b8152600160aa1b6a195d1a17db585a5b9b995d026020820152611ac290611db3565b5060016112f1565b6000611ae973c03a2615d5efaf5f49f60b7bb6583eaec212fdf1611992565b1115611b5257600180546001600160a01b03191673c03a2615d5efaf5f49f60b7bb6583eaec212fdf117905560408051808201909152600c81527f6574685f726f707374656e3300000000000000000000000000000000000000006020820152611ac290611db3565b6000611b7173b7a07bcf2ba2f2703b24c0691b5278999c59ac7e611992565b1115611bc957600180546001600160a01b03191673b7a07bcf2ba2f2703b24c0691b5278999c59ac7e1790556040805180820190915260098152600160b91b6832ba342fb5b7bb30b7026020820152611ac290611db3565b6000611be873146500cfd35b22e4a392fe0adc06de1a1368ed48611992565b1115611c4257600180546001600160a01b03191673146500cfd35b22e4a392fe0adc06de1a1368ed4817905560408051808201909152600b8152600160a81b6a6574685f72696e6b656279026020820152611ac290611db3565b6000611c6173a2998efd205fb9d4b4963afb70778d6354ad3a41611992565b1115611cba57600180546001600160a01b03191673a2998efd205fb9d4b4963afb70778d6354ad3a4117905560408051808201909152600a8152600160b01b696574685f676f65726c69026020820152611ac290611db3565b6000611cd9736f485c8bf6fc43ea212e93bbf8ce046c7f1cb475611992565b1115611d0b5750600180546001600160a01b031916736f485c8bf6fc43ea212e93bbf8ce046c7f1cb4751781556112f1565b6000611d2a7320e12a1f859b3feae5fb2a0a32c18f5a65555bbf611992565b1115611d5c5750600180546001600160a01b0319167320e12a1f859b3feae5fb2a0a32c18f5a65555bbf1781556112f1565b6000611d7b7351efaf4c8b3c9afbd5ab9f4bbc82784ab6ef8faa611992565b1115611dad5750600180546001600160a01b0319167351efaf4c8b3c9afbd5ab9f4bbc82784ab6ef8faa1781556112f1565b50600090565b8051610374906002906020840190611ded565b60408051608081018252600080825260208201819052918101829052606081019190915290565b828054600181600116156101000203166002900490600052602060002090601f016020900481019282601f10611e2e57805160ff1916838001178555611e5b565b82800160010185558215611e5b579182015b82811115611e5b578251825591602001919060010190611e40565b50611e67929150611e6b565b5090565b6112f191905b80821115611e675760008155600101611e7156fe50726f7661626c6520717565727920776173204e4f542073656e742c20706c656173652061646420736f6d652045544820746f20636f76657220666f72207468652071756572792066656521c4dc360d0a9c0677a3379ae0a3d81e887f761e65fdf3d7e00859d1bcd3c4738950726f7661626c65207175657279207761732073656e7420666f722056696120696e74657265737420726174657320666f72206a736f6e2868747470733a2f2f7669612d6f7261636c652e617a75726577656273697465732e6e65742f72617465732f65722f436f6e747261637420696e7374616e63652068617320616c7265616479206265656e20696e697469616c697a656450726f7661626c65207175657279207761732073656e7420666f72204554482d5553442c207374616e64696e6720627920666f722074686520616e737765722e2e2e6a736f6e2868747470733a2f2f7669612d6f7261636c652e617a75726577656273697465732e6e65742f72617465732f69722f50726f7661626c65207175657279207761732073656e7420666f72205669612065786368616e676520726174657320666f72206a736f6e2868747470733a2f2f6170692e70726f2e636f696e626173652e636f6d2f70726f64756374732f4554482d5553442f7469636b6572292e7072696365a165627a7a723058203a665ef8161d529c7ed18f9fe3a672cd40d3f353bf798e1a560262ecc8b210090029",
  "source": "//(c) Kallol Borah, 2020\r\n// Via oracle client\r\n// SPDX-License-Identifier: MIT\r\n\r\npragma solidity 0.5.7;\r\n\r\nimport \"./provableAPI.sol\";\r\nimport \"../interfaces/Oracle.sol\";\r\nimport \"../utilities/StringUtils.sol\";\r\nimport \"../interfaces/ViaFactory.sol\";\r\nimport \"../interfaces/ViaCash.sol\";\r\nimport \"../interfaces/ViaBond.sol\";\r\nimport \"../interfaces/ViaCash.sol\";\r\nimport \"../abdk-libraries-solidity/ABDKMathQuad.sol\";\r\nimport \"@openzeppelin/upgrades/contracts/Initializable.sol\";\r\n\r\ncontract ViaOracle is Oracle, usingProvable, Initializable {\r\n\r\n    using stringutils for *;\r\n\r\n    using ABDKMathQuad for uint256;\r\n    using ABDKMathQuad for int256;\r\n    using ABDKMathQuad for bytes16;\r\n\r\n    //via factory address\r\n    ViaFactory private factory;\r\n\r\n    struct params{\r\n        address payable caller;\r\n        bytes32 tokenType;\r\n        bytes32 rateType;\r\n        bytes32 callbackId;\r\n    }\r\n\r\n    uint constant CUSTOM_GASLIMIT = 500000;\r\n\r\n    mapping (bytes32 => params) public pendingQueries;\r\n\r\n    event LogNewProvableQuery(string description);\r\n    event LogResult(address payable caller, bytes32 myid, bytes32 tokenType, bytes32 rateType, string result);\r\n\r\n    constructor()\r\n        public\r\n        payable\r\n    {\r\n        // note : replace OAR if you are testing Oracle with ethereum-bridge (https://github.com/provable-things/ethereum-bridge)\r\n        OAR = OracleAddrResolverI(0x6f485C8BF6fc43eA212E93BBF8ce046C7f1cb475); \r\n        provable_setProof(proofType_TLSNotary | proofStorage_IPFS);\r\n        provable_setCustomGasPrice(4000000000); // i.e. 4 GWei\r\n    }\r\n\r\n    function initialize(address _factory) external initializer{\r\n        require(address(factory)==address(0x0));\r\n        factory = ViaFactory(_factory);\r\n    }                              \r\n\r\n    function __callback(\r\n        bytes32 _myid,\r\n        string memory _result,\r\n        bytes memory _proof\r\n    )\r\n        public \r\n    {\r\n        //to do : lines below throw error\r\n        require(msg.sender == provable_cbAddress());\r\n\r\n        bytes32 callbackId = _myid;\r\n        params memory mpramas = pendingQueries[_myid];\r\n        delete pendingQueries[_myid];\r\n\r\n        if(mpramas.callbackId!=\"\")\r\n            callbackId = mpramas.callbackId;\r\n\r\n        emit LogResult(mpramas.caller, callbackId, mpramas.tokenType, mpramas.rateType, _result);\r\n        \r\n        if(mpramas.tokenType == \"Cash\"){\r\n            ViaCash(mpramas.caller).convert(callbackId, ABDKMathQuad.fromUInt(_result.stringToUint()), mpramas.rateType);\r\n        }\r\n        else if(mpramas.tokenType == \"Bond\"){\r\n            ViaBond(mpramas.caller).convert(callbackId, ABDKMathQuad.fromUInt(_result.stringToUint()), mpramas.rateType);\r\n        }\r\n        else if(mpramas.tokenType == \"EthCash\"){\r\n            ViaCash(mpramas.caller).convert(callbackId, ABDKMathQuad.fromUInt(_result.stringToUint()), mpramas.rateType);\r\n        }\r\n        else if(mpramas.tokenType == \"EthBond\"){\r\n            ViaBond(mpramas.caller).convert(callbackId, ABDKMathQuad.fromUInt(_result.stringToUint()), mpramas.rateType);\r\n        }\r\n    }\r\n\r\n    function request(bytes32 _currency, bytes32 _ratetype, bytes32 _tokenType, address payable _tokenContract)\r\n        external\r\n        payable\r\n        returns (bytes32)\r\n    {  \r\n        require(factory.getType(msg.sender) == \"ViaCash\" || factory.getType(msg.sender) == \"ViaBond\");\r\n        if (provable_getPrice(\"URL\", CUSTOM_GASLIMIT) > address(this).balance) {\r\n            emit LogNewProvableQuery(\"Provable query was NOT sent, please add some ETH to cover for the query fee!\");\r\n        } else {\r\n            string memory currency = _currency.bytes32ToString();\r\n            if(_ratetype == \"er\" || _ratetype == \"ver\"){\r\n                bytes32 queryId = provable_query(\"URL\", string(abi.encodePacked(\"json(https://via-oracle.azurewebsites.net/rates/er/\",currency,\").rate\")),CUSTOM_GASLIMIT);  \r\n                //bytes32 queryId = provable_query(\"URL\", \"json(https://via-oracle.azurewebsites.net/rates/er/Via_USD_to_Via_EUR).rate\",CUSTOM_GASLIMIT);\r\n                pendingQueries[queryId] = params(_tokenContract, _tokenType, _ratetype,\"\");\r\n                emit LogNewProvableQuery(string(abi.encodePacked(\"Provable query was sent for Via exchange rates for \",_currency)));\r\n                return queryId;\r\n            }\r\n            else if(_ratetype == \"ir\"){\r\n                bytes32 queryId = provable_query(\"URL\", string(abi.encodePacked(\"json(https://via-oracle.azurewebsites.net/rates/ir/\",_currency,\").rate\")),CUSTOM_GASLIMIT);\r\n                pendingQueries[queryId] = params(_tokenContract, _tokenType, _ratetype,\"\");\r\n                emit LogNewProvableQuery(string(abi.encodePacked(\"Provable query was sent for Via interest rates for \",_currency)));\r\n                return queryId;\r\n            }\r\n            else if(_ratetype == \"ethusd\"){\r\n                bytes32 queryId = provable_query(\"URL\", \"json(https://api.pro.coinbase.com/products/ETH-USD/ticker).price\",CUSTOM_GASLIMIT);\r\n                pendingQueries[queryId] = params(_tokenContract, _tokenType, _ratetype,\"\");\r\n                emit LogNewProvableQuery(string(abi.encodePacked(\"Provable query was sent for ETH-USD, standing by for the answer...\")));\r\n                return queryId;\r\n            }\r\n        }        \r\n    }\r\n\r\n    function setCallbackId(bytes32 _queryId, bytes32 _callbackId) external {\r\n        require(pendingQueries[_queryId].caller==msg.sender);\r\n        pendingQueries[_queryId].callbackId = _callbackId;\r\n    }\r\n\r\n}",
  "sourcePath": "D:/verified/via-issuer/contracts/oraclize/ViaOracle.sol",
  "compiler": {
    "name": "solc",
    "version": "0.5.7+commit.6da8b019.Emscripten.clang"
  },
  "schemaVersion": "3.3.2",
  "updatedAt": "2020-12-29T06:44:46.011Z",
  "devdoc": {
    "methods": {
      "__callback(bytes32,string)": {
        "details": "The following `__callback` functions are just placeholders ideally\r     meant to be defined in child contract when proofs are used.\r     The function bodies simply silence compiler warnings.\r"
      }
    }
  },
  "userdoc": {
    "methods": {}
  }
}