{
  "contractName": "ViaOracle",
  "abi": [
    {
      "constant": true,
      "inputs": [
        {
          "name": "",
          "type": "bytes32"
        }
      ],
      "name": "pendingQueries",
      "outputs": [
        {
          "name": "caller",
          "type": "address"
        },
        {
          "name": "tokenType",
          "type": "bytes32"
        },
        {
          "name": "rateType",
          "type": "bytes32"
        },
        {
          "name": "callbackId",
          "type": "bytes32"
        }
      ],
      "payable": false,
      "stateMutability": "view",
      "type": "function"
    },
    {
      "inputs": [],
      "payable": true,
      "stateMutability": "payable",
      "type": "constructor"
    },
    {
      "anonymous": false,
      "inputs": [
        {
          "indexed": false,
          "name": "description",
          "type": "string"
        }
      ],
      "name": "LogNewProvableQuery",
      "type": "event"
    },
    {
      "anonymous": false,
      "inputs": [
        {
          "indexed": false,
          "name": "caller",
          "type": "address"
        },
        {
          "indexed": false,
          "name": "myid",
          "type": "bytes32"
        },
        {
          "indexed": false,
          "name": "tokenType",
          "type": "bytes32"
        },
        {
          "indexed": false,
          "name": "rateType",
          "type": "bytes32"
        },
        {
          "indexed": false,
          "name": "result",
          "type": "string"
        }
      ],
      "name": "LogResult",
      "type": "event"
    },
    {
      "constant": false,
      "inputs": [
        {
          "name": "_factory",
          "type": "address"
        }
      ],
      "name": "initialize",
      "outputs": [],
      "payable": false,
      "stateMutability": "nonpayable",
      "type": "function"
    },
    {
      "constant": false,
      "inputs": [
        {
          "name": "_myid",
          "type": "bytes32"
        },
        {
          "name": "_result",
          "type": "string"
        }
      ],
      "name": "__callback",
      "outputs": [],
      "payable": false,
      "stateMutability": "nonpayable",
      "type": "function"
    },
    {
      "constant": false,
      "inputs": [
        {
          "name": "_myid",
          "type": "bytes32"
        },
        {
          "name": "_result",
          "type": "string"
        },
        {
          "name": "_proof",
          "type": "bytes"
        }
      ],
      "name": "__callback",
      "outputs": [],
      "payable": false,
      "stateMutability": "nonpayable",
      "type": "function"
    },
    {
      "constant": false,
      "inputs": [
        {
          "name": "_currency",
          "type": "bytes32"
        },
        {
          "name": "_ratetype",
          "type": "bytes32"
        },
        {
          "name": "_tokenType",
          "type": "bytes32"
        },
        {
          "name": "_tokenContract",
          "type": "address"
        }
      ],
      "name": "request",
      "outputs": [
        {
          "name": "",
          "type": "bytes32"
        }
      ],
      "payable": true,
      "stateMutability": "payable",
      "type": "function"
    },
    {
      "constant": false,
      "inputs": [
        {
          "name": "_queryId",
          "type": "bytes32"
        },
        {
          "name": "_callbackId",
          "type": "bytes32"
        }
      ],
      "name": "setCallbackId",
      "outputs": [],
      "payable": false,
      "stateMutability": "nonpayable",
      "type": "function"
    },
    {
      "constant": false,
      "inputs": [
        {
          "name": "_currency",
          "type": "bytes32"
        },
        {
          "name": "_amount",
          "type": "bytes16"
        }
      ],
      "name": "payOut",
      "outputs": [],
      "payable": false,
      "stateMutability": "nonpayable",
      "type": "function"
    }
  ],
  "bytecode": "0x6080604052600180546001600160a01b031916736f485c8bf6fc43ea212e93bbf8ce046c7f1cb4751790556200005c7f110000000000000000000000000000000000000000000000000000000000000062000077602090811b901c565b6200007163ee6b28006200029860201b60201c565b62000981565b6001546001600160a01b03161580620000ab5750600154620000a9906001600160a01b03166200047c602090811b901c565b155b15620000c557620000c360006200048060201b60201c565b505b600160009054906101000a90046001600160a01b03166001600160a01b03166338cc48316040518163ffffffff1660e01b8152600401602060405180830381600087803b1580156200011657600080fd5b505af11580156200012b573d6000803e3d6000fd5b505050506040513d60208110156200014257600080fd5b50516000546001600160a01b03908116911614620001f957600160009054906101000a90046001600160a01b03166001600160a01b03166338cc48316040518163ffffffff1660e01b8152600401602060405180830381600087803b158015620001ab57600080fd5b505af1158015620001c0573d6000803e3d6000fd5b505050506040513d6020811015620001d757600080fd5b5051600080546001600160a01b0319166001600160a01b039092169190911790555b60008054604080517f688dcfd70000000000000000000000000000000000000000000000000000000081527fff000000000000000000000000000000000000000000000000000000000000008516600482015290516001600160a01b039092169263688dcfd79260248084019382900301818387803b1580156200027c57600080fd5b505af115801562000291573d6000803e3d6000fd5b5050505050565b6001546001600160a01b03161580620002cc5750600154620002ca906001600160a01b03166200047c602090811b901c565b155b15620002e657620002e460006200048060201b60201c565b505b600160009054906101000a90046001600160a01b03166001600160a01b03166338cc48316040518163ffffffff1660e01b8152600401602060405180830381600087803b1580156200033757600080fd5b505af11580156200034c573d6000803e3d6000fd5b505050506040513d60208110156200036357600080fd5b50516000546001600160a01b039081169116146200041a57600160009054906101000a90046001600160a01b03166001600160a01b03166338cc48316040518163ffffffff1660e01b8152600401602060405180830381600087803b158015620003cc57600080fd5b505af1158015620003e1573d6000803e3d6000fd5b505050506040513d6020811015620003f857600080fd5b5051600080546001600160a01b0319166001600160a01b039092169190911790555b60008054604080517fca6ad1e40000000000000000000000000000000000000000000000000000000081526004810185905290516001600160a01b039092169263ca6ad1e49260248084019382900301818387803b1580156200027c57600080fd5b3b90565b6000620004926200049860201b60201c565b92915050565b600080620004c0731d3b2638a7cc9f2cb3d298a3da7a90b67e5506ed6200047c60201b60201c565b11156200053e57600180546001600160a01b031916731d3b2638a7cc9f2cb3d298a3da7a90b67e5506ed17905560408051808201909152600b81527f6574685f6d61696e6e6574000000000000000000000000000000000000000000602080830191909152620005359190620008c6811b901c565b506001620008c3565b60006200056573c03a2615d5efaf5f49f60b7bb6583eaec212fdf16200047c60201b60201c565b1115620005da57600180546001600160a01b03191673c03a2615d5efaf5f49f60b7bb6583eaec212fdf117905560408051808201909152600c81527f6574685f726f707374656e330000000000000000000000000000000000000000602080830191909152620005359190620008c6811b901c565b60006200060173b7a07bcf2ba2f2703b24c0691b5278999c59ac7e6200047c60201b60201c565b11156200067657600180546001600160a01b03191673b7a07bcf2ba2f2703b24c0691b5278999c59ac7e17905560408051808201909152600981527f6574685f6b6f76616e0000000000000000000000000000000000000000000000602080830191909152620005359190620008c6811b901c565b60006200069d73146500cfd35b22e4a392fe0adc06de1a1368ed486200047c60201b60201c565b11156200071257600180546001600160a01b03191673146500cfd35b22e4a392fe0adc06de1a1368ed4817905560408051808201909152600b81527f6574685f72696e6b656279000000000000000000000000000000000000000000602080830191909152620005359190620008c6811b901c565b60006200073973a2998efd205fb9d4b4963afb70778d6354ad3a416200047c60201b60201c565b1115620007ae57600180546001600160a01b03191673a2998efd205fb9d4b4963afb70778d6354ad3a4117905560408051808201909152600a81527f6574685f676f65726c6900000000000000000000000000000000000000000000602080830191909152620005359190620008c6811b901c565b6000620007d5736f485c8bf6fc43ea212e93bbf8ce046c7f1cb4756200047c60201b60201c565b1115620008095750600180546001600160a01b031916736f485c8bf6fc43ea212e93bbf8ce046c7f1cb475178155620008c3565b6000620008307320e12a1f859b3feae5fb2a0a32c18f5a65555bbf6200047c60201b60201c565b1115620008645750600180546001600160a01b0319167320e12a1f859b3feae5fb2a0a32c18f5a65555bbf178155620008c3565b60006200088b7351efaf4c8b3c9afbd5ab9f4bbc82784ab6ef8faa6200047c60201b60201c565b1115620008bf5750600180546001600160a01b0319167351efaf4c8b3c9afbd5ab9f4bbc82784ab6ef8faa178155620008c3565b5060005b90565b8051620008db906002906020840190620008df565b5050565b828054600181600116156101000203166002900490600052602060002090601f016020900481019282601f106200092257805160ff191683800117855562000952565b8280016001018555821562000952579182015b828111156200095257825182559160200191906001019062000935565b506200096092915062000964565b5090565b620008c391905b808211156200096057600081556001016200096b565b6124a380620009916000396000f3fe6080604052600436106100705760003560e01c80636069d8a71161004e5780636069d8a71461029c5780636954ee9e146102e657806389a2cdcb14610329578063c4d66de81461038357610070565b806327dc297e1461007557806338bbfa501461012f5780634fd24e9c1461026c575b600080fd5b34801561008157600080fd5b5061012d6004803603604081101561009857600080fd5b81359190810190604081016020820135600160201b8111156100b957600080fd5b8201836020820111156100cb57600080fd5b803590602001918460018302840111600160201b831117156100ec57600080fd5b91908080601f0160208091040260200160405190810160405280939291908181526020018383808284376000920191909152509295506103b6945050505050565b005b34801561013b57600080fd5b5061012d6004803603606081101561015257600080fd5b81359190810190604081016020820135600160201b81111561017357600080fd5b82018360208201111561018557600080fd5b803590602001918460018302840111600160201b831117156101a657600080fd5b91908080601f0160208091040260200160405190810160405280939291908181526020018383808284376000920191909152509295949360208101935035915050600160201b8111156101f857600080fd5b82018360208201111561020a57600080fd5b803590602001918460018302840111600160201b8311171561022b57600080fd5b91908080601f0160208091040260200160405190810160405280939291908181526020018383808284376000920191909152509295506103d6945050505050565b34801561027857600080fd5b5061012d6004803603604081101561028f57600080fd5b5080359060200135610929565b6102d4600480360360808110156102b257600080fd5b50803590602081013590604081013590606001356001600160a01b0316610961565b60408051918252519081900360200190f35b3480156102f257600080fd5b5061012d6004803603604081101561030957600080fd5b50803590602001356fffffffffffffffffffffffffffffffff1916611061565b34801561033557600080fd5b506103536004803603602081101561034c57600080fd5b50356113b5565b604080516001600160a01b0390951685526020850193909352838301919091526060830152519081900360800190f35b34801561038f57600080fd5b5061012d600480360360208110156103a657600080fd5b50356001600160a01b03166113e6565b6040805160008152602081019091526103d290839083906103d6565b5050565b6103de6114bc565b6001600160a01b0316336001600160a01b0316146103fb57600080fd5b82610404612178565b506000848152603960208181526040808420815160808101835281546001600160a01b03811682526001830180548387015260028401805495840195909552600384018054606085019081528d8a52979096526001600160a01b03199091169092559085905590849055929055511561047f57806060015191505b7f6122fd11e571fc97247892b733e9287d1d0264feefed58c5f87f454f87a560b0816000015183836020015184604001518860405180866001600160a01b03166001600160a01b0316815260200185815260200184815260200183815260200180602001828103825283818151815260200191508051906020019080838360005b83811015610518578181015183820152602001610500565b50505050905090810190601f1680156105455780820380516001836020036101000a031916815260200191505b50965050505050505060405180910390a18060200151600160e31b63086c2e6d0214156106e15780600001516001600160a01b03166321f68b4e836106678773__stringutils___________________________631bd9515590916040518263ffffffff1660e01b81526004018080602001828103825283818151815260200191508051906020019080838360005b838110156105ec5781810151838201526020016105d4565b50505050905090810190601f1680156106195780820380516001836020036101000a031916815260200191505b509250505060206040518083038186803b15801561063657600080fd5b505af415801561064a573d6000803e3d6000fd5b505050506040513d602081101561066057600080fd5b50516116a6565b84604001516040518463ffffffff1660e01b815260040180848152602001836001600160801b0319166001600160801b03191681526020018281526020019350505050600060405180830381600087803b1580156106c457600080fd5b505af11580156106d8573d6000803e3d6000fd5b50505050610922565b8060200151600160e21b63109bdb99021415610778578051604051600160e01b631bd951550281526020600482018181528751602484015287516001600160a01b03909416936321f68b4e9387936106679373__stringutils___________________________93631bd95155938d93839260449092019190850190808383600083156105ec5781810151838201526020016105d4565b8060200151600160cb1b6608ae8d086c2e6d021415610812578051604051600160e01b631bd951550281526020600482018181528751602484015287516001600160a01b03909416936321f68b4e9387936106679373__stringutils___________________________93631bd95155938d93839260449092019190850190808383600083156105ec5781810151838201526020016105d4565b8060200151600160ca1b66115d1a109bdb99021415610922578051604051600160e01b631bd951550281526020600482018181528751602484015287516001600160a01b03909416936321f68b4e9387936108ac9373__stringutils___________________________93631bd95155938d93839260449092019190850190808383600083156105ec5781810151838201526020016105d4565b84604001516040518463ffffffff1660e01b815260040180848152602001836001600160801b0319166001600160801b03191681526020018281526020019350505050600060405180830381600087803b15801561090957600080fd5b505af115801561091d573d6000803e3d6000fd5b505050505b5050505050565b6000828152603960205260409020546001600160a01b0316331461094c57600080fd5b60009182526039602052604090912060030155565b60385460408051600160e01b63f429f19b02815233600482015290516000926001600160a01b03169163f429f19b916024808301926020929190829003018186803b1580156109af57600080fd5b505afa1580156109c3573d6000803e3d6000fd5b505050506040513d60208110156109d957600080fd5b5051600160cb1b660acd2c286c2e6d021480610a7a575060385460408051600160e01b63f429f19b02815233600482015290516001600160a01b039092169163f429f19b91602480820192602092909190829003018186803b158015610a3e57600080fd5b505afa158015610a52573d6000803e3d6000fd5b505050506040513d6020811015610a6857600080fd5b5051600160ca1b66159a58509bdb9902145b610a8357600080fd5b306001600160a01b031631610ab9604051806040016040528060038152602001600160ea1b62155493028152506207a120611713565b1115610afd5760008051602061228483398151915260405180806020018281038252604c815260200180612238604c913960600191505060405180910390a1611059565b60608573__stringutils___________________________639201de5590916040518263ffffffff1660e01b81526004018082815260200191505060006040518083038186803b158015610b5057600080fd5b505af4158015610b64573d6000803e3d6000fd5b505050506040513d6000823e601f3d908101601f191682016040526020811015610b8d57600080fd5b810190808051600160201b811115610ba457600080fd5b82016020810184811115610bb757600080fd5b8151600160201b811182820187101715610bd057600080fd5b5050929190505050905084600160f11b6132b9021480610bf8575084600160e91b623b32b902145b15610dd2576000610cb0604051806040016040528060038152602001600160ea1b62155493028152508360405160200180806123086033913960330182805190602001908083835b60208310610c5f5780518252601f199092019160209182019101610c40565b6001836020036101000a03801982511681845116808217855250505050505090500180600160d01b65292e72617465028152506006019150506040516020818303038152906040526207a12061196e565b604080516080810182526001600160a01b03878116825260208083018a81528385018c81526000606086018181528882526039855290879020955186546001600160a01b031916951694909417855590516001850155516002840155905160039092019190915590519192506000805160206122848339815191529189910180603361240582396033018281526020019150506040516020818303038152906040526040518080602001828103825283818151815260200191508051906020019080838360005b83811015610d8f578181015183820152602001610d77565b50505050905090810190601f168015610dbc5780820380516001836020036101000a031916815260200191505b509250505060405180910390a191506110599050565b84600160f11b6134b9021415610f28576000610e4e604051806040016040528060038152602001600160ea1b62155493028152508860405160200180806123d26033913960330182815260200180600160d01b65292e72617465028152506006019150506040516020818303038152906040526207a12061196e565b604080516080810182526001600160a01b03878116825260208083018a81528385018c81526000606086018181528882526039855290879020955186546001600160a01b03191695169490941785559051600185015551600284015590516003909201919091559051919250600080516020612284833981519152918991018060336122d58239603381810193909352604080518083039094018452605382019081905260208082528451607384015284519193508392609301919085019080838360008315610d8f578181015183820152602001610d77565b84600160d21b65195d1a1d5cd9021415611057576000610f82604051806040016040528060038152602001600160ea1b6215549302815250604051806060016040528060408152602001612438604091396207a12061196e565b604080516080810182526001600160a01b03878116825260208083018a81528385018c81526000606086018181528882526039855290879020955186546001600160a01b0319169516949094178555905160018501555160028401559051600390920191909155905191925060008051602061228483398151915291018060426123908239604201905060405160208183030381529060405260405180806020018281038252838181518152602001915080519060200190808383600083811015610d8f578181015183820152602001610d77565b505b949350505050565b60385460408051600160e01b63f429f19b02815233600482015290516001600160a01b039092169163f429f19b91602480820192602092909190829003018186803b1580156110af57600080fd5b505afa1580156110c3573d6000803e3d6000fd5b505050506040513d60208110156110d957600080fd5b5051600160cb1b660acd2c286c2e6d02146110f357600080fd5b306001600160a01b031631611129604051806040016040528060038152602001600160ea1b62155493028152506207a120611713565b111561116d5760008051602061228483398151915260405180806020018281038252604c815260200180612238604c913960600191505060405180910390a16103d2565b60608273__stringutils___________________________639201de5590916040518263ffffffff1660e01b81526004018082815260200191505060006040518083038186803b1580156111c057600080fd5b505af41580156111d4573d6000803e3d6000fd5b505050506040513d6000823e601f3d908101601f1916820160405260208110156111fd57600080fd5b810190808051600160201b81111561121457600080fd5b8201602081018481111561122757600080fd5b8151600160201b81118282018710171561124057600080fd5b5050929190505050905060006112fc604051806040016040528060038152602001600160ea1b62155493028152508360405160200180806122a46031913960310182805190602001908083835b602083106112ac5780518252601f19909201916020918201910161128d565b6001836020036101000a03801982511681845116808217855250505050505090500180600160d81b64292e706179028152506005019150506040516020818303038152906040526207a12061196e565b905060008051602061228483398151915284604051602001808061233b602791396027018281526020019150506040516020818303038152906040526040518080602001828103825283818151815260200191508051906020019080838360005b8381101561137557818101518382015260200161135d565b50505050905090810190601f1680156113a25780820380516001836020036101000a031916815260200191505b509250505060405180910390a150505050565b60396020526000908152604090208054600182015460028301546003909301546001600160a01b0390921692909184565b600554610100900460ff16806113ff57506113ff611d3e565b8061140d575060055460ff16155b61144b57604051600160e51b62461bcd02815260040180806020018281038252602e815260200180612362602e913960400191505060405180910390fd5b600554610100900460ff16158015611476576005805460ff1961ff0019909116610100171660011790555b6038546001600160a01b03161561148c57600080fd5b603880546001600160a01b0319166001600160a01b03841617905580156103d2576005805461ff00191690555050565b6001546000906001600160a01b031615806114e957506001546114e7906001600160a01b0316611d44565b155b156114fa576114f86000611d48565b505b600160009054906101000a90046001600160a01b03166001600160a01b03166338cc48316040518163ffffffff1660e01b8152600401602060405180830381600087803b15801561154a57600080fd5b505af115801561155e573d6000803e3d6000fd5b505050506040513d602081101561157457600080fd5b50516000546001600160a01b0390811691161461162757600160009054906101000a90046001600160a01b03166001600160a01b03166338cc48316040518163ffffffff1660e01b8152600401602060405180830381600087803b1580156115db57600080fd5b505af11580156115ef573d6000803e3d6000fd5b505050506040513d602081101561160557600080fd5b5051600080546001600160a01b0319166001600160a01b039092169190911790555b6000809054906101000a90046001600160a01b03166001600160a01b031663c281d19e6040518163ffffffff1660e01b815260040160206040518083038186803b15801561167457600080fd5b505afa158015611688573d6000803e3d6000fd5b505050506040513d602081101561169e57600080fd5b505190505b90565b6000816116b55750600061170e565b8160006116c182611d58565b905060708110156116da578060700382901b91506116ed565b60708111156116ed576070810382901c91505b613fff0160701b6dffffffffffffffffffffffffffff919091161760801b90505b919050565b6001546000906001600160a01b03161580611740575060015461173e906001600160a01b0316611d44565b155b156117515761174f6000611d48565b505b600160009054906101000a90046001600160a01b03166001600160a01b03166338cc48316040518163ffffffff1660e01b8152600401602060405180830381600087803b1580156117a157600080fd5b505af11580156117b5573d6000803e3d6000fd5b505050506040513d60208110156117cb57600080fd5b50516000546001600160a01b0390811691161461187e57600160009054906101000a90046001600160a01b03166001600160a01b03166338cc48316040518163ffffffff1660e01b8152600401602060405180830381600087803b15801561183257600080fd5b505af1158015611846573d6000803e3d6000fd5b505050506040513d602081101561185c57600080fd5b5051600080546001600160a01b0319166001600160a01b039092169190911790555b6000805460408051600160e21b630bbceb3302815260248101869052600481019182528651604482015286516001600160a01b0390931693632ef3accc93889388939092839260649092019160208701918190849084905b838110156118ee5781810151838201526020016118d6565b50505050905090810190601f16801561191b5780820380516001836020036101000a031916815260200191505b509350505050602060405180830381600087803b15801561193b57600080fd5b505af115801561194f573d6000803e3d6000fd5b505050506040513d602081101561196557600080fd5b50519392505050565b6001546000906001600160a01b0316158061199b5750600154611999906001600160a01b0316611d44565b155b156119ac576119aa6000611d48565b505b600160009054906101000a90046001600160a01b03166001600160a01b03166338cc48316040518163ffffffff1660e01b8152600401602060405180830381600087803b1580156119fc57600080fd5b505af1158015611a10573d6000803e3d6000fd5b505050506040513d6020811015611a2657600080fd5b50516000546001600160a01b03908116911614611ad957600160009054906101000a90046001600160a01b03166001600160a01b03166338cc48316040518163ffffffff1660e01b8152600401602060405180830381600087803b158015611a8d57600080fd5b505af1158015611aa1573d6000803e3d6000fd5b505050506040513d6020811015611ab757600080fd5b5051600080546001600160a01b0319166001600160a01b039092169190911790555b6000805460408051600160e21b630bbceb3302815260248101869052600481019182528751604482015287516001600160a01b0390931692632ef3accc928992889282916064019060208601908083838c5b83811015611b43578181015183820152602001611b2b565b50505050905090810190601f168015611b705780820380516001836020036101000a031916815260200191505b509350505050602060405180830381600087803b158015611b9057600080fd5b505af1158015611ba4573d6000803e3d6000fd5b505050506040513d6020811015611bba57600080fd5b50519050670de0b6b3a76400003a840201811115611bdc575060009050611d37565b60008054604051600160e01b63c51be90f02815260048101838152606482018790526080602483019081528951608484015289516001600160a01b039094169463c51be90f94879491938c938c938c93604482019160a4019060208801908083838c5b83811015611c57578181015183820152602001611c3f565b50505050905090810190601f168015611c845780820380516001836020036101000a031916815260200191505b50838103825285518152855160209182019187019080838360005b83811015611cb7578181015183820152602001611c9f565b50505050905090810190601f168015611ce45780820380516001836020036101000a031916815260200191505b5096505050505050506020604051808303818588803b158015611d0657600080fd5b505af1158015611d1a573d6000803e3d6000fd5b50505050506040513d6020811015611d3157600080fd5b50519150505b9392505050565b303b1590565b3b90565b6000611d52611dfa565b92915050565b6000808211611d6657600080fd5b6000600160801b8310611d7b57608092831c92015b680100000000000000008310611d9357604092831c92015b600160201b8310611da657602092831c92015b620100008310611db857601092831c92015b6101008310611dc957600892831c92015b60108310611dd957600492831c92015b60048310611de957600292831c92015b60028310611d525760010192915050565b600080611e1a731d3b2638a7cc9f2cb3d298a3da7a90b67e5506ed611d44565b1115611e7c57600180546001600160a01b031916731d3b2638a7cc9f2cb3d298a3da7a90b67e5506ed17905560408051808201909152600b8152600160aa1b6a195d1a17db585a5b9b995d026020820152611e7490612165565b5060016116a3565b6000611e9b73c03a2615d5efaf5f49f60b7bb6583eaec212fdf1611d44565b1115611f0457600180546001600160a01b03191673c03a2615d5efaf5f49f60b7bb6583eaec212fdf117905560408051808201909152600c81527f6574685f726f707374656e3300000000000000000000000000000000000000006020820152611e7490612165565b6000611f2373b7a07bcf2ba2f2703b24c0691b5278999c59ac7e611d44565b1115611f7b57600180546001600160a01b03191673b7a07bcf2ba2f2703b24c0691b5278999c59ac7e1790556040805180820190915260098152600160b91b6832ba342fb5b7bb30b7026020820152611e7490612165565b6000611f9a73146500cfd35b22e4a392fe0adc06de1a1368ed48611d44565b1115611ff457600180546001600160a01b03191673146500cfd35b22e4a392fe0adc06de1a1368ed4817905560408051808201909152600b8152600160a81b6a6574685f72696e6b656279026020820152611e7490612165565b600061201373a2998efd205fb9d4b4963afb70778d6354ad3a41611d44565b111561206c57600180546001600160a01b03191673a2998efd205fb9d4b4963afb70778d6354ad3a4117905560408051808201909152600a8152600160b01b696574685f676f65726c69026020820152611e7490612165565b600061208b736f485c8bf6fc43ea212e93bbf8ce046c7f1cb475611d44565b11156120bd5750600180546001600160a01b031916736f485c8bf6fc43ea212e93bbf8ce046c7f1cb4751781556116a3565b60006120dc7320e12a1f859b3feae5fb2a0a32c18f5a65555bbf611d44565b111561210e5750600180546001600160a01b0319167320e12a1f859b3feae5fb2a0a32c18f5a65555bbf1781556116a3565b600061212d7351efaf4c8b3c9afbd5ab9f4bbc82784ab6ef8faa611d44565b111561215f5750600180546001600160a01b0319167351efaf4c8b3c9afbd5ab9f4bbc82784ab6ef8faa1781556116a3565b50600090565b80516103d290600290602084019061219f565b60408051608081018252600080825260208201819052918101829052606081019190915290565b828054600181600116156101000203166002900490600052602060002090601f016020900481019282601f106121e057805160ff191683800117855561220d565b8280016001018555821561220d579182015b8281111561220d5782518255916020019190600101906121f2565b5061221992915061221d565b5090565b6116a391905b80821115612219576000815560010161222356fe50726f7661626c6520717565727920776173204e4f542073656e742c20706c656173652061646420736f6d652045544820746f20636f76657220666f72207468652071756572792066656521c4dc360d0a9c0677a3379ae0a3d81e887f761e65fdf3d7e00859d1bcd3c473896a736f6e2868747470733a2f2f7669612d6f7261636c652e617a75726577656273697465732e6e65742f7061796f75742f50726f7661626c65207175657279207761732073656e7420666f722056696120696e74657265737420726174657320666f72206a736f6e2868747470733a2f2f7669612d6f7261636c652e617a75726577656273697465732e6e65742f72617465732f65722f50726f7661626c65207175657279207761732073656e7420666f7220706179696e67206f757420436f6e747261637420696e7374616e63652068617320616c7265616479206265656e20696e697469616c697a656450726f7661626c65207175657279207761732073656e7420666f72204554482d5553442c207374616e64696e6720627920666f722074686520616e737765722e2e2e6a736f6e2868747470733a2f2f7669612d6f7261636c652e617a75726577656273697465732e6e65742f72617465732f69722f50726f7661626c65207175657279207761732073656e7420666f72205669612065786368616e676520726174657320666f72206a736f6e2868747470733a2f2f6170692e70726f2e636f696e626173652e636f6d2f70726f64756374732f4554482d5553442f7469636b6572292e7072696365a165627a7a72305820ea99e05547ca86cf07d98e17940559fd870142d2e5202e89e443c89bb17ddd480029",
  "source": "//(c) Kallol Borah, 2020\r\n// Via oracle client\r\n// SPDX-License-Identifier: MIT\r\n\r\npragma solidity 0.5.7;\r\n\r\nimport \"./provableAPI.sol\";\r\nimport \"../interfaces/Oracle.sol\";\r\nimport \"../utilities/StringUtils.sol\";\r\nimport \"../interfaces/ViaFactory.sol\";\r\nimport \"../interfaces/ViaCash.sol\";\r\nimport \"../interfaces/ViaBond.sol\";\r\nimport \"../interfaces/ViaCash.sol\";\r\nimport \"../abdk-libraries-solidity/ABDKMathQuad.sol\";\r\nimport \"@openzeppelin/upgrades/contracts/Initializable.sol\";\r\n\r\ncontract ViaOracle is Oracle, usingProvable, Initializable {\r\n\r\n    using stringutils for *;\r\n\r\n    using ABDKMathQuad for uint256;\r\n    using ABDKMathQuad for int256;\r\n    using ABDKMathQuad for bytes16;\r\n\r\n    //via factory address\r\n    ViaFactory private factory;\r\n\r\n    struct params{\r\n        address payable caller;\r\n        bytes32 tokenType;\r\n        bytes32 rateType;\r\n        bytes32 callbackId;\r\n    }\r\n\r\n    uint constant CUSTOM_GASLIMIT = 500000;\r\n\r\n    mapping (bytes32 => params) public pendingQueries;\r\n\r\n    event LogNewProvableQuery(string description);\r\n    event LogResult(address payable caller, bytes32 myid, bytes32 tokenType, bytes32 rateType, string result);\r\n\r\n    constructor()\r\n        public\r\n        payable\r\n    {\r\n        // note : replace OAR if you are testing Oracle with ethereum-bridge (https://github.com/provable-things/ethereum-bridge)\r\n        OAR = OracleAddrResolverI(0x6f485C8BF6fc43eA212E93BBF8ce046C7f1cb475); \r\n        provable_setProof(proofType_TLSNotary | proofStorage_IPFS);\r\n        provable_setCustomGasPrice(4000000000); // i.e. 4 GWei\r\n    }\r\n\r\n    function initialize(address _factory) external initializer{\r\n        require(address(factory)==address(0x0));\r\n        factory = ViaFactory(_factory);\r\n    }                              \r\n\r\n    function __callback(\r\n        bytes32 _myid,\r\n        string memory _result,\r\n        bytes memory _proof\r\n    )\r\n        public \r\n    {\r\n        //to do : lines below throw error\r\n        require(msg.sender == provable_cbAddress());\r\n\r\n        bytes32 callbackId = _myid;\r\n        params memory mpramas = pendingQueries[_myid];\r\n        delete pendingQueries[_myid];\r\n\r\n        if(mpramas.callbackId!=\"\")\r\n            callbackId = mpramas.callbackId;\r\n\r\n        emit LogResult(mpramas.caller, callbackId, mpramas.tokenType, mpramas.rateType, _result);\r\n        \r\n        if(mpramas.tokenType == \"Cash\"){\r\n            ViaCash(mpramas.caller).convert(callbackId, ABDKMathQuad.fromUInt(_result.stringToUint()), mpramas.rateType);\r\n        }\r\n        else if(mpramas.tokenType == \"Bond\"){\r\n            ViaBond(mpramas.caller).convert(callbackId, ABDKMathQuad.fromUInt(_result.stringToUint()), mpramas.rateType);\r\n        }\r\n        else if(mpramas.tokenType == \"EthCash\"){\r\n            ViaCash(mpramas.caller).convert(callbackId, ABDKMathQuad.fromUInt(_result.stringToUint()), mpramas.rateType);\r\n        }\r\n        else if(mpramas.tokenType == \"EthBond\"){\r\n            ViaBond(mpramas.caller).convert(callbackId, ABDKMathQuad.fromUInt(_result.stringToUint()), mpramas.rateType);\r\n        }\r\n    }\r\n\r\n    function request(bytes32 _currency, bytes32 _ratetype, bytes32 _tokenType, address payable _tokenContract)\r\n        external\r\n        payable\r\n        returns (bytes32)\r\n    {  \r\n        require(factory.getType(msg.sender) == \"ViaCash\" || factory.getType(msg.sender) == \"ViaBond\");\r\n        if (provable_getPrice(\"URL\", CUSTOM_GASLIMIT) > address(this).balance) {\r\n            emit LogNewProvableQuery(\"Provable query was NOT sent, please add some ETH to cover for the query fee!\");\r\n        } else {\r\n            string memory currency = _currency.bytes32ToString();\r\n            if(_ratetype == \"er\" || _ratetype == \"ver\"){\r\n                bytes32 queryId = provable_query(\"URL\", string(abi.encodePacked(\"json(https://via-oracle.azurewebsites.net/rates/er/\",currency,\").rate\")),CUSTOM_GASLIMIT);  \r\n                //bytes32 queryId = provable_query(\"URL\", \"json(https://via-oracle.azurewebsites.net/rates/er/Via_USD_to_Via_EUR).rate\",CUSTOM_GASLIMIT);\r\n                pendingQueries[queryId] = params(_tokenContract, _tokenType, _ratetype,\"\");\r\n                emit LogNewProvableQuery(string(abi.encodePacked(\"Provable query was sent for Via exchange rates for \",_currency)));\r\n                return queryId;\r\n            }\r\n            else if(_ratetype == \"ir\"){\r\n                bytes32 queryId = provable_query(\"URL\", string(abi.encodePacked(\"json(https://via-oracle.azurewebsites.net/rates/ir/\",_currency,\").rate\")),CUSTOM_GASLIMIT);\r\n                pendingQueries[queryId] = params(_tokenContract, _tokenType, _ratetype,\"\");\r\n                emit LogNewProvableQuery(string(abi.encodePacked(\"Provable query was sent for Via interest rates for \",_currency)));\r\n                return queryId;\r\n            }\r\n            else if(_ratetype == \"ethusd\"){\r\n                bytes32 queryId = provable_query(\"URL\", \"json(https://api.pro.coinbase.com/products/ETH-USD/ticker).price\",CUSTOM_GASLIMIT);\r\n                pendingQueries[queryId] = params(_tokenContract, _tokenType, _ratetype,\"\");\r\n                emit LogNewProvableQuery(string(abi.encodePacked(\"Provable query was sent for ETH-USD, standing by for the answer...\")));\r\n                return queryId;\r\n            }\r\n        }        \r\n    }\r\n\r\n    function setCallbackId(bytes32 _queryId, bytes32 _callbackId) external {\r\n        require(pendingQueries[_queryId].caller==msg.sender);\r\n        pendingQueries[_queryId].callbackId = _callbackId;\r\n    }\r\n\r\n    \r\n    //payout fiat\r\n    function payOut(bytes32 _currency, bytes16 _amount) external {\r\n        require(factory.getType(msg.sender) == \"ViaCash\");\r\n        if (provable_getPrice(\"URL\", CUSTOM_GASLIMIT) > address(this).balance) {\r\n            emit LogNewProvableQuery(\"Provable query was NOT sent, please add some ETH to cover for the query fee!\");\r\n        } else {\r\n            string memory currency = _currency.bytes32ToString();\r\n            bytes32 queryId = provable_query(\"URL\", string(abi.encodePacked(\"json(https://via-oracle.azurewebsites.net/payout/\",currency,\").pay\")),CUSTOM_GASLIMIT);  \r\n            emit LogNewProvableQuery(string(abi.encodePacked(\"Provable query was sent for paying out \",_currency)));\r\n        }      \r\n    }\r\n\r\n}",
  "sourcePath": "D:/verified/via-issuer/contracts/oraclize/ViaOracle.sol",
  "compiler": {
    "name": "solc",
    "version": "0.5.7+commit.6da8b019.Emscripten.clang"
  },
  "schemaVersion": "3.3.2",
  "updatedAt": "2021-01-01T16:27:51.436Z",
  "devdoc": {
    "methods": {
      "__callback(bytes32,string)": {
        "details": "The following `__callback` functions are just placeholders ideally\r     meant to be defined in child contract when proofs are used.\r     The function bodies simply silence compiler warnings.\r"
      }
    }
  },
  "userdoc": {
    "methods": {}
  }
}