{
  "contractName": "ViaOracle",
  "abi": [
    {
      "constant": true,
      "inputs": [
        {
          "name": "",
          "type": "bytes32"
        }
      ],
      "name": "pendingQueries",
      "outputs": [
        {
          "name": "caller",
          "type": "address"
        },
        {
          "name": "tokenType",
          "type": "bytes32"
        },
        {
          "name": "rateType",
          "type": "bytes32"
        }
      ],
      "payable": false,
      "stateMutability": "view",
      "type": "function"
    },
    {
      "inputs": [],
      "payable": true,
      "stateMutability": "payable",
      "type": "constructor"
    },
    {
      "anonymous": false,
      "inputs": [
        {
          "indexed": false,
          "name": "description",
          "type": "string"
        }
      ],
      "name": "LogNewProvableQuery",
      "type": "event"
    },
    {
      "anonymous": false,
      "inputs": [
        {
          "indexed": false,
          "name": "caller",
          "type": "address"
        },
        {
          "indexed": false,
          "name": "myid",
          "type": "bytes32"
        },
        {
          "indexed": false,
          "name": "tokenType",
          "type": "bytes32"
        },
        {
          "indexed": false,
          "name": "rateType",
          "type": "bytes32"
        },
        {
          "indexed": false,
          "name": "result",
          "type": "string"
        }
      ],
      "name": "LogResult",
      "type": "event"
    },
    {
      "constant": false,
      "inputs": [
        {
          "name": "_myid",
          "type": "bytes32"
        },
        {
          "name": "_result",
          "type": "string"
        }
      ],
      "name": "__callback",
      "outputs": [],
      "payable": false,
      "stateMutability": "nonpayable",
      "type": "function"
    },
    {
      "constant": false,
      "inputs": [
        {
          "name": "_myid",
          "type": "bytes32"
        },
        {
          "name": "_result",
          "type": "string"
        },
        {
          "name": "_proof",
          "type": "bytes"
        }
      ],
      "name": "__callback",
      "outputs": [],
      "payable": false,
      "stateMutability": "nonpayable",
      "type": "function"
    },
    {
      "constant": false,
      "inputs": [
        {
          "name": "_currency",
          "type": "bytes32"
        },
        {
          "name": "_ratetype",
          "type": "bytes32"
        },
        {
          "name": "_tokenType",
          "type": "bytes32"
        },
        {
          "name": "_tokenContract",
          "type": "address"
        }
      ],
      "name": "request",
      "outputs": [
        {
          "name": "",
          "type": "bytes32"
        }
      ],
      "payable": true,
      "stateMutability": "payable",
      "type": "function"
    }
  ],
  "bytecode": "0x6080604052600180546001600160a01b031916736f485c8bf6fc43ea212e93bbf8ce046c7f1cb4751790556200005c7f110000000000000000000000000000000000000000000000000000000000000062000077602090811b901c565b6200007163ee6b28006200029860201b60201c565b62000981565b6001546001600160a01b03161580620000ab5750600154620000a9906001600160a01b03166200047c602090811b901c565b155b15620000c557620000c360006200048060201b60201c565b505b600160009054906101000a90046001600160a01b03166001600160a01b03166338cc48316040518163ffffffff1660e01b8152600401602060405180830381600087803b1580156200011657600080fd5b505af11580156200012b573d6000803e3d6000fd5b505050506040513d60208110156200014257600080fd5b50516000546001600160a01b03908116911614620001f957600160009054906101000a90046001600160a01b03166001600160a01b03166338cc48316040518163ffffffff1660e01b8152600401602060405180830381600087803b158015620001ab57600080fd5b505af1158015620001c0573d6000803e3d6000fd5b505050506040513d6020811015620001d757600080fd5b5051600080546001600160a01b0319166001600160a01b039092169190911790555b60008054604080517f688dcfd70000000000000000000000000000000000000000000000000000000081527fff000000000000000000000000000000000000000000000000000000000000008516600482015290516001600160a01b039092169263688dcfd79260248084019382900301818387803b1580156200027c57600080fd5b505af115801562000291573d6000803e3d6000fd5b5050505050565b6001546001600160a01b03161580620002cc5750600154620002ca906001600160a01b03166200047c602090811b901c565b155b15620002e657620002e460006200048060201b60201c565b505b600160009054906101000a90046001600160a01b03166001600160a01b03166338cc48316040518163ffffffff1660e01b8152600401602060405180830381600087803b1580156200033757600080fd5b505af11580156200034c573d6000803e3d6000fd5b505050506040513d60208110156200036357600080fd5b50516000546001600160a01b039081169116146200041a57600160009054906101000a90046001600160a01b03166001600160a01b03166338cc48316040518163ffffffff1660e01b8152600401602060405180830381600087803b158015620003cc57600080fd5b505af1158015620003e1573d6000803e3d6000fd5b505050506040513d6020811015620003f857600080fd5b5051600080546001600160a01b0319166001600160a01b039092169190911790555b60008054604080517fca6ad1e40000000000000000000000000000000000000000000000000000000081526004810185905290516001600160a01b039092169263ca6ad1e49260248084019382900301818387803b1580156200027c57600080fd5b3b90565b6000620004926200049860201b60201c565b92915050565b600080620004c0731d3b2638a7cc9f2cb3d298a3da7a90b67e5506ed6200047c60201b60201c565b11156200053e57600180546001600160a01b031916731d3b2638a7cc9f2cb3d298a3da7a90b67e5506ed17905560408051808201909152600b81527f6574685f6d61696e6e6574000000000000000000000000000000000000000000602080830191909152620005359190620008c6811b901c565b506001620008c3565b60006200056573c03a2615d5efaf5f49f60b7bb6583eaec212fdf16200047c60201b60201c565b1115620005da57600180546001600160a01b03191673c03a2615d5efaf5f49f60b7bb6583eaec212fdf117905560408051808201909152600c81527f6574685f726f707374656e330000000000000000000000000000000000000000602080830191909152620005359190620008c6811b901c565b60006200060173b7a07bcf2ba2f2703b24c0691b5278999c59ac7e6200047c60201b60201c565b11156200067657600180546001600160a01b03191673b7a07bcf2ba2f2703b24c0691b5278999c59ac7e17905560408051808201909152600981527f6574685f6b6f76616e0000000000000000000000000000000000000000000000602080830191909152620005359190620008c6811b901c565b60006200069d73146500cfd35b22e4a392fe0adc06de1a1368ed486200047c60201b60201c565b11156200071257600180546001600160a01b03191673146500cfd35b22e4a392fe0adc06de1a1368ed4817905560408051808201909152600b81527f6574685f72696e6b656279000000000000000000000000000000000000000000602080830191909152620005359190620008c6811b901c565b60006200073973a2998efd205fb9d4b4963afb70778d6354ad3a416200047c60201b60201c565b1115620007ae57600180546001600160a01b03191673a2998efd205fb9d4b4963afb70778d6354ad3a4117905560408051808201909152600a81527f6574685f676f65726c6900000000000000000000000000000000000000000000602080830191909152620005359190620008c6811b901c565b6000620007d5736f485c8bf6fc43ea212e93bbf8ce046c7f1cb4756200047c60201b60201c565b1115620008095750600180546001600160a01b031916736f485c8bf6fc43ea212e93bbf8ce046c7f1cb475178155620008c3565b6000620008307320e12a1f859b3feae5fb2a0a32c18f5a65555bbf6200047c60201b60201c565b1115620008645750600180546001600160a01b0319167320e12a1f859b3feae5fb2a0a32c18f5a65555bbf178155620008c3565b60006200088b7351efaf4c8b3c9afbd5ab9f4bbc82784ab6ef8faa6200047c60201b60201c565b1115620008bf5750600180546001600160a01b0319167351efaf4c8b3c9afbd5ab9f4bbc82784ab6ef8faa178155620008c3565b5060005b90565b8051620008db906002906020840190620008df565b5050565b828054600181600116156101000203166002900490600052602060002090601f016020900481019282601f106200092257805160ff191683800117855562000952565b8280016001018555821562000952579182015b828111156200095257825182559160200191906001019062000935565b506200096092915062000964565b5090565b620008c391905b808211156200096057600081556001016200096b565b611d3680620009916000396000f3fe60806040526004361061003f5760003560e01c806327dc297e1461004457806338bbfa50146100fe5780636069d8a71461023b57806389a2cdcb14610285575b600080fd5b34801561005057600080fd5b506100fc6004803603604081101561006757600080fd5b81359190810190604081016020820135600160201b81111561008857600080fd5b82018360208201111561009a57600080fd5b803590602001918460018302840111600160201b831117156100bb57600080fd5b91908080601f0160208091040260200160405190810160405280939291908181526020018383808284376000920191909152509295506102d7945050505050565b005b34801561010a57600080fd5b506100fc6004803603606081101561012157600080fd5b81359190810190604081016020820135600160201b81111561014257600080fd5b82018360208201111561015457600080fd5b803590602001918460018302840111600160201b8311171561017557600080fd5b91908080601f0160208091040260200160405190810160405280939291908181526020018383808284376000920191909152509295949360208101935035915050600160201b8111156101c757600080fd5b8201836020820111156101d957600080fd5b803590602001918460018302840111600160201b831117156101fa57600080fd5b91908080601f0160208091040260200160405190810160405280939291908181526020018383808284376000920191909152509295506102f7945050505050565b6102736004803603608081101561025157600080fd5b50803590602081013590604081013590606001356001600160a01b031661085a565b60408051918252519081900360200190f35b34801561029157600080fd5b506102af600480360360208110156102a857600080fd5b5035610dc4565b604080516001600160a01b039094168452602084019290925282820152519081900360600190f35b6040805160008152602081019091526102f390839083906102f7565b5050565b6102ff610def565b6001600160a01b0316336001600160a01b03161461031c57600080fd5b60008381526005602090815260408083208054600182015460029092015483516001600160a01b039092168083528286018a90529382018390526060820181905260a06080830181815289519184019190915288517f6122fd11e571fc97247892b733e9287d1d0264feefed58c5f87f454f87a560b09795968b9693948b9490939260c08501928601918190849084905b838110156103c55781810151838201526020016103ad565b50505050905090810190601f1680156103f25780820380516001836020036101000a031916815260200191505b50965050505050505060405180910390a1600083815260056020526040902060010154600160e31b63086c2e6d0214156105b4576000838152600560209081526040808320549051600160e01b631bd95155028152600481018381528651602483015286516001600160a01b039093169485946321f68b4e948a946105379473__stringutils___________________________94631bd95155948d9492938493604490910192918601918190849084905b838110156104bc5781810151838201526020016104a4565b50505050905090810190601f1680156104e95780820380516001836020036101000a031916815260200191505b509250505060206040518083038186803b15801561050657600080fd5b505af415801561051a573d6000803e3d6000fd5b505050506040513d602081101561053057600080fd5b5051610fd9565b60008881526005602052604080822060020154815163ffffffff871660e01b815260048101959095526001600160801b031990931660248501526044840192909252905160648084019382900301818387803b15801561059657600080fd5b505af11580156105aa573d6000803e3d6000fd5b5050505050610855565b600083815260056020526040902060010154600160e21b63109bdb9902141561066a576000838152600560209081526040808320549051600160e01b631bd95155028152600481018381528651602483015286516001600160a01b039093169485946321f68b4e948a946105379473__stringutils___________________________94631bd95155948d94929384936044909101929186019181908490849083156104bc5781810151838201526020016104a4565b600083815260056020526040902060010154600160cb1b6608ae8d086c2e6d021415610723576000838152600560209081526040808320549051600160e01b631bd95155028152600481018381528651602483015286516001600160a01b039093169485946321f68b4e948a946105379473__stringutils___________________________94631bd95155948d94929384936044909101929186019181908490849083156104bc5781810151838201526020016104a4565b600083815260056020526040902060010154600160ca1b66115d1a109bdb99021415610855576000838152600560209081526040808320549051600160e01b631bd95155028152600481018381528651602483015286516001600160a01b039093169485946321f68b4e948a946107dc9473__stringutils___________________________94631bd95155948d94929384936044909101929186019181908490849083156104bc5781810151838201526020016104a4565b60008881526005602052604080822060020154815163ffffffff871660e01b815260048101959095526001600160801b031990931660248501526044840192909252905160648084019382900301818387803b15801561083b57600080fd5b505af115801561084f573d6000803e3d6000fd5b50505050505b505050565b6000306001600160a01b031631610892604051806040016040528060038152602001600160ea1b62155493028152506207a120611046565b11156108d657600080516020611b8583398151915260405180806020018281038252604c815260200180611b39604c913960600191505060405180910390a1610dbc565b83600160f11b6132b90214806108f4575083600160e91b623b32b902145b15610afd576000610965604051806040016040528060038152602001600160ea1b6215549302815250876040516020018080611ba56033913960330182815260200180600160d01b65292e72617465028152506006019150506040516020818303038152906040526207a1206112a1565b604080516060810182526001600160a01b03868116825260208083018981528385018b8152600087815260058452869020945185546001600160a01b031916941693909317845551600184015590516002909201919091559051919250600080516020611b85833981519152918391879189918b910180603f611c8c8239603f810195909552506001609d1b6c0103a37b5b2b7103a3cb8329e902605f850152606c840192909252600160a51b6b0103930ba32903a3cb8329e902608c8401526098830152600160ad1b6a01031bab93932b731bc9e90260b883015260c38201527f207374616e64696e6720627920666f722074686520616e737765722e2e2e000060e38201526040805160e1818403018152610101830191829052602080835281516101218501528151919383926101419091019185019080838360005b83811015610abc578181015183820152602001610aa4565b50505050905090810190601f168015610ae95780820380516001836020036101000a031916815260200191505b509250505060405180910390a19050610dbc565b83600160f11b6134b9021415610ccd576000610b79604051806040016040528060038152602001600160ea1b6215549302815250876040516020018080611c596033913960330182815260200180600160d01b65292e72617465028152506006019150506040516020818303038152906040526207a1206112a1565b604080516060810182526001600160a01b03868116825260208083018981528385018b8152600087815260058452869020945185546001600160a01b031916941693909317845551600184015590516002909201919091559051919250600080516020611b85833981519152918391879189918b910180603f611c1a8239603f810195909552506001609d1b6c0103a37b5b2b7103a3cb8329e902605f850152606c840192909252600160a51b6b0103930ba32903a3cb8329e902608c8401526098830152600160ad1b6a01031bab93932b731bc9e90260b883015260c38201527f207374616e64696e6720627920666f722074686520616e737765722e2e2e000060e38201526040805180830360e1018152610101830191829052602080835281516101218501528151919383926101419091019185019080838360008315610abc578181015183820152602001610aa4565b83600160d21b65195d1a1d5cd9021415610dbc576000610d27604051806040016040528060038152602001600160ea1b6215549302815250604051806060016040528060408152602001611ccb604091396207a1206112a1565b604080516060810182526001600160a01b03868116825260208083018981528385018b8152600087815260058452869020945185546001600160a01b0319169416939093178455516001840155905160029092019190915581518181526042918101829052929350600080516020611b858339815191529291829190820190611bd8823960600191505060405180910390a190505b949350505050565b6005602052600090815260409020805460018201546002909201546001600160a01b03909116919083565b6001546000906001600160a01b03161580610e1c5750600154610e1a906001600160a01b0316611671565b155b15610e2d57610e2b6000611675565b505b600160009054906101000a90046001600160a01b03166001600160a01b03166338cc48316040518163ffffffff1660e01b8152600401602060405180830381600087803b158015610e7d57600080fd5b505af1158015610e91573d6000803e3d6000fd5b505050506040513d6020811015610ea757600080fd5b50516000546001600160a01b03908116911614610f5a57600160009054906101000a90046001600160a01b03166001600160a01b03166338cc48316040518163ffffffff1660e01b8152600401602060405180830381600087803b158015610f0e57600080fd5b505af1158015610f22573d6000803e3d6000fd5b505050506040513d6020811015610f3857600080fd5b5051600080546001600160a01b0319166001600160a01b039092169190911790555b6000809054906101000a90046001600160a01b03166001600160a01b031663c281d19e6040518163ffffffff1660e01b815260040160206040518083038186803b158015610fa757600080fd5b505afa158015610fbb573d6000803e3d6000fd5b505050506040513d6020811015610fd157600080fd5b505190505b90565b600081610fe857506000611041565b816000610ff482611685565b9050607081101561100d578060700382901b9150611020565b6070811115611020576070810382901c91505b613fff0160701b6dffffffffffffffffffffffffffff919091161760801b90505b919050565b6001546000906001600160a01b031615806110735750600154611071906001600160a01b0316611671565b155b15611084576110826000611675565b505b600160009054906101000a90046001600160a01b03166001600160a01b03166338cc48316040518163ffffffff1660e01b8152600401602060405180830381600087803b1580156110d457600080fd5b505af11580156110e8573d6000803e3d6000fd5b505050506040513d60208110156110fe57600080fd5b50516000546001600160a01b039081169116146111b157600160009054906101000a90046001600160a01b03166001600160a01b03166338cc48316040518163ffffffff1660e01b8152600401602060405180830381600087803b15801561116557600080fd5b505af1158015611179573d6000803e3d6000fd5b505050506040513d602081101561118f57600080fd5b5051600080546001600160a01b0319166001600160a01b039092169190911790555b6000805460408051600160e21b630bbceb3302815260248101869052600481019182528651604482015286516001600160a01b0390931693632ef3accc93889388939092839260649092019160208701918190849084905b83811015611221578181015183820152602001611209565b50505050905090810190601f16801561124e5780820380516001836020036101000a031916815260200191505b509350505050602060405180830381600087803b15801561126e57600080fd5b505af1158015611282573d6000803e3d6000fd5b505050506040513d602081101561129857600080fd5b50519392505050565b6001546000906001600160a01b031615806112ce57506001546112cc906001600160a01b0316611671565b155b156112df576112dd6000611675565b505b600160009054906101000a90046001600160a01b03166001600160a01b03166338cc48316040518163ffffffff1660e01b8152600401602060405180830381600087803b15801561132f57600080fd5b505af1158015611343573d6000803e3d6000fd5b505050506040513d602081101561135957600080fd5b50516000546001600160a01b0390811691161461140c57600160009054906101000a90046001600160a01b03166001600160a01b03166338cc48316040518163ffffffff1660e01b8152600401602060405180830381600087803b1580156113c057600080fd5b505af11580156113d4573d6000803e3d6000fd5b505050506040513d60208110156113ea57600080fd5b5051600080546001600160a01b0319166001600160a01b039092169190911790555b6000805460408051600160e21b630bbceb3302815260248101869052600481019182528751604482015287516001600160a01b0390931692632ef3accc928992889282916064019060208601908083838c5b8381101561147657818101518382015260200161145e565b50505050905090810190601f1680156114a35780820380516001836020036101000a031916815260200191505b509350505050602060405180830381600087803b1580156114c357600080fd5b505af11580156114d7573d6000803e3d6000fd5b505050506040513d60208110156114ed57600080fd5b50519050670de0b6b3a76400003a84020181111561150f57506000905061166a565b60008054604051600160e01b63c51be90f02815260048101838152606482018790526080602483019081528951608484015289516001600160a01b039094169463c51be90f94879491938c938c938c93604482019160a4019060208801908083838c5b8381101561158a578181015183820152602001611572565b50505050905090810190601f1680156115b75780820380516001836020036101000a031916815260200191505b50838103825285518152855160209182019187019080838360005b838110156115ea5781810151838201526020016115d2565b50505050905090810190601f1680156116175780820380516001836020036101000a031916815260200191505b5096505050505050506020604051808303818588803b15801561163957600080fd5b505af115801561164d573d6000803e3d6000fd5b50505050506040513d602081101561166457600080fd5b50519150505b9392505050565b3b90565b600061167f611727565b92915050565b600080821161169357600080fd5b6000600160801b83106116a857608092831c92015b6801000000000000000083106116c057604092831c92015b600160201b83106116d357602092831c92015b6201000083106116e557601092831c92015b61010083106116f657600892831c92015b6010831061170657600492831c92015b6004831061171657600292831c92015b6002831061167f5760010192915050565b600080611747731d3b2638a7cc9f2cb3d298a3da7a90b67e5506ed611671565b11156117a957600180546001600160a01b031916731d3b2638a7cc9f2cb3d298a3da7a90b67e5506ed17905560408051808201909152600b8152600160aa1b6a195d1a17db585a5b9b995d0260208201526117a190611a92565b506001610fd6565b60006117c873c03a2615d5efaf5f49f60b7bb6583eaec212fdf1611671565b111561183157600180546001600160a01b03191673c03a2615d5efaf5f49f60b7bb6583eaec212fdf117905560408051808201909152600c81527f6574685f726f707374656e33000000000000000000000000000000000000000060208201526117a190611a92565b600061185073b7a07bcf2ba2f2703b24c0691b5278999c59ac7e611671565b11156118a857600180546001600160a01b03191673b7a07bcf2ba2f2703b24c0691b5278999c59ac7e1790556040805180820190915260098152600160b91b6832ba342fb5b7bb30b70260208201526117a190611a92565b60006118c773146500cfd35b22e4a392fe0adc06de1a1368ed48611671565b111561192157600180546001600160a01b03191673146500cfd35b22e4a392fe0adc06de1a1368ed4817905560408051808201909152600b8152600160a81b6a6574685f72696e6b6562790260208201526117a190611a92565b600061194073a2998efd205fb9d4b4963afb70778d6354ad3a41611671565b111561199957600180546001600160a01b03191673a2998efd205fb9d4b4963afb70778d6354ad3a4117905560408051808201909152600a8152600160b01b696574685f676f65726c690260208201526117a190611a92565b60006119b8736f485c8bf6fc43ea212e93bbf8ce046c7f1cb475611671565b11156119ea5750600180546001600160a01b031916736f485c8bf6fc43ea212e93bbf8ce046c7f1cb475178155610fd6565b6000611a097320e12a1f859b3feae5fb2a0a32c18f5a65555bbf611671565b1115611a3b5750600180546001600160a01b0319167320e12a1f859b3feae5fb2a0a32c18f5a65555bbf178155610fd6565b6000611a5a7351efaf4c8b3c9afbd5ab9f4bbc82784ab6ef8faa611671565b1115611a8c5750600180546001600160a01b0319167351efaf4c8b3c9afbd5ab9f4bbc82784ab6ef8faa178155610fd6565b50600090565b80516102f3906002906020840190828054600181600116156101000203166002900490600052602060002090601f016020900481019282601f10611ae157805160ff1916838001178555611b0e565b82800160010185558215611b0e579182015b82811115611b0e578251825591602001919060010190611af3565b50611b1a929150611b1e565b5090565b610fd691905b80821115611b1a5760008155600101611b2456fe50726f7661626c6520717565727920776173204e4f542073656e742c20706c656173652061646420736f6d652045544820746f20636f76657220666f72207468652071756572792066656521c4dc360d0a9c0677a3379ae0a3d81e887f761e65fdf3d7e00859d1bcd3c473896a736f6e2868747470733a2f2f7669612d6f7261636c652e617a75726577656273697465732e6e65742f72617465732f65722f50726f7661626c65207175657279207761732073656e7420666f72204554482d5553442c207374616e64696e6720627920666f722074686520616e737765722e2e2e50726f7661626c65207175657279207761732073656e7420666f722056696120696e7465726573742072617465732c20776974682071756572792069643d206a736f6e2868747470733a2f2f7669612d6f7261636c652e617a75726577656273697465732e6e65742f72617465732f69722f50726f7661626c65207175657279207761732073656e7420666f72205669612065786368616e67652072617465732c20776974682071756572792069643d206a736f6e2868747470733a2f2f6170692e70726f2e636f696e626173652e636f6d2f70726f64756374732f4554482d5553442f7469636b6572292e7072696365a165627a7a72305820210a7d7a5bfd38158eb40ee7491457bea501977a138b4eea33c3aa0a93795ca00029",
  "source": "//(c) Kallol Borah, 2020\r\n// Via oracle client\r\n\r\npragma solidity >=0.5.0 <0.7.0;\r\n\r\nimport \"./provableAPI.sol\";\r\nimport \"../utilities/StringUtils.sol\";\r\nimport \"../Cash.sol\";\r\nimport \"../Bond.sol\";\r\nimport \"abdk-libraries-solidity/ABDKMathQuad.sol\";\r\n\r\ncontract ViaOracle is usingProvable {\r\n\r\n    using stringutils for *;\r\n\r\n    using ABDKMathQuad for uint256;\r\n    using ABDKMathQuad for int256;\r\n    using ABDKMathQuad for bytes16;\r\n\r\n    struct params{\r\n        address payable caller;\r\n        bytes32 tokenType;\r\n        bytes32 rateType;\r\n    }\r\n\r\n    uint constant CUSTOM_GASLIMIT = 500000;\r\n\r\n    mapping (bytes32 => params) public pendingQueries;\r\n\r\n    event LogNewProvableQuery(string description);\r\n    event LogResult(address payable caller, bytes32 myid, bytes32 tokenType, bytes32 rateType, string result);\r\n\r\n    constructor()\r\n        public\r\n        payable\r\n    {\r\n        // note : replace OAR if you are testing Oracle with ethereum-bridge (https://github.com/provable-things/ethereum-bridge)\r\n        OAR = OracleAddrResolverI(0x6f485C8BF6fc43eA212E93BBF8ce046C7f1cb475); \r\n        provable_setProof(proofType_TLSNotary | proofStorage_IPFS);\r\n        provable_setCustomGasPrice(4000000000); // i.e. 4 GWei\r\n    }                              \r\n\r\n    function __callback(\r\n        bytes32 _myid,\r\n        string memory _result,\r\n        bytes memory _proof\r\n    )\r\n        public \r\n    {\r\n        //to do : lines below throw error\r\n        require(msg.sender == provable_cbAddress());\r\n        //require (pendingQueries[_myid].tokenType == \"Cash\" || pendingQueries[_myid].tokenType == \"Bond\"\r\n        //    || pendingQueries[_myid].tokenType == \"EthCash\" || pendingQueries[_myid].tokenType == \"EthBond\");\r\n\r\n        emit LogResult(pendingQueries[_myid].caller, _myid, pendingQueries[_myid].tokenType, pendingQueries[_myid].rateType, _result);\r\n        \r\n        if(pendingQueries[_myid].tokenType == \"Cash\"){\r\n            Cash cash = Cash(pendingQueries[_myid].caller);\r\n            cash.convert(_myid, ABDKMathQuad.fromUInt(_result.stringToUint()), pendingQueries[_myid].rateType);\r\n        }\r\n        else if(pendingQueries[_myid].tokenType == \"Bond\"){\r\n            Bond bond = Bond(pendingQueries[_myid].caller);\r\n            bond.convert(_myid, ABDKMathQuad.fromUInt(_result.stringToUint()), pendingQueries[_myid].rateType);\r\n        }\r\n        else if(pendingQueries[_myid].tokenType == \"EthCash\"){\r\n            Cash cash = Cash(pendingQueries[_myid].caller);\r\n            cash.convert(_myid, ABDKMathQuad.fromUInt(_result.stringToUint()), pendingQueries[_myid].rateType);\r\n        }\r\n        else if(pendingQueries[_myid].tokenType == \"EthBond\"){\r\n            Bond bond = Bond(pendingQueries[_myid].caller);\r\n            bond.convert(_myid, ABDKMathQuad.fromUInt(_result.stringToUint()), pendingQueries[_myid].rateType);\r\n        }\r\n\r\n        //delete pendingQueries[_myid]; \r\n    }\r\n\r\n    function request(bytes32 _currency, bytes32 _ratetype, bytes32 _tokenType, address payable _tokenContract)\r\n        public\r\n        payable\r\n        returns (bytes32)\r\n    {  \r\n        if (provable_getPrice(\"URL\", CUSTOM_GASLIMIT) > address(this).balance) {\r\n            emit LogNewProvableQuery(\"Provable query was NOT sent, please add some ETH to cover for the query fee!\");\r\n        } else {\r\n            if(_ratetype == \"er\" || _ratetype == \"ver\"){\r\n                bytes32 queryId = provable_query(\"URL\", string(abi.encodePacked(\"json(https://via-oracle.azurewebsites.net/rates/er/\",_currency,\").rate\")),CUSTOM_GASLIMIT);  \r\n                pendingQueries[queryId] = params(_tokenContract, _tokenType, _ratetype);\r\n                emit LogNewProvableQuery(string(abi.encodePacked(\"Provable query was sent for Via exchange rates, with query id= \",queryId,\r\n                                        \" token type= \",_tokenType,\" rate type= \",_ratetype,\" currency= \", \r\n                                        _currency,\" standing by for the answer...\")));\r\n                return queryId;\r\n            }\r\n            else if(_ratetype == \"ir\"){\r\n                bytes32 queryId = provable_query(\"URL\", string(abi.encodePacked(\"json(https://via-oracle.azurewebsites.net/rates/ir/\",_currency,\").rate\")),CUSTOM_GASLIMIT);\r\n                pendingQueries[queryId] = params(_tokenContract, _tokenType, _ratetype);\r\n                emit LogNewProvableQuery(string(abi.encodePacked(\"Provable query was sent for Via interest rates, with query id= \",queryId,\r\n                                        \" token type= \",_tokenType,\" rate type= \",_ratetype,\" currency= \", \r\n                                        _currency,\" standing by for the answer...\")));\r\n                return queryId;\r\n            }\r\n            else if(_ratetype == \"ethusd\"){\r\n                bytes32 queryId = provable_query(\"URL\", \"json(https://api.pro.coinbase.com/products/ETH-USD/ticker).price\",CUSTOM_GASLIMIT);\r\n                pendingQueries[queryId] = params(_tokenContract, _tokenType, _ratetype);\r\n                emit LogNewProvableQuery(\"Provable query was sent for ETH-USD, standing by for the answer...\");\r\n                return queryId;\r\n            }\r\n        }        \r\n    }\r\n}",
  "sourcePath": "D:\\verified\\via-issuer\\contracts\\oraclize\\ViaOracle.sol",
  "compiler": {
    "name": "solc",
    "version": "0.5.7+commit.6da8b019.Emscripten.clang"
  },
  "schemaVersion": "3.2.5",
  "updatedAt": "2020-10-14T16:31:43.699Z",
  "devdoc": {
    "methods": {
      "__callback(bytes32,string)": {
        "details": "The following `__callback` functions are just placeholders ideally\r     meant to be defined in child contract when proofs are used.\r     The function bodies simply silence compiler warnings.\r"
      }
    }
  },
  "userdoc": {
    "methods": {}
  }
}